:1000000016C1000045C1000043C1000041C100000D
:100010003FC100003DC100003BC1000039C10000EC
:1000200037C1000035C1000033C1000031C10000FC
:100030002FC100007BC400002BC1000029C10000BB
:1000400027C1000025C1000023C1000021C100001C
:100050001FC100001DC100001BC1000059C50000E8
:1000600017C1000093C3000068C3000011C1000065
:100070000FC100000DC100000BC1000009C100004C
:1000800007C1000005C1000003C1000001C100005C
:10009000FFC00000FDC00000FBC00000F9C0000070
:1000A000F7C00000F5C00000F3C00000F1C0000080
:1000B000EFC00000EDC00000EBC00000E9C0000090
:1000C000E7C00000E5C00000E3C00000E1C00000A0
:1000D000DFC00000DDC00000DBC00000D9C00000B0
:1000E000D7C000008602890278027C028202C00228
:1000F0008D02910297029B029F02A502A902AD0206
:10010000C002B302B702BB02000021002400270096
:100110002A002D0030003300010100000401070116
:100120000A01000020002300260029002C002F00D7
:1001300032000001000003010601090100000A0B62
:1001400002090C0D0E080703040100000000000066
:10015000000000000000000000000000000000009F
:10016000000000000000000012111000000000005C
:10017000000000000000000000000000000000007F
:1001800000000102102020080810204010204080AC
:10019000020102010804020101020408102040804B
:1001A00080402010080402018004020180402010D9
:1001B0000804020108040201010204081020408022
:1001C00001020408102040800000220025002800C1
:1001D0002B002E003100340002010000050108014F
:1001E0000B010505050507050808080802020202BB
:1001F0000A0A0808040404040101010101010101C3
:100200000303030303030303040707070C0C0C0C8D
:100210000C0C0C0C02020202060606060606060676
:100220000B0B0B0B0B0B0B0B0200B4170C10112458
:100230001FBECFEFD1E2DEBFCDBF00E00CBF14E0A8
:10024000A0E0B2E0ECE7FAE300E00BBF02C00790E9
:100250000D92AC39B107D9F725E0ACE9B4E001C0A3
:100260001D92A63FB207E1F711E0C6E1D1E000E040
:1002700006C021970109802FFE010E946418C53134
:10028000D10780E00807A9F70E940F100C942D1DDC
:10029000B7CECF92DF92EF92FF920F931F93CF933F
:1002A000DF936C017A018B01C0E0D0E0CE15DF0551
:1002B00089F0D8016D918D01D601ED91FC910190ED
:1002C000F081E02DC6011995892B11F47E0102C041
:1002D0002196ECCFC701DF91CF911F910F91FF9035
:1002E000EF90DF90CF900895FC01918D828D98174B
:1002F00061F0828DDF01A80FB11D5D968C91928D0A
:100300009F5F9F73928F90E008958FEF9FEF089506
:10031000FC01918D828D981731F0828DE80FF11DCF
:10032000858D90E008958FEF9FEF0895FC01918DEA
:10033000228D892F90E0805C9F4F821B91098F73E3
:100340009927089588E095E0F1DF21E0892B09F4F1
:1003500020E0822F0895FC01848DDF01A80FB11DDC
:10036000A35ABF4F2C91848D90E001968F739927EB
:10037000848FA689B7892C93A089B1898C918064D8
:100380008C93938D848D981306C00288F389E02D99
:1003900080818F7D80830895EF92FF920F931F934A
:1003A000CF93DF93EC0181E0888F9B8D8C8D981328
:1003B00005C0E889F989808185FD23C0F62E0B8D63
:1003C00010E00F5F1F4F0F731127E02E8C8DE81286
:1003D0000BC00FB607FCFACFE889F989808185FF49
:1003E000F5CFCE01B8DFF2CF8B8DFE01E80FF11D06
:1003F000E35AFF4FF0820B8FEA89FB89808180628C
:1004000007C0EE89FF896083E889F989808180646B
:10041000808381E090E0DF91CF911F910F91FF9059
:10042000EF900895CF93DF93EC01888D8823C1F07E
:10043000EA89FB89808185FD05C0A889B9898C91ED
:1004400086FD0EC00FB607FCF5CF808185FFF2CF89
:10045000A889B9898C9185FFEDCFCE017CDFE8CFEB
:10046000DF91CF91089580E090E0892B19F06ADF49
:10047000811125C080E090E0892B41F080E090E080
:10048000892B21F00E94000081111CC080E090E0C7
:10049000892B41F080E090E0892B21F00E94000040
:1004A000811113C080E090E0892BA1F080E090E002
:1004B000892B81F00E94000081110AC008950E94DA
:1004C0000000D8CF0E940000E1CF0E940000EACFD8
:1004D0000C940000089590E0FC013197E231F105A1
:1004E00008F04EC08827EE58FF4F8F4F0C946418C9
:1004F000809180008F7703C0809180008F7D8093F2
:100500008000089580918000877FF9CF84B58F7730
:1005100002C084B58F7D84BD08958091B0008F772F
:1005200003C08091B0008F7D8093B00008958091CA
:1005300090008F7707C0809190008F7D03C08091DD
:100540009000877F8093900008958091A0008F771E
:1005500007C08091A0008F7D03C08091A000877F9D
:100560008093A0000895809120018F7707C080912B
:1005700020018F7D03C080912001877F809320011F
:1005800008953FB7F8948091C5049091C604A09156
:10059000C704B091C80426B5A89B05C02F3F19F029
:1005A0000196A11DB11D3FBFBA2FA92F982F8827F3
:1005B000820F911DA11DB11DBC01CD0142E0660F4E
:1005C000771F881F991F4A95D1F70895DC01ED9197
:1005D000FC91DB0114964D915C9115976D917C9186
:1005E0000280F381E02D19946115710579F0FB010A
:1005F00001900020E9F73197AF01461B570BDC0152
:10060000ED91FC910280F381E02D199480E090E05F
:1006100008954F925F926F927F92EF92FF920F93A5
:100620001F93CF93DF93CDB7DEB7A1970FB6F894A2
:10063000DEBF0FBECDBF7C01FA01CB0119A2223073
:1006400008F42AE08E010F5D1F4F422E512C612CC1
:10065000712CBF01A30192010E942618F901CA0161
:10066000015011096A3014F4605D01C0695CD80161
:100670006C93232B242B252B61F7B801C701B4DF22
:10068000A1960FB6F894DEBF0FBECDBFDF91CF911C
:100690001F910F91FF90EF907F906F905F904F9020
:1006A0000895CF92DF92EF92FF920F931F93CF9313
:1006B000DF93EC016A017B012115310579F4E881B2
:1006C000F9810190F081E02D642FDF91CF911F918E
:1006D0000F91FF90EF90DF90CF9019942A30310561
:1006E00001F577FF1DC0E881F9810190F081E02DCF
:1006F0006DE219958C0144275527BA014C195D0903
:100700006E097F092AE0CE0184DF800F911FDF91FF
:10071000CF911F910F91FF90EF90DF90CF900895B0
:100720002AE0B701A601CE01DF91CF911F910F9171
:10073000FF90EF90DF90CF906CCF1F920F920FB68B
:100740000F9211240BB60F922F933F934F935F9309
:100750006F937F938F939F93AF93BF93EF93FF9389
:1007600088E095E0F8DDFF91EF91BF91AF919F9107
:100770008F917F916F915F914F913F912F910F904A
:100780000BBE0F900FBE0F901F9018951F920F92E7
:100790000FB60F9211240BB60F922F938F939F9346
:1007A000EF93FF93E0911805F09119058081E09196
:1007B0001E05F0911F0582FD12C0908180912105D8
:1007C0008F5F8F7320912205821751F0E0912105F0
:1007D000F0E0E85FFA4F958F8093210501C080819A
:1007E000FF91EF919F918F912F910F900BBE0F90E2
:1007F0000FBE0F901F901895CF93DF93282F30E0F6
:10080000F901E45CFE4F8491F901EE57FE4FD4915B
:10081000F901EE51FE4FC491CC2389F081115BDECA
:10082000EC2FF0E0EE0FFF1FEE5DFE4FA591B491AF
:10083000EC91ED2381E090E021F480E002C080E0C3
:1008400090E0DF91CF9108951F93CF93DF93282FEE
:1008500030E0F901E45CFE4F8491F901EE57FE4F60
:10086000D491F901EE51FE4FC491CC23C1F0162F63
:10087000811131DEEC2FF0E0EE0FFF1FE853FE4F49
:10088000A591B4918FB7F894111105C09C91ED2FEB
:10089000E095E92302C0EC91ED2BEC938FBFDF9143
:1008A000CF911F9108959091120298133DC0E8E2F4
:1008B000F2E0E4919FEF90931202E230C9F050F41D
:1008C000EE2399F0E13081F590916F009D7F909338
:1008D0006F002AC0E43019F1E0F0E53029F590917D
:1008E00073009D7F909373001FC010926E001CC018
:1008F000909170009D7F9093700091E09093B00074
:100900009091B100987F94609093B1001092B300E1
:100910000BC0909171009D7F9093710005C09091E4
:1009200072009D7F9093720060E08ECF1F920F92B5
:100930000FB60F9211240BB60F922F933F934F9344
:100940005F936F937F938F939F93AF93BF93EF9337
:10095000FF938091000590910105A0910205B0914F
:100960000305892B8A2B8B2B51F18091FD04E0919B
:10097000FE04F091FF049081892780838091000517
:1009800090910105A0910205B09103051816190672
:100990001A061B06BCF48091000590910105A091F8
:1009A0000205B09103050197A109B10980930005E3
:1009B00090930105A0930205B093030503C08091B5
:1009C000120271DFFF91EF91BF91AF919F918F91D3
:1009D0007F916F915F914F913F912F910F900BBE3F
:1009E0000F900FBE0F901F901895CF93DF93EC01DF
:1009F00060E08E8129DF61E08E8126DF60E08E81FC
:100A000023DF8BE891E00197F1F7DF91CF91089513
:100A1000CF93DF9390E0FC01EE57FE4F2491FC0151
:100A2000EE51FE4F8491882361F190E0880F991F69
:100A3000FC01E85FFE4FC591D491FC01E853FE4FE5
:100A4000A591B491611109C09FB7F8948881209550
:100A500082238883EC912E230BC0623061F49FB710
:100A6000F8943881822F809583238883EC912E2BF4
:100A70002C939FBF06C08FB7F894E8812E2B288354
:100A80008FBFDF91CF9108958F929F92AF92BF92C7
:100A9000CF92DF92EF92FF926B017C0172DD4B01EE
:100AA0005C01C114D104E104F104E9F06ADDDC0168
:100AB000CB0188199909AA09BB09883E9340A10571
:100AC000B10578F321E0C21AD108E108F10888EEF7
:100AD000880E83E0981EA11CB11CC114D104E1044E
:100AE000F10421F7DECFFF90EF90DF90CF90BF9021
:100AF000AF909F908F9008952FB7F8946091C104A4
:100B00007091C2048091C3049091C4042FBF0895D2
:100B10001F920F920FB60F9211242F933F938F9332
:100B20009F93AF93BF938091C1049091C204A09111
:100B3000C304B091C4043091C00423E0230F2D37C7
:100B400020F40196A11DB11D05C026E8230F0296D1
:100B5000A11DB11D2093C0048093C1049093C204D1
:100B6000A093C304B093C4048091C5049091C604BB
:100B7000A091C704B091C8040196A11DB11D809336
:100B8000C5049093C604A093C704B093C804BF9152
:100B9000AF919F918F913F912F910F900FBE0F902A
:100BA0001F901895CF92DF92EF92FF920F931F93B1
:100BB000CF93DF937C016C0187E0C80ED11CC0E0AD
:100BC000D0E0062F10E0B8010C2E02C07595679595
:100BD0000A94E2F76170F60181916F0135DE21968A
:100BE000C430D10581F7C701DF91CF911F910F91DB
:100BF000FF90EF90DF90CF90F8CECF92DF92EF9200
:100C0000FF920F931F93CF93DF93EC01F62E642F87
:100C10008C811ADE8D818F3F11F060E015DE8F85AB
:100C20000F2D10E084FF23C06E0187E0C80ED11C99
:100C3000E12CF12CB8010E2C02C0759567950A9431
:100C4000E2F76170F60181916F01FEDDFFEFEF1AAF
:100C5000FF0A88E0E816F10469F7CE01DF91CF9131
:100C60001F910F91FF90EF90DF90CF90BECEB80113
:100C700084E0759567958A95E1F7CE0193DF6F2D36
:100C8000CE01DF91CF911F910F91FF90EF90DF90F8
:100C9000CF9088CF41E0B1DF81E090E0089540E05F
:100CA000ACCF61E0FCDF8BE39FE10197F1F70895A2
:100CB000AF92BF92CF92DF92EF92FF920F931F936A
:100CC000CF93DF931F92CDB7DEB75C017B018B0121
:100CD0006C0184E0C80ED11CF80161918F01C5013F
:100CE00069830E94FE1C6981681719F0C5010E9482
:100CF000061DFFEFAF1ABF0AAC14BD0469F7C701A8
:100D00000F90DF91CF911F910F91FF90EF90DF90A7
:100D1000CF90BF90AF9008952F923F924F925F92E5
:100D20006F927F928F929F92AF92BF92CF92DF92FB
:100D3000EF92FF920F931F93CF93DF9382E05CDDDE
:100D4000EC018091100290911102C817D90749F067
:100D5000D3DE6093BC047093BD048093BE04909373
:100D6000BF04CADE0091BC041091BD042091BE04F2
:100D70003091BF04DC01CB01801B910BA20BB30BA4
:100D800087399105A105B10558F0B6DE6093BC0422
:100D90007093BD048093BE049093BF048E0102C083
:100DA00001E010E0D0931102C093100284E024DD32
:100DB000EC0180910E0290910F02C817D90749F0FB
:100DC0009BDE6093B8047093B9048093BA04909347
:100DD000BB0492DEC090B804D090B904E090BA048D
:100DE000F090BB04DC01CB018C199D09AE09BF0951
:100DF00087399105A105B10558F07EDE6093B804EE
:100E00007093B9048093BA049093BB047E0103C02D
:100E1000EE24E394F12CD0930F02C0930E0283E0F2
:100E2000EBDC6C0180910C0290910D02C816D90682
:100E300049F062DE6093B4047093B5048093B60405
:100E40009093B70459DE8090B4049090B504A090BC
:100E5000B604B090B704DC01CB0188199909AA093E
:100E6000BB0987399105A105B10558F045DE6093AE
:100E7000B4047093B5048093B6049093B704E6016C
:100E800002C0C1E0D0E0D0920D02C0920C0286E018
:100E9000B3DC6C0180910A0290910B02C816D9064E
:100EA00049F02ADE6093B0047093B1048093B204D9
:100EB0009093B30421DE8090B0049090B104A09090
:100EC000B204B090B304DC01CB0188199909AA09D6
:100ED000BB09853F9140A105B10558F00DDE609337
:100EE000B0047093B1048093B2049093B3041601DC
:100EF00003C022242394312CD0920B02C0920A0208
:100F000087E07ADC6C018091080290910902C81692
:100F1000D90649F0F1DD6093AC047093AD04809381
:100F2000AE049093AF04E8DD8090AC049090AD04E3
:100F3000A090AE04B090AF04DC01CB0188199909F0
:100F4000AA09BB09853F9140A105B10558F0D4DD40
:100F50006093AC047093AD048093AE049093AF049F
:100F6000260103C044244394512CD0920902C0921C
:100F7000080288E041DC6C01809106029091070232
:100F8000C816D90649F0B8DD6093A8047093A90487
:100F90008093AA049093AB04AFDD8090A804909056
:100FA000A904A090AA04B090AB04DC01CB0188197D
:100FB0009909AA09BB09853F9140A105B10558F0DF
:100FC0009BDD6093A8047093A9048093AA04909376
:100FD000AB04360103C066246394712CD0920702DF
:100FE000C092060289E008DC6C01809104029091B5
:100FF0000502C816D90649F07FDD6093A4047093FA
:10100000A5048093A6049093A70476DD8090A404A1
:101010009090A504A090A604B090A704DC01CB0199
:1010200088199909AA09BB09853F9140A105B10515
:1010300058F062DD6093A4047093A5048093A60425
:101040009093A704560103C0AA24A394B12CD09274
:101050000502C09204028AE0CFDB6C01809102029B
:1010600090910302C816D90649F046DD6093A004AA
:101070007093A1048093A2049093A3043DDD20917A
:10108000A0043091A1044091A2045091A304DC017A
:10109000CB01821B930BA40BB50B853F9140A1059F
:1010A000B10558F029DD6093A0047093A1048093EA
:1010B000A2049093A304460103C088248394912C36
:1010C000D0920302C09202028BE096DB6C01809109
:1010D000000290910102C816D90649F00DDD609317
:1010E0009C0470939D0480939E0490939F0404DD60
:1010F00020919C0430919D0440919E0450919F0446
:10110000DC01CB01821B930BA40BB50B853F9140F7
:10111000A105B10558F0F0DC60939C0470939D0428
:1011200080939E0490939F04C60102C081E090E0EA
:10113000D0920102C09200020115110589F420919C
:10114000C9043091CA042115310511F54AEF50E068
:1011500060E070E080ED97E0E6D281E090E013C0BF
:10116000E114F10409F0ACC02091C9043091CA0423
:10117000232BD9F44AEF50E060E070E084E398E07C
:10118000D2D282E090E09093DA048093D9049CC09C
:101190002230310551F44AEF50E060E070E084E322
:1011A00098E0C1D283E090E0EECFCD2B89F420917E
:1011B000D7043091D8042230310550F44AEF50E082
:1011C00060E070E084E398E0AED285E090E0DBCFB1
:1011D000EF2801F52091C9043091CA04223031056D
:1011E00051F44AEF50E060E070E084E398E09BD275
:1011F00084E090E0C8CF2430310561F44AEF50E03C
:1012000060E070E084E398E08ED21092DA041092ED
:10121000D9045AC0012B61F42091D9043091DA0429
:101220002330310509F4A6CF2530310509F4A2CFCA
:10123000232851F48091D3049091D4040196909383
:10124000D4048093D30440C0AB2851F48091D504DA
:101250009091D60401969093D6048093D50434C01F
:10126000452851F48091CF049091D0040196909339
:10127000D0048093CF0428C0892851F48091D104F0
:101280009091D20401969093D2048093D1041CC013
:10129000672851F48091CB049091CC0401969093EF
:1012A000CC048093CB0410C0892B71F48091CD04C1
:1012B0009091CE0401969093CE048093CD0404C007
:1012C000CD2B09F474CFB4CFDF91CF911F910F9143
:1012D000FF90EF90DF90CF90BF90AF909F908F9056
:1012E0007F906F905F904F903F902F900895AF92B6
:1012F000BF92CF92DF92EF92FF920F931F93CF9303
:10130000DF935C017B016A01C0E0D0E0CC15DD0514
:101310000CF03CC087EB95E0C4DC62E087EB95E025
:101320005CD1B50187EB95E051D962E370E080E0D4
:1013300090E0AADB00E010E00E151F056CF468E1F8
:1013400087EB95E0ACDCE8DC62E370E080E090E005
:101350009BDB0F5F1F4FF0CF00E010E00E151F0565
:101360006CF46CE187EB95E09ADCD6DC62E370E02C
:1013700080E090E089DB0F5F1F4FF0CF62E370E009
:1013800080E090E081DBC8DC2196C0CFDF91CF9177
:101390001F910F91FF90EF90DF90CF90BF90AF9093
:1013A0000895CF93DF9300D000D0CDB7DEB787EBA1
:1013B00095E077DC61E08DE047DA60E08EE044DACA
:1013C00065EA75E088E095E001D961E372E088E0C4
:1013D00095E00AD964E372E0CE010196EAD042E0DA
:1013E00050E06EE070E0CE01019681DFCE01019603
:1013F000DBD01A8219821C821B821E821D826091A0
:10140000A5057091A6056115710539F04091A905F2
:101410005091AA05CE01019687D060E080E0D2D439
:10142000BE016F5F7F4F87EB95E0D0D8CE0101966C
:10143000BBD064E372E0CE010196BBD061E080E0F6
:10144000C1D4BE016F5F7F4F87EB95E0BFD8CE015F
:101450000196AAD04AEF50E060E070E084E398E0A3
:1014600062D168EC70E080E090E00EDB8CE01BDA8B
:1014700068EC70E080E090E007DB4AEF50E060E06D
:1014800070E084E398E04FD168EC70E080E090E099
:10149000FBDA8CE008DA68EC70E080E090E0F4DAE7
:1014A0004AEF50E060E070E080ED97E03CD168ECFE
:1014B00070E080E090E0E8DA4AEF50E060E070E051
:1014C00084E398E030D168EC70E080E090E0DCDA12
:1014D0008CE0E9D968EC70E080E090E0D5DA4AEF82
:1014E00050E060E070E084E398E01DD168EC70E0CB
:1014F00080E090E0C9DA8CE0D6D968EC70E080E05A
:1015000090E0C2DA4AEF50E060E070E080ED97E0F2
:101510000AD126960FB6F894DEBF0FBECDBFDF917D
:10152000CF9108950E94D11BEF92FF920F931F93CA
:10153000CF93DF93EC017B018A0188819981009729
:1015400029F02A813B8124173507F8F4B8016F5F31
:101550007F4F0E94ED1A009759F0998388831B836F
:101560000A832C813D81232B81F4FC0110820DC064
:1015700088819981009711F00E94551A198218826A
:101580001D821C821B821A8207C01D830C83B70137
:10159000888199810E94DE1BCE01DF91CF911F913E
:1015A0000F91FF90EF900895FC01808191810C9440
:1015B000551AFC0111821082138212821582148244
:1015C0006115710549F0FB0101900020E9F73197A1
:1015D000AF01461B570BA8CF0895EF92FF920F93D0
:1015E0001F93CF93DF93EC01623018F08F858860F2
:1015F0008F876B8B1C8A80E48D8B80E18E8B80E5DE
:101600008F8B61E08C8104DA8D818F3F11F061E076
:10161000FFD961E08E81FCD97E0187E0E80EF11CE4
:1016200000E010E08F8584FD03C084E090E002C0FC
:1016300088E090E00817190744F461E0F701819110
:101640007F01E6D90F5F1F4FEDCF8BE39DE0019740
:10165000F1F760E08C81F8D860E08E81F5D88D815B
:101660008F3F11F060E0F0D86F8564FD19C063E032
:10167000CE0198DA0BE416E4C8010197F1F763E0B4
:10168000CE0190DAC8010197F1F763E0CE018ADA62
:1016900083E592E00197F1F762E0CE0183DA13C0AF
:1016A0006062CE01FCDA8BE496E40197F1F76F8576
:1016B0006062CE01F4DA83E592E00197F1F76F857D
:1016C0006062CE01ECDA6F856062CE01E8DA84E018
:1016D000888B6CE0CE01E3DACE01E3DA82E0898B1D
:1016E00066E0CE01DF91CF911F910F91FF90EF90B7
:1016F000D6CA0F931F93CF93DF93C4E0D5E08C013C
:1017000004501540C8018C0F9D1F0E94FE1C899338
:1017100085E0C830D807B1F784E095E0DF91CF913C
:101720001F910F9108953F924F925F926F927F9217
:101730008F929F92AF92BF92CF92DF92EF92FF92E1
:101740000F931F93CF93DF9300D01F92CDB7DEB7D7
:10175000209112022C3021F02F3F09F01DC304C04C
:10176000E8E2F2E03490EDC02CE020931202E8E2CF
:10177000F2E0E491EF3F09F40FC3E23009F474C0E2
:1017800054F5EE2309F453C0E13009F0D9C01092AA
:1017900080001092810020918100286020938100B8
:1017A00020918100216020938100EEEEF1E0E49130
:1017B000F0E0EE0FFF1FE853FE4F25913491309378
:1017C000DA052093D905EEE8F1E0E491E093D8053D
:1017D00033243394B8C0E43009F48EC00CF468C0EC
:1017E000E53009F0ADC01092200110922101209146
:1017F0002101286020932101209121012160209363
:101800002101EEEEF1E0E491F0E0EE0FFF1FE8536E
:10181000FE4F259134913093D1052093D005EEE809
:10182000F1E0E491E093CF05B5E03B2E8CC014BC11
:1018300015BC24B5226024BD25B5216025BDEEEE82
:10184000F1E0E491F0E0EE0FFF1FE853FE4F259129
:1018500034913093DD052093DC05EEE8F1E0E4916E
:10186000E093DB05312C6FC01092B0001092B100F4
:101870002091B00022602093B0002091B10021603F
:101880002093B100EEEEF1E0E491F0E0EE0FFF1FE7
:10189000E853FE4F259134913093FF042093FE04CA
:1018A000EEE8F1E0E491E093FD04B2E03B2E4BC0A2
:1018B0001092900010929100209191002860209346
:1018C000910020919100216020939100EEEEF1E0D3
:1018D000E491F0E0EE0FFF1FE853FE4F25913491A5
:1018E0003093D7052093D605EEE8F1E0E491E0933C
:1018F000D50533E0332E27C01092A0001092A1002E
:101900002091A10028602093A1002091A1002160D6
:101910002093A100EEEEF1E0E491F0E0EE0FFF1F66
:10192000E853FE4F259134913093D4052093D3058D
:10193000EEE8F1E0E491E093D20504E0302E03C03C
:101940003E2E37FC29C22A013B018C0161E08CE06C
:101950005FD84801A12CB12C832D8D7F09F0BBC02D
:1019600060E072E18AE790E0A50194010E944818C6
:1019700029833A834B835C8369017A0121E0C21A8F
:10198000D108E108F1088FEFC816D104E104F10491
:1019900009F008F44CC060E472E48FE090E0A50127
:1019A00094010E94481869017A0191E0C91AD1088E
:1019B000E108F108E2E03E1220C0FFEFCF16D104AB
:1019C000E104F10409F008F4E5C160E970ED83E099
:1019D00090E0A50194010E94481869017A0181E014
:1019E000C81AD108E108F1089FEFC916D104E10433
:1019F000F10409F0D0F583E067C0EFEFCE16D10413
:101A0000E104F104B1F0A8F068E478EE81E090E040
:101A1000A50194010E94481869017A01F1E0CF1AEA
:101A2000D108E108F108332009F45AC1AAC181E0C4
:101A300001C082E03320A1F047C089819A81AB8147
:101A4000BC812AE0B595A795979587952A95D1F7FA
:101A50006C017D01F1E0CF1AD108E108F10885E0C1
:101A600095B5987F892B85BDA6C068E478EE81E0A6
:101A700090E0A50194010E94481869017A0181E073
:101A8000C81AD108E108F1089FEFC916D104E10492
:101A9000F10409F008F422C164E274EF80E090E000
:101AA000A50194010E94481869017A0181E0C81AD1
:101AB000D108E108F1089FEFC916D104E104F1044F
:101AC00011F008F02FC185E09091B100987F892B2B
:101AD0008093B10070C060E072E18AE790E0A501F8
:101AE00094010E94481869017A01F1E0CF1AD108E7
:101AF000E108F108C114D10421E0E206F10488F004
:101B000068E478EE81E090E0A50194010E94481815
:101B100069017A0181E0C81AD108E108F10883E07F
:101B200001C081E091E0391210C090918100987F4E
:101B3000892B80938100411451046104710409F0E0
:101B40003FC02FEF3FEFA90171C0E3E03E120FC08D
:101B500090919100987F892B8093910041145104BA
:101B60006104710469F52FEF3FEFA90181C0F4E032
:101B70003F120FC09091A100987F892B8093A10004
:101B80004114510461047104D9F42FEF3FEFA9010E
:101B900081C025E032120FC090912101987F892BDE
:101BA00080932101411451046104710449F42FEF21
:101BB0003FEFA90181C0411451046104710471F027
:101BC000D801AA0FBB1FA30192010E94141D28EE89
:101BD00033E040E050E00E94261803C02FEF3FEFB3
:101BE000A90182E03816A1F1831534F0332079F091
:101BF00091E03916D9F0D0C0E4E03E1609F44AC0AD
:101C00003E16B4F1F5E03F1609F456C0C5C0C7BC96
:101C10002093EE053093EF054093F0055093F105C6
:101C200080916E00826080936E00B6C0D092890071
:101C3000C09288002093EA053093EB054093EC05B1
:101C40005093ED0580916F00826080936F00A4C077
:101C5000C092B30020930005309301054093020524
:101C6000509303058091700082608093700094C04F
:101C7000D0929900C09298002093E6053093E70532
:101C80004093E8055093E90580917100826080934C
:101C9000710082C0D092A900C092A8002093E205F2
:101CA0003093E3054093E4055093E505809172007D
:101CB00082608093720070C0D0922901C092280186
:101CC0002093DE053093DF054093E0055093E10556
:101CD000809173008260809373005EC084E0F4CED4
:101CE0002FEFC216D104E104F104D1F0C8F062E193
:101CF0007AE780E090E0A50194010E94481869010C
:101D00007A01E1E0CE1AD108E108F108FFEFCF1621
:101D1000D104E104F10411F008F08FCE84E0A0CEEC
:101D200083E09ECE62E17AE780E090E0A501940135
:101D30000E94481869017A0181E0C81AD108E108B7
:101D4000F1089FEFC916D104E104F104C1F0B8F025
:101D500089819A81AB81BC814AE0B595A795979519
:101D600087954A95D1F76C017D01E1E0CE1AD10843
:101D7000E108F108332009F472CE87E0A5CE86E0B1
:101D800059CEEFEFCE16D104E104F10409F050F67C
:101D900084E050CE82E098CE0F900F900F900F907D
:101DA000DF91CF911F910F91FF90EF90DF90CF9037
:101DB000BF90AF909F908F907F906F905F904F906B
:101DC0003F900895643008F063E09091CA05691768
:101DD00010F06FEF690FE62FF0E0E954FA4F9489A5
:101DE000682F690F606887EB95E00C944F06BC0183
:101DF00087EB95E00C94F402CF93DF93BC0188E06D
:101E000095E00E94F402EC0161E372E088E095E065
:101E10000E94F4028C0F9D1FDF91CF910895CF9304
:101E2000DF93AC01990F660B770B2AE030E088E076
:101E300095E00E945103EC0161E372E088E095E0D7
:101E40000E94F4028C0F9D1FDF91CF9108954F9255
:101E50005F926F927F928F929F92AF92BF92CF923A
:101E6000DF92EF92FF926B017C01B42E9B01AC01DB
:101E70000E94BC19882319F06FE874E027C026017E
:101E80003701E89477F82FEF3FEF4FE75FE7C301A3
:101E9000B2010E94BC1981110DC02FEF3FEF4FE737
:101EA0005FE7C301B2010E94E51B18161CF463E949
:101EB00074E00CC02FEF3FEF4FE75FE4C701B601BE
:101EC0000E94B819181694F467E974E087EB95E05E
:101ED000FF90EF90DF90CF90BF90AF909F908F904A
:101EE0007F906F905F904F900C94F4022FEF3FEF34
:101EF0004FE75FECC701B6010E94E51B87FDE4CF09
:101F000020E030E0A901C701B6010E94E51B87FF70
:101F100011C0E091B705F091B8050190F081E02D76
:101F20006DE287EB95E019954C01F7FAF094F7F81C
:101F3000F09402C0812C912CA12C60E070E080E034
:101F40009FE3AB1441F020E030E040E251E40E9416
:101F5000D118A394F6CF9B01AC01C701B6010E9432
:101F60006D182B013C010E9439196B017C010E9404
:101F7000E91B9B01AC01C301B2010E946C182B014B
:101F80003C012AE0B701A60187EB95E00E94090316
:101F90007C01E80CF91CBB2041F064E572E087EBA2
:101FA00095E00E94F402E80EF91EDB2CDD2031F1F1
:101FB00020E030E040E251E4C301B2010E944A1C3B
:101FC0002B013C010E9439194B01A12CB12C2AE0B4
:101FD000B501A40187EB95E00E940903E80EF91E04
:101FE000C501B4010E94E91B9B01AC01C301B20110
:101FF0000E946C182B013C01DA94D8CFC701FF90E6
:10200000EF90DF90CF90BF90AF909F908F907F9098
:102010006F905F904F90089585EA95E0C5CACF9381
:10202000DF93CDB7DEB72C970FB6F894DEBF0FBEA7
:10203000CDBF789484B5826084BD84B5816084BD51
:1020400085B5826085BD85B5816085BD80916E0056
:10205000816080936E001092810080918100826087
:1020600080938100809181008160809381008091C4
:1020700080008160809380008091B10084608093B3
:10208000B1008091B00081608093B0008091910098
:102090008260809391008091910081608093910093
:1020A000809190008160809390008091A100826077
:1020B0008093A1008091A10081608093A100809114
:1020C000A00081608093A0008091210182608093B4
:1020D0002101809121018160809321018091200163
:1020E00081608093200180917A00846080937A00DF
:1020F00080917A00826080937A0080917A0081607A
:1021000080937A0080917A00806880937A001092A0
:10211000C100E0911805F091190582E08083E091FB
:102120001405F09115051082E0911605F091170540
:102130008FEC808310922005E0911C05F0911D0525
:1021400086E08083E0911A05F0911B058081806113
:102150008083E0911A05F0911B058081886080835F
:10216000E0911A05F0911B05808180688083E091E1
:102170001A05F0911B0580818F7D808362E082E0EB
:102180000E94080562E083E00E94080562E084E0A6
:102190000E94080562E086E00E94080562E087E090
:1021A0000E94080562E088E00E94080562E089E07C
:1021B0000E94080562E08AE00E94080562E08BE068
:1021C0000E94080561E08EE00E94080561E08DE054
:1021D0000E94080560E08DE00E94240460E08EE02B
:1021E0000E94240482E00E94FC03892BA9F46CED78
:1021F00075E080E090E00E9444058CE390E0A0E070
:10220000B0E089839A83AB83BC83BE016F5F7F4F4D
:1022100080E090E00E94580680E090E06ADA8091C9
:10222000040590910505A0910605B09107058093DE
:10223000ED049093EE04A093EF04B093F00465E4F2
:1022400072E0CE010196B5D941E050E06DE070E05A
:10225000CE0101964CD8CE010196A6D962E087EB5B
:1022600095E0BBD986E592E0C2DD4091ED04509146
:10227000EE046091EF047091F0042AE030E087EB07
:1022800095E00E94510368EE73E080E090E00E94C8
:10229000440583E0E82EF12C92E0A92EB12CCC2449
:1022A000C394D12C0E948C060091D9041091DA04B9
:1022B0000230110509F446C014F50115110549F164
:1022C0000130110509F0C9C187EB95E00E94510664
:1022D00060E080E077DD82E892E089DD1093CA0457
:1022E0000093C9041093DC040093DB0461E08EE0EA
:1022F0000E9424041093D8040093D70472C10430C0
:10230000110509F448C1ACF10530110509F470C19B
:10231000A4C160E080E056DD80E692E068DD61E027
:1023200080E050DD81E792E062DD1092CA041092F5
:10233000C9041092DC041092DB041092D8041092AD
:10234000D7044FC160E080E03DDD83E992E04FDDDE
:1023500061E080E037DD84EA92E049DD40910405E8
:1023600050910505609106057091070521E030E068
:102370002CC1F092CA04E092C904F092DC04E0920D
:10238000DB0466E970E080E090E00E944405F09292
:10239000D804E092D70460E080E014DD82EB92E0A4
:1023A00026DD61E080E00EDD84EA92E020DD4091F0
:1023B000040550910505609106057091070540934D
:1023C000ED045093EE046093EF047093F0042AE060
:1023D00030E087EB95E00E94510360ED77E080E00C
:1023E00090E00E9444058091D9049091DA048330F2
:1023F000910509F080C00E948C0684E00E94FC03D5
:10240000892BC9F46AEF70E080E090E00E944405F7
:102410008091ED049091EE04A091EF04B091F0044E
:102420000196A11DB11D8093ED049093EE04A0933D
:10243000EF04B093F00483E00E94FC03892BC9F4FD
:102440006AEF70E080E090E00E9444058091ED0426
:102450009091EE04A091EF04B091F0040197A109CE
:10246000B1098093ED049093EE04A093EF04B09330
:10247000F0048091ED049091EE04A091EF04B091EE
:10248000F00483369105A105B10551F487EB95E081
:102490000E94510660E080E095DC82EB92E0A7DCD0
:1024A0008091ED049091EE04A091EF04B091F004BE
:1024B0000997A105B10551F487EB95E00E945106FB
:1024C00060E080E07FDC82EB92E091DC61E080E024
:1024D00079DC84EA92E08BDC4091ED045091EE04CB
:1024E0006091EF047091F0042AE030E087EB95E012
:1024F0000E94510378CF059709F47DCF6DEE74E00B
:1025000080E090E00E94580687EB95E00E9451061B
:1025100080E090E0EED88091040590910505A091AF
:102520000605B09107058093ED049093EE04A09307
:10253000EF04B093F00462E673E0CE01019639D85F
:1025400063EC72E0CE01079634D860E080E03ADCBC
:10255000BE01695F7F4F87EB95E00E94E602BE01F6
:102560006F5F7F4F87EB95E00E94E602CE010796F2
:102570001BD8CE01019618D860ED77E080E090E09E
:102580000E9444051092D8041092D704B092DA0445
:10259000A092D90462C087EB95E00E94510660E0EA
:1025A00080E010DC83ED92E022DC61E080E00ADC78
:1025B00084EE92E01CDC4091F5045091F6046091A9
:1025C000F7047091F8042AE030E087EB95E00E9470
:1025D00051031093CA040093C9041093DC040093C0
:1025E000DB0466E970E080E090E00E94440535C0BD
:1025F0001092DA041092D90483E00E94FC03892B24
:1026000041F40091D7041091D8040115110509F483
:1026100075C483E00E94FC03892B39F48091D704B0
:102620009091D804019709F470C487EB95E00E945B
:10263000510660E080E0C6DB82EF92E0D8DB1092CA
:10264000D8041092D70409C00091D7041091D8047F
:102650000130110549F00E948C068091D9049091B7
:10266000DA04019789F347C40E948C068091D5044F
:102670009091D604029789F58091FB049091FC0417
:10268000892B59F58091F9049091FA04892B29F549
:102690001093FA040093F90460E080E093DB83E098
:1026A00093E0A5DB8091F5049091F604A091F704E6
:1026B000B091F8040196A11DB11D8093F50490938B
:1026C000F604A093F704B093F8041092D404109287
:1026D000D3041092D6041092D5048091D304909123
:1026E000D404029709F052C08091FB049091FC043D
:1026F000892B09F04BC00091F9041091FA040130C4
:10270000110509F043C084E193E076DB8091D304A6
:102710009091D40484DB84E293E06EDB2091ED049D
:102720003091EE044091EF045091F004A8EEB3E034
:102730000E94141D0E94EB1B6093F1047093F2043D
:102740008093F3049093F4040E947C050E94E91B9B
:102750006093B3057093B4058093B5059093B60567
:102760001093FC040093FB041092D6041092D5043D
:1027700060E080E027DB8EE293E039DB46E950E061
:1027800060E070E086ED96E00E94930B8091D504A6
:102790009091D6040297C1F58091FB049091FC04BE
:1027A000019791F58091F9049091FA04019761F5F0
:1027B0001092D4041092D3048FE393E01DDB1092A7
:1027C000FC041092FB0460E080E0FCDA8DE493E00E
:1027D0000EDB46E950E060E070E088E998E00E9496
:1027E000930B8091F5049091F604A091F704B091B9
:1027F000F8040196A11DB11D8093F5049093F60491
:10280000A093F704B093F8048091FB049091FC042A
:10281000019709F093C08091F9049091FA0401970F
:1028200009F08CC00E947C05D4D72091B30530916B
:10283000B4054091B5055091B6054ED49B01AC014D
:102840006091F1047091F2048091F3049091F4048A
:1028500043D46093F1047093F2048093F304909353
:10286000F40420E030E04AE754E49BD42ED520E085
:1028700030E046EC52E4A9D7811105C061E0A2DA4C
:102880008EE593E0B4DA20E030E04AE754E460916A
:10289000F1047091F2048091F3049091F40481D4D6
:1028A00014D520E030E040E151E48FD7811105C01C
:1028B00061E088DA8EE593E09ADA61E080E082DA1E
:1028C00084E693E094DA20E030E04AE754E4609153
:1028D000F1047091F2048091F3049091F40461D4B6
:1028E00040E0B5DA0E947C0574D76093B30570931D
:1028F000B4058093B5059093B60520E030E0A901BA
:102900006091F1047091F2048091F3049091F404C9
:102910005CD718165CF04FE050E067E673E085EA9C
:1029200095E00E94940A0E94D10908C087E793E0CD
:1029300063DA8091D3049091D40471DA0E948C06FA
:102940008091D1049091D204029789F58091EB0493
:102950009091EC04892B59F58091E9049091EA0457
:10296000892B29F5D092EA04C092E90460E080E066
:1029700029DA82E893E03BDA8091F5049091F6043D
:10298000A091F704B091F8040196A11DB11D8093A8
:10299000F5049093F604A093F704B093F804109212
:1029A000D0041092CF041092D2041092D1048091DE
:1029B000CF049091D004029709F050C08091EB04AD
:1029C0009091EC04892B09F049C00091E904109121
:1029D000EA040130110509F041C083E993E00CDA03
:1029E0008091CF049091D0041ADA83EA93E004DA5C
:1029F0002091ED043091EE044091EF045091F004E9
:102A0000A8EEB3E00E94141DE6D66093E50470932F
:102A1000E6048093E7049093E8040E947C05D9D6ED
:102A20006093AF057093B0058093B1059093B205A4
:102A30001093EC040093EB041092D2041092D10492
:102A400060E080E0BFD98DEA93E0D1D946E950E05B
:102A500060E070E08AE397E00E94930B8091D104DC
:102A60009091D2040297C1F58091EB049091EC040F
:102A7000019791F58091E9049091EA04019761F53D
:102A80001092D0041092CF048EEB93E0B5D910923F
:102A9000EC041092EB0460E080E094D98CEC93E0BD
:102AA000A6D946E950E060E070E08CEF98E00E9423
:102AB000930B8091F5049091F604A091F704B091E6
:102AC000F8040196A11DB11D8093F5049093F604BE
:102AD000A093F704B093F8048091EB049091EC0478
:102AE000019709F095C08091E9049091EA0401975B
:102AF00009F08EC00E947C056CD62091AF05309104
:102B0000B0054091B1055091B205E6D29B01AC01F0
:102B10006091E5047091E6048091E7049091E804E7
:102B2000DBD26093E5047093E6048093E70490930E
:102B3000E80420E030E04AE754E433D3C6D320E091
:102B400030E046EC52E441D6811106C061E086E0F7
:102B500039D98DED93E04BD920E030E04AE754E4D9
:102B60006091E5047091E6048091E7049091E80497
:102B700018D3ABD320E030E040E151E426D68111F8
:102B800006C061E086E01ED98DED93E030D961E0AA
:102B900086E018D983EE93E02AD920E030E04AE7B6
:102BA00054E46091E5047091E6048091E70490910B
:102BB000E804F7D240E04BD90E947C050AD6609326
:102BC000AF057093B0058093B1059093B20520E0F6
:102BD00030E0A9016091E5047091E6048091E7047A
:102BE0009091E804F2D518165CF040E150E066EEF2
:102BF00073E085EA95E00E94940A0E94D10908C01A
:102C000087EF93E0F9D88091CF049091D00407D951
:102C10000E948C068091CD049091CE04029789F594
:102C20008091E3049091E404892B59F58091E104AB
:102C30009091E204892B29F5D092E204C092E1043C
:102C400060E080E0BFD882E094E0D1D88091F504C4
:102C50009091F604A091F704B091F8040196A11D9B
:102C6000B11D8093F5049093F604A093F704B093FC
:102C7000F8041092CC041092CB041092CE0410925F
:102C8000CD048091CB049091CC04029709F04FC001
:102C90008091E3049091E404892B09F048C00091ED
:102CA000E1041091E2040130110509F040C083E114
:102CB00094E0A2D88091CB049091CC04B0D883E268
:102CC00094E09AD82091ED043091EE044091EF0405
:102CD0005091F004A8EEB3E0A7D67DD56093DD0453
:102CE0007093DE048093DF049093E0040E947C05DF
:102CF00070D56093AB057093AC058093AD05909350
:102D0000AE051093E4040093E3041092CE041092F5
:102D1000CD0460E080E056D88DE294E068D846E9C2
:102D200050E060E070E08EE997E00E94930B8091A4
:102D3000CD049091CE040297C1F58091E304909167
:102D4000E404019791F58091E1049091E2040197E8
:102D500061F51092CC041092CB048EE394E04CD831
:102D60001092E4041092E30460E080E02BD88CE43D
:102D700094E03DD846E950E060E070E080E699E0FC
:102D80000E94930B8091F5049091F604A091F704B2
:102D9000B091F8040196A11DB11D8093F5049093A4
:102DA000F604A093F704B093F8048091E3049091A3
:102DB000E404019709F04FCC8091E1049091E20482
:102DC000019709F048CC0E947C0503D52091AB0502
:102DD0003091AC054091AD055091AE057DD19B0180
:102DE000AC016091DD047091DE048091DF0490916C
:102DF000E00472D16093DD047093DE048093DF04FD
:102E00009093E00420E030E04AE754E4CAD15DD278
:102E100020E030E046EC52E4D8D4811108C061E0F3
:102E20008BE00E94E20E8DE594E00E94F70E20E018
:102E300030E04AE754E46091DD047091DE04809153
:102E4000DF049091E004ADD140D220E030E040E1D9
:102E500051E4BBD4811108C061E08BE00E94E20E16
:102E60008DE594E00E94F70E61E08BE00E94E20E97
:102E700083E694E00E94F70E20E030E04AE754E455
:102E80006091DD047091DE048091DF049091E00494
:102E900088D140E00E94270F0E947C059AD460935D
:102EA000AB057093AC058093AD059093AE0520E023
:102EB00030E0A9016091DD047091DE048091DF04AF
:102EC0009091E00482D418165CF040E150E066E690
:102ED00074E085EA95E00E94940A0E94D109BBCB78
:102EE00087E794E00E94FC0E8091CB049091CC0483
:102EF0000E940F0FB0CB0E943302D4C982E894E045
:102F00000E94FC0EF801199584CB8AE894E00E9497
:102F1000FC0E1092D8041092D70460E08EE00E945C
:102F200024041092DA041092D9041092D40410925E
:102F3000D3041092FC041092FB041092D00410925F
:102F4000CF041092EC041092EB041092CC04109277
:102F5000CB041092E4041092E30466E970E080E090
:102F600090E00E94440561CBE8E0F5E01382128214
:102F700088EE93E0A0E0B0E084839583A683B783D6
:102F80008DE192E09183808385EC90E09587848742
:102F900084EC90E09787868780EC90E0918B808B23
:102FA00081EC90E0938B828B82EC90E0958B848B0C
:102FB00086EC90E0978B868B118E128E138E148E7A
:102FC000E7EBF5E0138212828DE292E09183808339
:102FD0008AE284838FEF85838CE2868384E3878310
:102FE00082E3808780E381878EE28287138614865E
:102FF00015861686178661E0CF010E94ED0A0E94B1
:103000007C05E7D36093B3057093B4058093B50551
:103010009093B6050E947C05DCD36093AF05709356
:10302000B0058093B1059093B2050E947C05D1D381
:103030006093AB057093AC058093AD059093AE059E
:1030400063E372E085EA95E00C94D90AA1E21A2EB6
:10305000AA1BBB1BFD010DC0AA1FBB1FEE1FFF1F3C
:10306000A217B307E407F50720F0A21BB30BE40B8C
:10307000F50B661F771F881F991F1A9469F76095D3
:103080007095809590959B01AC01BD01CF0108958D
:10309000052E97FB16F400940FD057FD05D0D6DF10
:1030A00007FC02D046F408C0509540953095219514
:1030B0003F4F4F4F5F4F0895909580957095619564
:1030C0007F4F8F4F9F4F0895EE0FFF1F881F8BBFBD
:1030D0000790F691E02D19945058BB27AA270ED0DF
:1030E00053C444D430F049D420F031F49F3F11F45C
:1030F0001EF439C40EF4E095E7FB2FC4E92F55D434
:1031000080F3BA17620773078407950718F071F404
:103110009EF56DC40EF4E0950B2EBA2FA02D0B0179
:10312000B90190010C01CA01A0011124FF27591B0C
:1031300099F0593F50F4503E68F11A16F040A22F12
:10314000232F342F4427585FF3CF46953795279583
:10315000A795F0405395C9F77EF41F16BA0B620B82
:10316000730B840BBAF09150A1F0FF0FBB1F661FC9
:10317000771F881FC2F70EC0BA0F621F731F841F0C
:1031800048F4879577956795B795F7959E3F08F032
:10319000B3CF9395880F08F09927EE0F97958795F1
:1031A00008950CD0F1C3E9D340F0E0D330F021F41E
:1031B0005F3F19F0D2C351111BC4D5C3F6D398F3A6
:1031C0009923C9F35523B1F3951B550BBB27AA27A8
:1031D00062177307840738F09F5F5F4F220F331F1A
:1031E000441FAA1FA9F333D00E2E3AF0E0E830D0E6
:1031F00091505040E695001CCAF729D0FE2F27D0E9
:10320000660F771F881FBB1F261737074807AB07B6
:10321000B0E809F0BB0B802DBF01FF2793585F4F2B
:103220002AF09E3F510568F098C3E2C35F3FECF37C
:10323000983EDCF3869577956795B795F7959F5FF0
:10324000C9F7880F911D9695879597F90895E1E044
:10325000660F771F881FBB1F621773078407BA07A3
:1032600020F0621B730B840BBA0BEE1F88F7E095FE
:103270000895A3D388F09F5790F0B92F9927B7519D
:10328000A0F0D1F0660F771F881F991F1AF0BA952A
:10329000C9F712C0B13081F0AAD3B1E00895A7C335
:1032A000672F782F8827B85F39F0B93FCCF3869520
:1032B00077956795B395D9F73EF49095809570957D
:1032C00061957F4F8F4F9F4F08953BD080F09F3780
:1032D00040F491110EF08CC360E070E080E89FEB49
:1032E000089526F41B16611D711D811D01C01BC0B0
:1032F000882371F4772321F09850872B762F07C00D
:10330000662311F499270DC09051862B70E060E080
:103310002AF09A95660F771F881FDAF7880F96951F
:10332000879597F908959F3F31F0915020F4879544
:1033300077956795B795880F911D9695879597F91D
:1033400008953BD3A0F0BEE7B91788F4BB279F3898
:1033500060F41616B11D672F782F8827985FF7CF76
:10336000869577956795B11D93959639C8F308951D
:103370006DD208F48FEF089569D2880B990B0895E8
:10338000CF93DF938230910510F482E090E0E091DA
:10339000F405F091F50520E030E0C0E0D0E0309792
:1033A00011F14081518148175907C0F0481759075A
:1033B00061F482819381209719F09B838A832BC0CB
:1033C0009093F5058093F40526C02115310519F079
:1033D0004217530718F49A01BE01DF01EF01028082
:1033E000F381E02DDCCF2115310509F1281B390BC4
:1033F0002430310590F412968D919C9113976115AC
:10340000710521F0FB019383828304C09093F5053D
:103410008093F405FD01329644C0FD01E20FF31FD5
:1034200081939193225031092D933C933AC020917E
:10343000F2053091F305232B41F4209115023091D0
:1034400016023093F3052093F20520911302309178
:1034500014022115310541F42DB73EB740911702F2
:1034600050911802241B350BE091F205F091F30501
:10347000E217F307A0F42E1B3F0B2817390778F04B
:10348000AC014E5F5F4F2417350748F04E0F5F1FAA
:103490005093F3054093F2058193919302C0E0E0CD
:1034A000F0E0CF01DF91CF9108950F931F93CF9359
:1034B000DF93009709F48CC0FC01329713821282CB
:1034C0000091F4051091F5050115110581F4208195
:1034D0003181820F931F2091F2053091F305281757
:1034E000390779F5F093F305E093F20571C0D8013F
:1034F00040E050E0AE17BF0750F412962D913C917A
:103500001397AD012115310509F1D901F3CF9D01C3
:10351000DA013383228360817181860F971F8217BE
:10352000930769F4EC0128813981260F371F2E5F3C
:103530003F4F318320838A819B8193838283452BF4
:1035400029F4F093F505E093F40542C01396FC933B
:10355000EE931297ED01499159919E01240F351F69
:10356000E217F30771F480819181840F951F029611
:1035700011969C938E938281938113969C938E9344
:103580001297E0E0F0E0D80112968D919C9113978C
:10359000009719F0F8018C01F6CF8D919C9198015C
:1035A0002E5F3F4F820F931F2091F2053091F3055C
:1035B0002817390769F4309729F41092F50510920D
:1035C000F40502C0138212821093F3050093F205F2
:1035D000DF91CF911F910F9108956F927F928F92FB
:1035E0009F92AF92BF92CF92DF92EF92FF920F9392
:1035F0001F93CF93DF93EC01009781F4CB01DF9110
:10360000CF911F910F91FF90EF90DF90CF90BF90DF
:10361000AF909F908F907F906F90B2CEFC01E60F9D
:10362000F71F9C0122503109E217F30708F4A8C0E4
:10363000D9010D911C91119706171707A8F00530B5
:10364000110508F49BC0C80104978617970708F472
:1036500095C002501109061B170B019311936D932E
:103660007C93CF0122DF8AC05B01A01AB10A4C0112
:10367000800E911EA091F405B091F50540E050E058
:10368000E12CF12C109709F44AC0A815B905D1F521
:103690006D907C901197630182E0C80ED11CCA1412
:1036A000DB0480F1A3014A195B096A0182E0C80EBC
:1036B000D11C1296BC9012971396AC91B5E0CB1624
:1036C000D10440F0B282A38351834083D9016D932A
:1036D0007C930AC00E5F1F4FC301800F911FF90139
:1036E00091838083EB2DFA2FE114F10431F0D7019F
:1036F0001396FC93EE93129741C0F093F505E09377
:10370000F4053CC08D919C9111974817590708F416
:10371000AC017D0112960D90BC91A02DB3CF80918C
:10372000F2059091F30588159905E1F446175707BE
:10373000C8F48091130290911402009741F48DB760
:103740009EB74091170250911802841B950BE81701
:10375000F907B0F4F093F305E093F205F9017183F2
:1037600060830CC0CB010CDE7C01009749F0A801FE
:10377000BE011BD0CE0199DEC70104C0CE0102C03C
:1037800080E090E0DF91CF911F910F91FF90EF903B
:10379000DF90CF90BF90AF909F908F907F906F9071
:1037A000089581E090E0F89458C1FB01DC0102C06B
:1037B00001900D9241505040D8F70895FB01DC0173
:1037C00001900D920020E1F7089540D008F481E0C7
:1037D0000895E89409C097FB3EF490958095709504
:1037E00061957F4F8F4F9F4F9923A9F0F92F96E94D
:1037F000BB279395F695879577956795B795F111C2
:10380000F8CFFAF4BB0F11F460FF1BC06F5F7F4F5E
:103810008F4F9F4F16C0882311F096E911C0772370
:1038200021F09EE8872F762F05C0662371F096E879
:10383000862F70E060E02AF09A95660F771F881F48
:10384000DAF7880F9695879597F90895990F0008EC
:10385000550FAA0BE0E8FEEF16161706E807F90762
:10386000C0F012161306E407F50798F0621B730BFD
:10387000840B950B39F40A2661F0232B242B252B7E
:1038800021F408950A2609F4A140A6958FEF811D21
:10389000811D08950BD078C069D028F06ED018F043
:1038A000952309F05AC05FC01124A2C07ED0A0F3B6
:1038B000959FD1F3950F50E0551F629FF001729FC5
:1038C000BB27F00DB11D639FAA27F00DB11DAA1FE4
:1038D000649F6627B00DA11D661F829F2227B00D31
:1038E000A11D621F739FB00DA11D621F839FA00DBC
:1038F000611D221F749F3327A00D611D231F849F0C
:10390000600D211D822F762F6A2F11249F57504062
:103910008AF0E1F088234AF0EE0FFF1FBB1F661FFD
:10392000771F881F91505040A9F79E3F510570F0B6
:1039300014C05EC05F3FECF3983EDCF3869577954C
:103940006795B795F795E7959F5FC1F7FE2B880FB1
:10395000911D9695879597F9089597F99F6780E847
:1039600070E060E008959FEF80EC089500240A94D1
:103970001616170618060906089500240A9412164A
:103980001306140605060895092E0394000C11F47D
:10399000882352F0BB0F40F4BF2B11F460FF04C02A
:1039A0006F5F7F4F8F4F9F4F089557FD9058440F83
:1039B000551F59F05F3F71F04795880F97FB991F8E
:1039C00061F09F3F79F0879508951216130614064B
:1039D000551FF2CF4695F1DF08C0161617061806D8
:1039E000991FF1CF86957105610508940895E894B3
:1039F000BB2766277727CB0197F90895F999FECF62
:103A000092BD81BDF89A992780B50895262FF9991E
:103A1000FECF1FBA92BD81BD20BD0FB6F894FA9AB1
:103A2000F99A0FBE0196089509D0A59F900DB49FF5
:103A3000900DA49F800D911D11240895A29FB001A7
:103A4000B39FC001A39F700D811D1124911DB29FD2
:103A5000700D811D1124911D089511E0C6E1D1E082
:103A600000E005C0802FFE012FDB2196011DC7312C
:0C3A7000D10780E00807B1F7F894FFCF01
:103A7C000100010001000100010001000100010032
:103A8C000100FF0000F605800000000000CC014999
:103A9C00019601740188011202000000004A0649D7
:103AAC00010D0A00203C3C3C204552524F52203E16
:103ABC003E3E2020005374617274696E67207570ED
:103ACC00202E2E2E2E0054696D65204F75743D00EE
:103ADC003C3C3C204F46464C494E45203E3E3E2009
:103AEC000020454E54455220546F2053544152549B
:103AFC0020003C3C3C204F4E2D4C494E45203E3E38
:103B0C003E2000454E54455220544F204348414ED0
:103B1C004745210054696D65204F757420536563CA
:103B2C003D004849542020454E5420746F20534189
:103B3C0056450053657474696E67732053617665DE
:103B4C00642100204672616D652020436F756E7490
:103B5C00657220004E6F206F66204672616D652085
:103B6C003D0053544F502020414354495641544535
:103B7C0044210053454E534F522031204143544968
:103B8C005645440053656E73496E3120466C61672F
:103B9C00203D2000533120697320736574003C3C38
:103BAC0053454E534F522031205345543E3E005303
:103BBC00312072657365742E2E2E2E2E003C3C53D4
:103BCC00454E534F522031205253543E3E00313D0E
:103BDC0020202000313D00204572726F7220467209
:103BEC00616D6520312000533120757064617465FE
:103BFC00640053454E534F52203220414354495692
:103C0C0045440053656E73496E3220466C616720E3
:103C1C003D2000533220697320736574003C3C5383
:103C2C00454E534F522032205345543E3E005332A2
:103C3C002072657365742E2E2E2E2E003C3C53453F
:103C4C004E534F522032205253543E3E00323D20B0
:103C5C00202000323D0020204572726F7220467287
:103C6C00616D65203220005332207570646174657B
:103C7C00640053454E534F52203320414354495610
:103C8C0045440053656E73496E3320466C61672062
:103C9C003D2000533320697320736574003C3C5302
:103CAC00454E534F522033205345543E3E00533320
:103CBC002072657365742E2E2E2E2E003C3C5345BF
:103CCC004E534F522033205253543E3E00333D202E
:103CDC00202000333D0020204572726F7220467206
:103CEC00616D6520332000533320757064617465F9
:103CFC006400526573657420300053746F70006EED
:0C3D0C00616E00696E66006F7666000054
:00000001FF
