:1000000016C1000045C1000043C1000041C100000D
:100010003FC100003DC100003BC1000039C10000EC
:1000200037C1000035C1000033C1000031C10000FC
:100030002FC100000C94AA092BC1000029C10000A7
:1000400027C1000025C1000023C1000021C100001C
:100050001FC100001DC100001BC10000B7C400008B
:1000600017C1000093C3000068C3000011C1000065
:100070000FC100000DC100000BC1000009C100004C
:1000800007C1000005C1000003C1000001C100005C
:10009000FFC00000FDC00000FBC00000F9C0000070
:1000A000F7C00000F5C00000F3C00000F1C0000080
:1000B000EFC00000EDC00000EBC00000E9C0000090
:1000C000E7C00000E5C00000E3C00000E1C00000A0
:1000D000DFC00000DDC00000DBC00000D9C00000B0
:1000E000D7C000008602890278027C028202C00228
:1000F0008D02910297029B029F02A502A902AD0206
:10010000C002B302B702BB02000021002400270096
:100110002A002D0030003300010100000401070116
:100120000A01000020002300260029002C002F00D7
:1001300032000001000003010601090100000A0B62
:1001400002090C0D0E080703040100000000000066
:10015000000000000000000000000000000000009F
:10016000000000000000000012111000000000005C
:10017000000000000000000000000000000000007F
:1001800000000102102020080810204010204080AC
:10019000020102010804020101020408102040804B
:1001A00080402010080402018004020180402010D9
:1001B0000804020108040201010204081020408022
:1001C00001020408102040800000220025002800C1
:1001D0002B002E003100340002010000050108014F
:1001E0000B010505050507050808080802020202BB
:1001F0000A0A0808040404040101010101010101C3
:100200000303030303030303040707070C0C0C0C8D
:100210000C0C0C0C02020202060606060606060676
:100220000B0B0B0B0B0B0B0B0200DE15250F112418
:100230001FBECFEFD1E2DEBFCDBF00E00CBF14E0A8
:10024000A0E0B2E0E0EDF6E300E00BBF02C00790F3
:100250000D92A036B107D9F725E0A0E6B4E001C0C1
:100260001D92A83AB207E1F711E0C6E1D1E000E043
:1002700006C021970109802FFE010E948E16C5310C
:10028000D10780E00807A9F70E94280F0C94571B9C
:10029000B7CECF92DF92EF92FF920F931F93CF933F
:1002A000DF936C017A018B01C0E0D0E0CE15DF0551
:1002B00089F0D8016D918D01D601ED91FC910190ED
:1002C000F081E02DC6011995892B11F47E0102C041
:1002D0002196ECCFC701DF91CF911F910F91FF9035
:1002E000EF90DF90CF900895FC01918D828D98174B
:1002F00061F0828DDF01A80FB11D5D968C91928D0A
:100300009F5F9F73928F90E008958FEF9FEF089506
:10031000FC01918D828D981731F0828DE80FF11DCF
:10032000858D90E008958FEF9FEF0895FC01918DEA
:10033000228D892F90E0805C9F4F821B91098F73E3
:10034000992708958AEB94E0F1DF21E0892B09F4E5
:1003500020E0822F0895FC01848DDF01A80FB11DDC
:10036000A35ABF4F2C91848D90E001968F739927EB
:10037000848FA689B7892C93A089B1898C918064D8
:100380008C93938D848D981306C00288F389E02D99
:1003900080818F7D80830895EF92FF920F931F934A
:1003A000CF93DF93EC0181E0888F9B8D8C8D981328
:1003B00005C0E889F989808185FD23C0F62E0B8D63
:1003C00010E00F5F1F4F0F731127E02E8C8DE81286
:1003D0000BC00FB607FCFACFE889F989808185FF49
:1003E000F5CFCE01B8DFF2CF8B8DFE01E80FF11D06
:1003F000E35AFF4FF0820B8FEA89FB89808180628C
:1004000007C0EE89FF896083E889F989808180646B
:10041000808381E090E0DF91CF911F910F91FF9059
:10042000EF900895CF93DF93EC01888D8823C1F07E
:10043000EA89FB89808185FD05C0A889B9898C91ED
:1004400086FD0EC00FB607FCF5CF808185FFF2CF89
:10045000A889B9898C9185FFEDCFCE017CDFE8CFEB
:10046000DF91CF91089580E090E0892B19F06ADF49
:10047000811125C080E090E0892B41F080E090E080
:10048000892B21F00E94000081111CC080E090E0C7
:10049000892B41F080E090E0892B21F00E94000040
:1004A000811113C080E090E0892BA1F080E090E002
:1004B000892B81F00E94000081110AC008950E94DA
:1004C0000000D8CF0E940000E1CF0E940000EACFD8
:1004D0000C940000089590E0FC013197E231F105A1
:1004E00008F04EC08827EE58FF4F8F4F0C948E16A1
:1004F000809180008F7703C0809180008F7D8093F2
:100500008000089580918000877FF9CF84B58F7730
:1005100002C084B58F7D84BD08958091B0008F772F
:1005200003C08091B0008F7D8093B00008958091CA
:1005300090008F7707C0809190008F7D03C08091DD
:100540009000877F8093900008958091A0008F771E
:1005500007C08091A0008F7D03C08091A000877F9D
:100560008093A0000895809120018F7707C080912B
:1005700020018F7D03C080912001877F809320011F
:1005800008953FB7F8948091790490917A04A091EE
:100590007B04B0917C0426B5A89B05C02F3F19F0C1
:1005A0000196A11DB11D3FBFBA2FA92F982F8827F3
:1005B000820F911DA11DB11DBC01CD0142E0660F4E
:1005C000771F881F991F4A95D1F70895DC01ED9197
:1005D000FC91DB0114964D915C9115976D917C9186
:1005E0000280F381E02D19946115710579F0FB010A
:1005F00001900020E9F73197AF01461B570BDC0152
:10060000ED91FC910280F381E02D199480E090E05F
:1006100008954F925F926F927F92EF92FF920F93A5
:100620001F93CF93DF93CDB7DEB7A1970FB6F894A2
:10063000DEBF0FBECDBF7C01FA01CB0119A2223073
:1006400008F42AE08E010F5D1F4F422E512C612CC1
:10065000712CBF01A30192010E945016F901CA0139
:10066000015011096A3014F4605D01C0695CD80161
:100670006C93232B242B252B61F7B801C701B4DF22
:10068000A1960FB6F894DEBF0FBECDBFDF91CF911C
:100690001F910F91FF90EF907F906F905F904F9020
:1006A0000895CF92DF92EF92FF920F931F93CF9313
:1006B000DF93EC016A017B012115310579F4E881B2
:1006C000F9810190F081E02D642FDF91CF911F918E
:1006D0000F91FF90EF90DF90CF9019942A30310561
:1006E00001F577FF1DC0E881F9810190F081E02DCF
:1006F0006DE219958C0144275527BA014C195D0903
:100700006E097F092AE0CE0184DF800F911FDF91FF
:10071000CF911F910F91FF90EF90DF90CF900895B0
:100720002AE0B701A601CE01DF91CF911F910F9171
:10073000FF90EF90DF90CF906CCF1F920F920FB68B
:100740000F9211240BB60F922F933F934F935F9309
:100750006F937F938F939F93AF93BF93EF93FF9389
:100760008AEB94E0F8DDFF91EF91BF91AF919F91FB
:100770008F917F916F915F914F913F912F910F904A
:100780000BBE0F900FBE0F901F9018951F920F92E7
:100790000FB60F9211240BB60F922F938F939F9346
:1007A000EF93FF93E091CA04F091CB048081E09134
:1007B000D004F091D10482FD12C090818091D304C5
:1007C0008F5F8F732091D404821751F0E091D3048E
:1007D000F0E0E654FB4F958F8093D30401C08081F5
:1007E000FF91EF919F918F912F910F900BBE0F90E2
:1007F0000FBE0F901F901895CF93DF93282F30E0F6
:10080000F901E45CFE4F8491F901EE57FE4FD4915B
:10081000F901EE51FE4FC491CC2389F081115BDECA
:10082000EC2FF0E0EE0FFF1FEE5DFE4FA591B491AF
:10083000EC91ED2381E090E021F480E002C080E0C3
:1008400090E0DF91CF9108951F93CF93DF93282FEE
:1008500030E0F901E45CFE4F8491F901EE57FE4F60
:10086000D491F901EE51FE4FC491CC23C1F0162F63
:10087000811131DEEC2FF0E0EE0FFF1FE853FE4F49
:10088000A591B4918FB7F894111105C09C91ED2FEB
:10089000E095E92302C0EC91ED2BEC938FBFDF9143
:1008A000CF911F910895CF93DF93EC0160E08E818B
:1008B000CBDF61E08E81C8DF60E08E81C5DF8BE831
:1008C00091E00197F1F7DF91CF910895CF93DF93F6
:1008D00090E0FC01EE57FE4F2491FC01EE51FE4FDB
:1008E0008491882361F190E0880F991FFC01E85FF3
:1008F000FE4FC591D491FC01E853FE4FA591B491F0
:10090000611109C09FB7F89488812095822388835C
:10091000EC912E230BC0623061F49FB7F8943881BC
:10092000822F809583238883EC912E2B2C939FBF5D
:1009300006C08FB7F894E8812E2B28838FBFDF91F4
:10094000CF9108958F929F92AF92BF92CF92DF92F4
:10095000EF92FF926B017C0114DE4B015C01C1142C
:10096000D104E104F104E9F00CDEDC01CB018819CB
:100970009909AA09BB09883E9340A105B10578F3FE
:1009800021E0C21AD108E108F10888EE880E83E060
:10099000981EA11CB11CC114D104E104F10421F77B
:1009A000DECFFF90EF90DF90CF90BF90AF909F9001
:1009B0008F9008952FB7F894609175047091760424
:1009C00080917704909178042FBF08951F920F9221
:1009D0000FB60F9211242F933F938F939F93AF9352
:1009E000BF938091750490917604A0917704B091A3
:1009F00078043091740423E0230F2D3720F40196FE
:100A0000A11DB11D05C026E8230F0296A11DB11D31
:100A1000209374048093750490937604A0937704D4
:100A2000B09378048091790490917A04A0917B042A
:100A3000B0917C040196A11DB11D8093790490931F
:100A40007A04A0937B04B0937C04BF91AF919F91F3
:100A50008F913F912F910F900FBE0F901F9018957F
:100A6000CF92DF92EF92FF920F931F93CF93DF937A
:100A70007C016C0187E0C80ED11CC0E0D0E0062FDD
:100A800010E0B8010C2E02C0759567950A94E2F744
:100A90006170F60181916F01D7DE2196C430D105D6
:100AA00081F7C701DF91CF911F910F91FF90EF90D8
:100AB000DF90CF90F8CECF92DF92EF92FF920F931C
:100AC0001F93CF93DF93EC01F62E642F8C81BCDE55
:100AD0008D818F3F11F060E0B7DE8F850F2D10E024
:100AE00084FF23C06E0187E0C80ED11CE12CF12CDD
:100AF000B8010E2C02C0759567950A94E2F76170F3
:100B0000F60181916F01A0DEFFEFEF1AFF0A88E086
:100B1000E816F10469F7CE01DF91CF911F910F9193
:100B2000FF90EF90DF90CF90BECEB80184E0759536
:100B300067958A95E1F7CE0193DF6F2DCE01DF91A6
:100B4000CF911F910F91FF90EF90DF90CF9088CFC2
:100B500041E0B1DF81E090E0089540E0ACCF61E09A
:100B6000FCDF8BE39FE10197F1F70895AF92BF920D
:100B7000CF92DF92EF92FF920F931F93CF93DF9369
:100B80001F92CDB7DEB75C017B018B016C0184E065
:100B9000C80ED11CF80161918F01C50169830E94C3
:100BA000281B6981681719F0C5010E94301BFFEFEF
:100BB000AF1ABF0AAC14BD0469F7C7010F90DF91EB
:100BC000CF911F910F91FF90EF90DF90CF90BF904A
:100BD000AF9008954F925F926F927F92AF92BF92C3
:100BE000CF92DF92EF92FF920F931F93CF93DF93F9
:100BF00082E002DEEC018091080290910902C817A0
:100C0000D90749F0D7DE6093700470937104809324
:100C1000720490937304CEDE0091700410917104FD
:100C20002091720430917304DC01CB01801B910B85
:100C3000A20BB30B87399105A105B10558F0BADEB7
:100C400060937004709371048093720490937304A2
:100C50008E0102C001E010E0D0930902C0930802A7
:100C600084E0CADDEC018091060290910702C8176A
:100C7000D90749F09FDE60936C0470936D048093F4
:100C80006E0490936F0496DEC0906C04D0906D0457
:100C9000E0906E04F0906F04DC01CB018C199D098B
:100CA000AE09BF0987399105A105B10558F082DE6B
:100CB00060936C0470936D0480936E0490936F0442
:100CC0007E0103C0EE24E394F12CD0930702C0937D
:100CD000060283E091DD6C0180910402909105028F
:100CE000C816D90649F066DE6093680470936904FB
:100CF00080936A0490936B045DDE4090680450908A
:100D0000690460906A0470906B04DC01CB01841963
:100D10009509A609B70987399105A105B10558F0CC
:100D200049DE609368047093690480936A04909329
:100D30006B04E60102C0C1E0D0E0D0920502C0928F
:100D4000040286E059DD6C01809102029091030259
:100D5000C816D90649F02EDE6093640470936504CA
:100D6000809366049093670425DE4090640450905D
:100D700065046090660470906704DC01CB018419FF
:100D80009509A609B7098B3F9105A105B10558F052
:100D900011DE6093640470936504809366049093FD
:100DA0006704560103C0AA24A394B12CD092030275
:100DB000C092020289E020DD6C01809100029091D6
:100DC0000102C816D90649F0F5DD609360047093FE
:100DD00061048093620490936304ECDD40906004AE
:100DE000509061046090620470906304DC01CB0158
:100DF00084199509A609B7098B3F9105A105B1058D
:100E000058F0D8DD609360047093610480936204AD
:100E100090936304C60102C081E090E0D092010289
:100E2000C09200020115110589F420917D043091D2
:100E30007E042115310511F54AEF50E060E070E0C5
:100E400080ED97E08CD381E090E013C0E114F104D1
:100E500009F0B4C020917D0430917E04232BD9F495
:100E60004AEF50E060E070E084E398E078D382E0FD
:100E700090E09093920480939104A4C022303105B5
:100E800051F44AEF50E060E070E084E398E067D30B
:100E900083E090E0EECFCD2B89F420918F04309148
:100EA00090042230310550F44AEF50E060E070E0E9
:100EB00084E398E054D385E090E0DBCFEF2801F5A0
:100EC00020917D0430917E042230310551F44AEFA7
:100ED00050E060E070E084E398E041D384E090E08B
:100EE000C8CF2430310561F44AEF50E060E070E093
:100EF00084E398E034D3109292041092910462C07B
:100F0000012B61F42091910430919204233031053A
:100F100009F4A6CF2530310509F4A2CFAB2831F56D
:100F200080918D0490918E04019690938E0480930D
:100F30008D048230910539F481E090E090938A0429
:100F4000809389043FC08430910539F481E090E0BA
:100F5000909386048093850435C0069799F581E0C7
:100F600090E090938204809381042CC0892B51F5EA
:100F700080918B0490918C04019690938C048093C3
:100F80008B048230910539F481E090E090938804DD
:100F90008093870417C08430910539F481E090E094
:100FA00090938404809383040DC0069759F481E0E4
:100FB00090E09093800480937F0404C0CD2B09F4CB
:100FC0006CCFACCFDF91CF911F910F91FF90EF903D
:100FD000DF90CF90BF90AF907F906F905F904F90D9
:100FE0000895AF92BF92CF92DF92EF92FF920F934C
:100FF0001F93CF93DF935C017B016A01C0E0D0E0D7
:10100000CC15DD050CF03CC089E695E0A8DD62E07A
:1010100089E695E0FED1B50189E695E0D7DA62E38D
:1010200070E080E090E08EDC00E010E00E151F051F
:101030006CF468E189E695E090DDCCDD62E370E078
:1010400080E090E07FDC0F5F1F4FF0CF00E010E00A
:101050000E151F056CF46CE189E695E07EDDBADDC6
:1010600062E370E080E090E06DDC0F5F1F4FF0CF37
:1010700062E370E080E090E065DCACDD2196C0CFFB
:10108000DF91CF911F910F91FF90EF90DF90CF9064
:10109000BF90AF900895CF93DF9300D000D0CDB72D
:1010A000DEB789E695E05BDD61E08DE0CDDB60E0F9
:1010B0008EE0CADB67E575E08AEB94E087DA69E2E7
:1010C00072E08AEB94E090DA6CE272E0CE01019675
:1010D000EAD042E050E06EE070E0CE01019681DFA0
:1010E000CE010196DBD01A8219821C821B821E82DD
:1010F0001D8260915705709158056115710539F091
:1011000040915B0550915C05CE01019687D060E06F
:1011100080E074D5BE016F5F7F4F89E695E056DAB7
:10112000CE010196BBD06CE272E0CE010196BBD03D
:1011300061E080E063D5BE016F5F7F4F89E695E097
:1011400045DACE010196AAD04AEF50E060E070E0A7
:1011500084E398E004D268EC70E080E090E0F2DB99
:101160008CE0B5D068EC70E080E090E0EBDB4AEF1B
:1011700050E060E070E084E398E0F1D168EC70E06A
:1011800080E090E0DFDB8CE0A2D068EC70E080E0F3
:1011900090E0D8DB4AEF50E060E070E080ED97E04F
:1011A000DED168EC70E080E090E0CCDB4AEF50E00C
:1011B00060E070E084E398E0D2D168EC70E080E019
:1011C00090E0C0DB8CE083D068EC70E080E090E0E1
:1011D000B9DB4AEF50E060E070E084E398E0BFD113
:1011E00068EC70E080E090E0ADDB8CE070D068EC03
:1011F00070E080E090E0A6DB4AEF50E060E070E055
:1012000080ED97E0ACD126960FB6F894DEBF0FBE06
:10121000CDBFDF91CF9108950E94FB19EF92FF920D
:101220000F931F93CF93DF93EC017B018A01888199
:101230009981009729F02A813B8124173507F8F41A
:10124000B8016F5F7F4F0E941719009759F099837B
:1012500088831B830A832C813D81232B81F4FC012D
:1012600010820DC088819981009711F00E947F182B
:10127000198218821D821C821B821A8207C01D835C
:101280000C83B701888199810E94081ACE01DF91F1
:10129000CF911F910F91FF90EF900895FC018081F5
:1012A00091810C947F18FC011182108213821282AA
:1012B000158214826115710549F0FB01019000202F
:1012C000E9F73197AF01461B570BA8CF08959091CE
:1012D0000A0298133DC0E8E2F2E0E4919FEF909398
:1012E0000A02E230C9F050F4EE2399F0E13081F5C2
:1012F00090916F009D7F90936F002AC0E43019F1A8
:10130000E0F0E53029F5909173009D7F9093730094
:101310001FC010926E001CC0909170009D7F909332
:10132000700091E09093B0009091B100987F94602C
:101330009093B1001092B3000BC0909171009D7F0B
:101340009093710005C0909172009D7F9093720000
:1013500060E07ACA1F920F920FB60F9211240BB65B
:101360000F922F933F934F935F936F937F938F933E
:101370009F93AF93BF93EF93FF938091B2049091AB
:10138000B304A091B404B091B504892B8A2B8B2BA4
:1013900051F18091AF04E091B004F091B1049081DB
:1013A000892780838091B2049091B304A091B40402
:1013B000B091B504181619061A061B06BCF48091E4
:1013C000B2049091B304A091B404B091B504019714
:1013D000A109B1098093B2049093B304A093B4041B
:1013E000B093B50403C080910A0271DFFF91EF91C1
:1013F000BF91AF919F918F917F916F915F914F912D
:101400003F912F910F900BBE0F900FBE0F901F902A
:101410001895EF92FF920F931F93CF93DF93EC01F8
:10142000623018F08F8588608F876B8B1C8A80E410
:101430008D8B80E18E8B80E58F8B61E08C8146DA2D
:101440008D818F3F11F061E041DA61E08E813EDAFB
:101450007E0187E0E80EF11C00E010E08F8584FD3E
:1014600003C084E090E002C088E090E0081719070C
:1014700044F461E0F70181917F0128DA0F5F1F4F8B
:10148000EDCF8BE39DE00197F1F760E08C81DCD933
:1014900060E08E81D9D98D818F3F11F060E0D4D981
:1014A0006F8564FD19C063E0CE01DADA0BE416E45F
:1014B000C8010197F1F763E0CE01D2DAC8010197C4
:1014C000F1F763E0CE01CCDA83E592E00197F1F722
:1014D00062E0CE01C5DA13C06062CE013EDB8BE470
:1014E00096E40197F1F76F856062CE0136DB83E504
:1014F00092E00197F1F76F856062CE012EDB6F8578
:101500006062CE012ADB84E0888B6CE0CE0125DBB3
:10151000CE0125DB82E0898B66E0CE01DF91CF91A1
:101520001F910F91FF90EF9018CB0F931F93CF93C4
:10153000DF93C6EBD4E08C01065B1440C8018C0F2E
:101540009D1F0E94281B899384E0CA3BD807B1F7EE
:1015500086EB94E0DF91CF911F910F9108953F9218
:101560004F925F926F927F928F929F92AF92BF92B3
:10157000CF92DF92EF92FF920F931F93CF93DF935F
:1015800000D01F92CDB7DEB720910A022C3021F097
:101590002F3F09F01DC304C0E8E2F2E03490EDC033
:1015A0002CE020930A02E8E2F2E0E491EF3F09F434
:1015B0000FC3E23009F474C054F5EE2309F453C0AC
:1015C000E13009F0D9C01092800010928100209182
:1015D0008100286020938100209181002160209368
:1015E0008100EEEEF1E0E491F0E0EE0FFF1FE85332
:1015F000FE4F2591349130938C0520938B05EEE8B6
:10160000F1E0E491E0938A0533243394B8C0E430E8
:1016100009F48EC00CF468C0E53009F0ADC010923A
:1016200020011092210120912101286020932101A5
:1016300020912101216020932101EEEEF1E0E4915F
:10164000F0E0EE0FFF1FE853FE4F259134913093E9
:10165000830520938205EEE8F1E0E491E0938105B3
:10166000B5E03B2E8CC014BC15BC24B5226024BD53
:1016700025B5216025BDEEEEF1E0E491F0E0EE0F3E
:10168000FF1FE853FE4F2591349130938F0520932F
:101690008E05EEE8F1E0E491E0938D05312C6FC00A
:1016A0001092B0001092B1002091B00022602093FF
:1016B000B0002091B10021602093B100EEEEF1E086
:1016C000E491F0E0EE0FFF1FE853FE4F25913491B7
:1016D0003093B1042093B004EEE8F1E0E491E0939C
:1016E000AF04B2E03B2E4BC01092900010929100DC
:1016F0002091910028602093910020919100216019
:1017000020939100EEEEF1E0E491F0E0EE0FFF1F88
:10171000E853FE4F25913491309389052093880535
:10172000EEE8F1E0E491E093870533E0332E27C043
:101730001092A0001092A1002091A1002860209397
:10174000A1002091A10021602093A100EEEEF1E024
:10175000E491F0E0EE0FFF1FE853FE4F2591349126
:101760003093860520938505EEE8F1E0E491E0935F
:10177000840504E0302E03C03E2E37FC29C22A0126
:101780003B018C0161E08CE0A1D84801A12CB12C77
:10179000832D8D7F09F0BBC060E072E18AE790E0A5
:1017A000A50194010E94721629833A834B835C83BE
:1017B00069017A0121E0C21AD108E108F1088FEF2E
:1017C000C816D104E104F10409F008F44CC060E447
:1017D00072E48FE090E0A50194010E947216690105
:1017E0007A0191E0C91AD108E108F108E2E03E125D
:1017F00020C0FFEFCF16D104E104F10409F008F492
:10180000E5C160E970ED83E090E0A50194010E94DC
:10181000721669017A0181E0C81AD108E108F1085D
:101820009FEFC916D104E104F10409F0D0F583E07B
:1018300067C0EFEFCE16D104E104F104B1F0A8F0D7
:1018400068E478EE81E090E0A50194010E947216B0
:1018500069017A01F1E0CF1AD108E108F1083320DB
:1018600009F45AC1AAC181E001C082E03320A1F08D
:1018700047C089819A81AB81BC812AE0B595A79543
:10188000979587952A95D1F76C017D01F1E0CF1AE4
:10189000D108E108F10885E095B5987F892B85BDD1
:1018A000A6C068E478EE81E090E0A50194010E9472
:1018B000721669017A0181E0C81AD108E108F108BD
:1018C0009FEFC916D104E104F10409F008F422C124
:1018D00064E274EF80E090E0A50194010E9472162A
:1018E00069017A0181E0C81AD108E108F1089FEF87
:1018F000C916D104E104F10411F008F02FC185E00C
:101900009091B100987F892B8093B10070C060E006
:1019100072E18AE790E0A50194010E9472166901C4
:101920007A01F1E0CF1AD108E108F108C114D1041D
:1019300021E0E206F10488F068E478EE81E090E0CE
:10194000A50194010E94721669017A0181E0C81A0A
:10195000D108E108F10883E001C081E091E039128B
:1019600010C090918100987F892B80938100411451
:1019700051046104710409F03FC02FEF3FEFA9014A
:1019800071C0E3E03E120FC090919100987F892BC7
:1019900080939100411451046104710469F52FEFA3
:1019A0003FEFA90181C0F4E03F120FC09091A10068
:1019B000987F892B8093A100411451046104710424
:1019C000D9F42FEF3FEFA90181C025E032120FC0FB
:1019D00090912101987F892B80932101411451041A
:1019E0006104710449F42FEF3FEFA90181C0411454
:1019F00051046104710471F0D801AA0FBB1FA30147
:101A000092010E943E1B28EE33E040E050E00E942D
:101A1000501603C02FEF3FEFA90182E03816A1F165
:101A2000831534F0332079F091E03916D9F0D0C025
:101A3000E4E03E1609F44AC03E16B4F1F5E03F1664
:101A400009F456C0C5C0C7BC2093A0053093A105BA
:101A50004093A2055093A30580916E00826080930D
:101A60006E00B6C0D0928900C092880020939C0579
:101A700030939D0540939E0550939F0580916F0084
:101A8000826080936F00A4C0C092B3002093B20420
:101A90003093B3044093B4045093B5048091700024
:101AA00082608093700094C0D0929900C092980098
:101AB000209398053093990540939A0550939B0580
:101AC0008091710082608093710082C0D092A900E1
:101AD000C092A800209394053093950540939605F5
:101AE000509397058091720082608093720070C05D
:101AF000D0922901C092280120939005309391053E
:101B00004093920550939305809173008260809377
:101B100073005EC084E0F4CE2FEFC216D104E1045E
:101B2000F104D1F0C8F062E17AE780E090E0A5012D
:101B300094010E94721669017A01E1E0CE1AD1087F
:101B4000E108F108FFEFCF16D104E104F10411F030
:101B500008F08FCE84E0A0CE83E09ECE62E17AE7EB
:101B600080E090E0A50194010E94721669017A015B
:101B700081E0C81AD108E108F1089FEFC916D10425
:101B8000E104F104C1F0B8F089819A81AB81BC8194
:101B90004AE0B595A795979587954A95D1F76C0139
:101BA0007D01E1E0CE1AD108E108F108332009F403
:101BB00072CE87E0A5CE86E059CEEFEFCE16D104E7
:101BC000E104F10409F050F684E050CE82E098CEB2
:101BD0000F900F900F900F90DF91CF911F910F9169
:101BE000FF90EF90DF90CF90BF90AF909F908F903D
:101BF0007F906F905F904F903F900895643008F011
:101C000063E090917C05691710F06FEF690FE62F84
:101C1000F0E0E759FA4F9489682F690F606889E608
:101C200095E00C94AD05BC0189E695E00C94F402B6
:101C3000CF93DF93BC018AEB94E00E94F402EC01A5
:101C400069E272E08AEB94E00E94F4028C0F9D1F1F
:101C5000DF91CF910895CF93DF93AC01990F660B7D
:101C6000770B2AE030E08AEB94E00E945103EC010C
:101C700069E272E08AEB94E00E94F4028C0F9D1FEF
:101C8000DF91CF9108954F925F926F927F928F92E2
:101C90009F92AF92BF92CF92DF92EF92FF926B0131
:101CA0007C01B42E9B01AC010E94E617882319F039
:101CB00064E574E027C026013701E89477F82FEF38
:101CC0003FEF4FE75FE7C301B2010E94E6178111C2
:101CD0000DC02FEF3FEF4FE75FE7C301B2010E9456
:101CE0000F1A18161CF468E574E00CC02FEF3FEFD4
:101CF0004FE75FE4C701B6010E94E217181694F49B
:101D00006CE574E089E695E0FF90EF90DF90CF906E
:101D1000BF90AF909F908F907F906F905F904F900B
:101D20000C94F4022FEF3FEF4FE75FECC701B601D1
:101D30000E940F1A87FDE4CF20E030E0A901C7011F
:101D4000B6010E940F1A87FF11C0E0916905F0915A
:101D50006A050190F081E02D6DE289E695E0199524
:101D60004C01F7FAF094F7F8F09402C0812C912C12
:101D7000A12C60E070E080E09FE3AB1441F020E034
:101D800030E040E251E40E94FB16A394F6CF9B01A1
:101D9000AC01C701B601CBD72B013C010E946317F0
:101DA0006B017C010E94131A9B01AC01C301B201BB
:101DB000BDD72B013C012AE0B701A60189E695E0D9
:101DC0000E9409037C01E80CF91CBB2041F06CE483
:101DD00072E089E695E00E94F402E80EF91EDB2C21
:101DE000DD2029F120E030E040E251E4C301B201FE
:101DF0000E94741A2B013C010E9463174B01A12C15
:101E0000B12C2AE0B501A40189E695E00E940903FE
:101E1000E80EF91EC501B4010E94131A9B01AC0122
:101E2000C301B20183D72B013C01DA94D9CFC7019A
:101E3000FF90EF90DF90CF90BF90AF909F908F90EA
:101E40007F906F905F904F90089587E595E026CA48
:101E5000CF93DF93CDB7DEB72C970FB6F894DEBFE4
:101E60000FBECDBF789484B5826084BD84B5816097
:101E700084BD85B5826085BD85B5816085BD809155
:101E80006E00816080936E001092810080918100CD
:101E900082608093810080918100816080938100C5
:101EA000809180008160809380008091B100846087
:101EB0008093B1008091B00081608093B0008091E8
:101EC0009100826080939100809191008160809365
:101ED0009100809190008160809390008091A1009A
:101EE00082608093A1008091A10081608093A10015
:101EF0008091A00081608093A00080912101826088
:101F00008093210180912101816080932101809142
:101F1000200181608093200180917A008460809309
:101F20007A0080917A00826080937A0080917A00B2
:101F3000816080937A0080917A00806880937A0033
:101F40001092C100E091CA04F091CB0482E080833A
:101F5000E091C604F091C7041082E091C804F091AA
:101F6000C9048FEC80831092D204E091CE04F091EA
:101F7000CF0486E08083E091CC04F091CD04808191
:101F800080618083E091CC04F091CD0480818860F1
:101F90008083E091CC04F091CD04808180688083BF
:101FA000E091CC04F091CD0480818F7D808362E04C
:101FB00082E00E94660462E083E00E94660462E0C0
:101FC00084E00E94660462E086E00E94660462E0AB
:101FD00089E00E94660461E08EE00E94660461E090
:101FE0008DE00E94660460E08DE00E94240460E0C1
:101FF0008EE00E94240482E00E94FC03892BA9F455
:102000006CED75E080E090E00E94A2048CE390E02B
:10201000A0E0B0E089839A83AB83BC83BE016F5F8D
:102020007F4F80E090E00E94B60580E090E07DDA8E
:102030008EE190E0A0E0B0E08093A1049093A20430
:10204000A093A304B093A4046DE372E0CE010196C3
:102050002AD941E050E06DE070E0CE0101960E9487
:10206000F107CE0101961AD962E089E695E0D1D94F
:102070008EE492E0D8DD4091A1045091A2046091D9
:10208000A3047091A4042AE030E089E695E00E9460
:10209000510368EE73E080E090E00E94A20483E0C8
:1020A000E82EF12C92E0C92ED12C0E94EA05009175
:1020B0009104109192040230110509F446C014F500
:1020C0000115110549F10130110509F0CCC189E66E
:1020D00095E00E94AF0560E080E090DD8AE792E045
:1020E000A2DD10937E0400937D041093940400936A
:1020F000930461E08EE00E94240410939004009306
:102100008F0476C10430110509F44CC1ACF10530DF
:10211000110509F474C1A7C160E080E06FDD88E5B6
:1021200092E081DD61E080E069DD89E692E07BDDBF
:1021300010927E0410927D041092940410929304E5
:102140001092900410928F0453C160E080E056DD3D
:102150008BE892E068DD61E080E050DD8CE992E0A0
:1021600062DD4091B6045091B7046091B80470915B
:10217000B90421E030E030C1F0927E04E0927D04A9
:10218000F0929404E092930466E970E080E090E0BD
:102190000E94A204F0929004E0928F0460E080E03C
:1021A0002DDD8AEA92E03FDD61E080E027DD8CE909
:1021B00092E039DD4091B6045091B7046091B804C3
:1021C0007091B9044093A1045093A2046093A304B6
:1021D0007093A4042AE030E089E695E00E94510360
:1021E00060ED77E080E090E00E94A204809191048D
:1021F000909192048330910509F080C00E94EA0515
:1022000084E00E94FC03892BC9F46AEF70E080E04F
:1022100090E00E94A2048091A1049091A204A09158
:10222000A304B091A4040196A11DB11D8093A10443
:102230009093A204A093A304B093A40483E00E940B
:10224000FC03892BC9F46AEF70E080E090E00E9403
:10225000A2048091A1049091A204A091A304B09142
:10226000A4040197A109B1098093A1049093A20449
:10227000A093A304B093A4048091A1049091A2041C
:10228000A091A304B091A40483369105A105B105E2
:1022900051F489E695E00E94AF0560E080E0AEDC95
:1022A0008AEA92E0C0DC8091A1049091A204A091FE
:1022B000A304B091A4040997A105B10551F489E6DE
:1022C00095E00E94AF0560E080E098DC8AEA92E049
:1022D000AADC61E080E092DC8CE992E0A4DC409131
:1022E000A1045091A2046091A3047091A4042AE077
:1022F00030E089E695E00E94510378CF059709F414
:102300007DCF61EA74E080E090E00E94B60589E646
:1023100095E00E94AF0580E090E007D98091B60477
:102320009091B704A091B804B091B9048093A1042E
:102330009093A204A093A304B093A40469E473E06F
:10234000CE0101960E9453096BEB72E0CE01079615
:102350000E94530960E080E051DCBE01695F7F4F5D
:1023600089E695E00E94E602BE016F5F7F4F89E635
:1023700095E00E94E602CE0107960E944E09CE012A
:1023800001960E944E0960ED77E080E090E00E94A7
:10239000A2041092900410928F04D0929204C092E2
:1023A000910461C089E695E00E94AF0560E080E09D
:1023B00025DC8BEC92E037DC61E080E01FDC8CED0B
:1023C00092E031DC4091A5045091A6046091A704ED
:1023D0007091A8042AE030E089E695E00E9451035C
:1023E00010937E0400937D0410939404009393044F
:1023F00066E970E080E090E00E94A20434C0109290
:1024000092041092910483E00E94FC03892B41F412
:1024100000918F04109190040115110509F49AC3DD
:1024200083E00E94FC03892B39F480918F04909102
:102430009004019709F494C389E695E00E94AF05E2
:1024400060E080E0DBDB8AEE92E0EDDB109290044E
:1024500010928F0408C080918F049091900401978E
:1024600049F00E94EA0580919104909192040197AD
:1024700091F36DC30E94EA050091890410918A04CA
:102480000130110509F047C08091AD049091AE0470
:10249000892B09F040C08BEF92E0CADB8091890460
:1024A00090918A04D8DB8BE093E0C2DB2091A104F9
:1024B0003091A2044091A3045091A404A8EEB3E08B
:1024C0000E943E1BB2D76093A9047093AA04809324
:1024D000AB049093AC040E94DA04A5D76093650521
:1024E0007093660580936705909368051093AE041A
:1024F0000093AD04109288041092870460E080E09D
:102500007DDB85E193E08FDB46E950E060E070E041
:1025100086ED96E024D880918704909188040197F5
:1025200089F58091AD049091AE04019759F5109210
:102530008A041092890486E293E07ADB1092AE045A
:102540001092AD0460E080E059DB84E393E06BDB44
:1025500046E950E060E070E088E998E000D88091BA
:10256000A5049091A604A091A704B091A804019697
:10257000A11DB11D8093A5049093A604A093A70468
:10258000B093A8048091AD049091AE04019709F036
:102590008CC00E94DA0447D720916505309166050A
:1025A0004091670550916805C1D39B01AC016091D2
:1025B000A9047091AA048091AB049091AC04B6D3A5
:1025C0006093A9047093AA048093AB049093AC0425
:1025D00020E030E04AE754E40ED4A1D420E030E01B
:1025E00046EC52E41CD7811105C061E007DB85E4AD
:1025F00093E019DB20E030E04AE754E46091A9045D
:102600007091AA048091AB049091AC04F4D387D468
:1026100020E030E040E151E402D7811105C061E0E3
:10262000EDDA85E493E0FFDA61E080E0E7DA8BE45D
:1026300093E0F9DA20E030E04AE754E46091A9043D
:102640007091AA048091AB049091AC04D4D340E083
:102650001ADB0E94DA04E7D660936505709366057D
:10266000809367059093680520E030E0A9016091B0
:10267000A9047091AA048091AB049091AC04CFD6C8
:1026800018165CF04FE050E06EE473E087E595E0EB
:102690000E940E090E944B0808C08EE593E0C8DA3C
:1026A0008091890490918A04D6DA0E94EA0500910B
:1026B0008504109186040130110509F047C080910E
:1026C0009F049091A004892B09F040C089E693E013
:1026D000AFDA8091850490918604BDDA89E793E0B2
:1026E000A7DA2091A1043091A2044091A304509153
:1026F000A404A8EEB3E0C2D798D660939B0470936D
:102700009C0480939D0490939E040E94DA048BD6CF
:1027100060936105709362058093630590936405EF
:102720001093A00400939F041092840410928304D9
:1027300060E080E063DA83E893E075DA46E950E030
:1027400060E070E08AE397E00E94AF0A8091830422
:1027500090918404019791F580919F049091A00439
:10276000019761F5109286041092850484E993E044
:102770005FDA1092A00410929F0460E080E03EDADD
:1027800082EA93E050DA46E950E060E070E08CEFD6
:1027900098E00E94AF0A8091A5049091A604A091B0
:1027A000A704B091A8040196A11DB11D8093A504B2
:1027B0009093A604A093A704B093A80480919F04CB
:1027C0009091A004019709F08EC00E94DA042BD6E4
:1027D0002091610530916205409163055091640537
:1027E000A5D29B01AC0160919B0470919C048091E7
:1027F0009D0490919E049AD260939B0470939C04D4
:1028000080939D0490939E0420E030E04AE754E4D6
:10281000F2D285D320E030E046EC52E400D68111BC
:1028200006C061E086E0EAD983EB93E0FCD920E0C2
:1028300030E04AE754E460919B0470919C048091DD
:102840009D0490919E04D7D26AD320E030E040E10D
:1028500051E4E5D5811106C061E086E0CFD983EB74
:1028600093E0E1D961E086E0C9D989EB93E0DBD957
:1028700020E030E04AE754E460919B0470919C04AE
:1028800080919D0490919E04B6D240E0FCD90E94B4
:10289000DA04C9D56093610570936205809363057E
:1028A0009093640520E030E0A90160919B04709151
:1028B0009C0480919D0490919E04B1D518165CF003
:1028C00040E150E06CEB73E087E595E00E940E0973
:1028D0000E944B0808C08DEC93E0AAD98091850432
:1028E00090918604B8D90E94EA0500918104109164
:1028F00082040130110509F047C08091990490913C
:102900009A04892B09F040C088ED93E091D9809119
:102910008104909182049FD988EE93E089D9209117
:10292000A1043091A2044091A3045091A404A8EE04
:10293000B3E0A4D67AD560939504709396048093FF
:102940009704909398040E94DA046DD560935D0516
:1029500070935E0580935F059093600510939A04D1
:10296000009399041092800410927F0460E080E04C
:1029700045D982EF93E057D946E950E060E070E036
:102980008EE997E00E94AF0A80917F0490918004C5
:10299000019791F58091990490919A04019761F5BE
:1029A000109282041092810483E094E041D9109245
:1029B0009A041092990460E080E020D981E194E0CB
:1029C00032D946E950E060E070E080E699E00E948C
:1029D000AF0A8091A5049091A604A091A704B0919C
:1029E000A8040196A11DB11D8093A5049093A6048F
:1029F000A093A704B093A8048091990490919A049D
:102A0000019709F08EC00E94DA040DD520915D0572
:102A100030915E0540915F055091600587D19B0123
:102A2000AC01609195047091960480919704909107
:102A300098047CD1609395047093960480939704D6
:102A40009093980420E030E04AE754E4D4D167D270
:102A500020E030E046EC52E4E2D4811106C061E0AF
:102A60008BE0CCD882E294E0DED820E030E04AE788
:102A700054E460919504709196048091970490912C
:102A80009804B9D14CD220E030E040E151E4C7D401
:102A9000811106C061E08BE0B1D882E294E0C3D836
:102AA00061E08BE0ABD888E294E0BDD820E030E074
:102AB0004AE754E4609195047091960480919704DC
:102AC0009091980498D140E0DED80E94DA04ABD40B
:102AD00060935D0570935E0580935F05909360053C
:102AE00020E030E0A90160919504709196048091F6
:102AF00097049091980493D418165CF040E150E04C
:102B00006BE274E087E595E00E940E090E944B0895
:102B100008C08CE394E08CD8809181049091820469
:102B20009AD880918D0490918E04069721F410928A
:102B30008E0410928D0480918B0490918C040697E2
:102B400009F08FCC10928C0410928B048ACC0E94D6
:102B50003302ABCA87E494E06BD8F801199560CCD6
:102B60008FE494E065D81092900410928F0460E096
:102B70008EE00E942404109292041092910410920C
:102B80008A04109289041092AE041092AD0410923F
:102B90008604109285041092A00410929F04109253
:102BA00082041092810410929A041092990466E9AA
:102BB00070E080E090E00E94A2043ECCEAEBF4E0FA
:102BC0001382128288EE93E0A0E0B0E084839583C4
:102BD000A683B78385E192E09183808385EC90E0C2
:102BE0009587848784EC90E09787868780EC90E0D7
:102BF000918B808B81EC90E0938B828B82EC90E0C8
:102C0000958B848B86EC90E0978B868B118E128E41
:102C1000138E148EE9E6F5E01382128285E292E0CB
:102C2000918380838AE284838FEF85838CE286831D
:102C300084E3878382E3808780E381878EE28287D3
:102C40001386148615861686178661E0CF010E94CA
:102C5000090A0E94DA04E7D360936505709366055C
:102C600080936705909368050E94DA04DCD3609333
:102C700061057093620580936305909364050E94DB
:102C8000DA04D1D360935D0570935E0580935F0590
:102C9000909360056BE272E087E595E00C94530930
:102CA000A1E21A2EAA1BBB1BFD010DC0AA1FBB1F50
:102CB000EE1FFF1FA217B307E407F50720F0A21BC2
:102CC000B30BE40BF50B661F771F881F991F1A942F
:102CD00069F760957095809590959B01AC01BD0159
:102CE000CF010895052E97FB16F400940FD057FDE1
:102CF00005D0D6DF07FC02D046F408C050954095B9
:102D0000309521953F4F4F4F5F4F08959095809597
:102D1000709561957F4F8F4F9F4F0895EE0FFF1F66
:102D2000881F8BBF0790F691E02D19945058BB2750
:102D3000AA270ED053C444D430F049D420F031F443
:102D40009F3F11F41EF439C40EF4E095E7FB2FC445
:102D5000E92F55D480F3BA176207730784079507E4
:102D600018F071F49EF56DC40EF4E0950B2EBA2F99
:102D7000A02D0B01B90190010C01CA01A001112481
:102D8000FF27591B99F0593F50F4503E68F11A162D
:102D9000F040A22F232F342F4427585FF3CF4695BE
:102DA00037952795A795F0405395C9F77EF41F16E0
:102DB000BA0B620B730B840BBAF09150A1F0FF0FAA
:102DC000BB1F661F771F881FC2F70EC0BA0F621F96
:102DD000731F841F48F4879577956795B795F79586
:102DE0009E3F08F0B3CF9395880F08F09927EE0F18
:102DF0009795879508950CD0F1C3E9D340F0E0D3BF
:102E000030F021F45F3F19F0D2C351111BC4D5C378
:102E1000F6D398F39923C9F35523B1F3951B550BBA
:102E2000BB27AA2762177307840738F09F5F5F4F9D
:102E3000220F331F441FAA1FA9F333D00E2E3AF0DE
:102E4000E0E830D091505040E695001CCAF729D0F8
:102E5000FE2F27D0660F771F881FBB1F2617370747
:102E60004807AB07B0E809F0BB0B802DBF01FF2777
:102E700093585F4F2AF09E3F510568F098C3E2C314
:102E80005F3FECF3983EDCF3869577956795B795B1
:102E9000F7959F5FC9F7880F911D9695879597F9CC
:102EA0000895E1E0660F771F881FBB1F6217730745
:102EB0008407BA0720F0621B730B840BBA0BEE1F5A
:102EC00088F7E0950895A3D388F09F5790F0B92F25
:102ED0009927B751A0F0D1F0660F771F881F991F6F
:102EE0001AF0BA95C9F712C0B13081F0AAD3B1E097
:102EF0000895A7C3672F782F8827B85F39F0B93FA7
:102F0000CCF3869577956795B395D9F73EF4909570
:102F10008095709561957F4F8F4F9F4F08953BD05F
:102F200080F09F3740F491110EF08CC360E070E0A8
:102F300080E89FEB089526F41B16611D711D811D0D
:102F400001C01BC0882371F4772321F09850872B90
:102F5000762F07C0662311F499270DC09051862B58
:102F600070E060E02AF09A95660F771F881FDAF705
:102F7000880F9695879597F908959F3F31F0915066
:102F800020F4879577956795B795880F911D96954D
:102F9000879597F908953BD3A0F0BEE7B91788F459
:102FA000BB279F3860F41616B11D672F782F88272E
:102FB000985FF7CF869577956795B11D939596396C
:102FC000C8F308956DD208F48FEF089569D2880B85
:102FD000990B0895CF93DF938230910510F482E02E
:102FE00090E0E091A605F091A70520E030E0C0E078
:102FF000D0E0309711F14081518148175907C0F056
:103000004817590761F482819381209719F09B83B7
:103010008A832BC09093A7058093A60526C021150F
:10302000310519F04217530718F49A01BE01DF0168
:10303000EF010280F381E02DDCCF2115310509F18C
:10304000281B390B2430310590F412968D919C91F8
:1030500013976115710521F0FB019383828304C0EE
:103060009093A7058093A605FD01329644C0FD010B
:10307000E20FF31F81939193225031092D933C93DA
:103080003AC02091A4053091A505232B41F420914D
:103090000D0230910E023093A5052093A4052091D6
:1030A0000B0230910C022115310541F42DB73EB7CA
:1030B00040910F0250911002241B350BE091A405A2
:1030C000F091A505E217F307A0F42E1B3F0B28177C
:1030D000390778F0AC014E5F5F4F2417350748F091
:1030E0004E0F5F1F5093A5054093A40581939193C4
:1030F00002C0E0E0F0E0CF01DF91CF9108950F939F
:103100001F93CF93DF93009709F48CC0FC01329793
:10311000138212820091A6051091A70501151105D1
:1031200081F420813181820F931F2091A405309179
:10313000A5052817390779F5F093A505E093A405AF
:1031400071C0D80140E050E0AE17BF0750F41296AE
:103150002D913C911397AD012115310509F1D9014C
:10316000F3CF9D01DA013383228360817181860F61
:10317000971F8217930769F4EC0128813981260F84
:10318000371F2E5F3F4F318320838A819B8193833A
:103190008283452B29F4F093A705E093A60542C04E
:1031A0001396FC93EE931297ED01499159919E016C
:1031B000240F351FE217F30771F480819181840F8A
:1031C000951F029611969C938E93828193811396FC
:1031D0009C938E931297E0E0F0E0D80112968D91C7
:1031E0009C911397009719F0F8018C01F6CF8D91FF
:1031F0009C9198012E5F3F4F820F931F2091A40551
:103200003091A5052817390769F4309729F41092F1
:10321000A7051092A60502C0138212821093A5057D
:103220000093A405DF91CF911F910F9108956F92A4
:103230007F928F929F92AF92BF92CF92DF92EF9246
:10324000FF920F931F93CF93DF93EC01009781F4CC
:10325000CB01DF91CF911F910F91FF90EF90DF9005
:10326000CF90BF90AF909F908F907F906F90B2CE95
:10327000FC01E60FF71F9C0122503109E217F3070A
:1032800008F4A8C0D9010D911C91119706171707D2
:10329000A8F00530110508F49BC0C80104978617F3
:1032A000970708F495C002501109061B170B0193EC
:1032B00011936D937C93CF0122DF8AC05B01A01A2A
:1032C000B10A4C01800E911EA091A605B091A705F0
:1032D00040E050E0E12CF12C109709F44AC0A81509
:1032E000B905D1F56D907C901197630182E0C80E0D
:1032F000D11CCA14DB0480F1A3014A195B096A01DD
:1033000082E0C80ED11C1296BC9012971396AC9115
:10331000B5E0CB16D10440F0B282A3835183408341
:10332000D9016D937C930AC00E5F1F4FC301800FBC
:10333000911FF90191838083EB2DFA2FE114F104A1
:1033400031F0D7011396FC93EE93129741C0F0939E
:10335000A705E093A6053CC08D919C911197481755
:10336000590708F4AC017D0112960D90BC91A02D77
:10337000B3CF8091A4059091A50588159905E1F436
:1033800046175707C8F480910B0290910C020097E2
:1033900041F48DB79EB740910F0250911002841BEB
:1033A000950BE817F907B0F4F093A505E093A40591
:1033B000F901718360830CC0CB010CDE7C010097A6
:1033C00049F0A801BE011BD0CE0199DEC70104C09F
:1033D000CE0102C080E090E0DF91CF911F910F916C
:1033E000FF90EF90DF90CF90BF90AF909F908F9025
:1033F0007F906F90089581E090E0F89458C1FB01B0
:10340000DC0102C001900D9241505040D8F7089560
:10341000FB01DC0101900D920020E1F7089540D0FE
:1034200008F481E00895E89409C097FB3EF4909574
:103430008095709561957F4F8F4F9F4F9923A9F08D
:10344000F92F96E9BB279395F6958795779567951C
:10345000B795F111F8CFFAF4BB0F11F460FF1BC060
:103460006F5F7F4F8F4F9F4F16C0882311F096E9F3
:1034700011C0772321F09EE8872F762F05C06623A1
:1034800071F096E8862F70E060E02AF09A95660F5A
:10349000771F881FDAF7880F9695879597F9089513
:1034A000990F0008550FAA0BE0E8FEEF1616170655
:1034B000E807F907C0F012161306E407F50798F0BD
:1034C000621B730B840B950B39F40A2661F0232BD6
:1034D000242B252B21F408950A2609F4A140A69552
:1034E0008FEF811D811D08950BD078C069D028F021
:1034F0006ED018F0952309F05AC05FC01124A2C005
:103500007ED0A0F3959FD1F3950F50E0551F629F99
:10351000F001729FBB27F00DB11D639FAA27F00D2C
:10352000B11DAA1F649F6627B00DA11D661F829F53
:103530002227B00DA11D621F739FB00DA11D621F38
:10354000839FA00D611D221F749F3327A00D611D55
:10355000231F849F600D211D822F762F6A2F112437
:103560009F5750408AF0E1F088234AF0EE0FFF1F8A
:10357000BB1F661F771F881F91505040A9F79E3FC1
:10358000510570F014C05EC05F3FECF3983EDCF371
:10359000869577956795B795F795E7959F5FC1F7FE
:1035A000FE2B880F911D9695879597F9089597F9A9
:1035B0009F6780E870E060E008959FEF80EC0895D9
:1035C00000240A9416161706180609060895002402
:1035D0000A9412161306140605060895092E03947C
:1035E000000C11F4882352F0BB0F40F4BF2B11F4F0
:1035F00060FF04C06F5F7F4F8F4F9F4F089557FD4F
:103600009058440F551F59F05F3F71F04795880F50
:1036100097FB991F61F09F3F79F0879508951216E7
:1036200013061406551FF2CF4695F1DF08C0161693
:1036300017061806991FF1CF869571056105089444
:103640000895E894BB2766277727CB0197F908955B
:10365000F999FECF92BD81BDF89A992780B508955A
:10366000262FF999FECF1FBA92BD81BD20BD0FB69E
:10367000F894FA9AF99A0FBE0196089509D0A59F79
:10368000900DB49F900DA49F800D911D112408955D
:10369000A29FB001B39FC001A39F700D811D112493
:1036A000911DB29F700D811D1124911D089511E08F
:1036B000C6E1D1E000E005C0802FFE012FDB21969E
:1036C000011DC731D10780E00807B1F7F894FFCF9B
:1036D00001000100010001000100FF0000A80580B9
:1036E0000000000000CC014901960174018801121C
:1036F0000200000000A80549010D0A00203C3C3CE6
:10370000204552524F52203E3E3E202000537461CD
:103710007274696E67207570202E2E2E2E005469EB
:103720006D65204F75743D003C3C3C204F46464C37
:10373000494E45203E3E3E200020454E54455220F5
:10374000546F20535441525420003C3C3C204F4E77
:103750002D4C494E45203E3E3E2000454E5445529C
:1037600020544F204348414E4745210054696D6520
:10377000204F7574205365633D004849542020450F
:103780004E5420746F20534156450053657474693C
:103790006E67732053617665642100204672616D07
:1037A000652020436F756E74657220004E6F206F28
:1037B00066204672616D65203D0053544F502020B5
:1037C000414354495641544544210053656E734961
:1037D0006E3120466C6167203D20004631206973C0
:1037E00020736574003C3C4652414D4520312053C6
:1037F0004554203E3E0046312072657365742E2E7E
:103800002E2E2E003C3C4652414D45203120525335
:1038100054203E3E00313D20202000313D00204517
:1038200072726F72204672616D65203120004631E0
:1038300020757064617465640053656E73496E32FF
:1038400020466C6167203D2000463220697320735A
:103850006574003C3C4652414D452032205345544E
:10386000203E3E0046322072657365742E2E2E2E49
:103870002E003C3C4652414D4520322052535420AC
:103880003E3E00323D20202000323D002020457287
:10389000726F72204672616D6520322000463220C0
:1038A000757064617465640053656E73496E33208E
:1038B000466C6167203D20004633206973207365A4
:1038C00074003C3C4652414D452033205345542022
:1038D0003E3E0046332072657365742E2E2E2E2ECA
:1038E000003C3C4652414D45203320525354203E2B
:1038F0003E00333D20202000333D002020457272E1
:103900006F72204672616D6520332000463320754A
:10391000706461746564005265736574203000538F
:10392000746F70006E616E00696E66006F7666007F
:020000023000CC
:10E000000D9489F10D94B2F10D94B2F10D94B2F129
:10E010000D94B2F10D94B2F10D94B2F10D94B2F1F0
:10E020000D94B2F10D94B2F10D94B2F10D94B2F1E0
:10E030000D94B2F10D94B2F10D94B2F10D94B2F1D0
:10E040000D94B2F10D94B2F10D94B2F10D94B2F1C0
:10E050000D94B2F10D94B2F10D94B2F10D94B2F1B0
:10E060000D94B2F10D94B2F10D94B2F10D94B2F1A0
:10E070000D94B2F10D94B2F10D94B2F10D94B2F190
:10E080000D94B2F10D94B2F10D94B2F10D94B2F180
:10E090000D94B2F10D94B2F10D94B2F10D94B2F170
:10E0A0000D94B2F10D94B2F10D94B2F10D94B2F160
:10E0B0000D94B2F10D94B2F10D94B2F10D94B2F150
:10E0C0000D94B2F10D94B2F10D94B2F10D94B2F140
:10E0D0000D94B2F10D94B2F10D94B2F10D94B2F130
:10E0E0000D94B2F141546D656761323536300041AF
:10E0F000726475696E6F206578706C6F72657220DE
:10E1000073746B3530305632206279204D4C530099
:10E11000426F6F746C6F616465723E004875683F52
:10E1200000436F6D70696C6564206F6E203D200048
:10E130004350552054797065202020203D20005FF9
:10E140005F4156525F415243485F5F3D2000415658
:10E1500052204C696243205665723D20004743437C
:10E160002056657273696F6E203D20004350552024
:10E1700049442020202020203D20004C6F7720663D
:10E18000757365202020203D20004869676820665F
:10E190007573652020203D200045787420667573D6
:10E1A00065202020203D20004C6F636B2066757336
:10E1B000652020203D20004D617220203720323024
:10E1C000313300312E362E3800342E332E350056A2
:10E1D00023202020414444522020206F7020636F70
:10E1E00064652020202020696E73747275637469E1
:10E1F0006F6E2061646472202020496E74657272B3
:10E20000757074006E6F20766563746F7200726A49
:10E210006D702020006A6D70200057686174207056
:10E220006F72743A00506F7274206E6F7420737541
:10E2300070706F72746564004D7573742062652030
:10E2400061206C6574746572002000577269747483
:10E25000696E672045450052656164696E672045B7
:10E26000450045452065727220636E743D00504F35
:10E27000525400303D5A65726F2061646472003FF1
:10E280003D43505520737461747300403D454550C3
:10E29000524F4D207465737400423D426C696E6B41
:10E2A000204C454400453D44756D70204545505215
:10E2B0004F4D00463D44756D7020464C415348001B
:10E2C000483D48656C70004C3D4C69737420492F83
:10E2D0004F20506F72747300513D51756974005234
:10E2E0003D44756D702052414D00563D73686F7707
:10E2F00020696E7465727275707420566563746FF0
:10E30000727300593D506F727420626C696E6B00BD
:10E310002A0011241FBECFEFD1E2DEBFCDBF01E046
:10E320000CBF12E0A0E0B2E0EEE1FDEF03E00BBFB6
:10E3300002C007900D92A030B107D9F712E0A0E01B
:10E34000B2E001C01D92AE30B107E1F70F9460F367
:10E350000D948DFE01E20EBF0FEF0DBF11241FBE05
:10E360000D9460F30D9400F020E030E040ED57E0B4
:10E3700005C0FA013197F1F72F5F3F4F2817390792
:10E38000C0F308959C01260F311DC901A0E0B0E043
:10E390002F5F3F4FABBFFC018791882361F08093D3
:10E3A000C6008091C00086FFFCCF8091C0008064D1
:10E3B0008093C000EACF08958DE08093C6008091DD
:10E3C000C00086FFFCCF8091C00080648093C000B5
:10E3D0008AE08093C6008091C00086FFFCCF8091C8
:10E3E000C00080648093C00008950F94C2F10F9420
:10E3F000DCF10895FC019081992359F09093C600B7
:10E400008091C00086FFFCCF8091C0008064809323
:10E41000C0003196992379F70895282F982F929567
:10E420009F70892F805D8A3308F0895F8093C600D2
:10E430008091C00086FFFCCF8091C00080648093F3
:10E44000C000822F8F70982F905D9A3308F0995FEB
:10E450009093C6008091C00086FFFCCF8091C000E1
:10E4600080648093C00008959C01FB01853691056E
:10E470001CF46330710594F0C90164E670E00F94F8
:10E480002EFE605D7F4F6093C6008091C00086FFC6
:10E49000FCCF8091C00080648093C0002B30310598
:10E4A00014F43297B4F0C90164E670E00F942EFEC4
:10E4B0006AE070E00F942EFE605D7F4F6093C600AF
:10E4C0008091C00086FFFCCF8091C0008064809363
:10E4D000C000C9016AE070E00F942EFEC0968093E0
:10E4E000C6008091C00086FFFCCF8091C000806490
:10E4F0008093C00008951F93182F8EE692EE60E07F
:10E500000F94C2F11093C6008091C00086FFFCCF2B
:10E510008091C00080648093C0000F94DCF11F9153
:10E5200008952F923F924F925F926F927F928F92B7
:10E530009F92AF92BF92CF92DF92EF92FF920F9392
:10E540001F93DF93CF93CDB7DEB762970FB6F894E2
:10E55000DEBF0FBECDBF382E622ECA01DB015C01CB
:10E560006D01772420E2222E2E010894411C511CBB
:10E570008BC081E0A81680E0B80681E0C80680E084
:10E58000D80628F0C601AA27BB270F940DF2BB2797
:10E59000AD2D9C2D8B2D0F940DF28A2D0F940DF225
:10E5A0002092C6008091C00086FFFCCF8091C00001
:10E5B00080648093C0009DE29093C6008091C0006B
:10E5C00086FFFCCF8091C00080648093C0002092C1
:10E5D000C6008091C00086FFFCCF8091C00080649F
:10E5E0008093C00019828601750188249924A1E0D6
:10E5F0003A1651F03A1620F0B2E03B1661F409C029
:10E600000BBFF701779007C0C7010F9477FE782EF4
:10E6100002C0F7017080872D0F940DF22092C60082
:10E620008091C00086FFFCCF8091C0008064809301
:10E63000C000872D8052F401EF70F0708F3520F408
:10E64000E40DF51D708204C0E40DF51D8EE280839B
:10E650000894E11CF11C011D111D0894811C911CE2
:10E6600090E18916910409F0C2CF80E190E0A0E02A
:10E67000B0E0A80EB91ECA1EDB1E198AC2010F9493
:10E68000FAF10F94DCF16A94662009F072CF629679
:10E690000FB6F894DEBF0FBECDBFCF91DF911F91B3
:10E6A0000F91FF90EF90DF90CF90BF90AF909F9031
:10E6B0008F907F906F905F904F903F902F90089534
:10E6C0002F923F924F925F926F927F928F929F9282
:10E6D000AF92BF92CF92DF92EF92FF920F931F9370
:10E6E000DF93CF93CDB7DEB7CD53D1400FB6F894BB
:10E6F000DEBF0FBECDBF01E20EBF0FEF0DBF94B75F
:10E70000F894A89514BE80916000886180936000A1
:10E7100010926000789493FF05C0E0910002F091A0
:10E7200001021995279A2F9A8091C00082608093E8
:10E73000C00080E18093C40088E18093C1000000A4
:10E74000EE24FF24870144E0A42EB12CCC24DD2448
:10E7500024C0C5010197F1F70894E11CF11C011DCB
:10E76000111D21E2E2162EE4F20620E0020720E06D
:10E77000120718F031E0C32ED12CC801B70127ECE5
:10E780003BE140E050E00F9441FE611571058105C9
:10E79000910519F485B1805885B98091C00087FD35
:10E7A00003C0C114D104A9F2A6014F5F5F4FC25E3E
:10E7B000DE4F59834883CE51D140C25EDE4F8881FF
:10E7C0009981CE51D140019711F00D9410FEC05D9A
:10E7D000DE4F19821882C053D14060E0C15DDE4F28
:10E7E0001882CF52D14088249924C35DDE4F19820C
:10E7F0001882CD52D140C05EDE4F188219821A8233
:10E800001B82C052D140CE5CDE4F188219821A8220
:10E810001B82C253D140EE24FF2487010BBFF701B6
:10E8200007911691C45CDE4F19830883CC53D14005
:10E830000D940BFEC25EDE4F28813981CE51D1404E
:10E840002130310509F52091C600C25EDE4F1982E4
:10E850001882CE51D14022C02F5F3F4F4F4F5F4FA4
:10E86000213082E138078AE7480780E0580780F0C6
:10E87000C45CDE4FE881F981CC53D140EF5FFF4F9C
:10E8800019F0EE27FF27099420E030E040E050E047
:10E890008091C00087FFE0CF2091C600C35DDE4FAE
:10E8A00048815981CD52D1404F5F5F4FC35DDE4FEC
:10E8B00059834883CD52D140213209F063C64A3092
:10E8C000510508F05FC60894811C911C53E0851621
:10E8D000910409F059C600E010E018C081E280936D
:10E8E000C6008091C00086FFFCCF8091C00080648C
:10E8F0008093C0002F5F3F4F2931310579F70F9486
:10E90000DCF10F5F1F4F0530110519F020E030E0FA
:10E91000E5CF10920A0210920B0210920C02109294
:10E920000D02109206021092070210920802109235
:10E930000902109202021092030210920402109235
:10E9400005028FEE90EE60E00F94F5F180E191EE1C
:10E9500060E00F94C2F18091C00087FFFCCF9091DE
:10E96000C600903608F09F759032B8F09093C600BC
:10E970008091C00086FFFCCF8091C00080648093AE
:10E98000C000A0E2A093C6008091C00086FFFCCF2B
:10E990008091C00080648093C000983409F4D7C18E
:10E9A0009934B8F4923409F459C1933458F490333B
:10E9B00019F1903308F4E3C59F33A1F1903409F0C5
:10E9C000DEC5BDC0953409F470C1963409F0D7C5D1
:10E9D00098C1923509F42BC2933538F49C3409F46C
:10E9E000F5C1913509F0CBC518C2963509F445C279
:10E9F000993509F0C4C567C483E792EE62E00F94CD
:10EA0000F5F110920602109207021092080210927D
:10EA1000090210920A0210920B0210920C0210923C
:10EA20000D0213C18FE792EE62E00F94F5F18FEEC5
:10EA300090EE60E00F94F5F181E291EE60E00F94CA
:10EA4000C2F187EB91EE60E00F94F5F180E391EE77
:10EA500060E00F94C2F184EE90EE60E00F94F5F167
:10EA60008FE391EE60E00F94C2F186E090E061E008
:10EA700070E00F9434F20F94DCF18DE591EE60E0DC
:10EA80000F94C2F189EC91EE60E00F94F5F18EE401
:10EA900091EE60E00F94C2F183EC91EE60E00F9490
:10EAA000F5F18CE691EE60E00F94C2F18EE10F94E7
:10EAB0000DF288E90F940DF281E00F940DF20F949E
:10EAC000DCF18BE791EE60E00F94C2F119E0E0E039
:10EAD000F0E010935700E4918E2F0F940DF20F94F5
:10EAE000DCF18AE891EE60E00F94C2F1E3E0F0E03F
:10EAF00010935700E4918E2F0F940DF20F94DCF1D8
:10EB000089E991EE60E00F94C2F1E2E0F0E0109349
:10EB10005700E4918E2F0F940DF20F94DCF188EAE8
:10EB200091EE60E00F94C2F1E1E0F0E01093570045
:10EB30001491812F0F940DF20F94DCF107CF8BE825
:10EB400092EE62E00F94F5F18BE492EE60E00F94A8
:10EB5000F5F10F94DCF100E010E019C0C8016F2D51
:10EB60000F947FFEFF2031F489E492EE60E00F9471
:10EB7000C2F10BC0F092C6008091C00086FFFCCFAE
:10EB80008091C00080648093C0000F5F1F4FC80158
:10EB900081519F41A0E0B0E0ABBFFC01F790BAE229
:10EBA000FB1621F0E2E000301E07C1F60F94DCF105
:10EBB0000F94DCF187E592EE60E00F94F5F10F948D
:10EBC000DCF1CC24DD2400E010E01EC0C8010F946D
:10EBD00077FEF82E882331F489E492EE60E00F94FA
:10EBE000C2F10BC08093C6008091C00086FFFCCFAD
:10EBF0008091C00080648093C000FE1419F00894D6
:10EC0000C11CD11C0F5F1F4FC80181519F41A0E063
:10EC1000B0E0ABBFFC01E790FAE2EF1621F022E092
:10EC20000030120799F60F94DCF10F94DCF182E6C4
:10EC300092EE60E00F94C2F1C60161E070E00F94C3
:10EC400034F20F94DCF10F94DCF110920202109276
:10EC50000302109204021092050278CE89E992EE26
:10EC600062E00F94F5F1279A2F9A16C02F9880E052
:10EC700090E0E0EDF7E03197F1F7019684369105E9
:10EC8000C1F72F9A80E090E0E0EDF7E03197F1F7DF
:10EC9000019684369105C1F78091C00087FFE6CFC9
:10ECA0008091C00087FFFCCF64C485EA92EE62E0E9
:10ECB0000F94F5F140910202509103026091040219
:10ECC0007091050281E020E10F9491F2809102029F
:10ECD00090910302A0910402B091050280509F4FD1
:10ECE000AF4FBF4F8093020290930302A0930402A0
:10ECF000B093050280509041A040B04008F426CE69
:10ED0000A4CF83EB92EE62E00F94F5F140910602FE
:10ED100050910702609108027091090280E020E1A1
:10ED20000F9491F28091060290910702A09108023F
:10ED3000B091090280509F4FAF4FBF4F80930602A2
:10ED400090930702A0930802B0930902FFCD80ECD4
:10ED500092EE62E00F94F5F183E792EE60E00F949B
:10ED6000F5F18FE792EE60E00F94F5F18BE892EE0B
:10ED700060E00F94F5F189E992EE60E00F94F5F10F
:10ED800085EA92EE60E00F94F5F183EB92EE60E09D
:10ED90000F94F5F180EC92EE60E00F94F5F187ECC2
:10EDA00092EE60E00F94F5F188ED92EE60E00F9442
:10EDB000F5F18FED92EE60E00F94F5F18AEE92EEB0
:10EDC00060E00F94F5F183E093EEBDCD87EC92EE19
:10EDD00062E00F94F5F181E40F947BF282E40F94EA
:10EDE0007BF283E40F947BF284E40F947BF285E45E
:10EDF0000F947BF286E40F947BF287E40F947BF20E
:10EE000088E40F947BF28AE40F947BF28BE40F94F6
:10EE10007BF28CE40F947BF299CD88ED92EE62E068
:10EE20000F94F5F1772473948824992409C48FED05
:10EE300092EE62E00F94F5F140910A0250910B02BC
:10EE400060910C0270910D0282E020E10F9491F22A
:10EE500080910A0290910B02A0910C02B0910D02D8
:10EE600080509F4FAF4FBF4F80930A0290930B0289
:10EE7000A0930C02B0930D0269CD8AEE92EE62E08F
:10EE80000F94F5F184EE90EE60E00F94F5F18FECC5
:10EE900091EE60E00F94F5F1662477244301CC5D98
:10EEA000DE4F19821882C452D140D401C301B695F5
:10EEB000A79597958795CA5DDE4F88839983AA8326
:10EEC000BB83C652D140CC5DDE4FA881B981C4520C
:10EED000D1401196CC5DDE4FB983A883C452D14096
:10EEE000CD0162E070E00F9434F2B0E2B093C6005E
:10EEF0008091C00086FFFCCF8091C0008064809329
:10EF0000C000EDE2E093C6008091C00086FFFCCF18
:10EF10008091C00080648093C000F0E2F093C6004E
:10EF20008091C00086FFFCCF8091C00080648093F8
:10EF3000C000CA5DDE4FE880F9800A811B81C6529D
:10EF4000D140BB27A12F902F8F2D0F940DF2CA5DBA
:10EF5000DE4F8881C652D1400F940DF2B0E2FB2EF5
:10EF6000F092C6008091C00086FFFCCF8091C00067
:10EF700080648093C0000DE30093C6008091C000C0
:10EF800086FFFCCF8091C00080648093C00010E2B7
:10EF90001093C6008091C00086FFFCCF8091C00016
:10EFA00080648093C0008BBEF3012791C65DDE4F65
:10EFB0002883CA52D140A22EBB24CC24DD2408943D
:10EFC000611C711C811C911C8BBEF3018791282E42
:10EFD0003324442455240894611C711C811C911C09
:10EFE0008BBEF3013791C55DDE4F3883CB52D140E4
:10EFF0000894611C711C811C911C8BBEF30147910C
:10F00000C45DDE4F4883CC52D140ADEFEA2EAFEF66
:10F01000FA2EAFEF0A2FAFEF1A2F6E0C7F1C801E57
:10F02000911E142D032DF22CEE24EA0CFB1C0C1D5A
:10F030001D1D0F940DF220E22093C6008091C000A8
:10F0400086FFFCCF8091C00080648093C000C65DC5
:10F05000DE4F8881CA52D1400F940DF230E23093D6
:10F06000C6008091C00086FFFCCF8091C000806404
:10F070008093C000C45DDE4F8881CC52D1400F9494
:10F080000DF240E24093C6008091C00086FFFCCFA5
:10F090008091C00080648093C000C55DDE4F888190
:10F0A000CB52D1400F940DF250E25093C6008091A4
:10F0B000C00086FFFCCF8091C00080648093C000B8
:10F0C0008FEFE8168FEFF80680E0080780E018075A
:10F0D00031F484E092EE60E00F94C2F1DFC0D80119
:10F0E000C7018070907CA070B0708050904CA040A0
:10F0F000B040D1F52FEF3FE340E050E0E222F322B1
:10F1000004231523CA5DDE4FA880B980CA80DB8046
:10F11000C652D140AE0CBF1CC01ED11EAA0CBB1CD7
:10F12000CC1CDD1C8EE092EE60E00F94C2F1BB2798
:10F13000A12F902F8F2D0F940DF28E2D0F940DF285
:10F1400030E23093C6008091C00086FFFCCF8091F2
:10F15000C00080648093C0004EE34093C60080915D
:10F16000C00086FFFCCF87C08EE09EEFA0E0B0E03D
:10F17000E822F9220A231B239CE0E91694E9F90608
:10F1800090E0090790E0190709F088C0C45DDE4FE0
:10F19000A881CC52D140EA2EFF2400E010E0102FCD
:10F1A0000F2DFE2CEE24C55DDE4FB881CB52D14031
:10F1B000EB0EF11C011D111DD601C501817090706F
:10F1C000A070B070DC0199278827E80EF91E0A1F8D
:10F1D0001B1F20EF30E040E050E0A222B322C42207
:10F1E000D52241E1AA0CBB1CCC1CDD1C4A95D1F7F1
:10F1F000EA0CFB1C0C1D1D1D81E090E0A0E0B0E0BE
:10F20000282239224A225B2235E1220C331C441C7D
:10F21000551C3A95D1F7E20CF31C041D151D57013E
:10F220006801AA0CBB1CCC1CDD1C85E192EE60E0E1
:10F230000F94C2F1C801AA27BB270F940DF2BB2778
:10F24000A12F902F8F2D0F940DF28E2D0F940DF274
:10F2500090E29093C6008091C00086FFFCCF809121
:10F26000C00080648093C000AEE3A093C60080918C
:10F27000C00086FFFCCF8091C00080648093C000F6
:10F28000C601AA27BB270F940DF2BB27AD2D9C2DDD
:10F290008B2D0F940DF28A2D0F940DF20F94DCF14B
:10F2A000CC5DDE4FE881F981C452D140F99709F471
:10F2B0004DCBF4E0EF2EF12C012D112D6E0C7F1CA7
:10F2C000801E911EF2CD83E093EE62E00F94F5F183
:10F2D0008AE192EE60E00F94C2F18091C00087FF56
:10F2E000FCCF1091C6001F751093C6008091C0001E
:10F2F00086FFFCCF8091C00080648093C0000F9493
:10F30000DCF1812F81548A3108F036C1163409F4BA
:10F3100095C0173490F4133409F44EC0143430F40B
:10F320001134F1F0123409F01DC130C0143409F465
:10F3300059C0153409F016C16BC01A3409F4C4C0A1
:10F340001B3438F4173409F48FC0183409F00AC19B
:10F35000A1C01B3409F4D2C01C3409F003C1E8C0B9
:10F360008FEF81B90DC082B1809582B980E090E0C5
:10F37000E0EDF7E03197F1F70196883C9105C1F790
:10F380008091C00087FFEFCF12B8EFC08FEF84B934
:10F390000DC085B1809585B980E090E0E0EDF7E0A3
:10F3A0003197F1F70196883C9105C1F78091C00033
:10F3B00087FFEFCF15B8D9C08FEF87B90DC088B1DF
:10F3C000809588B980E090E0E0EDF7E03197F1F7C3
:10F3D0000196883C9105C1F78091C00087FFEFCF6F
:10F3E00018B8C3C08FEF8AB90DC08BB180958BB9A7
:10F3F00080E090E0E0EDF7E03197F1F70196883C8E
:10F400009105C1F78091C00087FFEFCF1BB8ADC059
:10F410008FEF8DB90DC08EB180958EB980E090E0F0
:10F42000E0EDF7E03197F1F70196883C9105C1F7DF
:10F430008091C00087FFEFCF1EB897C08FEF80BBD1
:10F440000DC081B3809581BB80E090E0E0EDF7E0F6
:10F450003197F1F70196883C9105C1F78091C00082
:10F4600087FFEFCF11BA81C08FEF83BB0DC084B38C
:10F47000809584BB80E090E0E0EDF7E03197F1F714
:10F480000196883C9105C1F78091C00087FFEFCFBE
:10F4900014BA6BC08FEF809301010FC080910201FD
:10F4A00080958093020180E090E0E0EDF7E03197F5
:10F4B000F1F70196883C9105C1F78091C00087FF64
:10F4C000EDCF1092020151C08FEF809304010FC065
:10F4D0008091050180958093050180E090E0E0ED4A
:10F4E000F7E03197F1F70196883C9105C1F78091DB
:10F4F000C00087FFEDCF1092050137C08FEF8093DA
:10F5000007010FC08091080180958093080180E079
:10F5100090E0E0EDF7E03197F1F70196883C910536
:10F52000C1F78091C00087FFEDCF109208011DC088
:10F530008FEF80930A010FC080910B01809580931B
:10F540000B0180E090E0E0EDF7E03197F1F70196F4
:10F55000883C9105C1F78091C00087FFEDCF1092E4
:10F560000B0103C085E292EEEEC98091C00087FFD7
:10F57000FCCF8091C600EAC988E392EEE4C98CE131
:10F5800091EEE1C988249924933011F1943028F444
:10F59000913089F09230B8F408C0953061F195301F
:10F5A000F0F0963009F048C043C02B3109F042C951
:10F5B00091E06BE13FC96227C15DDE4F2883CF52E6
:10F5C000D14092E037C9B22FA0E0622793E032C960
:10F5D000822F90E0A82BB92B622794E02BC92E3004
:10F5E00009F039C3622795E0C05DDE4F19821882A9
:10F5F000C053D1401FC9E1E0F0E0EC0FFD1FC05D3A
:10F60000DE4F08811981C053D140E00FF11F2083E4
:10F610000F5F1F4FC05DDE4F19830883C053D14079
:10F6200062270A171B0709F005C9D80196E002C92D
:10F63000261709F010C303C0973009F0FBC87724E0
:10F640009981933109F412C19431C8F4963009F4C8
:10F65000D8C0973050F4923009F406C1933009F4C1
:10F660006DC0913009F059C253C0913109F477C08F
:10F67000923108F0BBC0903109F04FC2F5C098310B
:10F6800009F487C0993150F4953109F4EFC09531F0
:10F6900008F4C6C1963109F040C2C2C19A3109F4DA
:10F6A0006CC09A3108F491C09B3109F45BC09D3164
:10F6B00009F033C29D81903359F48F81882311F46E
:10F6C0009EE11CC0813011F091E018C098E916C08D
:10F6D000892F807591F0903539F4E0E0F0E089E011
:10F6E0008093570094910AC0983539F4E3E0F0E034
:10F6F00089E080935700949101C090E01A821B82A8
:10F700008D818C831D829E831F8227E030E009C299
:10F710001A8288E08B8381E48C8386E58D8382E581
:10F720008E8389E48F8383E5888780E589878FE5E9
:10F730008A8782E38B872BE030E0F3C18A818139AD
:10F7400041F0823941F0803911F48FE005C080E04A
:10F7500003C082E001C08AE01A828B8344C0772410
:10F76000739482C08D81882311F48EE12CC0813086
:10F7700011F081E028C088E926C01A82E1E0F0E0BB
:10F7800089E08093570084918B831C8224E030E0D1
:10F79000C8C18B81803589F48C81883039F4E2E0EE
:10F7A000F0E089E08093570084910DC0E0E0F0E044
:10F7B00089E080935700849106C0E3E0F0E089E09F
:10F7C0008093570084911A82DFCF8D81836C99E0FA
:10F7D000E1E0F0E0082E90935700E89507B600FCB2
:10F7E000FDCF1A821B8223E030E09BC180EC8A832C
:10F7F000CE5CDE4F188219821A821B82C253D1401E
:10F800008EC18A8190E0A0E0B0E0582F44273327D2
:10F8100022278B8190E0A0E0B0E0DC0199278827C7
:10F82000282B392B4A2B5B2B8D8190E0A0E0B0E098
:10F83000282B392B4A2B5B2B8C8190E0A0E0B0E089
:10F84000BA2FA92F982F8827282B392B4A2B5B2BCF
:10F85000220F331F441F551FC05EDE4F288339839C
:10F860004A835B83C052D1401A8259C13A81C95C34
:10F87000DE4F3883C753D140CA5CDE4F1882C6536F
:10F88000D1408B81C82EDD24CA5CDE4F488159816E
:10F89000C653D140C42AD52A933109F082C0CE5C28
:10F8A000DE4F88819981AA81BB81C253D1408050AB
:10F8B000904CA340B04030F583E0CE5CDE4FE88052
:10F8C000F9800A811B81C253D140F70100935B008C
:10F8D00080935700E89507B600FCFDCFCE5CDE4F65
:10F8E000088119812A813B81C253D14000501F4FAA
:10F8F0002F4F3F4FCE5CDE4F088319832A833B8313
:10F90000C253D140C05EDE4F488159816A817B81FC
:10F91000C052D140DE011B9631E08C9111962C91A2
:10F9200011971296C75CDE4F2883C953D140C85C3B
:10F93000DE4F1882C853D14090E0C85CDE4FE881AA
:10F94000F981C853D1408E2B9F2B0C01FA01609393
:10F950005B0030935700E89511244E5F5F4F6F4F67
:10F960007F4F0EEFE02E0FEFF02ECE0CDF1CC114F8
:10F97000D10499F685E0C05EDE4F088119812A81A5
:10F980003B81C052D140F80120935B008093570027
:10F99000E89507B600FCFDCF81E180935700E8951C
:10F9A00035C0C05EDE4F88819981AA81BB81C0527B
:10F9B000D140B695A795979587957C018601ABE0D8
:10F9C000AA2EB12CAC0EBD1E0BC0D5016D915D01F0
:10F9D000C7010F947FFE0894E11CF11C01501040F8
:10F9E0000115110591F7A60160E070E0440F551F65
:10F9F000661F771FC05EDE4FE880F9800A811B8199
:10FA0000C052D1404E0D5F1D601F711F1A82C05E33
:10FA1000DE4F488359836A837B83C052D1407FC0C5
:10FA2000FA80C55CDE4FF882CB53D140C65CDE4F16
:10FA30001882CA53D1408B81C82EDD24C65CDE4FAC
:10FA400008811981CA53D140C02AD12A1A828981DA
:10FA5000BE016D5F7F4F843121F59601C05EDE4FA0
:10FA6000E880F9800A811B81C052D1400BBFF701A9
:10FA700087919691DB018C9311969C936E5F7F4FDB
:10FA8000D801C7010296A11DB11DC05EDE4F88835B
:10FA90009983AA83BB83C052D14022503040F1F6F3
:10FAA00036C0C05EDE4F288139814A815B81C052F9
:10FAB000D1400894C108D108760100E010E0089414
:10FAC000C11CD11C0894E11CF11C011D111DE20E8A
:10FAD000F31E041F151F21BDBB27A52F942F832FB5
:10FAE00082BD2F5F3F4F4F4F5F4FF89A80B5DB01CC
:10FAF0008D93BD012E153F054007510761F7C05E8C
:10FB0000DE4F288339834A835B83C052D1409601FC
:10FB10002D5F3F4FFB01108204C080EC8A8322E0FE
:10FB200030E08BE18093C6008091C00086FFFCCF5F
:10FB30008091C00080648093C000C15DDE4FF88179
:10FB4000CF52D140F093C6008091C00086FFFCCF19
:10FB50008091C00080648093C000432F3093C60022
:10FB60008091C00086FFFCCF8091C00080648093AC
:10FB7000C000922F2093C6008091C00086FFFCCF6A
:10FB80008091C00080648093C0008EE08093C600A6
:10FB90008091C00086FFFCCF8091C000806480937C
:10FBA000C00065E1C15DDE4FE880CF52D1406E25D7
:10FBB00069276427FE01319610C090819093C6009A
:10FBC0008091C00086FFFCCF31968091C000806498
:10FBD0008093C0006927215030402115310569F715
:10FBE0006093C6008091C00086FFFCCF8091C0006A
:10FBF00080648093C00085B1805885B9772081F4F6
:10FC0000C15DDE4F0881CF52D1400F5FC15DDE4F35
:10FC10000883CF52D14090E0A0E0B0E00D941AF4F8
:10FC200027982F9880E090E020ED37E0F901319798
:10FC3000F1F7019684369105C9F700008091C00064
:10FC40008D7F8093C00081E180935700E895EE2777
:10FC5000FF270994FFCF90E00D941AF497FB092E2B
:10FC600007260AD077FD04D02ED006D000201AF443
:10FC7000709561957F4F0895F6F7909581959F4F08
:10FC80000895A1E21A2EAA1BBB1BFD010DC0AA1FDD
:10FC9000BB1FEE1FFF1FA217B307E407F50720F0F5
:10FCA000A21BB30BE40BF50B661F771F881F991F70
:10FCB0001A9469F760957095809590959B01AC01B9
:10FCC000BD01CF010895AA1BBB1B51E107C0AA1FAC
:10FCD000BB1FA617B70710F0A61BB70B881F991FED
:10FCE0005A95A9F780959095BC01CD010895F99991
:10FCF000FECF92BD81BDF89A992780B50895262F31
:10FD0000F999FECF1FBA92BD81BD20BD0FB6F89400
:0EFD1000FA9AF99A0FBE01960895F894FFCF63
:040000033000E000E9
:00000001FF
