:100000001EC100004DC100004BC1000049C10000ED
:1000100047C1000045C1000043C1000041C10000CC
:100020003FC100003DC100003BC1000039C10000DC
:1000300037C10000DEC4000033C1000031C1000040
:100040002FC100002DC100002BC1000029C10000FC
:1000500027C1000025C1000023C10000BCC500006D
:100060001FC10000F6C30000CBC3000019C100008F
:1000700017C1000015C1000013C1000011C100002C
:100080000FC100000DC100000BC1000009C100003C
:1000900007C1000005C1000003C1000001C100004C
:1000A000FFC00000FDC00000FBC00000F9C0000060
:1000B000F7C00000F5C00000F3C00000F1C0000070
:1000C000EFC00000EDC00000EBC00000E9C0000080
:1000D000E7C00000E5C00000E3C00000E1C0000090
:1000E000DFC000008E029102800284028A02C802F0
:1000F000950299029F02A302A702AD02B102B502C6
:10010000C802BB02BF02C3029E11B711D511F8117C
:100110000B132D1315144414000021002400270094
:100120002A002D0030003300010100000401070106
:100130000A01000020002300260029002C002F00C7
:1001400032000001000003010601090100000A0B52
:1001500002090C0D0E080703040100000000000056
:10016000000000000000000000000000000000008F
:10017000000000000000000012111000000000004C
:10018000000000000000000000000000000000006F
:10019000000001021020200808102040102040809C
:1001A000020102010804020101020408102040803B
:1001B00080402010080402018004020180402010C9
:1001C0000804020108040201010204081020408012
:1001D00001020408102040800000220025002800B1
:1001E0002B002E003100340002010000050108013F
:1001F0000B010505050507050808080802020202AB
:100200000A0A0808040404040101010101010101B2
:100210000303030303030303040707070C0C0C0C7D
:100220000C0C0C0C02020202060606060606060666
:100230000B0B0B0B0B0B0B0B0200EB181F101124FD
:100240001FBECFEFD1E2DEBFCDBF00E00CBF14E098
:10025000A0E0B2E0E6E1FDE300E00BBF02C00790E2
:100260000D92A63CB107D9F726E0A6ECB4E001C098
:100270001D92A232B207E1F711E0CEE1D1E000E039
:1002800006C021970109802FFE010E94B119CD31CE
:10029000D10780E00807A9F70E9423100C947A1E6A
:1002A000AFCECF92DF92EF92FF920F931F93CF9337
:1002B000DF936C017A018B01C0E0D0E0CE15DF0541
:1002C00089F0D8016D918D01D601ED91FC910190DD
:1002D000F081E02DC6011995892B11F47E0102C031
:1002E0002196ECCFC701DF91CF911F910F91FF9025
:1002F000EF90DF90CF900895FC01918D828D98173B
:1003000061F0828DDF01A80FB11D5D968C91928DF9
:100310009F5F9F73928F90E008958FEF9FEF0895F6
:10032000FC01918D828D981731F0828DE80FF11DBF
:10033000858D90E008958FEF9FEF0895FC01918DDA
:10034000228D892F90E0805C9F4F821B91098F73D3
:10035000992708958CE295E0F1DF21E0892B09F4DB
:1003600020E0822F0895FC01848DDF01A80FB11DCC
:10037000A35ABF4F2C91848D90E001968F739927DB
:10038000848FA689B7892C93A089B1898C918064C8
:100390008C93938D848D981306C00288F389E02D89
:1003A00080818F7D80830895EF92FF920F931F933A
:1003B000CF93DF93EC0181E0888F9B8D8C8D981318
:1003C00005C0E889F989808185FD23C0F62E0B8D53
:1003D00010E00F5F1F4F0F731127E02E8C8DE81276
:1003E0000BC00FB607FCFACFE889F989808185FF39
:1003F000F5CFCE01B8DFF2CF8B8DFE01E80FF11DF6
:10040000E35AFF4FF0820B8FEA89FB89808180627B
:1004100007C0EE89FF896083E889F989808180645B
:10042000808381E090E0DF91CF911F910F91FF9049
:10043000EF900895CF93DF93EC01888D8823C1F06E
:10044000EA89FB89808185FD05C0A889B9898C91DD
:1004500086FD0EC00FB607FCF5CF808185FFF2CF79
:10046000A889B9898C9185FFEDCFCE017CDFE8CFDB
:10047000DF91CF91089580E090E0892B19F06ADF39
:10048000811125C080E090E0892B41F080E090E070
:10049000892B21F00E94000081111CC080E090E0B7
:1004A000892B41F080E090E0892B21F00E94000030
:1004B000811113C080E090E0892BA1F080E090E0F2
:1004C000892B81F00E94000081110AC008950E94CA
:1004D0000000D8CF0E940000E1CF0E940000EACFC8
:1004E0000C940000089590E0FC013197E231F10591
:1004F00008F04EC08827EE58FF4F8F4F0C94B1196B
:10050000809180008F7703C0809180008F7D8093E1
:100510008000089580918000877FF9CF84B58F7720
:1005200002C084B58F7D84BD08958091B0008F771F
:1005300003C08091B0008F7D8093B00008958091BA
:1005400090008F7707C0809190008F7D03C08091CD
:100550009000877F8093900008958091A0008F770E
:1005600007C08091A0008F7D03C08091A000877F8D
:100570008093A0000895809120018F7707C080911B
:1005800020018F7D03C080912001877F809320010F
:1005900008953FB7F8948091DF049091E004A09112
:1005A000E104B091E20426B5A89B05C02F3F19F0E5
:1005B0000196A11DB11D3FBFBA2FA92F982F8827E3
:1005C000820F911DA11DB11DBC01CD0142E0660F3E
:1005D000771F881F991F4A95D1F708950E941E1D05
:1005E000EF92FF920F931F93CF93DF93EC017B0168
:1005F0008A0188819981009729F02A813B812417FB
:100600003507F8F4B8016F5F7F4F0E943A1C0097DE
:1006100059F0998388831B830A832C813D81232B86
:1006200081F4FC0110820DC088819981009711F03E
:100630000E94A21B198218821D821C821B821A82B0
:1006400007C01D830C83B701888199810E942B1DEF
:10065000CE01DF91CF911F910F91FF90EF90089500
:10066000FC01808191810C94A21BFC0111821082FB
:1006700013821282158214826115710549F0FB0103
:1006800001900020E9F73197AF01461B570BA8CF27
:100690000895DC01ED91FC91DB0114964D915C9184
:1006A00015976D917C910280F381E02D199461156D
:1006B000710579F0FB0101900020E9F73197AF0156
:1006C000461B570BDC01ED91FC910280F381E02D7C
:1006D000199480E090E008954F925F926F927F921C
:1006E000EF92FF920F931F93CF93DF93CDB7DEB7B7
:1006F000A1970FB6F894DEBF0FBECDBF7C01FA0103
:10070000CB0119A2223008F42AE08E010F5D1F4FA1
:10071000422E512C612C712CBF01A30192010E9429
:100720007319F901CA01015011096A3014F4605DAE
:1007300001C0695CD8016C93232B242B252B61F716
:10074000B801C701B4DFA1960FB6F894DEBF0FBEA3
:10075000CDBFDF91CF911F910F91FF90EF907F90D0
:100760006F905F904F900895CF92DF92EF92FF923B
:100770000F931F93CF93DF93EC016A017B01211547
:10078000310579F4E881F9810190F081E02D642F41
:10079000DF91CF911F910F91FF90EF90DF90CF905D
:1007A00019942A30310501F577FF1DC0E881F981E0
:1007B0000190F081E02D6DE219958C0144275527B9
:1007C000BA014C195D096E097F092AE0CE0184DF68
:1007D000800F911FDF91CF911F910F91FF90EF90AC
:1007E000DF90CF9008952AE0B701A601CE01DF91F6
:1007F000CF911F910F91FF90EF90DF90CF906CCF32
:100800001F920F920FB60F9211240BB60F922F93D7
:100810003F934F935F936F937F938F939F93AF9388
:10082000BF93EF93FF938CE295E09DDDFF91EF91F5
:10083000BF91AF919F918F917F916F915F914F91F8
:100840003F912F910F900BBE0F900FBE0F901F90F6
:1008500018951F920F920FB60F9211240BB60F929C
:100860002F938F939F93EF93FF93E0913C05F0912B
:100870003D058081E0914205F091430582FD12C063
:100880009081809145058F5F8F7320914605821777
:1008900051F0E0914505F0E0E45DFA4F958F8093CB
:1008A000450501C08081FF91EF919F918F912F911C
:1008B0000F900BBE0F900FBE0F901F901895CF9307
:1008C000DF93282F30E0F901E45BFE4F8491F901BA
:1008D000EE56FE4FD491F901EE50FE4FC491CC2359
:1008E00089F0811100DEEC2FF0E0EE0FFF1FEE5CCF
:1008F000FE4FA591B491EC91ED2381E090E021F4BD
:1009000080E002C080E090E0DF91CF9108951F93D6
:10091000CF93DF93282F30E0F901E45BFE4F849101
:10092000F901EE56FE4FD491F901EE50FE4FC491FD
:10093000CC23C1F0162F8111D6DDEC2FF0E0EE0FA5
:10094000FF1FE852FE4FA591B4918FB7F894111193
:1009500005C09C91ED2FE095E92302C0EC91ED2BB1
:10096000EC938FBFDF91CF911F91089590910A0270
:1009700098133DC0E8E3F2E0E4919FEF90930A0200
:10098000E230C9F050F4EE2399F0E13081F5909116
:100990006F009D7F90936F002AC0E43019F1E0F062
:1009A000E53029F5909173009D7F909373001FC0EF
:1009B00010926E001CC0909170009D7F909370000B
:1009C00091E09093B0009091B100987F94609093E3
:1009D000B1001092B3000BC0909171009D7F909375
:1009E000710005C0909172009D7F9093720060E04D
:1009F0008ECF1F920F920FB60F9211240BB60F924B
:100A00002F933F934F935F936F937F938F939F9316
:100A1000AF93BF93EF93FF938091220590912305AD
:100A2000A0912405B0912505892B8A2B8B2B51F1A0
:100A300080911F05E0912005F09121059081892783
:100A400080838091220590912305A0912405B09187
:100A50002505181619061A061B06BCF480912205F6
:100A600090912305A0912405B09125050197A10936
:100A7000B1098093220590932305A0932405B09398
:100A8000250503C080910A0271DFFF91EF91BF91AC
:100A9000AF919F918F917F916F915F914F913F9116
:100AA0002F910F900BBE0F900FBE0F901F901895B7
:100AB000CF93DF93EC0160E08E8129DF61E08E81CE
:100AC00026DF60E08E8123DF8BE891E00197F1F76C
:100AD000DF91CF910895CF93DF9390E0FC01EE5624
:100AE000FE4F2491FC01EE50FE4F8491882361F16A
:100AF00090E0880F991FFC01E85EFE4FC591D491EC
:100B0000FC01E852FE4FA591B491611109C09FB755
:100B1000F8948881209582238883EC912E230BC042
:100B2000623061F49FB7F8943881822F80958323D7
:100B30008883EC912E2B2C939FBF06C08FB7F8941F
:100B4000E8812E2B28838FBFDF91CF9108958F925C
:100B50009F92AF92BF92CF92DF92EF92FF926B0182
:100B60007C0117DD4B015C01C114D104E104F104E7
:100B7000E9F00FDDDC01CB0188199909AA09BB094D
:100B8000883E9340A105B10578F321E0C21AD1084F
:100B9000E108F10888EE880E83E0981EA11CB11CC4
:100BA000C114D104E104F10421F7DECFFF90EF90EE
:100BB000DF90CF90BF90AF909F908F9008952FB708
:100BC000F8946091DB047091DC048091DD049091D5
:100BD000DE042FBF08951F920F920FB60F921124BB
:100BE0002F933F938F939F93AF93BF938091DB0499
:100BF0009091DC04A091DD04B091DE043091DA0420
:100C000023E0230F2D3720F40196A11DB11D05C04F
:100C100026E8230F0296A11DB11D2093DA048093CC
:100C2000DB049093DC04A093DD04B093DE04809198
:100C3000DF049091E004A091E104B091E2040196F8
:100C4000A11DB11D8093DF049093E004A093E10403
:100C5000B093E204BF91AF919F918F913F912F91FB
:100C60000F900FBE0F901F901895CF92DF92EF92CA
:100C7000FF920F931F93CF93DF937C016C0187E06A
:100C8000C80ED11CC0E0D0E0062F10E0B8010C2E39
:100C900002C0759567950A94E2F76170F60181913B
:100CA0006F0135DE2196C430D10581F7C701DF9190
:100CB000CF911F910F91FF90EF90DF90CF90F8CEE2
:100CC000CF92DF92EF92FF920F931F93CF93DF9318
:100CD000EC01F62E642F8C811ADE8D818F3F11F08E
:100CE00060E015DE8F850F2D10E084FF23C06E01BC
:100CF00087E0C80ED11CE12CF12CB8010E2C02C0EB
:100D0000759567950A94E2F76170F60181916F011C
:100D1000FEDDFFEFEF1AFF0A88E0E816F10469F73D
:100D2000CE01DF91CF911F910F91FF90EF90DF9057
:100D3000CF90BECEB80184E0759567958A95E1F7AE
:100D4000CE0193DF6F2DCE01DF91CF911F910F91D7
:100D5000FF90EF90DF90CF9088CF41E0B1DF81E04E
:100D600090E0089540E0ACCF61E0FCDF8BE39FE1D1
:100D70000197F1F70895AF92BF92CF92DF92EF9271
:100D8000FF920F931F93CF93DF931F92CDB7DEB7E0
:100D90005C017B018B016C0182E0C80ED11CF80163
:100DA00061918F01C50169830E944B1E698168179B
:100DB00019F0C5010E94531EFFEFAF1ABF0AAC1411
:100DC000BD0469F7C7010F90DF91CF911F910F917B
:100DD000FF90EF90DF90CF90BF90AF900895AF92CB
:100DE000BF92CF92DF92EF92FF920F931F93CF9318
:100DF000DF931F92CDB7DEB75C017B018B016C01E5
:100E000084E0C80ED11CF80161918F01C50169838E
:100E10000E944B1E6981681719F0C5010E94531E7C
:100E2000FFEFAF1ABF0AAC14BD0469F7C7010F90FA
:100E3000DF91CF911F910F91FF90EF90DF90CF90B6
:100E4000BF90AF9008954F925F926F927F92AF9252
:100E5000BF92CF92DF92EF92FF920F931F93CF93A7
:100E6000DF9382E02CDD8C018091080290910902D1
:100E70000817190749F0A3DE6093D6047093D704CE
:100E80008093D8049093D9049ADEC090D604D09071
:100E9000D704E090D804F090D904DC01CB018C1980
:100EA0009D09AE09BF0987399105A105B10558F023
:100EB00086DE6093D6047093D7048093D804909311
:100EC000D904E80102C0C1E0D0E010930902009308
:100ED000080284E0F4DC7C01809106029091070214
:100EE000E816F90649F06BDE6093D2047093D304E0
:100EF0008093D4049093D50462DE0091D2041091C3
:100F0000D3042091D4043091D504DC01CB01801BA3
:100F1000910BA20BB30B87399105A105B10558F0D0
:100F20004EDE6093D2047093D3048093D4049093E4
:100F3000D504870102C001E010E0F0920702E092C0
:100F4000060283E0BCDC7C018091040290910502E2
:100F5000E816F90649F033DE6093CE047093CF04AF
:100F60008093D0049093D1042ADE4090CE04509018
:100F7000CF046090D0047090D104DC01CB018419BF
:100F80009509A609B70987399105A105B10558F05A
:100F900016DE6093CE047093CF048093D0049093B8
:100FA000D104570103C0AA24A394B12CF0920502E6
:100FB000E092040286E083DC7C0180910202909141
:100FC0000302E816F90649F0FADD6093CA0470934B
:100FD000CB048093CC049093CD04F1DD4090CA04FF
:100FE0005090CB046090CC047090CD04DC01CB0118
:100FF00084199509A609B7098F3E9240A105B1054C
:1010000058F0DDDD6093CA047093CB048093CC0468
:101010009093CD04670103C0CC24C394D12CF092EB
:101020000302E092020289E04ADC7C018091000226
:1010300090910102E816F90649F0C1DD6093C604FB
:101040007093C7048093C8049093C904B8DD40909E
:10105000C6045090C7046090C8047090C904DC01B5
:10106000CB0184199509A609B7098F3E9240A105C5
:10107000B10558F0A4DD6093C6047093C704809353
:10108000C8049093C904970102C021E030E0F092B7
:101090000102E0920002209781F48091E304909194
:1010A000E404009709F54AEF50E060E070E080ED5D
:1010B00097E025D381E090E012C001151105C9F534
:1010C0008091E3049091E4040097D9F44AEF50E052
:1010D00060E070E084E398E012D382E090E09093C7
:1010E00000058093FF0426C182309105B1F44AEFD8
:1010F00050E060E070E084E398E001D383E090E0AA
:10110000EECF0297B1F44AEF50E060E070E084E384
:1011100098E0F5D284E090E0E2CF049751F44AEFF2
:1011200050E060E070E084E398E0E9D285E090E090
:10113000D6CFAB2881F48091FD049091FE040297F4
:1011400050F44AEF50E060E070E084E398E0D7D2DA
:1011500087E090E0C4CF012BF9F48091E3049091F3
:10116000E4048430910551F44AEF50E060E070E00F
:1011700084E398E0C4D286E090E0B1CF069761F4B2
:101180004AEF50E060E070E084E398E0B8D210925B
:1011900000051092FF04CEC0CD2B69F48091FF04AE
:1011A00090910005AC014B7F4330510509F48ECF7F
:1011B000059709F4A8CFCD2809F05EC060E080E073
:1011C000F2D589E292E0EAD548EC50E060E070E0C8
:1011D00086ED96E094D28091EF049091F00401970F
:1011E00069F48091EB049091EC04019739F48091BB
:1011F000E9049091EA04019709F49CC08091FB04F2
:101200009091FC0401969093FC048093FB0410924F
:10121000F1041092F2041092F3041092F404CFDC63
:101220000E94361D6093DF057093E0058093E10511
:101230009093E2058091FB049091FC04823091052B
:1012400039F481E090E09093F0048093EF0472C051
:101250008430910539F481E090E09093EC04809320
:10126000EB0468C0069709F065C081E090E09093B8
:10127000EA048093E9045EC0232B09F05BC060E0C0
:1012800080E091D58AE392E089D548EC50E060E0B7
:1012900070E086ED96E033D28091ED049091EE04FB
:1012A000019761F48091E7049091E804019731F48B
:1012B0008091E5049091E6040197E1F18091F904B1
:1012C0009091FA0401969093FA048093F904109295
:1012D000F5041092F6041092F7041092F8046FDCF3
:1012E0000E94361D6093DB057093DC058093DD055D
:1012F0009093DE058091F9049091FA048230910573
:1013000039F481E090E09093EE048093ED0412C0F4
:101310008430910539F481E090E09093E804809363
:10132000E70408C0069731F481E090E09093E6046A
:101330008093E504DF91CF911F910F91FF90EF9083
:10134000DF90CF90BF90AF907F906F905F904F9065
:101350000895AF92BF92CF92DF92EF92FF920F93D8
:101360001F93CF93DF935C017B016A01C0E0D0E063
:10137000CC15DD050CF03CC083EE95E0F5DC62E0B9
:1013800083EE95E001D1B50183EE95E082D962E369
:1013900070E080E090E0DBDB00E010E00E151F0560
:1013A0006CF468E183EE95E0DDDC4DDD62E370E036
:1013B00080E090E0CCDB0F5F1F4FF0CF00E010E04B
:1013C0000E151F056CF46CE183EE95E0CBDC3BDD84
:1013D00062E370E080E090E0BADB0F5F1F4FF0CF78
:1013E00062E370E080E090E0B2DB2DDD2196C0CFBB
:1013F000DF91CF911F910F91FF90EF90DF90CF90F1
:10140000BF90AF900895CF93DF9300D000D0CDB7B9
:10141000DEB783EE95E0A8DC61E08DE078DA60E08D
:101420008EE075DA69EC75E08CE295E032D96BE418
:1014300072E08CE295E03BD96EE472E0CE01019659
:1014400014D942E050E06EE070E0CE01019681DFF9
:10145000CE01019605D91A8219821C821B821E8236
:101460001D826091C9057091CA056115710539F039
:101470004091CD055091CE05CE010196B1D860E0E6
:1014800080E091D4BE016F5F7F4F83EE95E001D97C
:10149000CE010196E5D86EE472E0CE010196E5D862
:1014A00061E080E080D4BE016F5F7F4F83EE95E006
:1014B000F0D8CE010196D4D84AEF50E060E070E059
:1014C00084E398E01CD168EC70E080E090E03FDBC2
:1014D0008CE04CDA68EC70E080E090E038DB4AEFBA
:1014E00050E060E070E084E398E009D168EC70E0DF
:1014F00080E090E02CDB8CE039DA68EC70E080E092
:1015000090E025DB4AEF50E060E070E080ED97E08E
:10151000F6D068EC70E080E090E019DB4AEF50E034
:1015200060E070E084E398E0EAD068EC70E080E08E
:1015300090E00DDB8CE01ADA68EC70E080E090E07F
:1015400006DB4AEF50E060E070E084E398E0D7D03B
:1015500068EC70E080E090E0FADA8CE007DA68ECA2
:1015600070E080E090E0F3DA4AEF50E060E070E095
:1015700080ED97E0C4D026960FB6F894DEBF0FBE7C
:10158000CDBFDF91CF910895EF92FF920F931F93FC
:10159000CF93DF93EC01623018F08F8588608F87DE
:1015A0006B8B1C8A80E48D8B80E18E8B80E58F8B2A
:1015B00061E08C8190DA8D818F3F11F061E08BDAF0
:1015C00061E08E8188DA7E0187E0E80EF11C00E0A0
:1015D00010E08F8584FD03C084E090E002C088E0C5
:1015E00090E00817190744F461E0F70181917F0149
:1015F00072DA0F5F1F4FEDCF8BE39DE00197F1F79C
:1016000060E08C8184D960E08E8181D98D818F3FAB
:1016100011F060E07CD96F8564FD19C063E0CE01F4
:1016200024DB0BE416E4C8010197F1F763E0CE0177
:101630001CDBC8010197F1F763E0CE0116DB83E5FF
:1016400092E00197F1F762E0CE010FDB13C0606218
:10165000CE0188DB8BE496E40197F1F76F85606239
:10166000CE0180DB83E592E00197F1F76F85606240
:10167000CE0178DB6F856062CE0174DB84E0888BFD
:101680006CE0CE016FDBCE016FDB82E0898B66E020
:10169000CE01DF91CF911F910F91FF90EF9062CB20
:1016A0000F931F93CF93DF93C8E2D5E08C010852CC
:1016B0001540C8018C0F9D1F0E944B1E899385E029
:1016C000CC32D807B1F788E295E0DF91CF911F9136
:1016D0000F9108950F931F93CF93DF938C010E9476
:1016E0004B1EC6E2D5E08883C80101960E944B1EBE
:1016F0008983CE01DF91CF911F910F9108953F9281
:101700004F925F926F927F928F929F92AF92BF9211
:10171000CF92DF92EF92FF920F931F93CF93DF93BD
:1017200000D01F92CDB7DEB720910A022C3021F0F5
:101730002F3F09F01DC304C0E8E3F2E03490EDC090
:101740002CE020930A02E8E3F2E0E491EF3F09F491
:101750000FC3E23009F474C054F5EE2309F453C00A
:10176000E13009F0D9C010928000109281002091E0
:1017700081002860209381002091810021602093C6
:101780008100EEEFF1E0E491F0E0EE0FFF1FE85290
:10179000FE4F259134913093060620930506EEE91D
:1017A000F1E0E491E093040633243394B8C0E430CC
:1017B00009F48EC00CF468C0E53009F0ADC0109299
:1017C0002001109221012091210128602093210104
:1017D00020912101216020932101EEEFF1E0E491BD
:1017E000F0E0EE0FFF1FE852FE4F25913491309349
:1017F000FD052093FC05EEE9F1E0E491E093FB05A3
:10180000B5E03B2E8CC014BC15BC24B5226024BDB1
:1018100025B5216025BDEEEFF1E0E491F0E0EE0F9B
:10182000FF1FE852FE4F2591349130930906209313
:101830000806EEE9F1E0E491E0930706312C6FC071
:101840001092B0001092B1002091B000226020935D
:10185000B0002091B10021602093B100EEEFF1E0E3
:10186000E491F0E0EE0FFF1FE852FE4F2591349116
:101870003093210520932005EEE9F1E0E491E09317
:101880001F05B2E03B2E4BC01092900010929100C9
:101890002091910028602093910020919100216077
:1018A00020939100EEEFF1E0E491F0E0EE0FFF1FE6
:1018B000E852FE4F2591349130930306209302069F
:1018C000EEE9F1E0E491E093010633E0332E27C026
:1018D0001092A0001092A1002091A10028602093F6
:1018E000A1002091A10021602093A100EEEFF1E082
:1018F000E491F0E0EE0FFF1FE852FE4F2591349186
:10190000309300062093FF05EEE9F1E0E491E093C7
:10191000FE0504E0302E03C03E2E37FC29C22A010A
:101920003B018C0161E08CE0D6D84801A12CB12CA0
:10193000832D8D7F09F0BBC060E072E18AE790E003
:10194000A50194010E94951929833A834B835C83F6
:1019500069017A0121E0C21AD108E108F1088FEF8C
:10196000C816D104E104F10409F008F44CC060E4A5
:1019700072E48FE090E0A50194010E94951969013D
:101980007A0191E0C91AD108E108F108E2E03E12BB
:1019900020C0FFEFCF16D104E104F10409F008F4F0
:1019A000E5C160E970ED83E090E0A50194010E943B
:1019B000951969017A0181E0C81AD108E108F10896
:1019C0009FEFC916D104E104F10409F0D0F583E0DA
:1019D00067C0EFEFCE16D104E104F104B1F0A8F036
:1019E00068E478EE81E090E0A50194010E949519E9
:1019F00069017A01F1E0CF1AD108E108F10833203A
:101A000009F45AC1AAC181E001C082E03320A1F0EB
:101A100047C089819A81AB81BC812AE0B595A795A1
:101A2000979587952A95D1F76C017D01F1E0CF1A42
:101A3000D108E108F10885E095B5987F892B85BD2F
:101A4000A6C068E478EE81E090E0A50194010E94D0
:101A5000951969017A0181E0C81AD108E108F108F5
:101A60009FEFC916D104E104F10409F008F422C182
:101A700064E274EF80E090E0A50194010E94951962
:101A800069017A0181E0C81AD108E108F1089FEFE5
:101A9000C916D104E104F10411F008F02FC185E06A
:101AA0009091B100987F892B8093B10070C060E065
:101AB00072E18AE790E0A50194010E9495196901FD
:101AC0007A01F1E0CF1AD108E108F108C114D1047C
:101AD00021E0E206F10488F068E478EE81E090E02D
:101AE000A50194010E94951969017A0181E0C81A43
:101AF000D108E108F10883E001C081E091E03912EA
:101B000010C090918100987F892B809381004114AF
:101B100051046104710409F03FC02FEF3FEFA901A8
:101B200071C0E3E03E120FC090919100987F892B25
:101B300080939100411451046104710469F52FEF01
:101B40003FEFA90181C0F4E03F120FC09091A100C6
:101B5000987F892B8093A100411451046104710482
:101B6000D9F42FEF3FEFA90181C025E032120FC059
:101B700090912101987F892B809321014114510478
:101B80006104710449F42FEF3FEFA90181C04114B2
:101B900051046104710471F0D801AA0FBB1FA301A5
:101BA00092010E94611E28EE33E040E050E00E9466
:101BB000731903C02FEF3FEFA90182E03816A1F19E
:101BC000831534F0332079F091E03916D9F0D0C084
:101BD000E4E03E1609F44AC03E16B4F1F5E03F16C3
:101BE00009F456C0C5C0C7BC20931A0630931B0623
:101BF00040931C0650931D0680916E008260809376
:101C00006E00B6C0D0928900C0928800209316065C
:101C100030931706409318065093190680916F0071
:101C2000826080936F00A4C0C092B300209322050D
:101C3000309323054093240550932505809170002F
:101C400082608093700094C0D0929900C0929800F6
:101C500020931206309313064093140650931506F2
:101C60008091710082608093710082C0D092A9003F
:101C7000C092A80020930E0630930F0640931006E2
:101C8000509311068091720082608093720070C040
:101C9000D0922901C092280120930A0630930B06A6
:101CA00040930C0650930D068091730082608093E0
:101CB00073005EC084E0F4CE2FEFC216D104E104BD
:101CC000F104D1F0C8F062E17AE780E090E0A5018C
:101CD00094010E94951969017A01E1E0CE1AD108B8
:101CE000E108F108FFEFCF16D104E104F10411F08F
:101CF00008F08FCE84E0A0CE83E09ECE62E17AE74A
:101D000080E090E0A50194010E94951969017A0193
:101D100081E0C81AD108E108F1089FEFC916D10483
:101D2000E104F104C1F0B8F089819A81AB81BC81F2
:101D30004AE0B595A795979587954A95D1F76C0197
:101D40007D01E1E0CE1AD108E108F108332009F461
:101D500072CE87E0A5CE86E059CEEFEFCE16D10445
:101D6000E104F10409F050F684E050CE82E098CE10
:101D70000F900F900F900F90DF91CF911F910F91C7
:101D8000FF90EF90DF90CF90BF90AF909F908F909B
:101D90007F906F905F904F903F900895BC0183EECD
:101DA00095E00C945703643008F063E09091F605D9
:101DB000691710F06FEF690FE62FF0E0ED51FA4F61
:101DC0009489682F690F606883EE95E00C94B206E1
:101DD000CF93DF93BC018CE295E00E945703EC01A6
:101DE0006BE472E08CE295E00E9457038C0F9D1F1C
:101DF000DF91CF910895CF93DF93AC01990F660BDC
:101E0000770B2AE030E08CE295E00E94B403EC010D
:101E10006BE472E08CE295E00E9457038C0F9D1FEB
:101E2000DF91CF910895009771F0FC01019000209F
:101E3000E9F73197AF01481B590BBC0189EC95E0DC
:101E40000E94F00214C08091C9059091CA050097C4
:101E500011F00E94A21B1092CA051092C90510929F
:101E6000CE051092CD051092CC051092CB0589ECD1
:101E700095E008954F925F926F927F928F929F921A
:101E8000AF92BF92CF92DF92EF92FF926B017C01F3
:101E9000B42E9B01AC010E94091B882319F069EB49
:101EA00074E027C026013701E89477F82FEF3FEF61
:101EB0004FE75FE7C301B2010E94091B81110DC00A
:101EC0002FEF3FEF4FE75FE7C301B2010E94321DE2
:101ED00018161CF46DEB74E00CC02FEF3FEF4FE7CA
:101EE0005FE4C701B6010E94051B181694F461EC6B
:101EF00074E083EE95E0FF90EF90DF90CF90BF907D
:101F0000AF909F908F907F906F905F904F900C94C8
:101F100057032FEF3FEF4FE75FECC701B6010E9479
:101F2000321D87FDE4CF20E030E0A901C701B601F2
:101F30000E94321D87FF11C0E091E305F091E40596
:101F40000190F081E02D6DE283EE95E019954C0152
:101F5000F7FAF094F7F8F09402C0812C912CA12CA0
:101F600060E070E080E09FE3AB1441F020E030E0FF
:101F700040E251E40E941E1AA394F6CF9B01AC01EB
:101F8000C701B6010E94BA192B013C010E94861AB2
:101F90006B017C010E94361D9B01AC01C301B201A3
:101FA0000E94B9192B013C012AE0B701A60183EE7A
:101FB00095E00E946C037C01E80CF91CBB2041F009
:101FC0006EE672E083EE95E00E945703E80EF91E7C
:101FD000DB2CDD2031F120E030E040E251E4C301B0
:101FE000B2010E94971D2B013C010E94861A4B01F1
:101FF000A12CB12C2AE0B501A40183EE95E00E944A
:102000006C03E80EF91EC501B4010E94361D9B0148
:10201000AC01C301B2010E94B9192B013C01DA9451
:10202000D8CFC701FF90EF90DF90CF90BF90AF90D7
:102030009F908F907F906F905F904F90089589EC64
:1020400095E00C943003CF93DF93CDB7DEB72C9798
:102050000FB6F894DEBF0FBECDBF789484B5826012
:1020600084BD84B5816084BD85B5826085BD85B53C
:10207000816085BD80916E00816080936E001092BA
:102080008100809181008260809381008091810035
:1020900081608093810080918000816080938000C6
:1020A0008091B10084608093B1008091B000816024
:1020B0008093B00080919100826080939100809124
:1020C0009100816080939100809190008160809365
:1020D00090008091A10082608093A1008091A10076
:1020E00081608093A1008091A00081608093A00016
:1020F0008091210182608093210180912101816082
:102100008093210180912001816080932001809142
:102110007A00846080937A0080917A008260809354
:102120007A0080917A00816080937A0080917A00B1
:10213000806880937A001092C100E0913C05F09194
:102140003D0582E08083E0913805F09139051082E9
:10215000E0913A05F0913B058FEC808310924405A5
:10216000E0914005F091410586E08083E0913E05D5
:10217000F0913F05808180618083E0913E05F09180
:102180003F05808188608083E0913E05F0913F05A6
:10219000808180688083E0913E05F0913F058081D9
:1021A0008F7D808362E082E00E946B0562E083E0C5
:1021B0000E946B0562E084E00E946B0562E086E0AD
:1021C0000E946B0562E089E00E946B0561E08EE091
:1021D0000E946B0561E08DE00E946B0560E08DE080
:1021E0000E94870460E08EE00E94870482E00E94E3
:1021F0005F04892B01F56CED75E080E090E00E94B2
:10220000A7058CE390E0A0E0B0E089839A83AB83DC
:10221000BC838AE090E098878F83BE016F5F7F4F19
:1022200080E090E00E94EF06BE01695F7F4F88E08A
:1022300090E00E94BB0680E090E032DA88E090E017
:1022400049DA4EE150E060E070E040932805509399
:10225000290560932A0570932B0585E090E0909303
:1022600027058093260540930F0550931005609332
:1022700011057093120590931E0580931D056FE55F
:1022800072E0CE0101960E94350341E050E06AE021
:1022900070E0CE0101965DD8CE0101960E94300318
:1022A00062E083EE95E070D980E792E077DD4091BF
:1022B0000F055091100560911105709112052AE0EB
:1022C00030E083EE95E00E94B40361E080E06BDDD6
:1022D0008EE792E063DD40911D0550911E05052EAD
:1022E000000C660B770B2AE030E083EE95E00E944D
:1022F000B40368EE73E080E090E00E94A70595E0EB
:10230000692E712C03E010E024E0E22EF12C32E083
:10231000C32ED12C48EEA42E43E0B42E0E942307F6
:10232000E091FF04F0910005E830F10508F0E0C20B
:102330008827EC57FF4F8F4F0C94B11960E080E075
:1023400032DD8CE892E02ADD61E080E02CDD8DE971
:1023500092E024DD1092E4041092E304109202054E
:10236000109201051092FE041092FD0486C283EEC5
:1023700095E00E94B40660E080E015DD8EEA92E010
:102380000DDD88248394912C9092E4048092E304E0
:10239000909202058092010561E08EE00E94870420
:1023A0009092FE048092FD0468C260E080E0FBDC55
:1023B0008FEB92E0F3DC61E080E0F5DC80ED92E011
:1023C000EDDC409128055091290560912A05709116
:1023D0002B0521E030E083EE95E00E94B403D0921B
:1023E000E404C092E304D0920205C092010545C204
:1023F0001093E4040093E304109302050093010595
:1024000066E970E080E090E00E94A7051093FE046A
:102410000093FD0460E080E0C6DC8EED92E0BEDC5F
:1024200061E080E0C0DC80ED92E0B8DC40912805FE
:102430005091290560912A0570912B0540930F0555
:102440005093100560931105709312052AE030E057
:1024500083EE95E00E94B40360ED77E080E090E0C9
:102460000E94A7058091FF04909100058B7F039740
:1024700009F080C00E94230784E00E945F04892B3A
:10248000C9F46AEF70E080E090E00E94A7058091B7
:102490000F0590911005A0911105B09112050196BC
:1024A000A11DB11D80930F0590931005A0931105F8
:1024B000B093120583E00E945F04892BC9F46AEF90
:1024C00070E080E090E00E94A70580910F05909158
:1024D0001005A0911105B09112050197A109B1094C
:1024E00080930F0590931005A0931105B0931205EA
:1024F00080910F0590911005A0911105B0911205E2
:1025000083369105A105B10551F483EE95E00E9453
:10251000B40660E080E047DC8EED92E03FDC809125
:102520000F0590911005A0911105B0911205099722
:10253000A105B10551F483EE95E00E94B40660E078
:1025400080E031DC8EED92E029DC61E080E02BDC84
:1025500080ED92E023DC40910F05509110056091D1
:102560001105709112052AE030E083EE95E00E949B
:10257000B40378CF6FE075E080E090E00E94EF0652
:1025800083EE95E00E94B40680E090E089D88091C7
:10259000280590912905A0912A05B0912B058093DB
:1025A0000F0590931005A0931105B09312056CE8E8
:1025B00073E0CE0101960E9435036FEE72E0CE010A
:1025C00007960E94350360E080E0EDDBBE01695FA5
:1025D0007F4F83EE95E00E944903BE016F5F7F4FFE
:1025E00083EE95E00E944903CE0107960E943003D6
:1025F000CE0101960E94300360ED77E080E090E02C
:102600000E94A7051092FE041092FD04D0920005CE
:10261000C092FF046DC160E080E0C5DB8FEB92E00B
:10262000BDDB61E080E0BFDB8FEF92E0B7DB409184
:10263000260550912705052E000C660B770B21E02F
:1026400083EE95E00E946C03F092E404E092E304D0
:10265000F0920205E092010510C17092E4046092CC
:10266000E304709202056092010566E970E080E083
:1026700090E00E94A7051093FE040093FD0460E023
:1026800080E091DB8EED92E089DB61E080E08BDB26
:102690008FEF92E083DB4091260550912705509300
:1026A0001E0540931D05052E000C660B770B2AE0D6
:1026B00030E083EE95E00E94B40360ED77E080E0C7
:1026C00090E00E94A7058091FF04909100058D7F06
:1026D000059709F060C00E94230784E00E945F0410
:1026E000892B79F46AEF70E080E090E00E94A70502
:1026F00080911D0590911E05019690931E05809373
:102700001D0583E00E945F04892B79F46AEF70E075
:1027100080E090E00E94A70580911D0590911E0524
:10272000019790931E0580931D0580911D05909142
:102730001E058336910551F483EE95E00E94B406A0
:1027400060E080E030DB8EED92E028DB80911D05BB
:1027500090911E05099751F483EE95E00E94B4060E
:1027600060E080E020DB8EED92E018DB61E080E04D
:102770001ADB8FEF92E012DB40911D0550911E0590
:10278000052E000C660B770B2AE030E083EE95E017
:102790000E94B40398CF6DE175E088E090E00E945C
:1027A000BB0683EE95E00E94B40688E090E00E94AC
:1027B0006A0B809126059091270590931E058093C2
:1027C0001D056CE873E0CE0101960E9435036FEEA3
:1027D00072E0CE0107960E94350360E080E0E3DA04
:1027E000BE01695F7F4F83EE95E00E944903BE0101
:1027F0006F5F7F4F83EE95E00E944903CE010796FD
:102800000E943003CE0101960E94300360ED77E014
:1028100080E090E00E94A7051092FE041092FD0453
:10282000F0920005E092FF0463C083EE95E00E9401
:10283000B40660E080E0B7DA8EE093E0AFDA61E002
:1028400080E0B1DA8FE193E0A9DA4091130550916D
:10285000140560911505709116052AE030E083EEAD
:1028600095E00E94B40386E090E09093E4048093A6
:10287000E304909302058093010566E970E080E02F
:1028800090E00E94A70534C0109200051092FF044A
:1028900083E00E945F04892B41F48090FD049090B6
:1028A000FE048114910409F460C483E00E945F0473
:1028B000892B39F48091FD049091FE04019709F46D
:1028C0005BC483EE95E00E94B40660E080E06BDAC2
:1028D0008DE293E063DA1092FE041092FD0408C0CA
:1028E0008091FD049091FE04019749F00E94230716
:1028F0008091FF0490910005019791F333C40E94E9
:1029000023078090EF049090F00491E089169104E1
:1029100009F04AC080911B0590911C05892B09F094
:1029200043C08EE393E054DA8091EF049091F00479
:1029300062DA8EE493E04CDA20910F0530911005B5
:102940004091110550911205A8EEB3E00E94611E5E
:102950000E94381D60931705709318058093190520
:1029600090931A050E94DF050E94361D6093D705DB
:102970007093D8058093D9059093DA0590921C0541
:1029800080921B051092EE041092ED0460E080E04E
:102990000ADA88E593E002DA46E950E060E070E0A8
:1029A00086ED96E00E947F0B8091ED049091EE04FD
:1029B000019709F047C080911B0590911C05019774
:1029C00009F040C01092F0041092EF0489E693E001
:1029D000FFD910921C0510921B0560E080E0E3D93E
:1029E00087E793E0DBD946E950E060E070E088E9F2
:1029F00098E00E947F0B8091EB049091EC04892B6E
:102A000071F48091E9049091EA04892B41F41092C9
:102A1000FC041092FB041092FA041092F9048091C5
:102A2000130590911405A0911505B0911605019616
:102A3000A11DB11D8093130590931405A093150556
:102A4000B093160580911B0590911C05019709F024
:102A500088C00E94DF050E94361D2091D705309165
:102A6000D8054091D9055091DA0583D49B01AC017A
:102A700060911705709118058091190590911A05BC
:102A800078D4609317057093180580931905909377
:102A90001A0520E030E04AE754E4D0D463D520E0C2
:102AA00030E046EC52E4DED7811105C061E07BD90D
:102AB00088E893E073D920E030E04AE754E460917D
:102AC0001705709118058091190590911A05B6D4D3
:102AD00049D520E030E040E151E4C4D7811105C080
:102AE00061E061D988E893E059D961E080E05BD981
:102AF0008EE893E053D920E030E04AE754E4609157
:102B00001705709118058091190590911A0596D4B2
:102B100040E0B0D90E94DF05A9D76093D705709334
:102B2000D8058093D9059093DA0520E030E0A9011B
:102B300060911705709118058091190590911A05FB
:102B400091D7181634F081E993E06DD90E94030AF9
:102B500008C081EA93E03CD98091EF049091F004A1
:102B60004AD90E9423078090EB049090EC04E1E0A6
:102B70008E16910409F048C080910D0590910E05C4
:102B8000892B09F041C08CEA93E022D98091EB04B3
:102B90009091EC0430D98CEB93E01AD920910F0579
:102BA000309110054091110550911205A8EEB3E047
:102BB0000E94611E5DD76093090570930A0580939A
:102BC0000B0590930C050E94DF0550D76093D30549
:102BD0007093D4058093D5059093D60590920E05F9
:102BE00080920D051092E8041092E70460E080E006
:102BF000DAD886EC93E0D2D846E950E060E070E0A5
:102C00008AE397E00E947F0B8091E7049091E804AB
:102C1000019709F051C080910D0590910E05019723
:102C200009F04AC01092EC041092EB0487ED93E097
:102C3000CFD810920E0510920D0560E080E0B3D859
:102C400085EE93E0ABD846E950E060E070E08CEFB1
:102C500098E00E947F0B8091EF049091F00401971F
:102C6000C1F48091E9049091EA04892B91F4809158
:102C7000F9049091FA0404979093FA048093F9046C
:102C80008091FB049091FC0402979093FC04809344
:102C9000FB048091130590911405A0911505B09146
:102CA00016050196A11DB11D80931305909314057F
:102CB000A0931505B093160580910D0590910E0512
:102CC000019709F089C00E94DF05D0D62091D30575
:102CD0003091D4054091D5055091D6054AD39B013A
:102CE000AC016091090570910A0580910B059091E6
:102CF0000C053FD36093090570930A0580930B057B
:102D000090930C0520E030E04AE754E497D32AD4AE
:102D100020E030E046EC52E4A5D6811106C061E027
:102D200086E041D886EF93E039D820E030E04AE7EA
:102D300054E46091090570910A0580910B0590910A
:102D40000C057CD30FD420E030E040E151E48AD67A
:102D5000811106C061E086E026D886EF93E01ED898
:102D600061E086E020D88CEF93E018D820E030E0D6
:102D70004AE754E46091090570910A0580910B05BA
:102D800090910C055BD340E075D80E94DF056ED6AC
:102D90006093D3057093D4058093D5059093D605A1
:102DA00020E030E0A9016091090570910A05809149
:102DB0000B0590910C0556D6181634F08FEF93E062
:102DC00032D80E94030A08C080E194E001D88091C3
:102DD000EB049091EC040FD80E9423078090E90443
:102DE0009090EA04F1E08F16910409F04CC08091B4
:102DF000070590910805892B09F045C08BE194E007
:102E00000E94E80E8091E9049091EA040E94FB0E72
:102E10008BE294E00E94E80E20910F05309110059E
:102E20004091110550911205A8EEB3E04AD720D683
:102E30006093030570930405809305059093060540
:102E40000E94DF0513D66093CF057093D005809361
:102E5000D1059093D20590920805809207051092B3
:102E6000E6041092E50460E080E00E94D30E85E362
:102E700094E00E94CE0E46E950E060E070E08EE9FA
:102E800097E00E947F0B8091E5049091E604019702
:102E9000A9F58091070590910805019779F51092A1
:102EA000EA041092E90486E494E00E94E80E10928D
:102EB00008051092070560E080E00E94D30E84E5CB
:102EC00094E00E94CE0E46E950E060E070E080E6BB
:102ED00099E00E947F0B8091130590911405A091B9
:102EE0001505B09116050196A11DB11D809313051E
:102EF00090931405A0931505B093160580910705CE
:102F000090910805019709F093C00E94DF05AED5A6
:102F10002091CF053091D0054091D1055091D20537
:102F200028D29B01AC01609103057091040580914A
:102F30000505909106051DD2609303057093040565
:102F4000809305059093060520E030E04AE754E4BD
:102F500075D208D320E030E046EC52E483D58111ED
:102F600008C061E08BE00E94D30E85E694E00E94E9
:102F7000CE0E20E030E04AE754E460910305709102
:102F80000405809105059091060558D2EBD220E00A
:102F900030E040E151E466D5811108C061E08BE08A
:102FA0000E94D30E85E694E00E94CE0E61E08BE095
:102FB0000E94D30E8BE694E00E94CE0E20E030E01B
:102FC0004AE754E46091030570910405809105057A
:102FD0009091060533D240E00E943A0F0E94DF052F
:102FE00045D56093CF057093D0058093D10590931C
:102FF000D20520E030E0A90160910305709104053D
:1030000080910505909106052DD518163CF08EE6A9
:1030100094E00E94130F0E94030A0AC08FE794E015
:103020000E94E80E8091E9049091EA040E94FB0E50
:103030008091FB049091FC04069721F41092FC040B
:103040001092FB048091F9049091FA04069721F400
:103050001092FA041092F9048091F9049091FA0404
:103060009C012D7F2130310511F00597B9F50E94A3
:10307000DF05FCD42091DB053091DC054091DD05B6
:103080005091DE0576D11B012C016093F5047093FD
:10309000F6048093F7049093F80480911D059091B5
:1030A0001E058A9DB0018B9D700D9A9D700D112497
:1030B000072E000C880B990BDBD49B01AC01C201DD
:1030C000B101A3D287FD0AC08AE894E00E94130FE1
:1030D0001092FE041092FD040E94030A8091FB04EA
:1030E0009091FC049C012D7F2130310519F005974A
:1030F00009F0FCCB0E94DF05B9D42091DF053091A7
:10310000E0054091E1055091E20533D11B012C010E
:103110006093F1047093F2048093F3049093F404A9
:1031200080911D0590911E058A9DB0018B9D700DAB
:103130009A9D700D1124072E000C880B990B98D4C2
:103140009B01AC01C201B10160D287FDCFCB8BE9FD
:1031500094E00E94130F1092FE041092FD040E944E
:10316000030AC4CB0E943B02D9C88CEA94E00E94B7
:10317000E80EF401199599CB84EB94E00E94E80ED7
:103180001092FE041092FD0460E08EE00E9487041D
:10319000109200051092FF041092F0041092EF04B8
:1031A00010921C0510921B051092EC041092EB0477
:1031B00010920E0510920D051092EA041092E90487
:1031C000109208051092070566E970E080E090E033
:1031D0000E94A70576CBECE2F5E01382128288EE1E
:1031E00093E0A0E0B0E084839583A683B78385E174
:1031F00092E09183808385EC90E09587848784ECCE
:1032000090E09787868780EC90E0918B808B81ECB3
:1032100090E0938B828B82EC90E0958B848B86EC94
:1032200090E0978B868B118E128E138E148EE3EEA8
:10323000F5E01382128285E292E0918380838AE234
:1032400084838FEF85838CE2868384E3878382E3A4
:10325000808780E381878EE28287138614861586B5
:103260001686178661E0CF010E94C40A0E94DF051E
:10327000FDD36093DF057093E0058093E1059093A3
:10328000E2050E94DF05F2D36093DB057093DC0555
:103290008093DD059093DE050E94DF05E7D3609300
:1032A000D7057093D8058093D9059093DA050E94CD
:1032B000DF05DCD36093D3057093D4058093D505E7
:1032C0009093D6050E94DF05D1D36093CF0570930C
:1032D000D0058093D1059093D2056DE472E089EC1E
:1032E00095E00C943503A1E21A2EAA1BBB1BFD012D
:1032F0000DC0AA1FBB1FEE1FFF1FA217B307E407D5
:10330000F50720F0A21BB30BE40BF50B661F771F2C
:10331000881F991F1A9469F760957095809590950C
:103320009B01AC01BD01CF010895052E97FB16F45A
:1033300000940FD057FD05D0D6DF07FC02D046F42D
:1033400008C050954095309521953F4F4F4F5F4FA6
:10335000089590958095709561957F4F8F4F9F4F01
:103360000895EE0FFF1F881F8BBF0790F691E02D89
:1033700019945058BB27AA270ED053C444D430F018
:1033800049D420F031F49F3F11F41EF439C40EF4F7
:10339000E095E7FB2FC4E92F55D480F3BA176207F5
:1033A00073078407950718F071F49EF56DC40EF449
:1033B000E0950B2EBA2FA02D0B01B90190010C0145
:1033C000CA01A0011124FF27591B99F0593F50F45D
:1033D000503E68F11A16F040A22F232F342F4427B5
:1033E000585FF3CF469537952795A795F0405395AD
:1033F000C9F77EF41F16BA0B620B730B840BBAF07D
:103400009150A1F0FF0FBB1F661F771F881FC2F7E7
:103410000EC0BA0F621F731F841F48F487957795FB
:103420006795B795F7959E3F08F0B3CF9395880FB2
:1034300008F09927EE0F9795879508950CD0F1C362
:10344000E9D340F0E0D330F021F45F3F19F0D2C36C
:1034500051111BC4D5C3F6D398F39923C9F355234F
:10346000B1F3951B550BBB27AA2762177307840777
:1034700038F09F5F5F4F220F331F441FAA1FA9F32D
:1034800033D00E2E3AF0E0E830D091505040E6951F
:10349000001CCAF729D0FE2F27D0660F771F881F80
:1034A000BB1F261737074807AB07B0E809F0BB0B6F
:1034B000802DBF01FF2793585F4F2AF09E3F510593
:1034C00068F098C3E2C35F3FECF3983EDCF3869567
:1034D00077956795B795F7959F5FC9F7880F911D09
:1034E0009695879597F90895E1E0660F771F881FF5
:1034F000BB1F621773078407BA0720F0621B730BA8
:10350000840BBA0BEE1F88F7E0950895A3D388F0DB
:103510009F5790F0B92F9927B751A0F0D1F0660FBF
:10352000771F881F991F1AF0BA95C9F712C0B130DA
:1035300081F0AAD3B1E00895A7C3672F782F882719
:10354000B85F39F0B93FCCF3869577956795B39519
:10355000D9F73EF490958095709561957F4F8F4F88
:103560009F4F08953BD080F09F3740F491110EF0AB
:103570008CC360E070E080E89FEB089526F41B1692
:10358000611D711D811D01C01BC0882371F477234B
:1035900021F09850872B762F07C0662311F49927C6
:1035A0000DC09051862B70E060E02AF09A95660F6E
:1035B000771F881FDAF7880F9695879597F90895F2
:1035C0009F3F31F0915020F4879577956795B79597
:1035D000880F911D9695879597F908953BD3A0F094
:1035E000BEE7B91788F4BB279F3860F41616B11DE3
:1035F000672F782F8827985FF7CF869577956795FF
:10360000B11D93959639C8F308956DD208F48FEFE4
:10361000089569D2880B990B0895CF93DF93823078
:10362000910510F482E090E0E0912006F0912106EF
:1036300020E030E0C0E0D0E0309711F140815181CE
:1036400048175907C0F04817590761F482819381E0
:10365000209719F09B838A832BC090932106809337
:10366000200626C02115310519F04217530718F41A
:103670009A01BE01DF01EF010280F381E02DDCCF72
:103680002115310509F1281B390B2430310590F43F
:1036900012968D919C9113976115710521F0FB0194
:1036A0009383828304C09093210680932006FD01BA
:1036B000329644C0FD01E20FF31F81939193225093
:1036C00031092D933C933AC020911E0630911F067C
:1036D000232B41F420910D0230910E0230931F06EE
:1036E00020931E0620910B0230910C02211531050A
:1036F00041F42DB73EB740910F0250911002241BA8
:10370000350BE0911E06F0911F06E217F307A0F4B7
:103710002E1B3F0B2817390778F0AC014E5F5F4F27
:103720002417350748F04E0F5F1F50931F06409334
:103730001E068193919302C0E0E0F0E0CF01DF919B
:10374000CF9108950F931F93CF93DF93009709F4C0
:103750008CC0FC01329713821282009120061091D6
:1037600021060115110581F420813181820F931FFB
:1037700020911E0630911F062817390779F5F0931E
:103780001F06E0931E0671C0D80140E050E0AE175E
:10379000BF0750F412962D913C911397AD0121155E
:1037A000310509F1D901F3CF9D01DA013383228379
:1037B00060817181860F971F8217930769F4EC016E
:1037C00028813981260F371F2E5F3F4F3183208399
:1037D0008A819B8193838283452B29F4F093210670
:1037E000E093200642C01396FC93EE931297ED01EE
:1037F000499159919E01240F351FE217F30771F487
:1038000080819181840F951F029611969C938E93CF
:103810008281938113969C938E931297E0E0F0E05F
:10382000D80112968D919C911397009719F0F80189
:103830008C01F6CF8D919C9198012E5F3F4F820FA6
:10384000931F20911E0630911F062817390769F42F
:10385000309729F4109221061092200602C013829C
:10386000128210931F0600931E06DF91CF911F91C5
:103870000F9108956F927F928F929F92AF92BF9215
:10388000CF92DF92EF92FF920F931F93CF93DF932C
:10389000EC01009781F4CB01DF91CF911F910F9143
:1038A000FF90EF90DF90CF90BF90AF909F908F9060
:1038B0007F906F90B2CEFC01E60FF71F9C01225063
:1038C0003109E217F30708F4A8C0D9010D911C9142
:1038D000119706171707A8F00530110508F49BC0CB
:1038E000C80104978617970708F495C0025011097C
:1038F000061B170B019311936D937C93CF0122DF6D
:103900008AC05B01A01AB10A4C01800E911EA091E1
:103910002006B091210640E050E0E12CF12C1097F8
:1039200009F44AC0A815B905D1F56D907C9011979E
:10393000630182E0C80ED11CCA14DB0480F1A3012C
:103940004A195B096A0182E0C80ED11C1296BC902C
:1039500012971396AC91B5E0CB16D10440F0B28229
:10396000A38351834083D9016D937C930AC00E5F7A
:103970001F4FC301800F911FF90191838083EB2DAD
:10398000FA2FE114F10431F0D7011396FC93EE9372
:10399000129741C0F0932106E09320063CC08D9120
:1039A0009C9111974817590708F4AC017D011296B4
:1039B0000D90BC91A02DB3CF80911E0690911F0653
:1039C00088159905E1F446175707C8F480910B0252
:1039D00090910C02009741F48DB79EB740910F0271
:1039E00050911002841B950BE817F907B0F4F0937F
:1039F0001F06E0931E06F901718360830CC0CB01A2
:103A00000CDE7C01009749F0A801BE011BD0CE015D
:103A100099DEC70104C0CE0102C080E090E0DF91D2
:103A2000CF911F910F91FF90EF90DF90CF90BF90BB
:103A3000AF909F908F907F906F90089581E090E07D
:103A4000F89458C1FB01DC0102C001900D92415075
:103A50005040D8F70895FB01DC0101900D92002041
:103A6000E1F7089540D008F481E00895E89409C092
:103A700097FB3EF490958095709561957F4F8F4FA1
:103A80009F4F9923A9F0F92F96E9BB279395F695B7
:103A9000879577956795B795F111F8CFFAF4BB0F35
:103AA00011F460FF1BC06F5F7F4F8F4F9F4F16C099
:103AB000882311F096E911C0772321F09EE8872F23
:103AC000762F05C0662371F096E8862F70E060E0DF
:103AD0002AF09A95660F771F881FDAF7880F969558
:103AE000879597F90895990F0008550FAA0BE0E8FC
:103AF000FEEF16161706E807F907C0F012161306B0
:103B0000E407F50798F0621B730B840B950B39F4EF
:103B10000A2661F0232B242B252B21F408950A2655
:103B200009F4A140A6958FEF811D811D08950BD04A
:103B300078C069D028F06ED018F0952309F05AC0EB
:103B40005FC01124A2C07ED0A0F3959FD1F3950F42
:103B500050E0551F629FF001729FBB27F00DB11D11
:103B6000639FAA27F00DB11DAA1F649F6627B00DA1
:103B7000A11D661F829F2227B00DA11D621F739F8A
:103B8000B00DA11D621F839FA00D611D221F749F98
:103B90003327A00D611D231F849F600D211D822FDF
:103BA000762F6A2F11249F5750408AF0E1F0882326
:103BB0004AF0EE0FFF1FBB1F661F771F881F915033
:103BC0005040A9F79E3F510570F014C05EC05F3FA2
:103BD000ECF3983EDCF3869577956795B795F79566
:103BE000E7959F5FC1F7FE2B880F911D96958795EE
:103BF00097F9089597F99F6780E870E060E008956D
:103C00009FEF80EC089500240A94161617061806F4
:103C10000906089500240A941216130614060506D0
:103C20000895092E0394000C11F4882352F0BB0F61
:103C300040F4BF2B11F460FF04C06F5F7F4F8F4FC4
:103C40009F4F089557FD9058440F551F59F05F3FFF
:103C500071F04795880F97FB991F61F09F3F79F0AE
:103C600087950895121613061406551FF2CF469530
:103C7000F1DF08C0161617061806991FF1CF8695B2
:103C80007105610508940895E894BB276627772796
:103C9000CB0197F90895F999FECF92BD81BDF89AAD
:103CA000992780B50895262FF999FECF1FBA92BDA6
:103CB00081BD20BD0FB6F894FA9AF99A0FBE01960D
:103CC000089509D0A59F900DB49F900DA49F800DDD
:103CD000911D11240895A29FB001B39FC001A39F1D
:103CE000700D811D1124911DB29F700D811D112435
:103CF000911D089511E0CEE1D1E000E005C0802FD4
:103D0000FE012FDB2196011DCF31D10780E008078E
:063D1000B1F7F894FFCFAB
:103D160001000100010001000100FF0000220680F1
:103D26000000000000D40151019E017C0190011A9F
:103D36000200000000AD0651014672616D65204427
:103D460065746563742020494E004672616D652076
:103D5600446574656374204F5554000D0A00203C79
:103D66003C3C204552524F52203E3E3E20200053BE
:103D760074617274696E67207570202E2E2E2E0067
:103D860054696D657253657474696E673D00467259
:103D9600616D6554696D654F75743D003C3C3C2012
:103DA6004F46464C494E45203E3E3E200020454E5D
:103DB60054455220546F20535441525420003C3CE9
:103DC6003C204F4E2D4C494E45203E3E3E20004560
:103DD6004E54455220544F204348414E47452100FA
:103DE60054696D65204F7574205365633D004849DD
:103DF600542020454E5420746F205341564500539D
:103E0600657474696E677320536176656421004634
:103E160072616D6554696D654F7574533D0020463A
:103E260072616D652020436F756E74657220004E59
:103E36006F206F66204672616D65203D0053544FBA
:103E4600502020414354495641544544210053656E
:103E56006E73496E3120466C6167203D2000463105
:103E660020697320736574003C3C4652414D4520E1
:103E76003120534554203E3E00463120726573651D
:103E8600742E2E2E2E2E003C3C4652414D4520319E
:103E960020525354203E3E00313D20202000313D2B
:103EA60000204572726F72204672616D6520312066
:103EB60000463120757064617465640053656E73E5
:103EC600496E3220466C6167203D200046322069EB
:103ED6007320736574003C3C4652414D45203220A8
:103EE600534554203E3E0046322072657365742E5B
:103EF6002E2E2E2E003C3C4652414D45203220525D
:103F06005354203E3E00323D20202000323D00200A
:103F1600204572726F72204672616D6520322000F4
:103F2600463220757064617465640053656E73492A
:103F36006E3320466C6167203D200046332069734E
:103F460020736574003C3C4652414D452033205356
:103F56004554203E3E0046332072657365742E2E0E
:103F66002E2E2E003C3C4652414D452033205253C6
:103F760054203E3E00333D20202000333D002020CB
:103F86004572726F72204672616D6520332000465D
:103F96003320757064617465640042616420467202
:103FA600616D65204F55542045520042616420469C
:103FB60072616D6520494E20455252005265736507
:103FC6007420300053746F70006E616E00696E6607
:063FD600006F766600009A
:00000001FF
