:1000000016C1000045C1000043C1000041C100000D
:100010003FC100003DC100003BC1000039C10000EC
:1000200037C1000035C1000033C1000031C10000FC
:100030002FC100000C94D3092BC1000029C100007E
:1000400027C1000025C1000023C1000021C100001C
:100050001FC100001DC100001BC10000B7C400008B
:1000600017C1000093C3000068C3000011C1000065
:100070000FC100000DC100000BC1000009C100004C
:1000800007C1000005C1000003C1000001C100005C
:10009000FFC00000FDC00000FBC00000F9C0000070
:1000A000F7C00000F5C00000F3C00000F1C0000080
:1000B000EFC00000EDC00000EBC00000E9C0000090
:1000C000E7C00000E5C00000E3C00000E1C00000A0
:1000D000DFC00000DDC00000DBC00000D9C00000B0
:1000E000D7C000008602890278027C028202C00228
:1000F0008D02910297029B029F02A502A902AD0206
:10010000C002B302B702BB02000021002400270096
:100110002A002D0030003300010100000401070116
:100120000A01000020002300260029002C002F00D7
:1001300032000001000003010601090100000A0B62
:1001400002090C0D0E080703040100000000000066
:10015000000000000000000000000000000000009F
:10016000000000000000000012111000000000005C
:10017000000000000000000000000000000000007F
:1001800000000102102020080810204010204080AC
:10019000020102010804020101020408102040804B
:1001A00080402010080402018004020180402010D9
:1001B0000804020108040201010204081020408022
:1001C00001020408102040800000220025002800C1
:1001D0002B002E003100340002010000050108014F
:1001E0000B010505050507050808080802020202BB
:1001F0000A0A0808040404040101010101010101C3
:100200000303030303030303040707070C0C0C0C8D
:100210000C0C0C0C02020202060606060606060676
:100220000B0B0B0B0B0B0B0B020007164E0F1124C5
:100230001FBECFEFD1E2DEBFCDBF00E00CBF14E0A8
:10024000A0E0B2E0E2E2F7E300E00BBF02C00790FB
:100250000D92A238B107D9F725E0A2E8B4E001C0B9
:100260001D92AA3CB207E1F711E0C6E1D1E000E03F
:1002700006C021970109802FFE010E94B716C531E3
:10028000D10780E00807A9F70E94510F0C94801B4A
:10029000B7CECF92DF92EF92FF920F931F93CF933F
:1002A000DF936C017A018B01C0E0D0E0CE15DF0551
:1002B00089F0D8016D918D01D601ED91FC910190ED
:1002C000F081E02DC6011995892B11F47E0102C041
:1002D0002196ECCFC701DF91CF911F910F91FF9035
:1002E000EF90DF90CF900895FC01918D828D98174B
:1002F00061F0828DDF01A80FB11D5D968C91928D0A
:100300009F5F9F73928F90E008958FEF9FEF089506
:10031000FC01918D828D981731F0828DE80FF11DCF
:10032000858D90E008958FEF9FEF0895FC01918DEA
:10033000228D892F90E0805C9F4F821B91098F73E3
:10034000992708958CED94E0F1DF21E0892B09F4E1
:1003500020E0822F0895FC01848DDF01A80FB11DDC
:10036000A35ABF4F2C91848D90E001968F739927EB
:10037000848FA689B7892C93A089B1898C918064D8
:100380008C93938D848D981306C00288F389E02D99
:1003900080818F7D80830895EF92FF920F931F934A
:1003A000CF93DF93EC0181E0888F9B8D8C8D981328
:1003B00005C0E889F989808185FD23C0F62E0B8D63
:1003C00010E00F5F1F4F0F731127E02E8C8DE81286
:1003D0000BC00FB607FCFACFE889F989808185FF49
:1003E000F5CFCE01B8DFF2CF8B8DFE01E80FF11D06
:1003F000E35AFF4FF0820B8FEA89FB89808180628C
:1004000007C0EE89FF896083E889F989808180646B
:10041000808381E090E0DF91CF911F910F91FF9059
:10042000EF900895CF93DF93EC01888D8823C1F07E
:10043000EA89FB89808185FD05C0A889B9898C91ED
:1004400086FD0EC00FB607FCF5CF808185FFF2CF89
:10045000A889B9898C9185FFEDCFCE017CDFE8CFEB
:10046000DF91CF91089580E090E0892B19F06ADF49
:10047000811125C080E090E0892B41F080E090E080
:10048000892B21F00E94000081111CC080E090E0C7
:10049000892B41F080E090E0892B21F00E94000040
:1004A000811113C080E090E0892BA1F080E090E002
:1004B000892B81F00E94000081110AC008950E94DA
:1004C0000000D8CF0E940000E1CF0E940000EACFD8
:1004D0000C940000089590E0FC013197E231F105A1
:1004E00008F04EC08827EE58FF4F8F4F0C94B71678
:1004F000809180008F7703C0809180008F7D8093F2
:100500008000089580918000877FF9CF84B58F7730
:1005100002C084B58F7D84BD08958091B0008F772F
:1005200003C08091B0008F7D8093B00008958091CA
:1005300090008F7707C0809190008F7D03C08091DD
:100540009000877F8093900008958091A0008F771E
:1005500007C08091A0008F7D03C08091A000877F9D
:100560008093A0000895809120018F7707C080912B
:1005700020018F7D03C080912001877F809320011F
:1005800008953FB7F89480919B0490919C04A091AA
:100590009D04B0919E0426B5A89B05C02F3F19F07D
:1005A0000196A11DB11D3FBFBA2FA92F982F8827F3
:1005B000820F911DA11DB11DBC01CD0142E0660F4E
:1005C000771F881F991F4A95D1F70895DC01ED9197
:1005D000FC91DB0114964D915C9115976D917C9186
:1005E0000280F381E02D19946115710579F0FB010A
:1005F00001900020E9F73197AF01461B570BDC0152
:10060000ED91FC910280F381E02D199480E090E05F
:1006100008954F925F926F927F92EF92FF920F93A5
:100620001F93CF93DF93CDB7DEB7A1970FB6F894A2
:10063000DEBF0FBECDBF7C01FA01CB0119A2223073
:1006400008F42AE08E010F5D1F4F422E512C612CC1
:10065000712CBF01A30192010E947916F901CA0110
:10066000015011096A3014F4605D01C0695CD80161
:100670006C93232B242B252B61F7B801C701B4DF22
:10068000A1960FB6F894DEBF0FBECDBFDF91CF911C
:100690001F910F91FF90EF907F906F905F904F9020
:1006A0000895CF92DF92EF92FF920F931F93CF9313
:1006B000DF93EC016A017B012115310579F4E881B2
:1006C000F9810190F081E02D642FDF91CF911F918E
:1006D0000F91FF90EF90DF90CF9019942A30310561
:1006E00001F577FF1DC0E881F9810190F081E02DCF
:1006F0006DE219958C0144275527BA014C195D0903
:100700006E097F092AE0CE0184DF800F911FDF91FF
:10071000CF911F910F91FF90EF90DF90CF900895B0
:100720002AE0B701A601CE01DF91CF911F910F9171
:10073000FF90EF90DF90CF906CCF1F920F920FB68B
:100740000F9211240BB60F922F933F934F935F9309
:100750006F937F938F939F93AF93BF93EF93FF9389
:100760008CED94E0F8DDFF91EF91BF91AF919F91F7
:100770008F917F916F915F914F913F912F910F904A
:100780000BBE0F900FBE0F901F9018951F920F92E7
:100790000FB60F9211240BB60F922F938F939F9346
:1007A000EF93FF93E091EC04F091ED048081E091F0
:1007B000F204F091F30482FD12C090818091F5045F
:1007C0008F5F8F732091F604821751F0E091F5044A
:1007D000F0E0E452FB4F958F8093F50401C08081D7
:1007E000FF91EF919F918F912F910F900BBE0F90E2
:1007F0000FBE0F901F901895CF93DF93282F30E0F6
:10080000F901E45CFE4F8491F901EE57FE4FD4915B
:10081000F901EE51FE4FC491CC2389F081115BDECA
:10082000EC2FF0E0EE0FFF1FEE5DFE4FA591B491AF
:10083000EC91ED2381E090E021F480E002C080E0C3
:1008400090E0DF91CF9108951F93CF93DF93282FEE
:1008500030E0F901E45CFE4F8491F901EE57FE4F60
:10086000D491F901EE51FE4FC491CC23C1F0162F63
:10087000811131DEEC2FF0E0EE0FFF1FE853FE4F49
:10088000A591B4918FB7F894111105C09C91ED2FEB
:10089000E095E92302C0EC91ED2BEC938FBFDF9143
:1008A000CF911F910895CF93DF93EC0160E08E818B
:1008B000CBDF61E08E81C8DF60E08E81C5DF8BE831
:1008C00091E00197F1F7DF91CF910895CF93DF93F6
:1008D00090E0FC01EE57FE4F2491FC01EE51FE4FDB
:1008E0008491882361F190E0880F991FFC01E85FF3
:1008F000FE4FC591D491FC01E853FE4FA591B491F0
:10090000611109C09FB7F89488812095822388835C
:10091000EC912E230BC0623061F49FB7F8943881BC
:10092000822F809583238883EC912E2B2C939FBF5D
:1009300006C08FB7F894E8812E2B28838FBFDF91F4
:10094000CF9108958F929F92AF92BF92CF92DF92F4
:10095000EF92FF926B017C0114DE4B015C01C1142C
:10096000D104E104F104E9F00CDEDC01CB018819CB
:100970009909AA09BB09883E9340A105B10578F3FE
:1009800021E0C21AD108E108F10888EE880E83E060
:10099000981EA11CB11CC114D104E104F10421F77B
:1009A000DECFFF90EF90DF90CF90BF90AF909F9001
:1009B0008F9008952FB7F8946091970470919804E0
:1009C0008091990490919A042FBF08951F920F92DD
:1009D0000FB60F9211242F933F938F939F93AF9352
:1009E000BF938091970490919804A0919904B0913D
:1009F0009A043091960423E0230F2D3720F40196BA
:100A0000A11DB11D05C026E8230F0296A11DB11D31
:100A1000209396048093970490939804A09399044C
:100A2000B0939A0480919B0490919C04A0919D04A2
:100A3000B0919E040196A11DB11D80939B049093DB
:100A40009C04A0939D04B0939E04BF91AF919F918D
:100A50008F913F912F910F900FBE0F901F9018957F
:100A6000CF92DF92EF92FF920F931F93CF93DF937A
:100A70007C016C0187E0C80ED11CC0E0D0E0062FDD
:100A800010E0B8010C2E02C0759567950A94E2F744
:100A90006170F60181916F01D7DE2196C430D105D6
:100AA00081F7C701DF91CF911F910F91FF90EF90D8
:100AB000DF90CF90F8CECF92DF92EF92FF920F931C
:100AC0001F93CF93DF93EC01F62E642F8C81BCDE55
:100AD0008D818F3F11F060E0B7DE8F850F2D10E024
:100AE00084FF23C06E0187E0C80ED11CE12CF12CDD
:100AF000B8010E2C02C0759567950A94E2F76170F3
:100B0000F60181916F01A0DEFFEFEF1AFF0A88E086
:100B1000E816F10469F7CE01DF91CF911F910F9193
:100B2000FF90EF90DF90CF90BECEB80184E0759536
:100B300067958A95E1F7CE0193DF6F2DCE01DF91A6
:100B4000CF911F910F91FF90EF90DF90CF9088CFC2
:100B500041E0B1DF81E090E0089540E0ACCF61E09A
:100B6000FCDF8BE39FE10197F1F70895AF92BF920D
:100B7000CF92DF92EF92FF920F931F93CF93DF9369
:100B80001F92CDB7DEB75C017B018B016C0184E065
:100B9000C80ED11CF80161918F01C50169830E94C3
:100BA000511B6981681719F0C5010E94591BFFEF9D
:100BB000AF1ABF0AAC14BD0469F7C7010F90DF91EB
:100BC000CF911F910F91FF90EF90DF90CF90BF904A
:100BD000AF9008954F925F926F927F92AF92BF92C3
:100BE000CF92DF92EF92FF920F931F93CF93DF93F9
:100BF00082E002DEEC018091080290910902C817A0
:100C0000D90749F0D7DE60939204709393048093E0
:100C1000940490939504CEDE009192041091930475
:100C20002091940430919504DC01CB01801B910B41
:100C3000A20BB30B87399105A105B10558F0BADEB7
:100C4000609392047093930480939404909395041A
:100C50008E0102C001E010E0D0930902C0930802A7
:100C600084E0CADDEC018091060290910702C8176A
:100C7000D90749F09FDE60938E0470938F048093B0
:100C800090049093910496DEC0908E04D0908F04CF
:100C9000E0909004F0909104DC01CB018C199D0947
:100CA000AE09BF0987399105A105B10558F082DE6B
:100CB00060938E0470938F048093900490939104BA
:100CC0007E0103C0EE24E394F12CD0930702C0937D
:100CD000060283E091DD6C0180910402909105028F
:100CE000C816D90649F066DE60938A0470938B04B7
:100CF00080938C0490938D045DDE40908A04509024
:100D00008B0460908C0470908D04DC01CB018419FD
:100D10009509A609B70987399105A105B10558F0CC
:100D200049DE60938A0470938B0480938C049093C3
:100D30008D04E60102C0C1E0D0E0D0920502C0926D
:100D4000040286E059DD6C01809102029091030259
:100D5000C816D90649F02EDE609386047093870486
:100D6000809388049093890425DE409086045090F7
:100D700087046090880470908904DC01CB01841999
:100D80009509A609B7098F3E9240A105B10558F013
:100D900011DE609386047093870480938804909397
:100DA0008904560103C0AA24A394B12CD092030253
:100DB000C092020289E020DD6C01809100029091D6
:100DC0000102C816D90649F0F5DD609382047093DC
:100DD00083048093840490938504ECDD4090820426
:100DE000509083046090840470908504DC01CB01F2
:100DF00084199509A609B7098F3E9240A105B1054E
:100E000058F0D8DD60938204709383048093840447
:100E100090938504C60102C081E090E0D092010267
:100E2000C09200020115110589F420919F043091B0
:100E3000A0042115310511F54AEF50E060E070E0A3
:100E400080ED97E0B5D381E090E013C0E114F104A8
:100E500009F0DDC020919F043091A004232BD9F428
:100E60004AEF50E060E070E084E398E0A1D382E0D4
:100E700090E09093B4048093B304CDC02230310548
:100E800051F44AEF50E060E070E084E398E090D3E2
:100E900083E090E0EECFCD2B89F42091B104309126
:100EA000B2042230310550F44AEF50E060E070E0C7
:100EB00084E398E07DD385E090E0DBCFEF2801F577
:100EC00020919F043091A0042230310551F44AEF63
:100ED00050E060E070E084E398E06AD384E090E062
:100EE000C8CF2430310561F44AEF50E060E070E093
:100EF00084E398E05DD31092B4041092B3048BC0E5
:100F0000012B61F42091B3043091B40423303105F6
:100F100009F4A6CF2530310509F4A2CFAB28A1F5FD
:100F200060E080E099D689E292E091D648EC50E00A
:100F300060E070E086ED96E03BD38091AF04909145
:100F4000B00401969093B0048093AF048230910571
:100F500039F481E090E09093AC048093AB045BC0E3
:100F60008430910539F481E090E09093A804809357
:100F7000A70451C0069709F04EC081E090E090931D
:100F8000A4048093A30447C0892B09F044C0809136
:100F9000AD049091AE0401969093AE048093AD049D
:100FA00060E080E059D68AE392E051D648EC50E008
:100FB00060E070E086ED96E0FBD28091AF04909106
:100FC000B00401969093B0048093AF048091AD0477
:100FD0009091AE048230910539F481E090E09093D5
:100FE000AA048093A90417C08430910539F481E0E4
:100FF00090E09093A6048093A5040DC0069759F441
:1010000081E090E09093A2048093A10404C0CD2BD2
:1010100009F443CF83CFDF91CF911F910F91FF90C0
:10102000EF90DF90CF90BF90AF907F906F905F90E8
:101030004F900895AF92BF92CF92DF92EF92FF92BE
:101040000F931F93CF93DF935C017B016A01C0E094
:10105000D0E0CC15DD050CF03CC08BE895E07FDDE1
:1010600062E08BE895E0FED1B5018BE895E0AEDA61
:1010700062E370E080E090E065DC00E010E00E15D7
:101080001F056CF468E18BE895E067DDA3DD62E3A2
:1010900070E080E090E056DC0F5F1F4FF0CF00E083
:1010A00010E00E151F056CF46CE18BE895E055DD42
:1010B00091DD62E370E080E090E044DC0F5F1F4F61
:1010C000F0CF62E370E080E090E03CDC83DD2196CD
:1010D000C0CFDF91CF911F910F91FF90EF90DF90E4
:1010E000CF90BF90AF900895CF93DF9300D000D002
:1010F000CDB7DEB78BE895E032DD61E08DE0A4DBB3
:1011000060E08EE0A1DB69E775E08CED94E05EDAEB
:101110006BE472E08CED94E067DA6EE472E0CE018D
:101120000196EAD042E050E06EE070E0CE01019618
:1011300081DFCE010196DBD01A8219821C821B82CC
:101140001E821D826091790570917A056115710585
:1011500039F040917D0550917E05CE01019687D0F2
:1011600060E080E079D5BE016F5F7F4F8BE895E04E
:101170002DDACE010196BBD06EE472E0CE0101966D
:10118000BBD061E080E068D5BE016F5F7F4F8BE828
:1011900095E01CDACE010196AAD04AEF50E060E05B
:1011A00070E084E398E004D268EC70E080E090E0C6
:1011B000C9DB8CE0B5D068EC70E080E090E0C2DB89
:1011C0004AEF50E060E070E084E398E0F1D168EC31
:1011D00070E080E090E0B6DB8CE0A2D068EC70E0DC
:1011E00080E090E0AFDB4AEF50E060E070E080ED3F
:1011F00097E0DED168EC70E080E090E0A3DB4AEF9E
:1012000050E060E070E084E398E0D2D168EC70E0F8
:1012100080E090E097DB8CE083D068EC70E080E0C9
:1012200090E090DB4AEF50E060E070E084E398E00B
:10123000BFD168EC70E080E090E084DB8CE070D09F
:1012400068EC70E080E090E07DDB4AEF50E060E029
:1012500070E080ED97E0ACD126960FB6F894DEBF33
:101260000FBECDBFDF91CF9108950E94241AEF9257
:10127000FF920F931F93CF93DF93EC017B018A01C1
:1012800088819981009729F02A813B8124173507AD
:10129000F8F4B8016F5F7F4F0E944019009759F032
:1012A000998388831B830A832C813D81232B81F4BE
:1012B000FC0110820DC088819981009711F00E9475
:1012C000A818198218821D821C821B821A8207C0EC
:1012D0001D830C83B701888199810E94311ACE0148
:1012E000DF91CF911F910F91FF90EF900895FC0136
:1012F000808191810C94A818FC01118210821382C4
:101300001282158214826115710549F0FB0101906A
:101310000020E9F73197AF01461B570BA8CF08957E
:1013200090910A0298133DC0E8E2F2E0E4919FEF49
:1013300090930A02E230C9F050F4EE2399F0E130C4
:1013400081F590916F009D7F90936F002AC0E430EB
:1013500019F1E0F0E53029F5909173009D7F9093AD
:1013600073001FC010926E001CC0909170009D7F92
:101370009093700091E09093B0009091B100987FAD
:1013800094609093B1001092B3000BC090917100E3
:101390009D7F9093710005C0909172009D7F909306
:1013A000720060E051CA1F920F920FB60F92112483
:1013B0000BB60F922F933F934F935F936F937F934F
:1013C0008F939F93AF93BF93EF93FF938091D40438
:1013D0009091D504A091D604B091D704892B8A2B83
:1013E0008B2B51F18091D104E091D204F091D30480
:1013F0009081892780838091D4049091D504A09115
:10140000D604B091D704181619061A061B06BCF4A8
:101410008091D4049091D504A091D604B091D704C2
:101420000197A109B1098093D4049093D504A093A6
:10143000D604B093D70403C080910A0271DFFF91F4
:10144000EF91BF91AF919F918F917F916F915F913C
:101450004F913F912F910F900BBE0F900FBE0F90A9
:101460001F901895EF92FF920F931F93CF93DF93E6
:10147000EC01623018F08F8588608F876B8B1C8A37
:1014800080E48D8B80E18E8B80E58F8B61E08C8199
:101490001DDA8D818F3F11F061E018DA61E08E81F5
:1014A00015DA7E0187E0E80EF11C00E010E08F8580
:1014B00084FD03C084E090E002C088E090E008175B
:1014C000190744F461E0F70181917F01FFD90F5FB3
:1014D0001F4FEDCF8BE39DE00197F1F760E08C812A
:1014E000B3D960E08E81B0D98D818F3F11F060E07B
:1014F000ABD96F8564FD19C063E0CE01B1DA0BE4AE
:1015000016E4C8010197F1F763E0CE01A9DAC8013A
:101510000197F1F763E0CE01A3DA83E592E001974A
:10152000F1F762E0CE019CDA13C06062CE0115DBF8
:101530008BE496E40197F1F76F856062CE010DDBD5
:1015400083E592E00197F1F76F856062CE0105DBDC
:101550006F856062CE0101DB84E0888B6CE0CE0198
:10156000FCDACE01FCDA82E0898B66E0CE01DF9105
:10157000CF911F910F91FF90EF90EFCA0F931F93A0
:10158000CF93DF93C8EDD4E08C01085D1440C8010F
:101590008C0F9D1F0E94511B899384E0CC3DD8077E
:1015A000B1F788ED94E0DF91CF911F910F910895ED
:1015B0003F924F925F926F927F928F929F92AF92E3
:1015C000BF92CF92DF92EF92FF920F931F93CF9330
:1015D000DF9300D01F92CDB7DEB720910A022C30E6
:1015E00021F02F3F09F01DC304C0E8E2F2E034907F
:1015F000EDC02CE020930A02E8E2F2E0E491EF3F34
:1016000009F40FC3E23009F474C054F5EE2309F471
:1016100053C0E13009F0D9C01092800010928100CF
:101620002091810028602093810020918100216019
:1016300020938100EEEEF1E0E491F0E0EE0FFF1F69
:10164000E853FE4F259134913093AE052093AD05BC
:10165000EEE8F1E0E491E093AC0533243394B8C0B4
:10166000E43009F48EC00CF468C0E53009F0ADC078
:1016700010922001109221012091210128602093D5
:10168000210120912101216020932101EEEEF1E062
:10169000E491F0E0EE0FFF1FE853FE4F25913491E7
:1016A0003093A5052093A405EEE8F1E0E491E093E2
:1016B000A305B5E03B2E8CC014BC15BC24B522603C
:1016C00024BD25B5216025BDEEEEF1E0E491F0E00A
:1016D000EE0FFF1FE853FE4F259134913093B10573
:1016E0002093B005EEE8F1E0E491E093AF05312CF2
:1016F0006FC01092B0001092B1002091B000226033
:101700002093B0002091B10021602093B100EEEE53
:10171000F1E0E491F0E0EE0FFF1FE853FE4F25915A
:1017200034913093D3042093D204EEE8F1E0E491B5
:10173000E093D104B2E03B2E4BC010929000109287
:1017400091002091910028602093910020919100B8
:10175000216020939100EEEEF1E0E491F0E0EE0FD5
:10176000FF1FE853FE4F259134913093AB05209332
:10177000AA05EEE8F1E0E491E093A90533E0332E09
:1017800027C01092A0001092A1002091A100286013
:101790002093A1002091A10021602093A100EEEEF2
:1017A000F1E0E491F0E0EE0FFF1FE853FE4F2591CA
:1017B00034913093A8052093A705EEE8F1E0E49179
:1017C000E093A60504E0302E03C03E2E37FC29C26C
:1017D0002A013B018C0161E08CE078D84801A12C02
:1017E000B12C832D8D7F09F0BBC060E072E18AE7E8
:1017F00090E0A50194010E949B1629833A834B83B4
:101800005C8369017A0121E0C21AD108E108F1087C
:101810008FEFC816D104E104F10409F008F44CC0BC
:1018200060E472E48FE090E0A50194010E949B16B1
:1018300069017A0191E0C91AD108E108F108E2E0F2
:101840003E1220C0FFEFCF16D104E104F10409F0ED
:1018500008F4E5C160E970ED83E090E0A501940132
:101860000E949B1669017A0181E0C81AD108E1083B
:10187000F1089FEFC916D104E104F10409F0D0F595
:1018800083E067C0EFEFCE16D104E104F104B1F0BC
:10189000A8F068E478EE81E090E0A50194010E9450
:1018A0009B1669017A01F1E0CF1AD108E108F1082D
:1018B000332009F45AC1AAC181E001C082E033207B
:1018C000A1F047C089819A81AB81BC812AE0B5959E
:1018D000A795979587952A95D1F76C017D01F1E041
:1018E000CF1AD108E108F10885E095B5987F892BDA
:1018F00085BDA6C068E478EE81E090E0A501940182
:101900000E949B1669017A0181E0C81AD108E1089A
:10191000F1089FEFC916D104E104F10409F008F4BD
:1019200022C164E274EF80E090E0A50194010E947E
:101930009B1669017A0181E0C81AD108E108F10813
:101940009FEFC916D104E104F10411F008F02FC192
:1019500085E09091B100987F892B8093B10070C091
:1019600060E072E18AE790E0A50194010E949B1675
:1019700069017A01F1E0CF1AD108E108F108C11438
:10198000D10421E0E206F10488F068E478EE81E019
:1019900090E0A50194010E949B1669017A0181E003
:1019A000C81AD108E108F10883E001C081E091E0A4
:1019B000391210C090918100987F892B809381000B
:1019C000411451046104710409F03FC02FEF3FEF4F
:1019D000A90171C0E3E03E120FC090919100987F81
:1019E000892B80939100411451046104710469F5BD
:1019F0002FEF3FEFA90181C0F4E03F120FC090919B
:101A0000A100987F892B8093A100411451046104A7
:101A10007104D9F42FEF3FEFA90181C025E0321204
:101A20000FC090912101987F892B8093210141144F
:101A300051046104710449F42FEF3FEFA90181C003
:101A4000411451046104710471F0D801AA0FBB1F45
:101A5000A30192010E94671B28EE33E040E050E0B2
:101A60000E94791603C02FEF3FEFA90182E03816DC
:101A7000A1F1831534F0332079F091E03916D9F0D3
:101A8000D0C0E4E03E1609F44AC03E16B4F1F5E0D9
:101A90003F1609F456C0C5C0C7BC2093C205309399
:101AA000C3054093C4055093C50580916E008260C4
:101AB00080936E00B6C0D0928900C09288002093B7
:101AC000BE053093BF054093C0055093C10580917A
:101AD0006F00826080936F00A4C0C092B300209317
:101AE000D4043093D5044093D6045093D704809106
:101AF000700082608093700094C0D0929900C09270
:101B000098002093BA053093BB054093BC055093D1
:101B1000BD058091710082608093710082C0D09277
:101B2000A900C092A8002093B6053093B705409352
:101B3000B8055093B905809172008260809372005D
:101B400070C0D0922901C09228012093B205309331
:101B5000B3054093B4055093B5058091730082603E
:101B6000809373005EC084E0F4CE2FEFC216D104E0
:101B7000E104F104D1F0C8F062E17AE780E090E09E
:101B8000A50194010E949B1669017A01E1E0CE1A39
:101B9000D108E108F108FFEFCF16D104E104F10408
:101BA00011F008F08FCE84E0A0CE83E09ECE62E1FB
:101BB0007AE780E090E0A50194010E949B166901FC
:101BC0007A0181E0C81AD108E108F1089FEFC9162F
:101BD000D104E104F104C1F0B8F089819A81AB81AC
:101BE000BC814AE0B595A795979587954A95D1F719
:101BF0006C017D01E1E0CE1AD108E108F108332043
:101C000009F472CE87E0A5CE86E059CEEFEFCE166E
:101C1000D104E104F10409F050F684E050CE82E0F2
:101C200098CE0F900F900F900F90DF91CF911F9152
:101C30000F91FF90EF90DF90CF90BF90AF909F906B
:101C40008F907F906F905F904F903F900895BC0170
:101C50008BE895E00C94F402643008F063E0909116
:101C60009E05691710F06FEF690FE62FF0E0E5575A
:101C7000FA4F9489682F690F60688BE895E00C949F
:101C8000AD05CF93DF93BC018CED94E00E94F4028C
:101C9000EC016BE472E08CED94E00E94F4028C0F96
:101CA0009D1FDF91CF910895CF93DF93AC01990FE2
:101CB000660B770B2AE030E08CED94E00E94510334
:101CC000EC016BE472E08CED94E00E94F4028C0F66
:101CD0009D1FDF91CF9108954F925F926F927F92F7
:101CE0008F929F92AF92BF92CF92DF92EF92FF922C
:101CF0006B017C01B42E9B01AC010E940F1888235C
:101D000019F066E774E027C026013701E89477F8F8
:101D10002FEF3FEF4FE75FE7C301B2010E940F18BB
:101D200081110DC02FEF3FEF4FE75FE7C301B20115
:101D30000E94381A18161CF46AE774E00CC02FEFE2
:101D40003FEF4FE75FE4C701B6010E940B1818167A
:101D500094F46EE774E08BE895E0FF90EF90DF90ED
:101D6000CF90BF90AF909F908F907F906F905F903B
:101D70004F900C94F4022FEF3FEF4FE75FECC70159
:101D8000B6010E94381A87FDE4CF20E030E0A901B7
:101D9000C701B6010E94381A87FF11C0E0918B0578
:101DA000F0918C050190F081E02D6DE28BE895E0DB
:101DB00019954C01F7FAF094F7F8F09402C0812CD1
:101DC000912CA12C60E070E080E09FE3AB1441F027
:101DD00020E030E040E251E40E942417A394F6CFC3
:101DE0009B01AC01C701B601CBD72B013C010E947E
:101DF0008C176B017C010E943C1A9B01AC01C30152
:101E0000B201BDD72B013C012AE0B701A6018BE846
:101E100095E00E9409037C01E80CF91CBB2041F00D
:101E20006EE672E08BE895E00E94F402E80EF91E7F
:101E3000DB2CDD2029F120E030E040E251E4C30159
:101E4000B2010E949D1A2B013C010E948C174B018C
:101E5000A12CB12C2AE0B501A4018BE895E00E94E9
:101E60000903E80EF91EC501B4010E943C1A9B014A
:101E7000AC01C301B20183D72B013C01DA94D9CF65
:101E8000C701FF90EF90DF90CF90BF90AF909F90F1
:101E90008F907F906F905F904F90089589E795E0C5
:101EA00026CACF93DF93CDB7DEB72C970FB6F89441
:101EB000DEBF0FBECDBF789484B5826084BD84B58B
:101EC000816084BD85B5826085BD85B5816085BD35
:101ED00080916E00816080936E00109281008091ED
:101EE0008100826080938100809181008160809375
:101EF0008100809180008160809380008091B1009A
:101F000084608093B1008091B00081608093B000C4
:101F10008091910082608093910080919100816016
:101F200080939100809190008160809390008091D7
:101F3000A10082608093A1008091A10081608093C4
:101F4000A1008091A00081608093A0008091210178
:101F50008260809321018091210181608093210121
:101F60008091200181608093200180917A008460BB
:101F700080937A0080917A00826080937A008091C9
:101F80007A00816080937A0080917A0080688093E3
:101F90007A001092C100E091EC04F091ED0482E02F
:101FA0008083E091E804F091E9041082E091EA0472
:101FB000F091EB048FEC80831092F404E091F00434
:101FC000F091F10486E08083E091EE04F091EF045B
:101FD000808180618083E091EE04F091EF04808144
:101FE00088608083E091EE04F091EF048081806846
:101FF0008083E091EE04F091EF0480818F7D8083F7
:1020000062E082E00E94660462E083E00E9466046F
:1020100062E084E00E94660462E086E00E9466045A
:1020200062E089E00E94660461E08EE00E9466043E
:1020300061E08DE00E94660460E08DE00E9424046F
:1020400060E08EE00E94240482E00E94FC03892B61
:10205000A9F46CED75E080E090E00E94A2048CE3AE
:1020600090E0A0E0B0E089839A83AB83BC83BE019B
:102070006F5F7F4F80E090E00E94B60580E090E0C7
:102080007DDA8EE190E0A0E0B0E08093C30490930D
:10209000C404A093C504B093C6046FE572E0CE01FA
:1020A00001962AD941E050E06DE070E0CE01019642
:1020B0000E941A08CE0101961AD962E08BE895E0D9
:1020C000D1D980E792E0C3DD4091C3045091C404AC
:1020D0006091C5047091C6042AE030E08BE895E079
:1020E0000E94510368EE73E080E090E00E94A20439
:1020F00083E0E82EF12C92E0C92ED12C0E94EA0553
:102100000091B3041091B4040230110509F446C0E3
:1021100014F50115110549F10130110509F0CCC183
:102120008BE895E00E94AF0560E080E095DD8CE9EA
:1021300092E08DDD1093A00400939F041093B604E9
:102140000093B50461E08EE00E9424041093B20471
:102150000093B10476C10430110509F44CC1ACF10F
:102160000530110509F474C1A7C160E080E074DD99
:102170008AE792E06CDD61E080E06EDD8BE892E062
:1021800066DD1092A00410929F041092B604109283
:10219000B5041092B2041092B10453C160E080E023
:1021A0005BDD8DEA92E053DD61E080E055DD8EEB92
:1021B00092E04DDD4091D8045091D9046091DA0449
:1021C0007091DB0421E030E030C1F092A004E09295
:1021D0009F04F092B604E092B50466E970E080E0F6
:1021E00090E00E94A204F092B204E092B10460E098
:1021F00080E032DD8CEC92E02ADD61E080E02CDDD5
:102200008EEB92E024DD4091D8045091D904609186
:10221000DA047091DB044093C3045093C4046093C8
:10222000C5047093C6042AE030E08BE895E00E9474
:10223000510360ED77E080E090E00E94A20480917D
:10224000B3049091B4048330910509F080C00E94DA
:10225000EA0584E00E94FC03892BC9F46AEF70E070
:1022600080E090E00E94A2048091C3049091C40495
:10227000A091C504B091C6040196A11DB11D809323
:10228000C3049093C404A093C504B093C60483E030
:102290000E94FC03892BC9F46AEF70E080E090E0B3
:1022A0000E94A2048091C3049091C404A091C5042B
:1022B000B091C6040197A109B1098093C30490931A
:1022C000C404A093C504B093C6048091C304909144
:1022D000C404A091C504B091C60483369105A1053C
:1022E000B10551F48BE895E00E94AF0560E080E015
:1022F000B3DC8CEC92E0ABDC8091C3049091C4041D
:10230000A091C504B091C6040997A105B10551F487
:102310008BE895E00E94AF0560E080E09DDC8CECEE
:1023200092E095DC61E080E097DC8EEB92E08FDC60
:102330004091C3045091C4046091C5047091C604D7
:102340002AE030E08BE895E00E94510378CF0597B2
:1023500009F47DCF63EC74E080E090E00E94B60564
:102360008BE895E00E94AF0580E090E007D980916E
:10237000D8049091D904A091DA04B091DB04809341
:10238000C3049093C404A093C504B093C6046BE641
:1023900073E0CE0101960E947C096DED72E0CE01E2
:1023A00007960E947C0960E080E056DCBE01695F10
:1023B0007F4F8BE895E00E94E602BE016F5F7F4F82
:1023C0008BE895E00E94E602CE0107960E9477090D
:1023D000CE0101960E94770960ED77E080E090E001
:1023E0000E94A2041092B2041092B104D092B404DC
:1023F000C092B30461C08BE895E00E94AF0560E035
:1024000080E02ADC8DEE92E022DC61E080E024DCDA
:102410008EEF92E01CDC4091C7045091C80460919B
:10242000C9047091CA042AE030E08BE895E00E946C
:1024300051031093A00400939F041093B6040093DB
:10244000B50466E970E080E090E00E94A20434C028
:102450001092B4041092B30483E00E94FC03892B11
:1024600041F40091B1041091B2040115110509F471
:102470009AC383E00E94FC03892B39F48091B10454
:102480009091B204019709F494C38BE895E00E94FF
:10249000AF0560E080E0E0DB8CE093E0D8DB1092F9
:1024A000B2041092B10408C08091B1049091B204BA
:1024B000019749F00E94EA058091B3049091B40419
:1024C000019791F36DC30E94EA050091AB0410914E
:1024D000AC040130110509F047C08091CF04909100
:1024E000D004892B09F040C08DE193E0CADB8091D4
:1024F000AB049091AC04D8DB8DE293E0C2DB209179
:10250000C3043091C4044091C5045091C604A8EEA0
:10251000B3E00E94671BB2D76093CB047093CC04E6
:102520008093CD049093CE040E94DA04A5D76093E3
:102530008705709388058093890590938A05109389
:10254000D0040093CF041092AA041092A90460E072
:1025500080E082DB87E393E07ADB46E950E060E0ED
:1025600070E086ED96E024D88091A9049091AA04A9
:10257000019789F58091CF049091D004019759F586
:102580001092AC041092AB0488E493E07ADB1092D2
:10259000D0041092CF0460E080E05EDB86E593E03B
:1025A00056DB46E950E060E070E088E998E000D84A
:1025B0008091C7049091C804A091C904B091CA0445
:1025C0000196A11DB11D8093C7049093C804A093E8
:1025D000C904B093CA048091CF049091D0040197AC
:1025E00009F08CC00E94DA0447D72091870530910A
:1025F00088054091890550918A05C1D39B01AC01A2
:102600006091CB047091CC048091CD049091CE0464
:10261000B6D36093CB047093CC048093CD04909395
:10262000CE0420E030E04AE754E40ED4A1D420E008
:1026300030E046EC52E41CD7811105C061E00CDBB0
:1026400087E693E004DB20E030E04AE754E4609161
:10265000CB047091CC048091CD049091CE04F4D33E
:1026600087D420E030E040E151E402D7811105C079
:1026700061E0F2DA87E693E0EADA61E080E0ECDA42
:102680008DE693E0E4DA20E030E04AE754E460913C
:10269000CB047091CC048091CD049091CE04D4D31E
:1026A00040E01ADB0E94DA04E7D660938705709356
:1026B00088058093890590938A0520E030E0A90180
:1026C0006091CB047091CC048091CD049091CE04A4
:1026D000CFD618165CF04FE050E060E773E089E772
:1026E00095E00E9437090E94740808C080E893E0D2
:1026F000C8DA8091AB049091AC04D6DA0E94EA0566
:102700000091A7041091A8040130110509F047C0F9
:102710008091C1049091C204892B09F040C08BE8DC
:1027200093E0AFDA8091A7049091A804BDDA8BE919
:1027300093E0A7DA2091C3043091C4044091C5040A
:102740005091C604A8EEB3E0C2D798D66093BD04FA
:102750007093BE048093BF049093C0040E94DA0477
:102760008BD6609383057093840580938505909341
:1027700086051093C2040093C1041092A60410921F
:10278000A50460E080E068DA85EA93E060DA46E973
:1027900050E060E070E08AE397E00E94D80A809100
:1027A000A5049091A604019791F58091C1049091A0
:1027B000C204019761F51092A8041092A70486EB59
:1027C00093E05FDA1092C2041092C10460E080E0EE
:1027D00043DA84EC93E03BDA46E950E060E070E0F5
:1027E0008CEF98E00E94D80A8091C7049091C804A9
:1027F000A091C904B091CA040196A11DB11D809396
:10280000C7049093C804A093C904B093CA048091EC
:10281000C1049091C204019709F08EC00E94DA04AD
:102820002BD62091830530918405409185055091E8
:102830008605A5D29B01AC016091BD047091BE04D8
:102840008091BF049091C0049AD26093BD047093AC
:10285000BE048093BF049093C00420E030E04AE7B8
:1028600054E4F2D285D320E030E046EC52E400D6C6
:10287000811106C061E086E0EFD985ED93E0E7D9EC
:1028800020E030E04AE754E46091BD047091BE045A
:102890008091BF049091C004D7D26AD320E030E089
:1028A00040E151E4E5D5811106C061E086E0D4D96C
:1028B00085ED93E0CCD961E086E0CED98BED93E055
:1028C000C6D920E030E04AE754E46091BD0470913D
:1028D000BE048091BF049091C004B6D240E0FCD900
:1028E0000E94DA04C9D560938305709384058093B0
:1028F00085059093860520E030E0A9016091BD0434
:102900007091BE048091BF049091C004B1D5181697
:102910005CF040E150E06EED73E089E795E00E94E5
:1029200037090E94740808C08FEE93E0AAD98091FD
:10293000A7049091A804B8D90E94EA050091A304C5
:102940001091A4040130110509F047C08091BB0427
:102950009091BC04892B09F040C08AEF93E091D993
:102960008091A3049091A4049FD98AE094E089D92E
:102970002091C3043091C4044091C5045091C60411
:10298000A8EEB3E0A4D67AD56093B7047093B804E8
:102990008093B9049093BA040E94DA046DD56093D1
:1029A0007F05709380058093810590938205109335
:1029B000BC040093BB041092A2041092A10460E036
:1029C00080E04AD984E194E042D946E950E060E0F1
:1029D00070E08EE997E00E94D80A8091A10490915E
:1029E000A204019791F58091BB049091BC040197DA
:1029F00061F51092A4041092A30485E294E041D9F9
:102A00001092BC041092BB0460E080E025D983E3FF
:102A100094E01DD946E950E060E070E080E699E07E
:102A20000E94D80A8091C7049091C804A091C9045B
:102A3000B091CA040196A11DB11D8093C704909363
:102A4000C804A093C904B093CA048091BB049091B8
:102A5000BC04019709F08EC00E94DA040DD52091C4
:102A60007F0530918005409181055091820587D185
:102A70009B01AC016091B7047091B8048091B904D6
:102A80009091BA047CD16093B7047093B80480939A
:102A9000B9049093BA0420E030E04AE754E4D4D17A
:102AA00067D220E030E046EC52E4E2D4811106C067
:102AB00061E08BE0D1D884E494E0C9D820E030E034
:102AC0004AE754E46091B7047091B8048091B90466
:102AD0009091BA04B9D14CD220E030E040E151E409
:102AE000C7D4811106C061E08BE0B6D884E494E0DD
:102AF000AED861E08BE0B0D88AE494E0A8D820E0BA
:102B000030E04AE754E46091B7047091B8048091D2
:102B1000B9049091BA0498D140E0DED80E94DA045A
:102B2000ABD460937F05709380058093810590936B
:102B3000820520E030E0A9016091B7047091B804EB
:102B40008091B9049091BA0493D418165CF040E1D6
:102B500050E06DE474E089E795E00E9437090E9437
:102B6000740808C08EE594E08CD88091A3049091FD
:102B7000A4049AD88091AF049091B004069721F4F0
:102B80001092B0041092AF048091AD049091AE0405
:102B9000069709F08FCC1092AE041092AD048ACC47
:102BA0000E943302ABCA89E694E06BD8F80119950C
:102BB00060CC81E794E065D81092B2041092B10421
:102BC00060E08EE00E9424041092B4041092B304DA
:102BD0001092AC041092AB041092D0041092CF0467
:102BE0001092A8041092A7041092C2041092C1047B
:102BF0001092A4041092A3041092BC041092BB047F
:102C000066E970E080E090E00E94A2043ECCECED2A
:102C1000F4E01382128288EE93E0A0E0B0E08483B7
:102C20009583A683B78385E192E09183808385ECC9
:102C300090E09587848784EC90E09787868780EC86
:102C400090E0918B808B81EC90E0938B828B82EC77
:102C500090E0958B848B86EC90E0978B868B118E21
:102C6000128E138E148EEBE8F5E01382128285E249
:102C700092E0918380838AE284838FEF85838CE264
:102C8000868384E3878382E3808780E381878EE283
:102C900082871386148615861686178661E0CF0113
:102CA0000E94320A0E94DA04E7D36093870570938A
:102CB00088058093890590938A050E94DA04DCD305
:102CC00060938305709384058093850590938605B2
:102CD0000E94DA04D1D360937F05709380058093BE
:102CE0008105909382056DE472E089E795E00C948C
:102CF0007C09A1E21A2EAA1BBB1BFD010DC0AA1F55
:102D0000BB1FEE1FFF1FA217B307E407F50720F054
:102D1000A21BB30BE40BF50B661F771F881F991FCF
:102D20001A9469F760957095809590959B01AC0118
:102D3000BD01CF010895052E97FB16F400940FD026
:102D400057FD05D0D6DF07FC02D046F408C05095E9
:102D50004095309521953F4F4F4F5F4F0895909587
:102D60008095709561957F4F8F4F9F4F0895EE0F1F
:102D7000FF1F881F8BBF0790F691E02D19945058C4
:102D8000BB27AA270ED053C444D430F049D420F036
:102D900031F49F3F11F41EF439C40EF4E095E7FBC3
:102DA0002FC4E92F55D480F3BA176207730784073D
:102DB000950718F071F49EF56DC40EF4E0950B2E96
:102DC000BA2FA02D0B01B90190010C01CA01A0017D
:102DD0001124FF27591B99F0593F50F4503E68F1D8
:102DE0001A16F040A22F232F342F4427585FF3CF19
:102DF000469537952795A795F0405395C9F77EF4EA
:102E00001F16BA0B620B730B840BBAF09150A1F032
:102E1000FF0FBB1F661F771F881FC2F70EC0BA0FB8
:102E2000621F731F841F48F4879577956795B79540
:102E3000F7959E3F08F0B3CF9395880F08F0992738
:102E4000EE0F9795879508950CD0F1C3E9D340F024
:102E5000E0D330F021F45F3F19F0D2C351111BC40D
:102E6000D5C3F6D398F39923C9F35523B1F3951B32
:102E7000550BBB27AA2762177307840738F09F5F9B
:102E80005F4F220F331F441FAA1FA9F333D00E2E0A
:102E90003AF0E0E830D091505040E695001CCAF777
:102EA00029D0FE2F27D0660F771F881FBB1F26173C
:102EB00037074807AB07B0E809F0BB0B802DBF010F
:102EC000FF2793585F4F2AF09E3F510568F098C343
:102ED000E2C35F3FECF3983EDCF386957795679508
:102EE000B795F7959F5FC9F7880F911D96958795C0
:102EF00097F90895E1E0660F771F881FBB1F6217DF
:102F000073078407BA0720F0621B730B840BBA0B9C
:102F1000EE1F88F7E0950895A3D388F09F5790F0AF
:102F2000B92F9927B751A0F0D1F0660F771F881FEE
:102F3000991F1AF0BA95C9F712C0B13081F0AAD31F
:102F4000B1E00895A7C3672F782F8827B85F39F0BD
:102F5000B93FCCF3869577956795B395D9F73EF44D
:102F600090958095709561957F4F8F4F9F4F0895F5
:102F70003BD080F09F3740F491110EF08CC360E09D
:102F800070E080E89FEB089526F41B16611D711D0B
:102F9000811D01C01BC0882371F4772321F0985054
:102FA000872B762F07C0662311F499270DC0905107
:102FB000862B70E060E02AF09A95660F771F881FD5
:102FC000DAF7880F9695879597F908959F3F31F026
:102FD000915020F4879577956795B795880F911D47
:102FE0009695879597F908953BD3A0F0BEE7B9175A
:102FF00088F4BB279F3860F41616B11D672F782F11
:103000008827985FF7CF869577956795B11D93953B
:103010009639C8F308956DD208F48FEF089569D2F8
:10302000880B990B0895CF93DF938230910510F4AC
:1030300082E090E0E091C805F091C90520E030E021
:10304000C0E0D0E0309711F1408151814817590715
:10305000C0F04817590761F482819381209719F0D5
:103060009B838A832BC09093C9058093C80526C093
:103070002115310519F04217530718F49A01BE01C2
:10308000DF01EF010280F381E02DDCCF2115310556
:1030900009F1281B390B2430310590F412968D91DB
:1030A0009C9113976115710521F0FB019383828335
:1030B00004C09093C9058093C805FD01329644C0B1
:1030C000FD01E20FF31F81939193225031092D935B
:1030D0003C933AC02091C6053091C705232B41F49B
:1030E00020910D0230910E023093C7052093C60542
:1030F00020910B0230910C022115310541F42DB7BE
:103100003EB740910F0250911002241B350BE09105
:10311000C605F091C705E217F307A0F42E1B3F0B7D
:103120002817390778F0AC014E5F5F4F2417350739
:1031300048F04E0F5F1F5093C7054093C60581931B
:10314000919302C0E0E0F0E0CF01DF91CF910895CC
:103150000F931F93CF93DF93009709F48CC0FC016A
:103160003297138212820091C8051091C90501158A
:10317000110581F420813181820F931F2091C605B2
:103180003091C7052817390779F5F093C705E09303
:10319000C60571C0D80140E050E0AE17BF0750F43B
:1031A00012962D913C911397AD012115310509F12E
:1031B000D901F3CF9D01DA013383228360817181CC
:1031C000860F971F8217930769F4EC0128813981D4
:1031D000260F371F2E5F3F4F318320838A819B81CB
:1031E00093838283452B29F4F093C905E093C805A6
:1031F00042C01396FC93EE931297ED0149915991B9
:103200009E01240F351FE217F30771F4808191812D
:10321000840F951F029611969C938E9382819381C1
:1032200013969C938E931297E0E0F0E0D8011296EB
:103230008D919C911397009719F0F8018C01F6CFAE
:103240008D919C9198012E5F3F4F820F931F20918B
:10325000C6053091C7052817390769F4309729F456
:103260001092C9051092C80502C0138212821093F1
:10327000C7050093C605DF91CF911F910F91089567
:103280006F927F928F929F92AF92BF92CF92DF9276
:10329000EF92FF920F931F93CF93DF93EC01009770
:1032A00081F4CB01DF91CF911F910F91FF90EF90AF
:1032B000DF90CF90BF90AF909F908F907F906F9056
:1032C000B2CEFC01E60FF71F9C0122503109E21734
:1032D000F30708F4A8C0D9010D911C9111970617A6
:1032E0001707A8F00530110508F49BC0C801049722
:1032F0008617970708F495C002501109061B170B93
:10330000019311936D937C93CF0122DF8AC05B01FF
:10331000A01AB10A4C01800E911EA091C805B0916F
:10332000C90540E050E0E12CF12C109709F44AC0A7
:10333000A815B905D1F56D907C901197630182E0D5
:10334000C80ED11CCA14DB0480F1A3014A195B0921
:103350006A0182E0C80ED11C1296BC901297139697
:10336000AC91B5E0CB16D10440F0B282A383518377
:103370004083D9016D937C930AC00E5F1F4FC30138
:10338000800F911FF90191838083EB2DFA2FE114B7
:10339000F10431F0D7011396FC93EE93129741C0DC
:1033A000F093C905E093C8053CC08D919C9111979D
:1033B0004817590708F4AC017D0112960D90BC9195
:1033C000A02DB3CF8091C6059091C70588159905AA
:1033D000E1F446175707C8F480910B0290910C0254
:1033E000009741F48DB79EB740910F0250911002A3
:1033F000841B950BE817F907B0F4F093C705E09329
:10340000C605F901718360830CC0CB010CDE7C0121
:10341000009749F0A801BE011BD0CE0199DEC7017B
:1034200004C0CE0102C080E090E0DF91CF911F91F7
:103430000F91FF90EF90DF90CF90BF90AF909F9053
:103440008F907F906F90089581E090E0F89458C13C
:10345000FB01DC0102C001900D9241505040D8F7B1
:103460000895FB01DC0101900D920020E1F7089521
:1034700040D008F481E00895E89409C097FB3EF439
:1034800090958095709561957F4F8F4F9F4F9923B1
:10349000A9F0F92F96E9BB279395F695879577952F
:1034A0006795B795F111F8CFFAF4BB0F11F460FFEF
:1034B0001BC06F5F7F4F8F4F9F4F16C0882311F047
:1034C00096E911C0772321F09EE8872F762F05C05B
:1034D000662371F096E8862F70E060E02AF09A95F6
:1034E000660F771F881FDAF7880F9695879597F9EB
:1034F0000895990F0008550FAA0BE0E8FEEF161685
:103500001706E807F907C0F012161306E407F507D7
:1035100098F0621B730B840B950B39F40A2661F04B
:10352000232B242B252B21F408950A2609F4A140EE
:10353000A6958FEF811D811D08950BD078C069D0AD
:1035400028F06ED018F0952309F05AC05FC01124FE
:10355000A2C07ED0A0F3959FD1F3950F50E0551FE8
:10356000629FF001729FBB27F00DB11D639FAA27D8
:10357000F00DB11DAA1F649F6627B00DA11D661F27
:10358000829F2227B00DA11D621F739FB00DA11D48
:10359000621F839FA00D611D221F749F3327A00D02
:1035A000611D231F849F600D211D822F762F6A2F9E
:1035B00011249F5750408AF0E1F088234AF0EE0F23
:1035C000FF1FBB1F661F771F881F91505040A9F730
:1035D0009E3F510570F014C05EC05F3FECF3983E13
:1035E000DCF3869577956795B795F795E7959F5F97
:1035F000C1F7FE2B880F911D9695879597F9089531
:1036000097F99F6780E870E060E008959FEF80EC95
:10361000089500240A941616170618060906089538
:1036200000240A9412161306140605060895092E9E
:103630000394000C11F4882352F0BB0F40F4BF2B0D
:1036400011F460FF04C06F5F7F4F8F4F9F4F08954D
:1036500057FD9058440F551F59F05F3F71F0479543
:10366000880F97FB991F61F09F3F79F08795089528
:10367000121613061406551FF2CF4695F1DF08C047
:10368000161617061806991FF1CF86957105610564
:1036900008940895E894BB2766277727CB0197F90C
:1036A0000895F999FECF92BD81BDF89A992780B50A
:1036B0000895262FF999FECF1FBA92BD81BD20BD76
:1036C0000FB6F894FA9AF99A0FBE0196089509D0A8
:1036D000A59F900DB49F900DA49F800D911D112466
:1036E0000895A29FB001B39FC001A39F700D811DDB
:1036F0001124911DB29F700D811D1124911D0895FB
:1037000011E0C6E1D1E000E005C0802FFE012FDB13
:103710002196011DC731D10780E00807B1F7F89461
:02372000FFCFD9
:1037220001000100010001000100FF0000CA058044
:103732000000000000CC01490196017401880112C9
:103742000200000000A80549014672616D6520442F
:1037520065746563742020494E004672616D652070
:10376200446574656374204F5554000D0A00203C73
:103772003C3C204552524F52203E3E3E20200053B8
:1037820074617274696E67207570202E2E2E2E0061
:1037920054696D65204F75743D003C3C3C204F469A
:1037A200464C494E45203E3E3E200020454E544563
:1037B2005220546F20535441525420003C3C3C2030
:1037C2004F4E2D4C494E45203E3E3E2000454E5424
:1037D200455220544F204348414E474521005469E9
:1037E2006D65204F7574205365633D004849542030
:1037F20020454E5420746F20534156450053657442
:1038020074696E6773205361766564210020467285
:10381200616D652020436F756E74657220004E6F76
:10382200206F66204672616D65203D0053544F50F3
:103832002020414354495641544544210053656E6A
:1038420073496E3120466C6167203D20004631206D
:10385200697320736574003C3C4652414D452031EA
:1038620020534554203E3E004631207265736574F4
:103872002E2E2E2E2E003C3C4652414D452031200C
:10388200525354203E3E00313D20202000313D0065
:10389200204572726F72204672616D652031200080
:1038A200463120757064617465640053656E7349B6
:1038B2006E3220466C6167203D20004632206973DB
:1038C20020736574003C3C4652414D4520322053E2
:1038D2004554203E3E0046322072657365742E2E9A
:1038E2002E2E2E003C3C4652414D45203220525352
:1038F20054203E3E00323D20202000323D00202058
:103902004572726F72204672616D652032200046E8
:103912003220757064617465640053656E73496E1C
:103922003320466C6167203D2000463320697320B6
:10393200736574003C3C4652414D4520332053454B
:1039420054203E3E0046332072657365742E2E2E3F
:103952002E2E003C3C4652414D45203320525354BA
:10396200203E3E00333D20202000333D00202045F4
:1039720072726F72204672616D6520332000463389
:1039820020757064617465640052657365742030DB
:103992000053746F70006E616E00696E66006F7620
:0239A2006600BD
:00000001FF
