:100000001EC100004DC100004BC1000049C10000ED
:1000100047C1000045C1000043C1000041C10000CC
:100020003FC100003DC100003BC1000039C10000DC
:1000300037C10000DEC4000033C1000031C1000040
:100040002FC100002DC100002BC1000029C10000FC
:1000500027C1000025C1000023C10000BCC500006D
:100060001FC10000F6C30000CBC3000019C100008F
:1000700017C1000015C1000013C1000011C100002C
:100080000FC100000DC100000BC1000009C100003C
:1000900007C1000005C1000003C1000001C100004C
:1000A000FFC00000FDC00000FBC00000F9C0000060
:1000B000F7C00000F5C00000F3C00000F1C0000070
:1000C000EFC00000EDC00000EBC00000E9C0000080
:1000D000E7C00000E5C00000E3C00000E1C0000090
:1000E000DFC000008E029102800284028A02C802F0
:1000F000950299029F02A302A702AD02B102B502C6
:10010000C802BB02BF02C302571270128E12B11294
:10011000C413E613D514061500002100240027009F
:100120002A002D0030003300010100000401070106
:100130000A01000020002300260029002C002F00C7
:1001400032000001000003010601090100000A0B52
:1001500002090C0D0E080703040100000000000056
:10016000000000000000000000000000000000008F
:10017000000000000000000012111000000000004C
:10018000000000000000000000000000000000006F
:10019000000001021020200808102040102040809C
:1001A000020102010804020101020408102040803B
:1001B00080402010080402018004020180402010C9
:1001C0000804020108040201010204081020408012
:1001D00001020408102040800000220025002800B1
:1001E0002B002E003100340002010000050108013F
:1001F0000B010505050507050808080802020202AB
:100200000A0A0808040404040101010101010101B2
:100210000303030303030303040707070C0C0C0C7D
:100220000C0C0C0C02020202060606060606060666
:100230000B0B0B0B0B0B0B0B02003F19DA101124ED
:100240001FBECFEFD1E2DEBFCDBF00E00CBF14E098
:10025000A0E0B2E0EEEBFDE300E00BBF02C00790D0
:100260000D92A63CB107D9F726E0A6ECB4E001C098
:100270001D92A232B207E1F711E0CEE1D1E000E039
:1002800006C021970109802FFE010E94051ACD3179
:10029000D10780E00807A9F70E94DE100C94CE1E5B
:1002A000AFCECF92DF92EF92FF920F931F93CF9337
:1002B000DF936C017A018B01C0E0D0E0CE15DF0541
:1002C00089F0D8016D918D01D601ED91FC910190DD
:1002D000F081E02DC6011995892B11F47E0102C031
:1002E0002196ECCFC701DF91CF911F910F91FF9025
:1002F000EF90DF90CF900895FC01918D828D98173B
:1003000061F0828DDF01A80FB11D5D968C91928DF9
:100310009F5F9F73928F90E008958FEF9FEF0895F6
:10032000FC01918D828D981731F0828DE80FF11DBF
:10033000858D90E008958FEF9FEF0895FC01918DDA
:10034000228D892F90E0805C9F4F821B91098F73D3
:10035000992708958CE295E0F1DF21E0892B09F4DB
:1003600020E0822F0895FC01848DDF01A80FB11DCC
:10037000A35ABF4F2C91848D90E001968F739927DB
:10038000848FA689B7892C93A089B1898C918064C8
:100390008C93938D848D981306C00288F389E02D89
:1003A00080818F7D80830895EF92FF920F931F933A
:1003B000CF93DF93EC0181E0888F9B8D8C8D981318
:1003C00005C0E889F989808185FD23C0F62E0B8D53
:1003D00010E00F5F1F4F0F731127E02E8C8DE81276
:1003E0000BC00FB607FCFACFE889F989808185FF39
:1003F000F5CFCE01B8DFF2CF8B8DFE01E80FF11DF6
:10040000E35AFF4FF0820B8FEA89FB89808180627B
:1004100007C0EE89FF896083E889F989808180645B
:10042000808381E090E0DF91CF911F910F91FF9049
:10043000EF900895CF93DF93EC01888D8823C1F06E
:10044000EA89FB89808185FD05C0A889B9898C91DD
:1004500086FD0EC00FB607FCF5CF808185FFF2CF79
:10046000A889B9898C9185FFEDCFCE017CDFE8CFDB
:10047000DF91CF91089580E090E0892B19F06ADF39
:10048000811125C080E090E0892B41F080E090E070
:10049000892B21F00E94000081111CC080E090E0B7
:1004A000892B41F080E090E0892B21F00E94000030
:1004B000811113C080E090E0892BA1F080E090E0F2
:1004C000892B81F00E94000081110AC008950E94CA
:1004D0000000D8CF0E940000E1CF0E940000EACFC8
:1004E0000C940000089590E0FC013197E231F10591
:1004F00008F04EC08827EE58FF4F8F4F0C94051A16
:10050000809180008F7703C0809180008F7D8093E1
:100510008000089580918000877FF9CF84B58F7720
:1005200002C084B58F7D84BD08958091B0008F771F
:1005300003C08091B0008F7D8093B00008958091BA
:1005400090008F7707C0809190008F7D03C08091CD
:100550009000877F8093900008958091A0008F770E
:1005600007C08091A0008F7D03C08091A000877F8D
:100570008093A0000895809120018F7707C080911B
:1005800020018F7D03C080912001877F809320010F
:1005900008953FB7F8948091E7049091E804A09102
:1005A000E904B091EA0426B5A89B05C02F3F19F0D5
:1005B0000196A11DB11D3FBFBA2FA92F982F8827E3
:1005C000820F911DA11DB11DBC01CD0142E0660F3E
:1005D000771F881F991F4A95D1F708950E94721DB1
:1005E000EF92FF920F931F93CF93DF93EC017B0168
:1005F0008A0188819981009729F02A813B812417FB
:100600003507F8F4B8016F5F7F4F0E948E1C00978A
:1006100059F0998388831B830A832C813D81232B86
:1006200081F4FC0110820DC088819981009711F03E
:100630000E94F61B198218821D821C821B821A825C
:1006400007C01D830C83B701888199810E947F1D9B
:10065000CE01DF91CF911F910F91FF90EF90089500
:10066000FC01808191810C94F61BFC0111821082A7
:1006700013821282158214826115710549F0FB0103
:1006800001900020E9F73197AF01461B570BA8CF27
:100690000895DC01ED91FC91DB0114964D915C9184
:1006A00015976D917C910280F381E02D199461156D
:1006B000710579F0FB0101900020E9F73197AF0156
:1006C000461B570BDC01ED91FC910280F381E02D7C
:1006D000199480E090E008954F925F926F927F921C
:1006E000EF92FF920F931F93CF93DF93CDB7DEB7B7
:1006F000A1970FB6F894DEBF0FBECDBF7C01FA0103
:10070000CB0119A2223008F42AE08E010F5D1F4FA1
:10071000422E512C612C712CBF01A30192010E9429
:10072000C719F901CA01015011096A3014F4605D5A
:1007300001C0695CD8016C93232B242B252B61F716
:10074000B801C701B4DFA1960FB6F894DEBF0FBEA3
:10075000CDBFDF91CF911F910F91FF90EF907F90D0
:100760006F905F904F900895CF92DF92EF92FF923B
:100770000F931F93CF93DF93EC016A017B01211547
:10078000310579F4E881F9810190F081E02D642F41
:10079000DF91CF911F910F91FF90EF90DF90CF905D
:1007A00019942A30310501F577FF1DC0E881F981E0
:1007B0000190F081E02D6DE219958C0144275527B9
:1007C000BA014C195D096E097F092AE0CE0184DF68
:1007D000800F911FDF91CF911F910F91FF90EF90AC
:1007E000DF90CF9008952AE0B701A601CE01DF91F6
:1007F000CF911F910F91FF90EF90DF90CF906CCF32
:100800001F920F920FB60F9211240BB60F922F93D7
:100810003F934F935F936F937F938F939F93AF9388
:10082000BF93EF93FF938CE295E09DDDFF91EF91F5
:10083000BF91AF919F918F917F916F915F914F91F8
:100840003F912F910F900BBE0F900FBE0F901F90F6
:1008500018951F920F920FB60F9211240BB60F929C
:100860002F938F939F93EF93FF93E0913C05F0912B
:100870003D058081E0914205F091430582FD12C063
:100880009081809145058F5F8F7320914605821777
:1008900051F0E0914505F0E0E45DFA4F958F8093CB
:1008A000450501C08081FF91EF919F918F912F911C
:1008B0000F900BBE0F900FBE0F901F901895CF9307
:1008C000DF93282F30E0F901E45BFE4F8491F901BA
:1008D000EE56FE4FD491F901EE50FE4FC491CC2359
:1008E00089F0811100DEEC2FF0E0EE0FFF1FEE5CCF
:1008F000FE4FA591B491EC91ED2381E090E021F4BD
:1009000080E002C080E090E0DF91CF9108951F93D6
:10091000CF93DF93282F30E0F901E45BFE4F849101
:10092000F901EE56FE4FD491F901EE50FE4FC491FD
:10093000CC23C1F0162F8111D6DDEC2FF0E0EE0FA5
:10094000FF1FE852FE4FA591B4918FB7F894111193
:1009500005C09C91ED2FE095E92302C0EC91ED2BB1
:10096000EC938FBFDF91CF911F91089590910A0270
:1009700098133DC0E8E3F2E0E4919FEF90930A0200
:10098000E230C9F050F4EE2399F0E13081F5909116
:100990006F009D7F90936F002AC0E43019F1E0F062
:1009A000E53029F5909173009D7F909373001FC0EF
:1009B00010926E001CC0909170009D7F909370000B
:1009C00091E09093B0009091B100987F94609093E3
:1009D000B1001092B3000BC0909171009D7F909375
:1009E000710005C0909172009D7F9093720060E04D
:1009F0008ECF1F920F920FB60F9211240BB60F924B
:100A00002F933F934F935F936F937F938F939F9316
:100A1000AF93BF93EF93FF938091220590912305AD
:100A2000A0912405B0912505892B8A2B8B2B51F1A0
:100A300080911F05E0912005F09121059081892783
:100A400080838091220590912305A0912405B09187
:100A50002505181619061A061B06BCF480912205F6
:100A600090912305A0912405B09125050197A10936
:100A7000B1098093220590932305A0932405B09398
:100A8000250503C080910A0271DFFF91EF91BF91AC
:100A9000AF919F918F917F916F915F914F913F9116
:100AA0002F910F900BBE0F900FBE0F901F901895B7
:100AB000CF93DF93EC0160E08E8129DF61E08E81CE
:100AC00026DF60E08E8123DF8BE891E00197F1F76C
:100AD000DF91CF910895CF93DF9390E0FC01EE5624
:100AE000FE4F2491FC01EE50FE4F8491882361F16A
:100AF00090E0880F991FFC01E85EFE4FC591D491EC
:100B0000FC01E852FE4FA591B491611109C09FB755
:100B1000F8948881209582238883EC912E230BC042
:100B2000623061F49FB7F8943881822F80958323D7
:100B30008883EC912E2B2C939FBF06C08FB7F8941F
:100B4000E8812E2B28838FBFDF91CF9108958F925C
:100B50009F92AF92BF92CF92DF92EF92FF926B0182
:100B60007C0117DD4B015C01C114D104E104F104E7
:100B7000E9F00FDDDC01CB0188199909AA09BB094D
:100B8000883E9340A105B10578F321E0C21AD1084F
:100B9000E108F10888EE880E83E0981EA11CB11CC4
:100BA000C114D104E104F10421F7DECFFF90EF90EE
:100BB000DF90CF90BF90AF909F908F9008952FB708
:100BC000F8946091E3047091E4048091E5049091BD
:100BD000E6042FBF08951F920F920FB60F921124B3
:100BE0002F933F938F939F93AF93BF938091E30491
:100BF0009091E404A091E504B091E6043091E20400
:100C000023E0230F2D3720F40196A11DB11D05C04F
:100C100026E8230F0296A11DB11D2093E2048093C4
:100C2000E3049093E404A093E504B093E604809178
:100C3000E7049091E804A091E904B091EA040196D8
:100C4000A11DB11D8093E7049093E804A093E904EB
:100C5000B093EA04BF91AF919F918F913F912F91F3
:100C60000F900FBE0F901F901895CF92DF92EF92CA
:100C7000FF920F931F93CF93DF937C016C0187E06A
:100C8000C80ED11CC0E0D0E0062F10E0B8010C2E39
:100C900002C0759567950A94E2F76170F60181913B
:100CA0006F0135DE2196C430D10581F7C701DF9190
:100CB000CF911F910F91FF90EF90DF90CF90F8CEE2
:100CC000CF92DF92EF92FF920F931F93CF93DF9318
:100CD000EC01F62E642F8C811ADE8D818F3F11F08E
:100CE00060E015DE8F850F2D10E084FF23C06E01BC
:100CF00087E0C80ED11CE12CF12CB8010E2C02C0EB
:100D0000759567950A94E2F76170F60181916F011C
:100D1000FEDDFFEFEF1AFF0A88E0E816F10469F73D
:100D2000CE01DF91CF911F910F91FF90EF90DF9057
:100D3000CF90BECEB80184E0759567958A95E1F7AE
:100D4000CE0193DF6F2DCE01DF91CF911F910F91D7
:100D5000FF90EF90DF90CF9088CF41E0B1DF81E04E
:100D600090E0089540E0ACCF61E0FCDF8BE39FE1D1
:100D70000197F1F70895AF92BF92CF92DF92EF9271
:100D8000FF920F931F93CF93DF931F92CDB7DEB7E0
:100D90005C017B018B016C0182E0C80ED11CF80163
:100DA00061918F01C50169830E949F1E6981681747
:100DB00019F0C5010E94A71EFFEFAF1ABF0AAC14BD
:100DC000BD0469F7C7010F90DF91CF911F910F917B
:100DD000FF90EF90DF90CF90BF90AF900895AF92CB
:100DE000BF92CF92DF92EF92FF920F931F93CF9318
:100DF000DF931F92CDB7DEB75C017B018B016C01E5
:100E000084E0C80ED11CF80161918F01C50169838E
:100E10000E949F1E6981681719F0C5010E94A71ED4
:100E2000FFEFAF1ABF0AAC14BD0469F7C7010F90FA
:100E3000DF91CF911F910F91FF90EF90DF90CF90B6
:100E4000BF90AF9008954F925F926F927F92AF9252
:100E5000BF92CF92DF92EF92FF920F931F93CF93A7
:100E6000DF9382E02CDD8C018091080290910902D1
:100E70000817190749F0A3DE6093DE047093DF04BE
:100E80008093E0049093E1049ADEC090DE04D09059
:100E9000DF04E090E004F090E104DC01CB018C1968
:100EA0009D09AE09BF0987399105A105B10558F023
:100EB00086DE6093DE047093DF048093E0049093F9
:100EC000E104E80102C0C1E0D0E010930902009300
:100ED000080284E0F4DC7C01809106029091070214
:100EE000E816F90649F06BDE6093DA047093DB04D0
:100EF0008093DC049093DD0462DE0091DA041091AB
:100F0000DB042091DC043091DD04DC01CB01801B8B
:100F1000910BA20BB30B87399105A105B10558F0D0
:100F20004EDE6093DA047093DB048093DC049093CC
:100F3000DD04870102C001E010E0F0920702E092B8
:100F4000060283E0BCDC7C018091040290910502E2
:100F5000E816F90649F033DE6093D6047093D7049F
:100F60008093D8049093D9042ADE4090D604509000
:100F7000D7046090D8047090D904DC01CB018419A7
:100F80009509A609B70987399105A105B10558F05A
:100F900016DE6093D6047093D7048093D8049093A0
:100FA000D904570103C0AA24A394B12CF0920502DE
:100FB000E092040286E083DC7C0180910202909141
:100FC0000302E816F90649F0FADD6093D204709343
:100FD000D3048093D4049093D504F1DD4090D204DF
:100FE0005090D3046090D4047090D504DC01CB0100
:100FF00084199509A609B7098F3E9240A105B1054C
:1010000058F0DDDD6093D2047093D3048093D40450
:101010009093D504670103C0CC24C394D12CF092E3
:101020000302E092020289E04ADC7C018091000226
:1010300090910102E816F90649F0C1DD6093CE04F3
:101040007093CF048093D0049093D104B8DD409086
:10105000CE045090CF046090D0047090D104DC0195
:10106000CB0184199509A609B7098F3E9240A105C5
:10107000B10558F0A4DD6093CE047093CF04809343
:10108000D0049093D104970102C021E030E0F092A7
:101090000102E0920002209781F48091ED0490918A
:1010A000EE04009709F54AEF50E060E070E080ED53
:1010B00097E0FAD381E090E012C001151105C9F55F
:1010C0008091ED049091EE040097D9F44AEF50E03E
:1010D00060E070E084E398E0E7D382E090E09093F2
:1010E000020580930105E1C182309105B1F44AEF18
:1010F00050E060E070E084E398E0D6D383E090E0D5
:10110000EECF0297B1F44AEF50E060E070E084E384
:1011100098E0CAD384E090E0E2CF049751F44AEF1C
:1011200050E060E070E084E398E0BED385E090E0BA
:10113000D6CFAB2881F48091FF04909100050297EF
:1011400050F44AEF50E060E070E084E398E0ACD304
:1011500087E090E0C4CF012BF9F48091ED049091E9
:10116000EE048430910551F44AEF50E060E070E005
:1011700084E398E099D386E090E0B1CF069761F4DC
:101180004AEF50E060E070E084E398E08DD3109285
:1011900002051092010589C1CD2B69F480910105EA
:1011A00090910205AC014B7F4330510509F48ECF7D
:1011B000059709F4A8CFCD2809F0AFC060E080E022
:1011C0005AD389E292E06BD348EC50E060E070E0E3
:1011D00086ED96E069D38091F9049091FA04019725
:1011E00069F48091F5049091F604019739F48091A7
:1011F000F3049091F404019709F457C18091FD0420
:101200009091FE049C012F5F3F4F3093FE0420938A
:10121000FD048D7F019721F02630310509F040C093
:10122000CEDC0E948A1D2091DF053091E0054091BF
:10123000E1055091E2050E940D1A9B01AC016091FD
:10124000CA047091CB048091CC049091CD040E948B
:101250000D1A6B017C016093CA047093CB048093D8
:10126000CC049093CD04ABDC0E948A1D6093DF0513
:101270007093E0058093E1059093E20520E030E073
:10128000A901C701B6010E94861D18161CF08AE349
:1012900092E0B1C081E090E09093FA048093F90469
:1012A0008091FD049091FE048430910539F481E031
:1012B00090E09093F6048093F50408C0069731F40B
:1012C00081E090E09093F4048093F3042091EB0488
:1012D0003091EC0488EE93E0289FB001299F700DB7
:1012E000389F700D1124072E000C880B990B0E945B
:1012F0008C1D6093CA047093CB048093CC049093AC
:10130000CD045DDC0E948A1D6093DF057093E005CB
:101310008093E1059093E205C8C0232B09F0C5C076
:1013200060E080E0A8D28BE492E0B9D248EC50E0D3
:1013300060E070E086ED96E0B7D28091F70490917E
:10134000F804019769F48091F1049091F2040197F7
:1013500039F48091EF049091F004019709F4A5C04D
:101360008091FB049091FC049C012F5F3F4F3093D0
:10137000FC042093FB048D7F019721F0263031057A
:1013800009F093C01CDC0E948A1D2091DB0530917E
:10139000DC054091DD055091DE050E940D1A9B0190
:1013A000AC016091C6047091C7048091C80490910B
:1013B000C9040E940D1A6B017C016093C6047093EE
:1013C000C7048093C8049093C904F9DB0E948A1D66
:1013D0006093DB057093DC058093DD059093DE055B
:1013E00020E030E0A901C701B6010E94861D181651
:1013F000B4F08CE592E0A7D5109200051092FF049E
:10140000DF91CF911F910F91FF90EF90DF90CF90E0
:10141000BF90AF907F906F905F904F90AFC08091E2
:10142000FB049091FC048230910539F481E090E056
:101430009093F8048093F70412C08430910539F436
:1014400081E090E09093F2048093F10408C0069745
:1014500031F481E090E09093F0048093EF042091C8
:10146000EB043091EC0488EE93E0289FB001299FB3
:10147000700D389F700D1124072E000C880B990BEE
:101480000E948C1D6093C6047093C7048093C804A7
:101490009093C90494DB0E948A1D6093DB057093CE
:1014A000DC058093DD059093DE05DF91CF911F91E0
:1014B0000F91FF90EF90DF90CF90BF90AF907F9013
:1014C0006F905F904F900895AF92BF92CF92DF924E
:1014D000EF92FF920F931F93CF93DF935C017B01F9
:1014E0006A01C0E0D0E0CC15DD050CF03CC083EE15
:1014F00095E03ADC62E083EE95E002D1B50183EE3F
:1015000095E0C7D862E370E080E090E020DB00E087
:1015100010E00E151F056CF468E183EE95E022DC07
:1015200092DC62E370E080E090E011DB0F5F1F4F20
:10153000F0CF00E010E00E151F056CF46CE183EEB7
:1015400095E010DC80DC62E370E080E090E0FFDAA0
:101550000F5F1F4FF0CF62E370E080E090E0F7DABA
:1015600072DC2196C0CFDF91CF911F910F91FF9038
:10157000EF90DF90CF90BF90AF900895CF93DF931F
:1015800000D000D0CDB7DEB783EE95E0EDDB61E0B3
:101590008DE0BDD960E08EE0BAD969EC75E08CE2EF
:1015A00095E077D86DE672E08CE295E080D860E750
:1015B00072E0CE01019659D842E050E06EE070E052
:1015C000CE01019681DFCE0101964AD81A82198296
:1015D0001C821B821E821D826091C9057091CA0502
:1015E0006115710541F04091CD055091CE05CE01B8
:1015F00001960E94F00260E080E03DD1BE016F5F85
:101600007F4F83EE95E045D8CE01019629D860E75B
:1016100072E0CE01019629D861E080E02CD1BE01B4
:101620006F5F7F4F83EE95E034D8CE01019618D8D6
:101630004AEF50E060E070E084E398E035D168EC78
:1016400070E080E090E083DA8CE090D968EC70E0A4
:1016500080E090E07CDA4AEF50E060E070E084E304
:1016600098E022D168EC70E080E090E070DA8CE0E5
:101670007DD968EC70E080E090E069DA4AEF50E0F4
:1016800060E070E080ED97E00FD168EC70E080E002
:1016900090E05DDA4AEF50E060E070E084E398E0CB
:1016A00003D168EC70E080E090E051DA8CE05ED924
:1016B00068EC70E080E090E04ADA4AEF50E060E0E9
:1016C00070E084E398E0F0D068EC70E080E090E0B7
:1016D0003EDA8CE04BD968EC70E080E090E037DADD
:1016E0004AEF50E060E070E080ED97E0DDD02696B4
:1016F0000FB6F894DEBF0FBECDBFDF91CF91089536
:10170000EF92FF920F931F93CF93DF93EC01623020
:1017100018F08F8588608F876B8B1C8A80E48D8B97
:1017200080E18E8B80E58F8B61E08C81D4D98D81B7
:101730008F3F11F061E0CFD961E08E81CCD97E017D
:1017400087E0E80EF11C00E010E08F8584FD03C007
:1017500084E090E002C088E090E00817190744F4A4
:1017600061E0F70181917F01B6D90F5F1F4FEDCF87
:101770008BE39DE00197F1F760E08C81C8D860E0D1
:101780008E81C5D88D818F3F11F060E0C0D86F8504
:1017900064FD19C063E0CE0168DA0BE416E4C80109
:1017A0000197F1F763E0CE0160DAC8010197F1F724
:1017B00063E0CE015ADA83E592E00197F1F762E047
:1017C000CE0153DA13C06062CE01CCDA8BE496E42A
:1017D0000197F1F76F856062CE01C4DA83E592E08C
:1017E0000197F1F76F856062CE01BCDA6F856062A8
:1017F000CE01B8DA84E0888B6CE0CE01B3DACE019A
:10180000B3DA82E0898B66E0CE01DF91CF911F9140
:101810000F91FF90EF90A6CA0F931F93CF93DF9382
:10182000C8E2D5E08C0108521540C8018C0F9D1FFD
:101830000E949F1E899385E0CC32D807B1F788E2D9
:1018400095E0DF91CF911F910F9108950F931F9312
:10185000CF93DF938C010E949F1EC6E2D5E0888360
:10186000C80101960E949F1E8983CE01DF91CF910E
:101870001F910F910895643008F063E09091F60590
:10188000691710F06FEF690FE62FF0E0ED51FA4F96
:101890009489682F690F606883EE95E063CABC0184
:1018A00083EE95E00C9457033F924F925F926F92B4
:1018B0007F928F929F92AF92BF92CF92DF92EF92E0
:1018C000FF920F931F93CF93DF9300D01F92CDB75A
:1018D000DEB720910A022C3021F02F3F09F01DC302
:1018E00004C0E8E3F2E03490EDC02CE020930A025B
:1018F000E8E3F2E0E491EF3F09F40FC3E23009F4CA
:1019000074C054F5EE2309F453C0E13009F0D9C096
:101910001092800010928100209181002860209315
:10192000810020918100216020938100EEEFF1E0A1
:10193000E491F0E0EE0FFF1FE852FE4F2591349145
:101940003093060620930506EEE9F1E0E491E0937A
:10195000040633243394B8C0E43009F48EC00CF488
:1019600068C0E53009F0ADC010922001109221014D
:1019700020912101286020932101209121012160E3
:1019800020932101EEEFF1E0E491F0E0EE0FFF1F74
:10199000E852FE4F259134913093FD052093FC05CC
:1019A000EEE9F1E0E491E093FB05B5E03B2E8CC05D
:1019B00014BC15BC24B5226024BD25B5216025BD0D
:1019C000EEEFF1E0E491F0E0EE0FFF1FE852FE4F82
:1019D000259134913093090620930806EEE9F1E051
:1019E000E491E0930706312C6FC01092B000109282
:1019F000B1002091B00022602093B0002091B1008E
:101A000021602093B100EEEFF1E0E491F0E0EE0F01
:101A1000FF1FE852FE4F259134913093210520930A
:101A20002005EEE9F1E0E491E0931F05B2E03B2EE2
:101A30004BC010929000109291002091910028606C
:101A40002093910020919100216020939100EEEF6E
:101A5000F1E0E491F0E0EE0FFF1FE852FE4F259118
:101A600034913093030620930206EEE9F1E0E4910D
:101A7000E093010633E0332E27C01092A0001092AD
:101A8000A1002091A10028602093A1002091A10035
:101A900021602093A100EEEFF1E0E491F0E0EE0F81
:101AA000FF1FE852FE4F259134913093000620939A
:101AB000FF05EEE9F1E0E491E093FE0504E0302E4D
:101AC00003C03E2E37FC29C22A013B018C0161E094
:101AD0008CE001D84801A12CB12C832D8D7F09F019
:101AE000BBC060E072E18AE790E0A50194010E942A
:101AF000E91929833A834B835C8369017A0121E0E8
:101B0000C21AD108E108F1088FEFC816D104E10428
:101B1000F10409F008F44CC060E472E48FE090E056
:101B2000A50194010E94E91969017A0191E0C91A9D
:101B3000D108E108F108E2E03E1220C0FFEFCF1625
:101B4000D104E104F10409F008F4E5C160E970EDA5
:101B500083E090E0A50194010E94E91969017A01EE
:101B600081E0C81AD108E108F1089FEFC916D10435
:101B7000E104F10409F0D0F583E067C0EFEFCE1681
:101B8000D104E104F104B1F0A8F068E478EE81E05A
:101B900090E0A50194010E94E91969017A01F1E040
:101BA000CF1AD108E108F108332009F45AC1AAC1BB
:101BB00081E001C082E03320A1F047C089819A8191
:101BC000AB81BC812AE0B595A795979587952A9515
:101BD000D1F76C017D01F1E0CF1AD108E108F108DD
:101BE00085E095B5987F892B85BDA6C068E478EE21
:101BF00081E090E0A50194010E94E91969017A0150
:101C000081E0C81AD108E108F1089FEFC916D10494
:101C1000E104F10409F008F422C164E274EF80E009
:101C200090E0A50194010E94E91969017A0181E01F
:101C3000C81AD108E108F1089FEFC916D104E104E0
:101C4000F10411F008F02FC185E09091B100987F68
:101C5000892B8093B10070C060E072E18AE790E068
:101C6000A50194010E94E91969017A01F1E0CF1AF6
:101C7000D108E108F108C114D10421E0E206F10421
:101C800088F068E478EE81E090E0A50194010E947C
:101C9000E91969017A0181E0C81AD108E108F1085F
:101CA00083E001C081E091E0391210C09091810081
:101CB000987F892B80938100411451046104710441
:101CC00009F03FC02FEF3FEFA90171C0E3E03E12E2
:101CD0000FC090919100987F892B809391004114BF
:101CE00051046104710469F52FEF3FEFA90181C030
:101CF000F4E03F120FC09091A100987F892B809350
:101D0000A1004114510461047104D9F42FEF3FEF95
:101D1000A90181C025E032120FC090912101987F66
:101D2000892B80932101411451046104710449F409
:101D30002FEF3FEFA90181C04114510461047104E8
:101D400071F0D801AA0FBB1FA30192010E94B51E1A
:101D500028EE33E040E050E00E94C71903C02FEFA7
:101D60003FEFA90182E03816A1F1831534F033204A
:101D700079F091E03916D9F0D0C0E4E03E1609F4CC
:101D80004AC03E16B4F1F5E03F1609F456C0C5C08E
:101D9000C7BC20931A0630931B0640931C06509331
:101DA0001D0680916E00826080936E00B6C0D09256
:101DB0008900C0928800209316063093170640933E
:101DC00018065093190680916F00826080936F000F
:101DD000A4C0C092B3002093220530932305409302
:101DE00024055093250580917000826080937000D7
:101DF00094C0D0929900C09298002093120630931C
:101E0000130640931406509315068091710082606A
:101E10008093710082C0D092A900C092A800209344
:101E20000E0630930F0640931006509311068091D2
:101E3000720082608093720070C0D0922901C092BB
:101E4000280120930A0630930B0640930C0650930A
:101E50000D06809173008260809373005EC084E001
:101E6000F4CE2FEFC216D104E104F104D1F0C8F092
:101E700062E17AE780E090E0A50194010E94E9190F
:101E800069017A01E1E0CE1AD108E108F108FFEF1B
:101E9000CF16D104E104F10411F008F08FCE84E0F4
:101EA000A0CE83E09ECE62E17AE780E090E0A501DB
:101EB00094010E94E91969017A0181E0C81AD108E8
:101EC000E108F1089FEFC916D104E104F104C1F063
:101ED000B8F089819A81AB81BC814AE0B595A7951C
:101EE000979587954A95D1F76C017D01E1E0CE1A6F
:101EF000D108E108F108332009F472CE87E0A5CEBD
:101F000086E059CEEFEFCE16D104E104F10409F0DA
:101F100050F684E050CE82E098CE0F900F900F9054
:101F20000F90DF91CF911F910F91FF90EF90DF9075
:101F3000CF90BF90AF909F908F907F906F905F9069
:101F40004F903F900895009771F0FC0101900020A0
:101F5000E9F73197AF01481B590BBC0189EC95E0BB
:101F60000E94F00214C08091C9059091CA050097A3
:101F700011F00E94F61B1092CA051092C90510922A
:101F8000CE051092CD051092CC051092CB0589ECB0
:101F900095E00895CF93DF93BC018CE295E00E9419
:101FA0005703EC016DE672E08CE295E00E94570366
:101FB0008C0F9D1FDF91CF910895CF93DF93AC01DC
:101FC000990F660B770B2AE030E08CE295E00E94D7
:101FD000B403EC016DE672E08CE295E00E945703D9
:101FE0008C0F9D1FDF91CF9108954F925F926F925A
:101FF0007F928F929F92AF92BF92CF92DF92EF9299
:10200000FF926B017C01B42E9B01AC010E945D1B11
:10201000882319F069EB74E027C026013701E894A2
:1020200077F82FEF3FEF4FE75FE7C301B2010E9460
:102030005D1B81110DC02FEF3FEF4FE75FE7C3013D
:10204000B2010E94861D18161CF46DEB74E00CC0E2
:102050002FEF3FEF4FE75FE4C701B6010E94591B26
:10206000181694F461EC74E083EE95E0FF90EF9025
:10207000DF90CF90BF90AF909F908F907F906F90A8
:102080005F904F900C9457032FEF3FEF4FE75FECBB
:10209000C701B6010E94861D87FDE4CF20E030E035
:1020A000A901C701B6010E94861D87FF11C0E091FA
:1020B000E305F091E4050190F081E02D6DE283EEFF
:1020C00095E019954C01F7FAF094F7F8F09402C0F6
:1020D000812C912CA12C60E070E080E09FE3AB1498
:1020E00041F020E030E040E251E40E94721AA394F3
:1020F000F6CF9B01AC01C701B6010E940E1A2B015D
:102100003C010E94DA1A6B017C010E948A1D9B012E
:10211000AC01C301B2010E940D1A2B013C012AE05F
:10212000B701A60183EE95E00E946C037C01E80CE8
:10213000F91CBB2041F060E972E083EE95E00E945B
:102140005703E80EF91EDB2CDD2031F120E030E0F2
:1021500040E251E4C301B2010E94EB1D2B013C019E
:102160000E94DA1A4B01A12CB12C2AE0B501A4017E
:1021700083EE95E00E946C03E80EF91EC501B401E0
:102180000E948A1D9B01AC01C301B2010E940D1A7D
:102190002B013C01DA94D8CFC701FF90EF90DF907C
:1021A000CF90BF90AF909F908F907F906F905F90F7
:1021B0004F90089589EC95E00C943003CF93DF9312
:1021C000CDB7DEB72C970FB6F894DEBF0FBECDBFEC
:1021D000789484B5826084BD84B5816084BD85B502
:1021E000826085BD85B5816085BD80916E0081600E
:1021F00080936E00109281008091810082608093B4
:1022000081008091810081608093810080918000B5
:102210008160809380008091B10084608093B100E0
:102220008091B00081608093B000809191008260C5
:1022300080939100809191008160809391008091C2
:1022400090008160809390008091A10082608093D3
:10225000A1008091A10081608093A1008091A000E5
:1022600081608093A0008091210182608093210190
:102270008091210181608093210180912001816002
:102280008093200180917A00846080937A0080910D
:102290007A00826080937A0080917A0081608093D6
:1022A0007A0080917A00806880937A001092C10051
:1022B000E0913C05F0913D0582E08083E091380596
:1022C000F09139051082E0913A05F0913B058FECD1
:1022D000808310924405E0914005F091410586E02D
:1022E0008083E0913E05F0913F058081806180838D
:1022F000E0913E05F0913F05808188608083E09108
:102300003E05F0913F05808180688083E0913E0525
:10231000F0913F0580818F7D808362E082E00E94A2
:102320006B0562E083E00E946B0562E084E00E943E
:102330006B0562E086E00E946B0562E089E00E9426
:102340006B0561E08EE00E946B0561E08DE00E940C
:102350006B0560E08DE00E94870460E08EE00E94E3
:10236000870482E00E945F04892B01F56CED75E023
:1023700080E090E00E94A7058CE390E0A0E0B0E050
:1023800089839A83AB83BC838AE090E098878F83AC
:10239000BE016F5F7F4F80E090E00E94EF06BE01BC
:1023A000695F7F4F80E090E00E94BB0680E090E094
:1023B00033DA80E090E04ADA4EE150E060E070E02D
:1023C000409328055093290560932A0570932B05A7
:1023D00085E090E0909327058093260540931105B2
:1023E0005093120560931305709314059093EC04B9
:1023F0008093EB0461E872E0CE0101960E94350300
:1024000041E050E06AE070E0CE0101965DD8CE0177
:1024100001960E94300362E083EE95E071D982E973
:1024200092E03DDA4091110550911205609113053B
:10243000709114052AE030E083EE95E00E94B40329
:1024400061E080E018DA80EA92E029DA4091EB045A
:102450005091EC04052E000C660B770B2AE030E05F
:1024600083EE95E00E94B40368EE73E080E090E0B4
:102470000E94A70596E0692E712C25E0A22EB12CB2
:1024800003E010E034E0E32EF12C42E0C42ED12C26
:102490000E942307E0910105F0910205E830F10563
:1024A00008F0EAC28827EC57FF4F8F4FAEC760E0B5
:1024B00080E0E1D98EEA92E0F2D961E080E0DBD9F8
:1024C0008FEB92E0ECD91092EE041092ED04109292
:1024D000040510920305109200051092FF048FC2AC
:1024E00083EE95E00E94B40660E080E0C4D980ED00
:1024F00092E0D5D988248394912C9092EE04809216
:10250000ED04909204058092030561E08EE00E9444
:102510008704909200058092FF0471C260E080E021
:10252000AAD981EE92E0BBD961E080E0A4D982EF24
:1025300092E0B5D9409128055091290560912A056E
:1025400070912B0521E030E083EE95E00E94B4030A
:10255000D092EE04C092ED04D0920405C09203051F
:102560004EC21093EE040093ED0410930405009303
:10257000030566E970E080E090E00E94A7051093F3
:1025800000050093FF0460E080E075D980E093E0EF
:1025900086D961E080E06FD982EF92E080D94091E6
:1025A00028055091290560912A0570912B054093CB
:1025B00011055093120560931305709314052AE0DA
:1025C00030E083EE95E00E94B40360ED77E080E0B8
:1025D00090E00E94A70580910105909102058B7FF4
:1025E000039709F080C00E94230784E00E945F04E3
:1025F000892BC9F46AEF70E080E090E00E94A705A3
:102600008091110590911205A0911305B0911405C8
:102610000196A11DB11D8093110590931205A09301
:102620001305B093140583E00E945F04892BC9F45D
:102630006AEF70E080E090E00E94A70580911105AC
:1026400090911205A0911305B09114050197A1096D
:10265000B1098093110590931205A0931305B093CF
:1026600014058091110590911205A0911305B09168
:10267000140583369105A105B10551F483EE95E06B
:102680000E94B40660E080E0F6D880E093E007D9CD
:102690008091110590911205A0911305B091140538
:1026A0000997A105B10551F483EE95E00E94B406A7
:1026B00060E080E0E0D880E093E0F1D861E080E085
:1026C000DAD882EF92E0EBD84091110550911205D3
:1026D00060911305709114052AE030E083EE95E0D7
:1026E0000E94B40378CF61E175E080E090E00E9441
:1026F000EF0683EE95E00E94B40680E090E08CD86F
:102700008091280590912905A0912A05B0912B056B
:102710008093110590931205A0931305B0931405AF
:102720006EEA73E0CE0101960E94350361E173E029
:10273000CE0107960E94350360E080E09CD8BE0180
:10274000695F7F4F83EE95E00E944903BE016F5F92
:102750007F4F83EE95E00E944903CE0107960E94C9
:102760003003CE0101960E94300360ED77E080E0F7
:1027700090E00E94A705109200051092FF04D092ED
:102780000205C092010578C160E080E074D881EE56
:1027900092E085D861E080E06ED881E293E07FD856
:1027A0004091260550912705052E000C660B770BEE
:1027B00021E083EE95E00E946C03F092EE04E0923B
:1027C000ED04F0920405E092030519C1B092EE0405
:1027D000A092ED04B0920405A092030566E970E0B2
:1027E00080E090E00E94A705109300050093FF048D
:1027F00060E080E040D880E093E051D861E080E084
:102800003AD881E293E04BD84091260550912705B4
:102810005093EC044093EB04052E000C660B770BF1
:102820002AE030E083EE95E00E94B40360ED77E0AB
:1028300080E090E00E94A70580910105909102053B
:102840008D7F059709F066C00E94230784E00E94EF
:102850005F04892B79F46AEF70E080E090E00E94D9
:10286000A7058091EB049091EC0401969093EC0401
:102870008093EB0483E00E945F04892B79F46AEF74
:1028800070E080E090E00E94A7058091EB049091B9
:10289000EC0401979093EC048093EB048091EB049B
:1028A0009091EC048336910561F483EE95E00E94EB
:1028B000B40660E080E00E943B0C80E093E00E9460
:1028C0004F0C8091EB049091EC04099761F483EE36
:1028D00095E00E94B40660E080E00E943B0C80E03E
:1028E00093E00E944F0C61E080E00E943B0C81E28B
:1028F00093E00E944F0C4091EB045091EC04052EA4
:10290000000C660B770B2AE030E083EE95E00E9426
:10291000B40392CF6BEE74E080E090E00E94BB06BF
:1029200083EE95E00E94B40680E090E00E94260CC1
:1029300080912605909127059093EC048093EB04F9
:102940006EEA73E0CE0101960E94350361E173E007
:10295000CE0107960E94350360E080E00E943B0CA8
:10296000BE01695F7F4F83EE95E00E944903BE017F
:102970006F5F7F4F83EE95E00E944903CE0107967B
:102980000E943003CE0101960E94300360ED77E093
:1029900080E090E00E94A705109200051092FF04CD
:1029A000F0920205E092010567C083EE95E00E9477
:1029B000B40660E080E00E943B0C80E393E00E945C
:1029C0004F0C61E080E00E943B0C81E493E00E94A8
:1029D0004F0C4091150550911605609117057091A7
:1029E00018052AE030E083EE95E00E94B40370926F
:1029F000EE046092ED04709204056092030566E9AE
:102A000070E080E090E00E94A70536C010920205B9
:102A10001092010583E00E945F04892B41F48090AD
:102A2000FF04909000058114910409F4F2C383E03F
:102A30000E945F04892B39F48091FF049091000576
:102A4000019709F4EDC383EE95E00E94B40660E0BF
:102A500080E00E943B0C8FE493E00E944F0C1092A8
:102A600000051092FF0408C08091FF0490910005BA
:102A7000019749F00E94230780910105909102057A
:102A8000019791F3C3C30E9423078090F9049090AB
:102A9000FA0481E08816910409F04CC080911D056C
:102AA00090911E05892B09F045C080E693E072DA0B
:102AB0008091F9049091FA0480DA80E793E06ADA71
:102AC0002091110530911205409113055091140584
:102AD000A8EEB3E00E94B51E0E948C1D60931905FC
:102AE00070931A0580931B0590931C050E94DF05C7
:102AF0000E948A1D6093D7057093D8058093D905ED
:102B00009093DA0590921E0580921D051092F804AC
:102B10001092F70460E080E00E943B0C8AE793E0AB
:102B20000E944F0C46E950E060E070E086ED96E0D0
:102B30000E94540C8091F7049091F804019709F0D9
:102B400049C080911D0590911E05019709F042C072
:102B50001092FA041092F9048BE893E01BDA1092B9
:102B60001E0510921D0560E080E00E943B0C89E983
:102B700093E00E944F0C46E950E060E070E088E985
:102B800098E00E94540C8091F5049091F604892BF2
:102B900071F48091F3049091F404892B41F4109224
:102BA000FE041092FD041092FC041092FB0480912C
:102BB000150590911605A0911705B091180501967D
:102BC000A11DB11D8093150590931605A0931705BF
:102BD000B093180580911D0590911E05019709F08D
:102BE0008DC00E94DF0596D72091D7053091D8057A
:102BF0004091D9055091DA0510D49B01AC01609148
:102C0000190570911A0580911B0590911C0505D43A
:102C10006093190570931A0580931B0590931C050A
:102C200020E030E04AE754E45DD4F0D420E030E026
:102C300046EC52E46BD7811107C061E00E943B0C67
:102C40008AEA93E00E944F0C20E030E04AE754E427
:102C50006091190570911A0580911B0590911C05D2
:102C600041D4D4D420E030E040E151E44FD7811189
:102C700007C061E00E943B0C8AEA93E00E944F0C7F
:102C800061E080E00E943B0C80EB93E00E944F0CDF
:102C900020E030E04AE754E46091190570911A058C
:102CA00080911B0590911C051DD440E09ED90E9487
:102CB000DF0530D76093D7057093D8058093D90589
:102CC0009093DA0520E030E0A90160911905709138
:102CD0001A0580911B0590911C0518D7181634F021
:102CE00083EB93E030D90E94BE0A08C083EC93E0E6
:102CF00051D98091F9049091FA045FD90E94230779
:102D00008090F5049090F604E1E08E16910409F0AD
:102D10004AC080910F0590911005892B09F043C09E
:102D20008EEC93E037D98091F5049091F60445D963
:102D30008EED93E02FD9209111053091120540912D
:102D4000130550911405A8EEB3E00E94B51EE4D619
:102D500060930B0570930C0580930D0590930E0501
:102D60000E94DF05D7D66093D3057093D405809376
:102D7000D5059093D6059092100580920F0510927C
:102D8000F2041092F10460E080E00E943B0C88EEB7
:102D900093E00E944F0C46E950E060E070E08AE367
:102DA00097E00E94540C8091F1049091F2040197F5
:102DB00009F053C080910F0590911005019709F01B
:102DC0004CC01092F6041092F50489EF93E0E2D81B
:102DD0001092100510920F0560E080E00E943B0CFD
:102DE00087E094E00E944F0C46E950E060E070E01C
:102DF0008CEF98E00E94540C8091F9049091FA04B1
:102E00000197C1F48091F3049091F404892B91F41B
:102E10008091FB049091FC0404979093FC048093B0
:102E2000FB048091FD049091FE0402979093FE04B0
:102E30008093FD048091150590911605A0911705CA
:102E4000B09118050196A11DB11D809315059093B1
:102E50001605A0931705B093180580910F05909162
:102E60001005019709F090C00E94DF0553D620910C
:102E7000D3053091D4054091D5055091D605CDD2DA
:102E80009B01AC0160910B0570910C0580910D05C3
:102E900090910E05C2D260930B0570930C05809340
:102EA0000D0590930E0520E030E04AE754E41AD374
:102EB000ADD320E030E046EC52E428D6811108C0C2
:102EC00061E086E00E943B0C88E194E00E944F0C98
:102ED00020E030E04AE754E460910B0570910C0566
:102EE00080910D0590910E05FDD290D320E030E049
:102EF00040E151E40BD6811108C061E086E00E94F8
:102F00003B0C88E194E00E944F0C61E086E00E9457
:102F10003B0C8EE194E00E944F0C20E030E04AE749
:102F200054E460910B0570910C0580910D05909112
:102F30000E05D8D240E059D80E94DF05EBD560934A
:102F4000D3057093D4058093D5059093D60520E0E2
:102F500030E0A90160910B0570910C0580910D0581
:102F600090910E05D3D518163CF081E294E00E94B2
:102F7000A30F0E94BE0A08C082E394E00BD88091A0
:102F8000F5049091F60419D80E9423078090F30469
:102F90009090F404F1E08F16910409F04CC08091F8
:102FA000090590910A05892B09F045C08DE394E04D
:102FB0000E94CA0F8091F3049091F4040E94DD0FE7
:102FC0008DE494E00E94CA0F209111053091120502
:102FD0004091130550911405A8EEB3E0C6D69CD5D8
:102FE0006093050570930605809307059093080587
:102FF0000E94DF058FD56093CF057093D005809335
:10300000D1059093D20590920A05809209051092FD
:10301000F0041092EF0460E080E00E943B0C87E532
:1030200094E00E944F0C46E950E060E070E08EE9C9
:1030300097E00E94540C8091EF049091F004019766
:10304000A9F58091090590910A05019779F51092EB
:10305000F4041092F30488E694E00E94CA0F1092E0
:103060000A051092090560E080E00E943B0C86E7AB
:1030700094E00E944F0C46E950E060E070E080E68A
:1030800099E00E94540C8091150590911605A0912D
:103090001705B09118050196A11DB11D8093150566
:1030A00090931605A0931705B09318058091090514
:1030B00090910A05019709F093C00E94DF052AD577
:1030C0002091CF053091D0054091D1055091D20586
:1030D000A4D19B01AC01609105057091060580911A
:1030E00007059091080599D1609305057093060531
:1030F000809307059093080520E030E04AE754E408
:10310000F1D184D220E030E046EC52E4FFD48111CA
:1031100008C061E08BE00E943B0C87E894E00E94CD
:103120004F0C20E030E04AE754E4609105057091CF
:1031300006058091070590910805D4D167D220E05B
:1031400030E040E151E4E2D4811108C061E08BE05D
:103150000E943B0C87E894E00E944F0C61E08BE0FA
:103160000E943B0C8DE894E00E944F0C20E030E080
:103170004AE754E4609105057091060580910705C2
:1031800090910805AFD140E00E94F50F0E94DF0545
:10319000C1D46093CF057093D0058093D1059093EF
:1031A000D20520E030E0A901609105057091060587
:1031B0008091070590910805A9D418163CF080E984
:1031C00094E00E94A30F0E94BE0A0AC081EA94E024
:1031D0000E94CA0F8091F3049091F4040E94DD0FC5
:1031E0008091FD049091FE04069721F41092FE0454
:1031F0001092FD048091FB049091FC04069709F065
:1032000039CC1092FC041092FB0434CC0E943B0297
:103210003FC98CEA94E00E94CA0FF401199507CCCB
:1032200084EB94E00E94CA0F109200051092FF04F4
:1032300060E08EE00E948704109202051092010562
:103240001092FA041092F90410921E0510921D05B6
:103250001092F6041092F5041092100510920F05CA
:103260001092F4041092F30410920A0510920905CA
:1032700066E970E080E090E00E94A705E4CBECE214
:10328000F5E01382128288EE93E0A0E0B0E0848340
:103290009583A683B78385E192E09183808385EC53
:1032A00090E09587848784EC90E09787868780EC10
:1032B00090E0918B808B81EC90E0938B828B82EC01
:1032C00090E0958B848B86EC90E0978B868B118EAB
:1032D000128E138E148EE3EEF5E01382128285E2D5
:1032E00092E0918380838AE284838FEF85838CE2EE
:1032F000868384E3878382E3808780E381878EE20D
:1033000082871386148615861686178661E0CF019C
:103310000E94800B0E94DF05FDD36093DF05709350
:10332000E0058093E1059093E2050E94DF05F2D36A
:103330006093DB057093DC058093DD059093DE05DB
:103340000E94DF05E7D36093D7057093D80580937B
:10335000D9059093DA050E94DF05DCD36093D3058D
:103360007093D4058093D5059093D6050E94DF0510
:10337000D1D36093CF057093D0058093D1059093FE
:10338000D2056FE672E089EC95E00C943503A1E27A
:103390001A2EAA1BBB1BFD010DC0AA1FBB1FEE1FCF
:1033A000FF1FA217B307E407F50720F0A21BB30B1A
:1033B000E40BF50B661F771F881F991F1A9469F796
:1033C00060957095809590959B01AC01BD01CF01F2
:1033D0000895052E97FB16F400940FD057FD05D0E5
:1033E000D6DF07FC02D046F408C0509540953095D2
:1033F00021953F4F4F4F5F4F089590958095709561
:1034000061957F4F8F4F9F4F0895EE0FFF1F881FCD
:103410008BBF0790F691E02D19945058BB27AA272F
:103420000ED053C444D430F049D420F031F49F3F3F
:1034300011F41EF439C40EF4E095E7FB2FC4E92F14
:1034400055D480F3BA17620773078407950718F0FD
:1034500071F49EF56DC40EF4E0950B2EBA2FA02DDD
:103460000B01B90190010C01CA01A0011124FF2731
:10347000591B99F0593F50F4503E68F11A16F0402C
:10348000A22F232F342F4427585FF3CF469537952B
:103490002795A795F0405395C9F77EF41F16BA0BF0
:1034A000620B730B840BBAF09150A1F0FF0FBB1F9E
:1034B000661F771F881FC2F70EC0BA0F621F731FE7
:1034C000841F48F4879577956795B795F7959E3F44
:1034D00008F0B3CF9395880F08F09927EE0F9795D2
:1034E000879508950CD0F1C3E9D340F0E0D330F0D4
:1034F00021F45F3F19F0D2C351111BC4D5C3F6D3D9
:1035000098F39923C9F35523B1F3951B550BBB27AA
:10351000AA2762177307840738F09F5F5F4F220F57
:10352000331F441FAA1FA9F333D00E2E3AF0E0E850
:1035300030D091505040E695001CCAF729D0FE2F9C
:1035400027D0660F771F881FBB1F2617370748072E
:10355000AB07B0E809F0BB0B802DBF01FF279358E4
:103560005F4F2AF09E3F510568F098C3E2C35F3F6A
:10357000ECF3983EDCF3869577956795B795F795CC
:103580009F5FC9F7880F911D9695879597F90895C4
:10359000E1E0660F771F881FBB1F62177307840760
:1035A000BA0720F0621B730B840BBA0BEE1F88F76F
:1035B000E0950895A3D388F09F5790F0B92F9927ED
:1035C000B751A0F0D1F0660F771F881F991F1AF02E
:1035D000BA95C9F712C0B13081F0AAD3B1E008950D
:1035E000A7C3672F782F8827B85F39F0B93FCCF38E
:1035F000869577956795B395D9F73EF49095809524
:10360000709561957F4F8F4F9F4F08953BD080F00D
:103610009F3740F491110EF08CC360E070E080E8B9
:103620009FEB089526F41B16611D711D811D01C0BD
:103630001BC0882371F4772321F09850872B762FB5
:1036400007C0662311F499270DC09051862B70E0B6
:1036500060E02AF09A95660F771F881FDAF7880FC7
:103660009695879597F908959F3F31F0915020F4F2
:10367000879577956795B795880F911D969587954E
:1036800097F908953BD3A0F0BEE7B91788F4BB279C
:103690009F3860F41616B11D672F782F8827985F22
:1036A000F7CF869577956795B11D93959639C8F3B1
:1036B00008956DD208F48FEF089569D2880B990BA5
:1036C0000895CF93DF938230910510F482E090E06B
:1036D000E0912006F091210620E030E0C0E0D0E04B
:1036E000309711F14081518148175907C0F04817B0
:1036F000590761F482819381209719F09B838A8313
:103700002BC0909321068093200626C021153105F9
:1037100019F04217530718F49A01BE01DF01EF01B7
:103720000280F381E02DDCCF2115310509F1281B42
:10373000390B2430310590F412968D919C9113979A
:103740006115710521F0FB019383828304C090937E
:10375000210680932006FD01329644C0FD01E20F50
:10376000F31F81939193225031092D933C933AC0DA
:1037700020911E0630911F06232B41F420910D024B
:1037800030910E0230931F0620931E0620910B02EB
:1037900030910C022115310541F42DB73EB740910F
:1037A0000F0250911002241B350BE0911E06F09180
:1037B0001F06E217F307A0F42E1B3F0B281739074B
:1037C00078F0AC014E5F5F4F2417350748F04E0F7D
:1037D0005F1F50931F0640931E068193919302C072
:1037E000E0E0F0E0CF01DF91CF9108950F931F93B8
:1037F000CF93DF93009709F48CC0FC0132971382BA
:10380000128200912006109121060115110581F404
:1038100020813181820F931F20911E0630911F0657
:103820002817390779F5F0931F06E0931E0671C03B
:10383000D80140E050E0AE17BF0750F412962D912A
:103840003C911397AD012115310509F1D901F3CF51
:103850009D01DA013383228360817181860F971F76
:103860008217930769F4EC0128813981260F371FED
:103870002E5F3F4F318320838A819B819383828394
:10388000452B29F4F0932106E093200642C01396BD
:10389000FC93EE931297ED01499159919E01240FEB
:1038A000351FE217F30771F480819181840F951F12
:1038B000029611969C938E938281938113969C938A
:1038C0008E931297E0E0F0E0D80112968D919C91D2
:1038D0001397009719F0F8018C01F6CF8D919C9108
:1038E00098012E5F3F4F820F931F20911E0630914B
:1038F0001F062817390769F4309729F4109221061A
:103900001092200602C01382128210931F060093A9
:103910001E06DF91CF911F910F9108956F927F92B4
:103920008F929F92AF92BF92CF92DF92EF92FF92CF
:103930000F931F93CF93DF93EC01009781F4CB019A
:10394000DF91CF911F910F91FF90EF90DF90CF907B
:10395000BF90AF909F908F907F906F90B2CEFC0100
:10396000E60FF71F9C0122503109E217F30708F414
:10397000A8C0D9010D911C91119706171707A8F03F
:103980000530110508F49BC0C801049786179707F6
:1039900008F495C002501109061B170B01931193EF
:1039A0006D937C93CF0122DF8AC05B01A01AB10A1C
:1039B0004C01800E911EA0912006B091210640E09E
:1039C00050E0E12CF12C109709F44AC0A815B90574
:1039D000D1F56D907C901197630182E0C80ED11CE7
:1039E000CA14DB0480F1A3014A195B096A0182E071
:1039F000C80ED11C1296BC9012971396AC91B5E0EC
:103A0000CB16D10440F0B282A38351834083D90105
:103A10006D937C930AC00E5F1F4FC301800F911FEF
:103A2000F90191838083EB2DFA2FE114F10431F039
:103A3000D7011396FC93EE93129741C0F0932106A1
:103A4000E09320063CC08D919C911197481759072F
:103A500008F4AC017D0112960D90BC91A02DB3CF5E
:103A600080911E0690911F0688159905E1F446176E
:103A70005707C8F480910B0290910C02009741F413
:103A80008DB79EB740910F0250911002841B950B89
:103A9000E817F907B0F4F0931F06E0931E06F9014A
:103AA000718360830CC0CB010CDE7C01009749F070
:103AB000A801BE011BD0CE0199DEC70104C0CE0112
:103AC00002C080E090E0DF91CF911F910F91FF90B5
:103AD000EF90DF90CF90BF90AF909F908F907F90AE
:103AE0006F90089581E090E0F89458C1FB01DC01EB
:103AF00002C001900D9241505040D8F70895FB014B
:103B0000DC0101900D920020E1F7089540D008F407
:103B100081E00895E89409C097FB3EF49095809564
:103B2000709561957F4F8F4F9F4F9923A9F0F92F83
:103B300096E9BB279395F695879577956795B79501
:103B4000F111F8CFFAF4BB0F11F460FF1BC06F5FE7
:103B50007F4F8F4F9F4F16C0882311F096E911C0F9
:103B6000772321F09EE8872F762F05C0662371F01A
:103B700096E8862F70E060E02AF09A95660F771F2E
:103B8000881FDAF7880F9695879597F90895990F0A
:103B90000008550FAA0BE0E8FEEF16161706E80717
:103BA000F907C0F012161306E407F50798F0621B38
:103BB000730B840B950B39F40A2661F0232B242B0D
:103BC000252B21F408950A2609F4A140A6958FEF2C
:103BD000811D811D08950BD078C069D028F06ED06A
:103BE00018F0952309F05AC05FC01124A2C07ED0FE
:103BF000A0F3959FD1F3950F50E0551F629FF00100
:103C0000729FBB27F00DB11D639FAA27F00DB11D58
:103C1000AA1F649F6627B00DA11D661F829F2227E1
:103C2000B00DA11D621F739FB00DA11D621F839F68
:103C3000A00D611D221F749F3327A00D611D231F3E
:103C4000849F600D211D822F762F6A2F11249F578C
:103C500050408AF0E1F088234AF0EE0FFF1FBB1FAF
:103C6000661F771F881F91505040A9F79E3F51054E
:103C700070F014C05EC05F3FECF3983EDCF38695B5
:103C800077956795B795F795E7959F5FC1F7FE2BF9
:103C9000880F911D9695879597F9089597F99F67D5
:103CA00080E870E060E008959FEF80EC08950024C4
:103CB0000A941616170618060906089500240A9491
:103CC00012161306140605060895092E0394000C17
:103CD00011F4882352F0BB0F40F4BF2B11F460FFA6
:103CE00004C06F5F7F4F8F4F9F4F089557FD9058CF
:103CF000440F551F59F05F3F71F04795880F97FBB0
:103D0000991F61F09F3F79F0879508951216130669
:103D10001406551FF2CF4695F1DF08C01616170698
:103D20001806991FF1CF86957105610508940895CD
:103D3000E894BB2766277727CB0197F90895F9996F
:103D4000FECF92BD81BDF89A992780B50895262FA0
:103D5000F999FECF1FBA92BD81BD20BD0FB6F89470
:103D6000FA9AF99A0FBE0196089509D0A59F900D71
:103D7000B49F900DA49F800D911D11240895A29FC2
:103D8000B001B39FC001A39F700D811D1124911D2F
:103D9000B29F700D811D1124911D089511E0CEE197
:103DA000D1E000E005C0802FFE012FDB2196011D30
:0E3DB000CF31D10780E00807B1F7F894FFCFBC
:103DBE0001000100010001000100FF000022068049
:103DCE000000000000D40151019E017C0190011AF7
:103DDE000200000000AD0651014672616D6520447F
:103DEE0065746563742020494E00426164204672FA
:103DFE00616D6520494E20455252004672616D65D7
:103E0E0020446574656374204F55540042616420EC
:103E1E004672616D65204F5554204552000D0A00C3
:103E2E00203C3C3C204552524F52203E3E3E2020EC
:103E3E00005374617274696E67207570202E2E2E79
:103E4E002E0054696D657253657474696E673D001A
:103E5E004672616D6554696D654F75743D003C3CED
:103E6E003C204F46464C494E45203E3E3E200020CB
:103E7E00454E54455220546F205354415254200005
:103E8E003C3C3C204F4E2D4C494E45203E3E3E2064
:103E9E0000454E54455220544F204348414E47450D
:103EAE00210054696D65204F7574205365633D0084
:103EBE004849542020454E5420746F205341564596
:103ECE000053657474696E6773205361766564215F
:103EDE00004672616D6554696D654F7574533D0092
:103EEE00204672616D652020436F756E7465722079
:103EFE00004E6F206F66204672616D65203D005347
:103F0E00544F5020204143544956415445442100BA
:103F1E0053656E73496E3120466C6167203D2000FB
:103F2E00463120697320736574003C3C4652414D06
:103F3E0045203120534554203E3E004631207265C7
:103F4E007365742E2E2E2E2E003C3C4652414D454E
:103F5E00203120525354203E3E00313D202020007F
:103F6E00313D00204572726F72204672616D652080
:103F7E0031200046312075706461746564005365AC
:103F8E006E73496E3220466C6167203D20004632CA
:103F9E0020697320736574003C3C4652414D4520A8
:103FAE003220534554203E3E0046322072657365E2
:103FBE00742E2E2E2E2E003C3C4652414D45203264
:103FCE0020525354203E3E00323D20202000323DF0
:103FDE000020204572726F72204672616D6520322C
:103FEE002000463220757064617465640053656EFE
:103FFE0073496E3320466C6167203D2000463320A6
:10400E00697320736574003C3C4652414D45203324
:10401E0020534554203E3E0046332072657365742E
:10402E002E2E2E2E2E003C3C4652414D4520332046
:10403E00525354203E3E00333D20202000333D009D
:10404E0020204572726F72204672616D652033209A
:10405E000046332075706461746564005265736543
:10406E007420300053746F70006E616E00696E665E
:06407E00006F76660000F1
:020000023000CC
:10E000000D9489F10D94B2F10D94B2F10D94B2F129
:10E010000D94B2F10D94B2F10D94B2F10D94B2F1F0
:10E020000D94B2F10D94B2F10D94B2F10D94B2F1E0
:10E030000D94B2F10D94B2F10D94B2F10D94B2F1D0
:10E040000D94B2F10D94B2F10D94B2F10D94B2F1C0
:10E050000D94B2F10D94B2F10D94B2F10D94B2F1B0
:10E060000D94B2F10D94B2F10D94B2F10D94B2F1A0
:10E070000D94B2F10D94B2F10D94B2F10D94B2F190
:10E080000D94B2F10D94B2F10D94B2F10D94B2F180
:10E090000D94B2F10D94B2F10D94B2F10D94B2F170
:10E0A0000D94B2F10D94B2F10D94B2F10D94B2F160
:10E0B0000D94B2F10D94B2F10D94B2F10D94B2F150
:10E0C0000D94B2F10D94B2F10D94B2F10D94B2F140
:10E0D0000D94B2F10D94B2F10D94B2F10D94B2F130
:10E0E0000D94B2F141546D656761323536300041AF
:10E0F000726475696E6F206578706C6F72657220DE
:10E1000073746B3530305632206279204D4C530099
:10E11000426F6F746C6F616465723E004875683F52
:10E1200000436F6D70696C6564206F6E203D200048
:10E130004350552054797065202020203D20005FF9
:10E140005F4156525F415243485F5F3D2000415658
:10E1500052204C696243205665723D20004743437C
:10E160002056657273696F6E203D20004350552024
:10E1700049442020202020203D20004C6F7720663D
:10E18000757365202020203D20004869676820665F
:10E190007573652020203D200045787420667573D6
:10E1A00065202020203D20004C6F636B2066757336
:10E1B000652020203D20004D617220203720323024
:10E1C000313300312E362E3800342E332E350056A2
:10E1D00023202020414444522020206F7020636F70
:10E1E00064652020202020696E73747275637469E1
:10E1F0006F6E2061646472202020496E74657272B3
:10E20000757074006E6F20766563746F7200726A49
:10E210006D702020006A6D70200057686174207056
:10E220006F72743A00506F7274206E6F7420737541
:10E2300070706F72746564004D7573742062652030
:10E2400061206C6574746572002000577269747483
:10E25000696E672045450052656164696E672045B7
:10E26000450045452065727220636E743D00504F35
:10E27000525400303D5A65726F2061646472003FF1
:10E280003D43505520737461747300403D454550C3
:10E29000524F4D207465737400423D426C696E6B41
:10E2A000204C454400453D44756D70204545505215
:10E2B0004F4D00463D44756D7020464C415348001B
:10E2C000483D48656C70004C3D4C69737420492F83
:10E2D0004F20506F72747300513D51756974005234
:10E2E0003D44756D702052414D00563D73686F7707
:10E2F00020696E7465727275707420566563746FF0
:10E30000727300593D506F727420626C696E6B00BD
:10E310002A0011241FBECFEFD1E2DEBFCDBF01E046
:10E320000CBF12E0A0E0B2E0EEE1FDEF03E00BBFB6
:10E3300002C007900D92A030B107D9F712E0A0E01B
:10E34000B2E001C01D92AE30B107E1F70F9460F367
:10E350000D948DFE01E20EBF0FEF0DBF11241FBE05
:10E360000D9460F30D9400F020E030E040ED57E0B4
:10E3700005C0FA013197F1F72F5F3F4F2817390792
:10E38000C0F308959C01260F311DC901A0E0B0E043
:10E390002F5F3F4FABBFFC018791882361F08093D3
:10E3A000C6008091C00086FFFCCF8091C0008064D1
:10E3B0008093C000EACF08958DE08093C6008091DD
:10E3C000C00086FFFCCF8091C00080648093C000B5
:10E3D0008AE08093C6008091C00086FFFCCF8091C8
:10E3E000C00080648093C00008950F94C2F10F9420
:10E3F000DCF10895FC019081992359F09093C600B7
:10E400008091C00086FFFCCF8091C0008064809323
:10E41000C0003196992379F70895282F982F929567
:10E420009F70892F805D8A3308F0895F8093C600D2
:10E430008091C00086FFFCCF8091C00080648093F3
:10E44000C000822F8F70982F905D9A3308F0995FEB
:10E450009093C6008091C00086FFFCCF8091C000E1
:10E4600080648093C00008959C01FB01853691056E
:10E470001CF46330710594F0C90164E670E00F94F8
:10E480002EFE605D7F4F6093C6008091C00086FFC6
:10E49000FCCF8091C00080648093C0002B30310598
:10E4A00014F43297B4F0C90164E670E00F942EFEC4
:10E4B0006AE070E00F942EFE605D7F4F6093C600AF
:10E4C0008091C00086FFFCCF8091C0008064809363
:10E4D000C000C9016AE070E00F942EFEC0968093E0
:10E4E000C6008091C00086FFFCCF8091C000806490
:10E4F0008093C00008951F93182F8EE692EE60E07F
:10E500000F94C2F11093C6008091C00086FFFCCF2B
:10E510008091C00080648093C0000F94DCF11F9153
:10E5200008952F923F924F925F926F927F928F92B7
:10E530009F92AF92BF92CF92DF92EF92FF920F9392
:10E540001F93DF93CF93CDB7DEB762970FB6F894E2
:10E55000DEBF0FBECDBF382E622ECA01DB015C01CB
:10E560006D01772420E2222E2E010894411C511CBB
:10E570008BC081E0A81680E0B80681E0C80680E084
:10E58000D80628F0C601AA27BB270F940DF2BB2797
:10E59000AD2D9C2D8B2D0F940DF28A2D0F940DF225
:10E5A0002092C6008091C00086FFFCCF8091C00001
:10E5B00080648093C0009DE29093C6008091C0006B
:10E5C00086FFFCCF8091C00080648093C0002092C1
:10E5D000C6008091C00086FFFCCF8091C00080649F
:10E5E0008093C00019828601750188249924A1E0D6
:10E5F0003A1651F03A1620F0B2E03B1661F409C029
:10E600000BBFF701779007C0C7010F9477FE782EF4
:10E6100002C0F7017080872D0F940DF22092C60082
:10E620008091C00086FFFCCF8091C0008064809301
:10E63000C000872D8052F401EF70F0708F3520F408
:10E64000E40DF51D708204C0E40DF51D8EE280839B
:10E650000894E11CF11C011D111D0894811C911CE2
:10E6600090E18916910409F0C2CF80E190E0A0E02A
:10E67000B0E0A80EB91ECA1EDB1E198AC2010F9493
:10E68000FAF10F94DCF16A94662009F072CF629679
:10E690000FB6F894DEBF0FBECDBFCF91DF911F91B3
:10E6A0000F91FF90EF90DF90CF90BF90AF909F9031
:10E6B0008F907F906F905F904F903F902F90089534
:10E6C0002F923F924F925F926F927F928F929F9282
:10E6D000AF92BF92CF92DF92EF92FF920F931F9370
:10E6E000DF93CF93CDB7DEB7CD53D1400FB6F894BB
:10E6F000DEBF0FBECDBF01E20EBF0FEF0DBF94B75F
:10E70000F894A89514BE80916000886180936000A1
:10E7100010926000789493FF05C0E0910002F091A0
:10E7200001021995279A2F9A8091C00082608093E8
:10E73000C00080E18093C40088E18093C1000000A4
:10E74000EE24FF24870144E0A42EB12CCC24DD2448
:10E7500024C0C5010197F1F70894E11CF11C011DCB
:10E76000111D21E2E2162EE4F20620E0020720E06D
:10E77000120718F031E0C32ED12CC801B70127ECE5
:10E780003BE140E050E00F9441FE611571058105C9
:10E79000910519F485B1805885B98091C00087FD35
:10E7A00003C0C114D104A9F2A6014F5F5F4FC25E3E
:10E7B000DE4F59834883CE51D140C25EDE4F8881FF
:10E7C0009981CE51D140019711F00D9410FEC05D9A
:10E7D000DE4F19821882C053D14060E0C15DDE4F28
:10E7E0001882CF52D14088249924C35DDE4F19820C
:10E7F0001882CD52D140C05EDE4F188219821A8233
:10E800001B82C052D140CE5CDE4F188219821A8220
:10E810001B82C253D140EE24FF2487010BBFF701B6
:10E8200007911691C45CDE4F19830883CC53D14005
:10E830000D940BFEC25EDE4F28813981CE51D1404E
:10E840002130310509F52091C600C25EDE4F1982E4
:10E850001882CE51D14022C02F5F3F4F4F4F5F4FA4
:10E86000213082E138078AE7480780E0580780F0C6
:10E87000C45CDE4FE881F981CC53D140EF5FFF4F9C
:10E8800019F0EE27FF27099420E030E040E050E047
:10E890008091C00087FFE0CF2091C600C35DDE4FAE
:10E8A00048815981CD52D1404F5F5F4FC35DDE4FEC
:10E8B00059834883CD52D140213209F063C64A3092
:10E8C000510508F05FC60894811C911C53E0851621
:10E8D000910409F059C600E010E018C081E280936D
:10E8E000C6008091C00086FFFCCF8091C00080648C
:10E8F0008093C0002F5F3F4F2931310579F70F9486
:10E90000DCF10F5F1F4F0530110519F020E030E0FA
:10E91000E5CF10920A0210920B0210920C02109294
:10E920000D02109206021092070210920802109235
:10E930000902109202021092030210920402109235
:10E9400005028FEE90EE60E00F94F5F180E191EE1C
:10E9500060E00F94C2F18091C00087FFFCCF9091DE
:10E96000C600903608F09F759032B8F09093C600BC
:10E970008091C00086FFFCCF8091C00080648093AE
:10E98000C000A0E2A093C6008091C00086FFFCCF2B
:10E990008091C00080648093C000983409F4D7C18E
:10E9A0009934B8F4923409F459C1933458F490333B
:10E9B00019F1903308F4E3C59F33A1F1903409F0C5
:10E9C000DEC5BDC0953409F470C1963409F0D7C5D1
:10E9D00098C1923509F42BC2933538F49C3409F46C
:10E9E000F5C1913509F0CBC518C2963509F445C279
:10E9F000993509F0C4C567C483E792EE62E00F94CD
:10EA0000F5F110920602109207021092080210927D
:10EA1000090210920A0210920B0210920C0210923C
:10EA20000D0213C18FE792EE62E00F94F5F18FEEC5
:10EA300090EE60E00F94F5F181E291EE60E00F94CA
:10EA4000C2F187EB91EE60E00F94F5F180E391EE77
:10EA500060E00F94C2F184EE90EE60E00F94F5F167
:10EA60008FE391EE60E00F94C2F186E090E061E008
:10EA700070E00F9434F20F94DCF18DE591EE60E0DC
:10EA80000F94C2F189EC91EE60E00F94F5F18EE401
:10EA900091EE60E00F94C2F183EC91EE60E00F9490
:10EAA000F5F18CE691EE60E00F94C2F18EE10F94E7
:10EAB0000DF288E90F940DF281E00F940DF20F949E
:10EAC000DCF18BE791EE60E00F94C2F119E0E0E039
:10EAD000F0E010935700E4918E2F0F940DF20F94F5
:10EAE000DCF18AE891EE60E00F94C2F1E3E0F0E03F
:10EAF00010935700E4918E2F0F940DF20F94DCF1D8
:10EB000089E991EE60E00F94C2F1E2E0F0E0109349
:10EB10005700E4918E2F0F940DF20F94DCF188EAE8
:10EB200091EE60E00F94C2F1E1E0F0E01093570045
:10EB30001491812F0F940DF20F94DCF107CF8BE825
:10EB400092EE62E00F94F5F18BE492EE60E00F94A8
:10EB5000F5F10F94DCF100E010E019C0C8016F2D51
:10EB60000F947FFEFF2031F489E492EE60E00F9471
:10EB7000C2F10BC0F092C6008091C00086FFFCCFAE
:10EB80008091C00080648093C0000F5F1F4FC80158
:10EB900081519F41A0E0B0E0ABBFFC01F790BAE229
:10EBA000FB1621F0E2E000301E07C1F60F94DCF105
:10EBB0000F94DCF187E592EE60E00F94F5F10F948D
:10EBC000DCF1CC24DD2400E010E01EC0C8010F946D
:10EBD00077FEF82E882331F489E492EE60E00F94FA
:10EBE000C2F10BC08093C6008091C00086FFFCCFAD
:10EBF0008091C00080648093C000FE1419F00894D6
:10EC0000C11CD11C0F5F1F4FC80181519F41A0E063
:10EC1000B0E0ABBFFC01E790FAE2EF1621F022E092
:10EC20000030120799F60F94DCF10F94DCF182E6C4
:10EC300092EE60E00F94C2F1C60161E070E00F94C3
:10EC400034F20F94DCF10F94DCF110920202109276
:10EC50000302109204021092050278CE89E992EE26
:10EC600062E00F94F5F1279A2F9A16C02F9880E052
:10EC700090E0E0EDF7E03197F1F7019684369105E9
:10EC8000C1F72F9A80E090E0E0EDF7E03197F1F7DF
:10EC9000019684369105C1F78091C00087FFE6CFC9
:10ECA0008091C00087FFFCCF64C485EA92EE62E0E9
:10ECB0000F94F5F140910202509103026091040219
:10ECC0007091050281E020E10F9491F2809102029F
:10ECD00090910302A0910402B091050280509F4FD1
:10ECE000AF4FBF4F8093020290930302A0930402A0
:10ECF000B093050280509041A040B04008F426CE69
:10ED0000A4CF83EB92EE62E00F94F5F140910602FE
:10ED100050910702609108027091090280E020E1A1
:10ED20000F9491F28091060290910702A09108023F
:10ED3000B091090280509F4FAF4FBF4F80930602A2
:10ED400090930702A0930802B0930902FFCD80ECD4
:10ED500092EE62E00F94F5F183E792EE60E00F949B
:10ED6000F5F18FE792EE60E00F94F5F18BE892EE0B
:10ED700060E00F94F5F189E992EE60E00F94F5F10F
:10ED800085EA92EE60E00F94F5F183EB92EE60E09D
:10ED90000F94F5F180EC92EE60E00F94F5F187ECC2
:10EDA00092EE60E00F94F5F188ED92EE60E00F9442
:10EDB000F5F18FED92EE60E00F94F5F18AEE92EEB0
:10EDC00060E00F94F5F183E093EEBDCD87EC92EE19
:10EDD00062E00F94F5F181E40F947BF282E40F94EA
:10EDE0007BF283E40F947BF284E40F947BF285E45E
:10EDF0000F947BF286E40F947BF287E40F947BF20E
:10EE000088E40F947BF28AE40F947BF28BE40F94F6
:10EE10007BF28CE40F947BF299CD88ED92EE62E068
:10EE20000F94F5F1772473948824992409C48FED05
:10EE300092EE62E00F94F5F140910A0250910B02BC
:10EE400060910C0270910D0282E020E10F9491F22A
:10EE500080910A0290910B02A0910C02B0910D02D8
:10EE600080509F4FAF4FBF4F80930A0290930B0289
:10EE7000A0930C02B0930D0269CD8AEE92EE62E08F
:10EE80000F94F5F184EE90EE60E00F94F5F18FECC5
:10EE900091EE60E00F94F5F1662477244301CC5D98
:10EEA000DE4F19821882C452D140D401C301B695F5
:10EEB000A79597958795CA5DDE4F88839983AA8326
:10EEC000BB83C652D140CC5DDE4FA881B981C4520C
:10EED000D1401196CC5DDE4FB983A883C452D14096
:10EEE000CD0162E070E00F9434F2B0E2B093C6005E
:10EEF0008091C00086FFFCCF8091C0008064809329
:10EF0000C000EDE2E093C6008091C00086FFFCCF18
:10EF10008091C00080648093C000F0E2F093C6004E
:10EF20008091C00086FFFCCF8091C00080648093F8
:10EF3000C000CA5DDE4FE880F9800A811B81C6529D
:10EF4000D140BB27A12F902F8F2D0F940DF2CA5DBA
:10EF5000DE4F8881C652D1400F940DF2B0E2FB2EF5
:10EF6000F092C6008091C00086FFFCCF8091C00067
:10EF700080648093C0000DE30093C6008091C000C0
:10EF800086FFFCCF8091C00080648093C00010E2B7
:10EF90001093C6008091C00086FFFCCF8091C00016
:10EFA00080648093C0008BBEF3012791C65DDE4F65
:10EFB0002883CA52D140A22EBB24CC24DD2408943D
:10EFC000611C711C811C911C8BBEF3018791282E42
:10EFD0003324442455240894611C711C811C911C09
:10EFE0008BBEF3013791C55DDE4F3883CB52D140E4
:10EFF0000894611C711C811C911C8BBEF30147910C
:10F00000C45DDE4F4883CC52D140ADEFEA2EAFEF66
:10F01000FA2EAFEF0A2FAFEF1A2F6E0C7F1C801E57
:10F02000911E142D032DF22CEE24EA0CFB1C0C1D5A
:10F030001D1D0F940DF220E22093C6008091C000A8
:10F0400086FFFCCF8091C00080648093C000C65DC5
:10F05000DE4F8881CA52D1400F940DF230E23093D6
:10F06000C6008091C00086FFFCCF8091C000806404
:10F070008093C000C45DDE4F8881CC52D1400F9494
:10F080000DF240E24093C6008091C00086FFFCCFA5
:10F090008091C00080648093C000C55DDE4F888190
:10F0A000CB52D1400F940DF250E25093C6008091A4
:10F0B000C00086FFFCCF8091C00080648093C000B8
:10F0C0008FEFE8168FEFF80680E0080780E018075A
:10F0D00031F484E092EE60E00F94C2F1DFC0D80119
:10F0E000C7018070907CA070B0708050904CA040A0
:10F0F000B040D1F52FEF3FE340E050E0E222F322B1
:10F1000004231523CA5DDE4FA880B980CA80DB8046
:10F11000C652D140AE0CBF1CC01ED11EAA0CBB1CD7
:10F12000CC1CDD1C8EE092EE60E00F94C2F1BB2798
:10F13000A12F902F8F2D0F940DF28E2D0F940DF285
:10F1400030E23093C6008091C00086FFFCCF8091F2
:10F15000C00080648093C0004EE34093C60080915D
:10F16000C00086FFFCCF87C08EE09EEFA0E0B0E03D
:10F17000E822F9220A231B239CE0E91694E9F90608
:10F1800090E0090790E0190709F088C0C45DDE4FE0
:10F19000A881CC52D140EA2EFF2400E010E0102FCD
:10F1A0000F2DFE2CEE24C55DDE4FB881CB52D14031
:10F1B000EB0EF11C011D111DD601C501817090706F
:10F1C000A070B070DC0199278827E80EF91E0A1F8D
:10F1D0001B1F20EF30E040E050E0A222B322C42207
:10F1E000D52241E1AA0CBB1CCC1CDD1C4A95D1F7F1
:10F1F000EA0CFB1C0C1D1D1D81E090E0A0E0B0E0BE
:10F20000282239224A225B2235E1220C331C441C7D
:10F21000551C3A95D1F7E20CF31C041D151D57013E
:10F220006801AA0CBB1CCC1CDD1C85E192EE60E0E1
:10F230000F94C2F1C801AA27BB270F940DF2BB2778
:10F24000A12F902F8F2D0F940DF28E2D0F940DF274
:10F2500090E29093C6008091C00086FFFCCF809121
:10F26000C00080648093C000AEE3A093C60080918C
:10F27000C00086FFFCCF8091C00080648093C000F6
:10F28000C601AA27BB270F940DF2BB27AD2D9C2DDD
:10F290008B2D0F940DF28A2D0F940DF20F94DCF14B
:10F2A000CC5DDE4FE881F981C452D140F99709F471
:10F2B0004DCBF4E0EF2EF12C012D112D6E0C7F1CA7
:10F2C000801E911EF2CD83E093EE62E00F94F5F183
:10F2D0008AE192EE60E00F94C2F18091C00087FF56
:10F2E000FCCF1091C6001F751093C6008091C0001E
:10F2F00086FFFCCF8091C00080648093C0000F9493
:10F30000DCF1812F81548A3108F036C1163409F4BA
:10F3100095C0173490F4133409F44EC0143430F40B
:10F320001134F1F0123409F01DC130C0143409F465
:10F3300059C0153409F016C16BC01A3409F4C4C0A1
:10F340001B3438F4173409F48FC0183409F00AC19B
:10F35000A1C01B3409F4D2C01C3409F003C1E8C0B9
:10F360008FEF81B90DC082B1809582B980E090E0C5
:10F37000E0EDF7E03197F1F70196883C9105C1F790
:10F380008091C00087FFEFCF12B8EFC08FEF84B934
:10F390000DC085B1809585B980E090E0E0EDF7E0A3
:10F3A0003197F1F70196883C9105C1F78091C00033
:10F3B00087FFEFCF15B8D9C08FEF87B90DC088B1DF
:10F3C000809588B980E090E0E0EDF7E03197F1F7C3
:10F3D0000196883C9105C1F78091C00087FFEFCF6F
:10F3E00018B8C3C08FEF8AB90DC08BB180958BB9A7
:10F3F00080E090E0E0EDF7E03197F1F70196883C8E
:10F400009105C1F78091C00087FFEFCF1BB8ADC059
:10F410008FEF8DB90DC08EB180958EB980E090E0F0
:10F42000E0EDF7E03197F1F70196883C9105C1F7DF
:10F430008091C00087FFEFCF1EB897C08FEF80BBD1
:10F440000DC081B3809581BB80E090E0E0EDF7E0F6
:10F450003197F1F70196883C9105C1F78091C00082
:10F4600087FFEFCF11BA81C08FEF83BB0DC084B38C
:10F47000809584BB80E090E0E0EDF7E03197F1F714
:10F480000196883C9105C1F78091C00087FFEFCFBE
:10F4900014BA6BC08FEF809301010FC080910201FD
:10F4A00080958093020180E090E0E0EDF7E03197F5
:10F4B000F1F70196883C9105C1F78091C00087FF64
:10F4C000EDCF1092020151C08FEF809304010FC065
:10F4D0008091050180958093050180E090E0E0ED4A
:10F4E000F7E03197F1F70196883C9105C1F78091DB
:10F4F000C00087FFEDCF1092050137C08FEF8093DA
:10F5000007010FC08091080180958093080180E079
:10F5100090E0E0EDF7E03197F1F70196883C910536
:10F52000C1F78091C00087FFEDCF109208011DC088
:10F530008FEF80930A010FC080910B01809580931B
:10F540000B0180E090E0E0EDF7E03197F1F70196F4
:10F55000883C9105C1F78091C00087FFEDCF1092E4
:10F560000B0103C085E292EEEEC98091C00087FFD7
:10F57000FCCF8091C600EAC988E392EEE4C98CE131
:10F5800091EEE1C988249924933011F1943028F444
:10F59000913089F09230B8F408C0953061F195301F
:10F5A000F0F0963009F048C043C02B3109F042C951
:10F5B00091E06BE13FC96227C15DDE4F2883CF52E6
:10F5C000D14092E037C9B22FA0E0622793E032C960
:10F5D000822F90E0A82BB92B622794E02BC92E3004
:10F5E00009F039C3622795E0C05DDE4F19821882A9
:10F5F000C053D1401FC9E1E0F0E0EC0FFD1FC05D3A
:10F60000DE4F08811981C053D140E00FF11F2083E4
:10F610000F5F1F4FC05DDE4F19830883C053D14079
:10F6200062270A171B0709F005C9D80196E002C92D
:10F63000261709F010C303C0973009F0FBC87724E0
:10F640009981933109F412C19431C8F4963009F4C8
:10F65000D8C0973050F4923009F406C1933009F4C1
:10F660006DC0913009F059C253C0913109F477C08F
:10F67000923108F0BBC0903109F04FC2F5C098310B
:10F6800009F487C0993150F4953109F4EFC09531F0
:10F6900008F4C6C1963109F040C2C2C19A3109F4DA
:10F6A0006CC09A3108F491C09B3109F45BC09D3164
:10F6B00009F033C29D81903359F48F81882311F46E
:10F6C0009EE11CC0813011F091E018C098E916C08D
:10F6D000892F807591F0903539F4E0E0F0E089E011
:10F6E0008093570094910AC0983539F4E3E0F0E034
:10F6F00089E080935700949101C090E01A821B82A8
:10F700008D818C831D829E831F8227E030E009C299
:10F710001A8288E08B8381E48C8386E58D8382E581
:10F720008E8389E48F8383E5888780E589878FE5E9
:10F730008A8782E38B872BE030E0F3C18A818139AD
:10F7400041F0823941F0803911F48FE005C080E04A
:10F7500003C082E001C08AE01A828B8344C0772410
:10F76000739482C08D81882311F48EE12CC0813086
:10F7700011F081E028C088E926C01A82E1E0F0E0BB
:10F7800089E08093570084918B831C8224E030E0D1
:10F79000C8C18B81803589F48C81883039F4E2E0EE
:10F7A000F0E089E08093570084910DC0E0E0F0E044
:10F7B00089E080935700849106C0E3E0F0E089E09F
:10F7C0008093570084911A82DFCF8D81836C99E0FA
:10F7D000E1E0F0E0082E90935700E89507B600FCB2
:10F7E000FDCF1A821B8223E030E09BC180EC8A832C
:10F7F000CE5CDE4F188219821A821B82C253D1401E
:10F800008EC18A8190E0A0E0B0E0582F44273327D2
:10F8100022278B8190E0A0E0B0E0DC0199278827C7
:10F82000282B392B4A2B5B2B8D8190E0A0E0B0E098
:10F83000282B392B4A2B5B2B8C8190E0A0E0B0E089
:10F84000BA2FA92F982F8827282B392B4A2B5B2BCF
:10F85000220F331F441F551FC05EDE4F288339839C
:10F860004A835B83C052D1401A8259C13A81C95C34
:10F87000DE4F3883C753D140CA5CDE4F1882C6536F
:10F88000D1408B81C82EDD24CA5CDE4F488159816E
:10F89000C653D140C42AD52A933109F082C0CE5C28
:10F8A000DE4F88819981AA81BB81C253D1408050AB
:10F8B000904CA340B04030F583E0CE5CDE4FE88052
:10F8C000F9800A811B81C253D140F70100935B008C
:10F8D00080935700E89507B600FCFDCFCE5CDE4F65
:10F8E000088119812A813B81C253D14000501F4FAA
:10F8F0002F4F3F4FCE5CDE4F088319832A833B8313
:10F90000C253D140C05EDE4F488159816A817B81FC
:10F91000C052D140DE011B9631E08C9111962C91A2
:10F9200011971296C75CDE4F2883C953D140C85C3B
:10F93000DE4F1882C853D14090E0C85CDE4FE881AA
:10F94000F981C853D1408E2B9F2B0C01FA01609393
:10F950005B0030935700E89511244E5F5F4F6F4F67
:10F960007F4F0EEFE02E0FEFF02ECE0CDF1CC114F8
:10F97000D10499F685E0C05EDE4F088119812A81A5
:10F980003B81C052D140F80120935B008093570027
:10F99000E89507B600FCFDCF81E180935700E8951C
:10F9A00035C0C05EDE4F88819981AA81BB81C0527B
:10F9B000D140B695A795979587957C018601ABE0D8
:10F9C000AA2EB12CAC0EBD1E0BC0D5016D915D01F0
:10F9D000C7010F947FFE0894E11CF11C01501040F8
:10F9E0000115110591F7A60160E070E0440F551F65
:10F9F000661F771FC05EDE4FE880F9800A811B8199
:10FA0000C052D1404E0D5F1D601F711F1A82C05E33
:10FA1000DE4F488359836A837B83C052D1407FC0C5
:10FA2000FA80C55CDE4FF882CB53D140C65CDE4F16
:10FA30001882CA53D1408B81C82EDD24C65CDE4FAC
:10FA400008811981CA53D140C02AD12A1A828981DA
