:100000001EC100004DC100004BC1000049C10000ED
:1000100047C1000045C1000043C1000041C10000CC
:100020003FC100003DC100003BC1000039C10000DC
:1000300037C10000DEC4000033C1000031C1000040
:100040002FC100002DC100002BC1000029C10000FC
:1000500027C1000025C1000023C10000BCC500006D
:100060001FC10000F6C30000CBC3000019C100008F
:1000700017C1000015C1000013C1000011C100002C
:100080000FC100000DC100000BC1000009C100003C
:1000900007C1000005C1000003C1000001C100004C
:1000A000FFC00000FDC00000FBC00000F9C0000060
:1000B000F7C00000F5C00000F3C00000F1C0000070
:1000C000EFC00000EDC00000EBC00000E9C0000080
:1000D000E7C00000E5C00000E3C00000E1C0000090
:1000E000DFC000008E029102800284028A02C802F0
:1000F000950299029F02A302A702AD02B102B502C6
:10010000C802BB02BF02C302BF11D811F6111912F7
:100110002C134E1336146514000021002400270010
:100120002A002D0030003300010100000401070106
:100130000A01000020002300260029002C002F00C7
:1001400032000001000003010601090100000A0B52
:1001500002090C0D0E080703040100000000000056
:10016000000000000000000000000000000000008F
:10017000000000000000000012111000000000004C
:10018000000000000000000000000000000000006F
:10019000000001021020200808102040102040809C
:1001A000020102010804020101020408102040803B
:1001B00080402010080402018004020180402010C9
:1001C0000804020108040201010204081020408012
:1001D00001020408102040800000220025002800B1
:1001E0002B002E003100340002010000050108013F
:1001F0000B010505050507050808080802020202AB
:100200000A0A0808040404040101010101010101B2
:100210000303030303030303040707070C0C0C0C7D
:100220000C0C0C0C02020202060606060606060666
:100230000B0B0B0B0B0B0B0B0200561A401011246F
:100240001FBECFEFD1E2DEBFCDBF00E00CBF15E097
:10025000A0E0B2E0E2E0F0E400E00BBF02C00790F3
:100260000D92A430B107D9F726E0A4E0B5E001C0B3
:100270001D92AE36B207E1F711E0CEE1D1E000E029
:1002800006C021970109802FFE010E94271BCD3156
:10029000D10780E00807A9F70E9444100C94F01FD2
:1002A000AFCECF92DF92EF92FF920F931F93CF9337
:1002B000DF936C017A018B01C0E0D0E0CE15DF0541
:1002C00089F0D8016D918D01D601ED91FC910190DD
:1002D000F081E02DC6011995892B11F47E0102C031
:1002E0002196ECCFC701DF91CF911F910F91FF9025
:1002F000EF90DF90CF900895FC01918D828D98173B
:1003000061F0828DDF01A80FB11D5D968C91928DF9
:100310009F5F9F73928F90E008958FEF9FEF0895F6
:10032000FC01918D828D981731F0828DE80FF11DBF
:10033000858D90E008958FEF9FEF0895FC01918DDA
:10034000228D892F90E0805C9F4F821B91098F73D3
:100350009927089584E795E0F1DF21E0892B09F4DE
:1003600020E0822F0895FC01848DDF01A80FB11DCC
:10037000A35ABF4F2C91848D90E001968F739927DB
:10038000848FA689B7892C93A089B1898C918064C8
:100390008C93938D848D981306C00288F389E02D89
:1003A00080818F7D80830895EF92FF920F931F933A
:1003B000CF93DF93EC0181E0888F9B8D8C8D981318
:1003C00005C0E889F989808185FD23C0F62E0B8D53
:1003D00010E00F5F1F4F0F731127E02E8C8DE81276
:1003E0000BC00FB607FCFACFE889F989808185FF39
:1003F000F5CFCE01B8DFF2CF8B8DFE01E80FF11DF6
:10040000E35AFF4FF0820B8FEA89FB89808180627B
:1004100007C0EE89FF896083E889F989808180645B
:10042000808381E090E0DF91CF911F910F91FF9049
:10043000EF900895CF93DF93EC01888D8823C1F06E
:10044000EA89FB89808185FD05C0A889B9898C91DD
:1004500086FD0EC00FB607FCF5CF808185FFF2CF79
:10046000A889B9898C9185FFEDCFCE017CDFE8CFDB
:10047000DF91CF91089580E090E0892B19F06ADF39
:10048000811125C080E090E0892B41F080E090E070
:10049000892B21F00E94000081111CC080E090E0B7
:1004A000892B41F080E090E0892B21F00E94000030
:1004B000811113C080E090E0892BA1F080E090E0F2
:1004C000892B81F00E94000081110AC008950E94CA
:1004D0000000D8CF0E940000E1CF0E940000EACFC8
:1004E0000C940000089590E0FC013197E231F10591
:1004F00008F04EC08827EE58FF4F8F4F0C94271BF3
:10050000809180008F7703C0809180008F7D8093E1
:100510008000089580918000877FF9CF84B58F7720
:1005200002C084B58F7D84BD08958091B0008F771F
:1005300003C08091B0008F7D8093B00008958091BA
:1005400090008F7707C0809190008F7D03C08091CD
:100550009000877F8093900008958091A0008F770E
:1005600007C08091A0008F7D03C08091A000877F8D
:100570008093A0000895809120018F7707C080911B
:1005800020018F7D03C080912001877F809320010F
:1005900008953FB7F89480911D0590911E05A09194
:1005A0001F05B091200526B5A89B05C02F3F19F067
:1005B0000196A11DB11D3FBFBA2FA92F982F8827E3
:1005C000820F911DA11DB11DBC01CD0142E0660F3E
:1005D000771F881F991F4A95D1F708950E94941E8E
:1005E000EF92FF920F931F93CF93DF93EC017B0168
:1005F0008A0188819981009729F02A813B812417FB
:100600003507F8F4B8016F5F7F4F0E94B01D009767
:1006100059F0998388831B830A832C813D81232B86
:1006200081F4FC0110820DC088819981009711F03E
:100630000E94181D198218821D821C821B821A8238
:1006400007C01D830C83B701888199810E94A11E78
:10065000CE01DF91CF911F910F91FF90EF90089500
:10066000FC01808191810C94181DFC011182108283
:1006700013821282158214826115710549F0FB0103
:1006800001900020E9F73197AF01461B570BA8CF27
:100690000895DC01ED91FC91DB0114964D915C9184
:1006A00015976D917C910280F381E02D199461156D
:1006B000710579F0FB0101900020E9F73197AF0156
:1006C000461B570BDC01ED91FC910280F381E02D7C
:1006D000199480E090E008954F925F926F927F921C
:1006E000EF92FF920F931F93CF93DF93CDB7DEB7B7
:1006F000A1970FB6F894DEBF0FBECDBF7C01FA0103
:10070000CB0119A2223008F42AE08E010F5D1F4FA1
:10071000422E512C612C712CBF01A30192010E9429
:10072000E91AF901CA01015011096A3014F4605D37
:1007300001C0695CD8016C93232B242B252B61F716
:10074000B801C701B4DFA1960FB6F894DEBF0FBEA3
:10075000CDBFDF91CF911F910F91FF90EF907F90D0
:100760006F905F904F900895CF92DF92EF92FF923B
:100770000F931F93CF93DF93EC016A017B01211547
:10078000310579F4E881F9810190F081E02D642F41
:10079000DF91CF911F910F91FF90EF90DF90CF905D
:1007A00019942A30310501F577FF1DC0E881F981E0
:1007B0000190F081E02D6DE219958C0144275527B9
:1007C000BA014C195D096E097F092AE0CE0184DF68
:1007D000800F911FDF91CF911F910F91FF90EF90AC
:1007E000DF90CF9008952AE0B701A601CE01DF91F6
:1007F000CF911F910F91FF90EF90DF90CF906CCF32
:100800001F920F920FB60F9211240BB60F922F93D7
:100810003F934F935F936F937F938F939F93AF9388
:10082000BF93EF93FF9384E795E09DDDFF91EF91F8
:10083000BF91AF919F918F917F916F915F914F91F8
:100840003F912F910F900BBE0F900FBE0F901F90F6
:1008500018951F920F920FB60F9211240BB60F929C
:100860002F938F939F93EF93FF93E0918405F091E3
:1008700085058081E0918A05F0918B0582FD12C08B
:10088000908180918D058F5F8F7320918E058217E7
:1008900051F0E0918D05F0E0EC58FA4F958F809380
:1008A0008D0501C08081FF91EF919F918F912F91D4
:1008B0000F900BBE0F900FBE0F901F901895CF9307
:1008C000DF93282F30E0F901E45BFE4F8491F901BA
:1008D000EE56FE4FD491F901EE50FE4FC491CC2359
:1008E00089F0811100DEEC2FF0E0EE0FFF1FEE5CCF
:1008F000FE4FA591B491EC91ED2381E090E021F4BD
:1009000080E002C080E090E0DF91CF9108951F93D6
:10091000CF93DF93282F30E0F901E45BFE4F849101
:10092000F901EE56FE4FD491F901EE50FE4FC491FD
:10093000CC23C1F0162F8111D6DDEC2FF0E0EE0FA5
:10094000FF1FE852FE4FA591B4918FB7F894111193
:1009500005C09C91ED2FE095E92302C0EC91ED2BB1
:10096000EC938FBFDF91CF911F91089590910A0270
:1009700098133DC0E8E3F2E0E4919FEF90930A0200
:10098000E230C9F050F4EE2399F0E13081F5909116
:100990006F009D7F90936F002AC0E43019F1E0F062
:1009A000E53029F5909173009D7F909373001FC0EF
:1009B00010926E001CC0909170009D7F909370000B
:1009C00091E09093B0009091B100987F94609093E3
:1009D000B1001092B3000BC0909171009D7F909375
:1009E000710005C0909172009D7F9093720060E04D
:1009F0008ECF1F920F920FB60F9211240BB60F924B
:100A00002F933F934F935F936F937F938F939F9316
:100A1000AF93BF93EF93FF9380916A0590916B051D
:100A2000A0916C05B0916D05892B8A2B8B2B51F110
:100A300080916705E0916805F091690590818927AB
:100A4000808380916A0590916B05A0916C05B091AF
:100A50006D05181619061A061B06BCF480916A0566
:100A600090916B05A0916C05B0916D050197A1095E
:100A7000B10980936A0590936B05A0936C05B093C0
:100A80006D0503C080910A0271DFFF91EF91BF9164
:100A9000AF919F918F917F916F915F914F913F9116
:100AA0002F910F900BBE0F900FBE0F901F901895B7
:100AB000CF93DF93EC0160E08E8129DF61E08E81CE
:100AC00026DF60E08E8123DF8BE891E00197F1F76C
:100AD000DF91CF910895CF93DF9390E0FC01EE5624
:100AE000FE4F2491FC01EE50FE4F8491882361F16A
:100AF00090E0880F991FFC01E85EFE4FC591D491EC
:100B0000FC01E852FE4FA591B491611109C09FB755
:100B1000F8948881209582238883EC912E230BC042
:100B2000623061F49FB7F8943881822F80958323D7
:100B30008883EC912E2B2C939FBF06C08FB7F8941F
:100B4000E8812E2B28838FBFDF91CF9108958F925C
:100B50009F92AF92BF92CF92DF92EF92FF926B0182
:100B60007C0117DD4B015C01C114D104E104F104E7
:100B7000E9F00FDDDC01CB0188199909AA09BB094D
:100B8000883E9340A105B10578F321E0C21AD1084F
:100B9000E108F10888EE880E83E0981EA11CB11CC4
:100BA000C114D104E104F10421F7DECFFF90EF90EE
:100BB000DF90CF90BF90AF909F908F9008952FB708
:100BC000F8946091190570911A0580911B05909118
:100BD0001C052FBF08951F920F920FB60F9211247C
:100BE0002F933F938F939F93AF93BF93809119055A
:100BF00090911A05A0911B05B0911C053091180524
:100C000023E0230F2D3720F40196A11DB11D05C04F
:100C100026E8230F0296A11DB11D2093180580938D
:100C2000190590931A05A0931B05B0931C0580919C
:100C30001D0590911E05A0911F05B09120050196FC
:100C4000A11DB11D80931D0590931E05A0931F0546
:100C5000B0932005BF91AF919F918F913F912F91BC
:100C60000F900FBE0F901F901895CF92DF92EF92CA
:100C7000FF920F931F93CF93DF937C016C0187E06A
:100C8000C80ED11CC0E0D0E0062F10E0B8010C2E39
:100C900002C0759567950A94E2F76170F60181913B
:100CA0006F0135DE2196C430D10581F7C701DF9190
:100CB000CF911F910F91FF90EF90DF90CF90F8CEE2
:100CC000CF92DF92EF92FF920F931F93CF93DF9318
:100CD000EC01F62E642F8C811ADE8D818F3F11F08E
:100CE00060E015DE8F850F2D10E084FF23C06E01BC
:100CF00087E0C80ED11CE12CF12CB8010E2C02C0EB
:100D0000759567950A94E2F76170F60181916F011C
:100D1000FEDDFFEFEF1AFF0A88E0E816F10469F73D
:100D2000CE01DF91CF911F910F91FF90EF90DF9057
:100D3000CF90BECEB80184E0759567958A95E1F7AE
:100D4000CE0193DF6F2DCE01DF91CF911F910F91D7
:100D5000FF90EF90DF90CF9088CF41E0B1DF81E04E
:100D600090E0089540E0ACCF61E0FCDF8BE39FE1D1
:100D70000197F1F70895AF92BF92CF92DF92EF9271
:100D8000FF920F931F93CF93DF931F92CDB7DEB7E0
:100D90005C017B018B016C0182E0C80ED11CF80163
:100DA00061918F01C50169830E94C11F6981681724
:100DB00019F0C5010E94C91FFFEFAF1ABF0AAC149A
:100DC000BD0469F7C7010F90DF91CF911F910F917B
:100DD000FF90EF90DF90CF90BF90AF900895AF92CB
:100DE000BF92CF92DF92EF92FF920F931F93CF9318
:100DF000DF931F92CDB7DEB75C017B018B016C01E5
:100E000084E0C80ED11CF80161918F01C50169838E
:100E10000E94C11F6981681719F0C5010E94C91F8E
:100E2000FFEFAF1ABF0AAC14BD0469F7C7010F90FA
:100E3000DF91CF911F910F91FF90EF90DF90CF90B6
:100E4000BF90AF9008954F925F926F927F92AF9252
:100E5000BF92CF92DF92EF92FF920F931F93CF93A7
:100E6000DF9382E02CDD8C018091080290910902D1
:100E70000817190749F0A3DE609314057093150550
:100E800080931605909317059ADEC0901405D090B4
:100E90001505E0901605F0901705DC01CB018C19C3
:100EA0009D09AE09BF0987399105A105B10558F023
:100EB00086DE609314057093150580931605909354
:100EC0001705E80102C0C1E0D0E0109309020093C9
:100ED000080284E0F4DC7C01809106029091070214
:100EE000E816F90649F06BDE609310057093110562
:100EF000809312059093130562DE00911005109106
:100F000011052091120530911305DC01CB01801BE6
:100F1000910BA20BB30B87399105A105B10558F0D0
:100F20004EDE609310057093110580931205909327
:100F30001305870102C001E010E0F0920702E09281
:100F4000060283E0BCDC7C018091040290910502E2
:100F5000E816F90649F033DE60930C0570930D0531
:100F600080930E0590930F052ADE40900C0550905B
:100F70000D0560900E0570900F05DC01CB01841902
:100F80009509A609B70987399105A105B10558F05A
:100F900016DE60930C0570930D0580930E059093FB
:100FA0000F05570103C0AA24A394B12CF0920502A7
:100FB000E092040286E083DC7C0180910202909141
:100FC0000302E816F90649F0FADD6093080570930C
:100FD000090580930A0590930B05F1DD4090080503
:100FE0005090090560900A0570900B05DC01CB015B
:100FF00084199509A609B7098F3E9240A105B1054C
:1010000058F0DDDD609308057093090580930A05AB
:1010100090930B05670103C0CC24C394D12CF092AC
:101020000302E092020289E04ADC7C018091000226
:1010300090910102E816F90649F0C1DD60930405BC
:10104000709305058093060590930705B8DD4090E1
:101050000405509005056090060570900705DC01B9
:10106000CB0184199509A609B7098F3E9240A105C5
:10107000B10558F0A4DD60930405709305058093D5
:10108000060590930705970102C021E030E0F09239
:101090000102E0920002209781F480912105909155
:1010A0002205009709F54AEF50E060E070E080ED1E
:1010B00097E046D381E090E012C001151105C9F513
:1010C00080912105909122050097D9F44AEF50E0D4
:1010D00060E070E084E398E033D382E090E09093A6
:1010E00042058093410547C182309105B1F44AEF32
:1010F00050E060E070E084E398E022D383E090E089
:10110000EECF0297B1F44AEF50E060E070E084E384
:1011100098E016D384E090E0E2CF049751F44AEFD0
:1011200050E060E070E084E398E00AD385E090E06E
:10113000D6CFAB2881F480913F059091400502976E
:1011400050F44AEF50E060E070E084E398E0F8D2B9
:1011500087E090E0C4CF012BF9F4809121059091B4
:1011600022058430910551F44AEF50E060E070E0D0
:1011700084E398E0E5D286E090E0B1CF069761F491
:101180004AEF50E060E070E084E398E0D9D210923A
:10119000420510924105EFC0CD2B69F480914105C5
:1011A00090914205AC014B7F4330510509F48ECF3D
:1011B000059709F4A8CFCD2809F06EC060E080E063
:1011C00013D689E292E00BD648EC50E060E070E084
:1011D00086ED96E0B5D28091310590913205019768
:1011E00099F480912D0590912E05019769F48091D5
:1011F0002B0590912C05019739F48091250590914C
:101200002605019709F4B7C080913D0590913E05F0
:10121000019690933E0580933D0510923305109200
:1012200034051092350510923605C9DC0E94AC1EBB
:1012300060932B0670932C0680932D0690932E06B8
:1012400080913D0590913E058230910539F481E011
:1012500090E090933205809331058DC084309105E4
:1012600039F481E090E090932E0580932D0583C0A2
:101270008630910539F481E090E090932C058093BD
:101280002B0579C0089709F076C081E090E0909333
:101290002605809325056FC0232B09F06CC060E004
:1012A00080E0A2D58AE392E09AD548EC50E060E075
:1012B00070E086ED96E044D280912F059091300544
:1012C000019799F48091290590912A05019769F475
:1012D0008091270590912805019739F48091230585
:1012E00090912405019709F446C080913B059091A7
:1012F0003C05019690933C0580933B051092370581
:10130000109238051092390510923A0558DC0E9467
:10131000AC1E60932706709328068093290690934D
:101320002A0680913B0590913C058230910539F465
:1013300081E090E09093300580932F051CC08430AD
:10134000910539F481E090E090932A058093290576
:1013500012C08630910539F481E090E09093280521
:101360008093270508C0089731F481E090E09093BE
:10137000240580932305DF91CF911F910F91FF905A
:10138000EF90DF90CF90BF90AF907F906F905F9085
:101390004F900895AF92BF92CF92DF92EF92FF925B
:1013A0000F931F93CF93DF935C017B016A01C0E031
:1013B000D0E0CC15DD050CF03CC08FE296E0D4DC2B
:1013C00062E08FE296E001D1B5018FE296E061D94B
:1013D00062E370E080E090E0BADB00E010E00E1520
:1013E0001F056CF468E18FE296E0BCDC2CDD62E363
:1013F00070E080E090E0ABDB0F5F1F4FF0CF00E0CC
:1014000010E00E151F056CF46CE18FE296E0AADC8B
:101410001ADD62E370E080E090E099DB0F5F1F4F20
:10142000F0CF62E370E080E090E091DB0CDD21968C
:10143000C0CFDF91CF911F910F91FF90EF90DF9080
:10144000CF90BF90AF900895CF93DF9300D000D09E
:10145000CDB7DEB78FE296E087DC61E08DE057DA4A
:1014600060E08EE054DA61E176E084E795E011D93E
:101470006BE472E084E795E01AD96EE472E0CE0185
:101480000196F3D842E050E06EE070E0CE010196A4
:1014900081DFCE010196E4D81A8219821C821B8258
:1014A0001E821D82609111067091120661157105F0
:1014B00039F04091150650911606CE01019690D84C
:1014C00060E080E091D4BE016F5F7F4F8FE296E0D5
:1014D000E0D8CE010196C4D86EE472E0CE01019648
:1014E000C4D861E080E080D4BE016F5F7F4F8FE29F
:1014F00096E0CFD8CE010196B3D84AEF50E060E035
:1015000070E084E398E01CD168EC70E080E090E04B
:101510001EDB8CE02BDA68EC70E080E090E017DBFB
:101520004AEF50E060E070E084E398E009D168ECB5
:1015300070E080E090E00BDB8CE018DA68EC70E0A3
:1015400080E090E004DB4AEF50E060E070E080ED86
:1015500097E0F6D068EC70E080E090E0F8DA4AEFCF
:1015600050E060E070E084E398E0EAD068EC70E07E
:1015700080E090E0ECDA8CE0F9D968EC70E080E093
:1015800090E0E5DA4AEF50E060E070E084E398E054
:10159000D7D068EC70E080E090E0D9DA8CE0E6D952
:1015A00068EC70E080E090E0D2DA4AEF50E060E072
:1015B00070E080ED97E0C4D026960FB6F894DEBFB9
:1015C0000FBECDBFDF91CF910895EF92FF920F93A1
:1015D0001F93CF93DF93EC01623018F08F85886002
:1015E0008F876B8B1C8A80E48D8B80E18E8B80E5EE
:1015F0008F8B61E08C816FDA8D818F3F11F061E01C
:101600006ADA61E08E8167DA7E0187E0E80EF11C1C
:1016100000E010E08F8584FD03C084E090E002C00C
:1016200088E090E00817190744F461E0F701819120
:101630007F0151DA0F5F1F4FEDCF8BE39DE00197E4
:10164000F1F760E08C8163D960E08E8160D98D8193
:101650008F3F11F060E05BD96F8564FD19C063E0D6
:10166000CE0103DB0BE416E4C8010197F1F763E058
:10167000CE01FBDAC8010197F1F763E0CE01F5DA9C
:1016800083E592E00197F1F762E0CE01EEDA13C054
:101690006062CE0167DB8BE496E40197F1F76F851A
:1016A0006062CE015FDB83E592E00197F1F76F8521
:1016B0006062CE0157DB6F856062CE0153DB84E050
:1016C000888B6CE0CE014EDBCE014EDB82E0898B55
:1016D00066E0CE01DF91CF911F910F91FF90EF90C7
:1016E00041CB0F931F93CF93DF93C0E7D5E08C01DD
:1016F00000571540C8018C0F9D1F0E94C11F899380
:1017000085E0C437D807B1F780E795E0DF91CF9146
:101710001F910F9108950F931F93CF93DF938C0127
:101720000E94C11FCEE6D5E08883C80101960E94C1
:10173000C11F8983CE01DF91CF911F910F91089531
:101740003F924F925F926F927F928F929F92AF9251
:10175000BF92CF92DF92EF92FF920F931F93CF939E
:10176000DF9300D01F92CDB7DEB720910A022C3054
:1017700021F02F3F09F01DC304C0E8E3F2E03490EC
:10178000EDC02CE020930A02E8E3F2E0E491EF3FA1
:1017900009F40FC3E23009F474C054F5EE2309F4E0
:1017A00053C0E13009F0D9C010928000109281003E
:1017B0002091810028602093810020918100216088
:1017C00020938100EEEFF1E0E491F0E0EE0FFF1FD7
:1017D000E852FE4F259134913093520620935106E2
:1017E000EEE9F1E0E491E093500633243394B8C07D
:1017F000E43009F48EC00CF468C0E53009F0ADC0E7
:101800001092200110922101209121012860209343
:10181000210120912101216020932101EEEFF1E0CF
:10182000E491F0E0EE0FFF1FE852FE4F2591349156
:101830003093490620934806EEE9F1E0E491E09305
:101840004706B5E03B2E8CC014BC15BC24B5226005
:1018500024BD25B5216025BDEEEFF1E0E491F0E077
:10186000EE0FFF1FE852FE4F25913491309355063D
:1018700020935406EEE9F1E0E491E0935306312C15
:101880006FC01092B0001092B1002091B0002260A1
:101890002093B0002091B10021602093B100EEEFC1
:1018A000F1E0E491F0E0EE0FFF1FE852FE4F2591CA
:1018B00034913093690520936805EEE9F1E0E491F5
:1018C000E0936705B2E03B2E4BC01092900010925F
:1018D0009100209191002860209391002091910027
:1018E000216020939100EEEFF1E0E491F0E0EE0F43
:1018F000FF1FE852FE4F2591349130934F062093FD
:101900004E06EEE9F1E0E491E0934D0633E0332E2C
:1019100027C01092A0001092A1002091A100286081
:101920002093A1002091A10021602093A100EEEF5F
:10193000F1E0E491F0E0EE0FFF1FE852FE4F259139
:10194000349130934C0620934B06EEE9F1E0E4919C
:10195000E0934A0604E0302E03C03E2E37FC29C235
:101960002A013B018C0161E08CE0B5D84801A12C33
:10197000B12C832D8D7F09F0BBC060E072E18AE756
:1019800090E0A50194010E940B1B29833A834B83AD
:101990005C8369017A0121E0C21AD108E108F108EB
:1019A0008FEFC816D104E104F10409F008F44CC02B
:1019B00060E472E48FE090E0A50194010E940B1BAB
:1019C00069017A0191E0C91AD108E108F108E2E061
:1019D0003E1220C0FFEFCF16D104E104F10409F05C
:1019E00008F4E5C160E970ED83E090E0A5019401A1
:1019F0000E940B1B69017A0181E0C81AD108E10835
:101A0000F1089FEFC916D104E104F10409F0D0F503
:101A100083E067C0EFEFCE16D104E104F104B1F02A
:101A2000A8F068E478EE81E090E0A50194010E94BE
:101A30000B1B69017A01F1E0CF1AD108E108F10826
:101A4000332009F45AC1AAC181E001C082E03320E9
:101A5000A1F047C089819A81AB81BC812AE0B5950C
:101A6000A795979587952A95D1F76C017D01F1E0AF
:101A7000CF1AD108E108F10885E095B5987F892B48
:101A800085BDA6C068E478EE81E090E0A5019401F0
:101A90000E940B1B69017A0181E0C81AD108E10894
:101AA000F1089FEFC916D104E104F10409F008F42C
:101AB00022C164E274EF80E090E0A50194010E94ED
:101AC0000B1B69017A0181E0C81AD108E108F1080D
:101AD0009FEFC916D104E104F10411F008F02FC101
:101AE00085E09091B100987F892B8093B10070C000
:101AF00060E072E18AE790E0A50194010E940B1B6F
:101B000069017A01F1E0CF1AD108E108F108C114A6
:101B1000D10421E0E206F10488F068E478EE81E087
:101B200090E0A50194010E940B1B69017A0181E0FC
:101B3000C81AD108E108F10883E001C081E091E012
:101B4000391210C090918100987F892B8093810079
:101B5000411451046104710409F03FC02FEF3FEFBD
:101B6000A90171C0E3E03E120FC090919100987FEF
:101B7000892B80939100411451046104710469F52B
:101B80002FEF3FEFA90181C0F4E03F120FC0909109
:101B9000A100987F892B8093A10041145104610416
:101BA0007104D9F42FEF3FEFA90181C025E0321273
:101BB0000FC090912101987F892B809321014114BE
:101BC00051046104710449F42FEF3FEFA90181C072
:101BD000411451046104710471F0D801AA0FBB1FB4
:101BE000A30192010E94D71F28EE33E040E050E0AD
:101BF0000E94E91A03C02FEF3FEFA90182E03816D7
:101C0000A1F1831534F0332079F091E03916D9F041
:101C1000D0C0E4E03E1609F44AC03E16B4F1F5E047
:101C20003F1609F456C0C5C0C7BC20936606309362
:101C30006706409368065093690680916E00826043
:101C400080936E00B6C0D0928900C0928800209325
:101C50006206309363064093640650936506809154
:101C60006F00826080936F00A4C0C092B300209385
:101C70006A0530936B0540936C0550936D05809118
:101C8000700082608093700094C0D0929900C092DE
:101C9000980020935E0630935F0640936006509351
:101CA00061068091710082608093710082C0D09241
:101CB000A900C092A80020935A0630935B06409377
:101CC0005C0650935D068091720082608093720082
:101CD00070C0D0922901C0922801209356063093FB
:101CE00057064093580650935906809173008260BE
:101CF000809373005EC084E0F4CE2FEFC216D1044F
:101D0000E104F104D1F0C8F062E17AE780E090E00C
:101D1000A50194010E940B1B69017A01E1E0CE1A32
:101D2000D108E108F108FFEFCF16D104E104F10476
:101D300011F008F08FCE84E0A0CE83E09ECE62E169
:101D40007AE780E090E0A50194010E940B1B6901F5
:101D50007A0181E0C81AD108E108F1089FEFC9169D
:101D6000D104E104F104C1F0B8F089819A81AB811A
:101D7000BC814AE0B595A795979587954A95D1F787
:101D80006C017D01E1E0CE1AD108E108F1083320B1
:101D900009F472CE87E0A5CE86E059CEEFEFCE16DD
:101DA000D104E104F10409F050F684E050CE82E061
:101DB00098CE0F900F900F900F90DF91CF911F91C1
:101DC0000F91FF90EF90DF90CF90BF90AF909F90DA
:101DD0008F907F906F905F904F903F900895BC01DF
:101DE0008FE296E00C945703643008F063E0909122
:101DF0004206691710F06FEF690FE62FF0E0E15D22
:101E0000F94F9489682F690F60688FE296E00C940F
:101E1000B206CF93DF93BC0184E795E00E9457039D
:101E2000EC016BE472E084E795E00E9457038C0FAD
:101E30009D1FDF91CF910895CF93DF93AC01990F50
:101E4000660B770B2AE030E084E795E00E94B4034C
:101E5000EC016BE472E084E795E00E9457038C0F7D
:101E60009D1FDF91CF910895009771F0FC010190C3
:101E70000020E9F73197AF01481B590BBC0181E104
:101E800096E00E94F00214C0809111069091120613
:101E9000009711F00E94181D109212061092110660
:101EA0001092160610921506109214061092130640
:101EB00081E196E008954F925F926F927F928F92A8
:101EC0009F92AF92BF92CF92DF92EF92FF926B01FF
:101ED0007C01B42E9B01AC010E947F1C882319F069
:101EE00068EF74E027C026013701E89477F82FEFF8
:101EF0003FEF4FE75FE7C301B2010E947F1C8111F2
:101F00000DC02FEF3FEF4FE75FE7C301B2010E9423
:101F1000A81E18161CF46CEF74E00CC02FEF3FEFF6
:101F20004FE75FE4C701B6010E947B1C181694F4CA
:101F300060E075E08FE296E0FF90EF90DF90CF9049
:101F4000BF90AF909F908F907F906F905F904F90D9
:101F50000C9457032FEF3FEF4FE75FECC701B6013B
:101F60000E94A81E87FDE4CF20E030E0A901C70150
:101F7000B6010E94A81E87FF11C0E0912F06F091C4
:101F800030060190F081E02D6DE28FE296E0199528
:101F90004C01F7FAF094F7F8F09402C0812C912CE0
:101FA000A12C60E070E080E09FE3AB1441F020E002
:101FB00030E040E251E40E94941BA394F6CF9B01D1
:101FC000AC01C701B6010E94301B2B013C010E94ED
:101FD000FC1B6B017C010E94AC1E9B01AC01C30188
:101FE000B2010E942F1B2B013C012AE0B701A60180
:101FF0008FE296E00E946C037C01E80CF91CBB2088
:1020000041F06EE672E08FE296E00E945703E80E20
:10201000F91EDB2CDD2031F120E030E040E251E41C
:10202000C301B2010E940D1F2B013C010E94FC1B49
:102030004B01A12CB12C2AE0B501A4018FE296E05E
:102040000E946C03E80EF91EC501B4010E94AC1E8B
:102050009B01AC01C301B2010E942F1B2B013C016B
:10206000DA94D8CFC701FF90EF90DF90CF90BF9068
:10207000AF909F908F907F906F905F904F9008955A
:1020800081E196E00C943003CF93DF93CDB7DEB7B8
:102090002C970FB6F894DEBF0FBECDBF789484B5F1
:1020A000826084BD84B5816084BD85B5826085BD54
:1020B00085B5816085BD80916E00816080936E00E2
:1020C00010928100809181008260809381008091D4
:1020D0008100816080938100809180008160809385
:1020E00080008091B10084608093B1008091B00045
:1020F00081608093B0008091910082608093910014
:102100008091910081608093910080919000816026
:10211000809390008091A10082608093A1008091C3
:10212000A10081608093A1008091A00081608093D4
:10213000A000809121018260809321018091210182
:102140008160809321018091200181608093200132
:1021500080917A00846080937A0080917A00826016
:1021600080937A0080917A00816080937A008091D8
:102170007A00806880937A001092C100E091840513
:10218000F091850582E08083E0918005F0918105E2
:102190001082E0918205F09183058FEC808310928C
:1021A0008C05E0918805F091890586E08083E091B7
:1021B0008605F0918705808180618083E0918605A6
:1021C000F0918705808188608083E0918605F09199
:1021D0008705808180688083E0918605F09187057E
:1021E00080818F7D808362E082E00E946B0562E0E7
:1021F00083E00E946B0562E084E00E946B0562E070
:1022000086E00E946B0562E089E00E946B0561E058
:102210008EE00E946B0561E08DE00E946B0560E03E
:102220008DE00E94870460E08EE00E94870482E0D7
:102230000E945F04892B01F56CED75E080E090E071
:102240000E94A7058CE390E0A0E0B0E089839A8328
:10225000AB83BC838AE090E098878F83BE016F5F79
:102260007F4F80E090E00E94EF06BE01695F7F4FE4
:1022700088E090E00E94BB0680E090E032DA88E0DF
:1022800090E049DA4EE150E060E070E04093700584
:1022900050937105609372057093730585E090E02B
:1022A00090936F0580936E054093570550935805A2
:1022B0006093590570935A05909366058093650560
:1022C0006FE572E0CE0101960E94350341E050E0D7
:1022D0006AE070E0CE0101965DD8CE0101960E94C1
:1022E000300362E08FE296E070D980E792E077DD1C
:1022F00040915705509158056091590570915A05C4
:102300002AE030E08FE296E00E94B40361E080E0D2
:102310006BDD8EE792E063DD4091650550916605C7
:10232000052E000C660B770B2AE030E08FE296E07A
:102330000E94B40368EE73E080E090E00E94A7057D
:1023400095E0692E712C03E010E024E0E22EF12CE0
:1023500032E0C32ED12C48EEA42E43E0B42E0E94CE
:102360002307E0914105F0914205E830F10508F0BE
:10237000E0C28827EC57FF4F8F4F0C94271B60E07B
:1023800080E032DD8CE892E02ADD61E080E02CDD47
:102390008DE992E024DD1092220510922105109221
:1023A0004405109243051092400510923F0586C2E5
:1023B0008FE296E00E94B40660E080E015DD8EEAD0
:1023C00092E00DDD88248394912C909222058092D6
:1023D0002105909244058092430561E08EE00E94C1
:1023E00087049092400580923F0568C260E080E0DB
:1023F000FBDC8FEB92E0F3DC61E080E0F5DC80ED6C
:1024000092E0EDDC4091700550917105609172058C
:102410007091730521E030E08FE296E00E94B403F2
:10242000D0922205C0922105D0924405C092430566
:1024300045C2109322050093210510934405009393
:10244000430566E970E080E090E00E94A7051093E4
:10245000400500933F0560E080E0C6DC8EED92E031
:10246000BEDC61E080E0C0DC80ED92E0B8DC409151
:1024700070055091710560917205709173054093DC
:102480005705509358056093590570935A052AE0F3
:1024900030E08FE296E00E94B40360ED77E080E0E8
:1024A00090E00E94A70580914105909142058B7FA5
:1024B000039709F080C00E94230784E00E945F0414
:1024C000892BC9F46AEF70E080E090E00E94A705D4
:1024D0008091570590915805A0915905B0915A05E2
:1024E0000196A11DB11D8093570590935805A093A7
:1024F0005905B0935A0583E00E945F04892BC9F403
:102500006AEF70E080E090E00E94A7058091570597
:1025100090915805A0915905B0915A050197A109CC
:10252000B1098093570590935805A0935905B0932E
:102530005A058091570590915805A0915905B09181
:102540005A0583369105A105B10551F48FE296E055
:102550000E94B40660E080E047DC8EED92E03FDC54
:102560008091570590915805A0915905B0915A0551
:102570000997A105B10551F48FE296E00E94B406D7
:1025800060E080E031DC8EED92E029DC61E080E00B
:102590002BDC80ED92E023DC4091570550915805EB
:1025A0006091590570915A052AE030E08FE296E07B
:1025B0000E94B40378CF67E575E080E090E00E9468
:1025C000EF068FE296E00E94B40680E090E089D8A2
:1025D0008091700590917105A0917205B09173057D
:1025E0008093570590935805A0935905B0935A05C9
:1025F00068E372E0CE0101960E9435036FEE72E04F
:10260000CE0107960E94350360E080E0EDDBBE015D
:10261000695F7F4F8FE296E00E944903BE016F5FC2
:102620007F4F8FE296E00E944903CE0107960E94F9
:102630003003CE0101960E94300360ED77E080E028
:1026400090E00E94A7051092400510923F05D0929D
:102650004205C09241056DC160E080E0C5DB8FEBB3
:1026600092E0BDDB61E080E0BFDB8FEF92E0B7DBA3
:1026700040916E0550916F05052E000C660B770B8F
:1026800021E08FE296E00E946C03F0922205E09236
:102690002105F0924405E092430510C17092220595
:1026A00060922105709244056092430566E970E0EE
:1026B00080E090E00E94A7051093400500933F053D
:1026C00060E080E091DB8EED92E089DB61E080E00C
:1026D0008BDB8FEF92E083DB40916E0550916F05AD
:1026E0005093660540936505052E000C660B770B2D
:1026F0002AE030E08FE296E00E94B40360ED77E0DC
:1027000080E090E00E94A7058091410590914205EC
:102710008D7F059709F060C00E94230784E00E9426
:102720005F04892B79F46AEF70E080E090E00E940A
:10273000A7058091650590916605019690936605C1
:102740008093650583E00E945F04892B79F46AEF2A
:1027500070E080E090E00E94A7058091650590916F
:1027600066050197909366058093650580916505E0
:10277000909166058336910551F48FE296E00E94B0
:10278000B40660E080E030DB8EED92E028DB8091E3
:10279000650590916605099751F48FE296E00E94D5
:1027A000B40660E080E020DB8EED92E018DB61E0B3
:1027B00080E01ADB8FEF92E012DB409165055091CB
:1027C0006605052E000C660B770B2AE030E08FE2E1
:1027D00096E00E94B40398CF65E675E088E090E04B
:1027E0000E94BB068FE296E00E94B40688E090E06B
:1027F0000E948B0B80916E0590916F0590936605FA
:102800008093650568E372E0CE0101960E9435036E
:102810006FEE72E0CE0107960E94350360E080E023
:10282000E3DABE01695F7F4F8FE296E00E944903C1
:10283000BE016F5F7F4F8FE296E00E944903CE0199
:1028400007960E943003CE0101960E94300360ED8E
:1028500077E080E090E00E94A7051092400510927A
:102860003F05F0924205E092410563C08FE296E099
:102870000E94B40660E080E0B7DA8EE093E0AFDA61
:1028800061E080E0B1DA8FE193E0A9DA40915B0585
:1028900050915C0560915D0570915E052AE030E025
:1028A0008FE296E00E94B40386E090E090932205C8
:1028B00080932105909344058093430566E970E079
:1028C00080E090E00E94A70534C01092420510926B
:1028D000410583E00E945F04892B41F480903F050D
:1028E000909040058114910409F4AAC583E00E94E8
:1028F0005F04892B39F480913F0590914005019741
:1029000009F4A5C58FE296E00E94B40660E080E07D
:102910006BDA8DE293E063DA1092400510923F0586
:1029200008C080913F0590914005019749F00E94B1
:1029300023078091410590914205019791F37CC551
:102940000E942307809031059090320591E089160E
:10295000910409F04AC08091630590916405892B28
:1029600009F043C08EE393E054DA809131059091F1
:10297000320562DA8EE493E04CDA2091570530910B
:1029800058054091590550915A05A8EEB3E00E94B0
:10299000D71F0E94AE1E60935F0570936005809301
:1029A0006105909362050E94DF050E94AC1E609352
:1029B0002306709324068093250690932606909212
:1029C0006405809263051092300510922F0560E037
:1029D00080E00ADA88E593E002DA46E950E060E058
:1029E00070E086ED96E00E94A00B80912F059091FB
:1029F0003005019709F047C0809163059091640507
:102A0000019709F040C0109232051092310583E61B
:102A100093E0FFD9109264051092630560E080E0B6
:102A2000E3D981E793E0DBD946E950E060E070E06C
:102A300088E998E00E94A00B80912D0590912E05C9
:102A4000892B71F480912B0590912C05892B41F4F1
:102A500010923E0510923D0510923C0510923B05E8
:102A600080915B0590915C05A0915D05B0915E053C
:102A70000196A11DB11D80935B0590935C05A09309
:102A80005D05B0935E0580916305909164050197A3
:102A900009F08CC00E94DF050E94AC1E2091230625
:102AA000309124064091250650912606D8D59B01E9
:102AB000AC0160915F057091600580916105909116
:102AC0006205CDD560935F057093600580936105C5
:102AD0009093620520E030E04AE754E425D6B8D66A
:102AE00020E030E046EC52E40E94A81E811105C0AF
:102AF00061E07AD98CE793E072D920E030E04AE7D0
:102B000054E460915F05709160058091610590913A
:102B100062050AD69DD620E030E040E151E40E94F3
:102B2000A81E811105C061E05FD98CE793E057D9F9
:102B300061E080E059D982E893E051D920E030E0AB
:102B40004AE754E460915F057091600580916105EA
:102B500090916205E9D540E0AED90E94DF050E9460
:102B6000AC1E6093230670932406809325069093F1
:102B7000260620E030E0A90160915F0570916005B4
:102B800080916105909162050E94A81E181634F08C
:102B900085E893E069D90E94240A08C085E993E09A
:102BA00038D9809131059091320546D90E9423078A
:102BB00080902D0590902E05E1E08E16910409F08D
:102BC0004AC08091550590915605892B09F043C064
:102BD00080EA93E01ED980912D0590912E052CD985
:102BE00080EB93E016D9209157053091580540911C
:102BF000590550915A05A8EEB3E00E94D71F0E94D4
:102C0000AE1E6093510570935205809353059093C7
:102C100054050E94DF050E94AC1E60931F0670934E
:102C2000200680932106909322069092560580926A
:102C3000550510922A051092290560E080E0D4D84D
:102C40008AEB93E0CCD846E950E060E070E08AE39C
:102C500097E00E94A00B8091290590912A05019789
:102C600009F051C08091550590915605019709F0E2
:102C70004AC010922E0510922D0585EC93E0C9D81C
:102C8000109256051092550560E080E0ADD883EDB6
:102C900093E0A5D846E950E060E070E08CEF98E062
:102CA0000E94A00B80913105909132050197C1F4EB
:102CB00080912B0590912C05892B91F480913B05F7
:102CC00090913C05049790933C0580933B0580913F
:102CD0003D0590913E05029790933E0580933D05FA
:102CE00080915B0590915C05A0915D05B0915E05BA
:102CF0000196A11DB11D80935B0590935C05A09387
:102D00005D05B0935E05809155059091560501973C
:102D100009F08BC00E94DF050E94AC1E20911F06A7
:102D200030912006409121065091220698D49B01B3
:102D3000AC016091510570915205809153059091BD
:102D400054058DD4609351057093520580935305BB
:102D50009093540520E030E04AE754E4E5D478D578
:102D600020E030E046EC52E4F3D7811106C061E088
:102D700086E03AD88EED93E032D820E030E04AE7A2
:102D800054E46091510570915205809153059091E2
:102D90005405CAD45DD520E030E040E151E4D8D7F5
:102DA000811106C061E086E01FD88EED93E017D850
:102DB00061E086E019D884EE93E011D820E030E09D
:102DC0004AE754E460915105709152058091530592
:102DD00090915405A9D440E06ED80E94DF05BCD77D
:102DE00060931F067093200680932106909322061D
:102DF00020E030E0A9016091510570915205809169
:102E0000530590915405A4D7181634F087EE93E03B
:102E10002BD80E94240A09C088EF93E00E94090F72
:102E200080912D0590912E0507D80E942307809050
:102E30002B0590902C05F1E08F16910409F04DC000
:102E400080914F0590915005892B09F046C083E091
:102E500094E00E94090F80912B0590912C050E940F
:102E60001C0F83E194E00E94090F209157053091D7
:102E700058054091590550915A05A8EEB3E00E94BB
:102E8000D71F6CD760934B0570934C0580934D050D
:102E900090934E050E94DF055FD760931B067093E9
:102EA0001C0680931D0690931E06909250058092FA
:102EB0004F05109228051092270560E080E00E94DF
:102EC000F40E8DE194E00E94EF0E46E950E060E0E0
:102ED00070E08EE997E00E94A00B80912705909109
:102EE0002805019709F050C080914F059091500539
:102EF000019709F049C010922C0510922B0588E229
:102F000094E00E94090F1092500510924F0560E066
:102F100080E00E94F40E86E394E00E94EF0E46E902
:102F200050E060E070E080E699E00E94A00B8091A4
:102F3000310590913205892BA1F480912D05909156
:102F40002E05892B71F480912B0590912C05892BEE
:102F500041F410923C0510923B0510923E051092F0
:102F60003D0580915B0590915C05A0915D05B09158
:102F70005E050196A11DB11D80935B0590935C05D4
:102F8000A0935D05B0935E0580914F05909150052B
:102F9000019709F093C00E94DF05DED620911B0641
:102FA00030911C0640911D0650911E0658D39B017E
:102FB000AC0160914B0570914C0580914D0590914D
:102FC0004E054DD360934B0570934C0580934D0592
:102FD00090934E0520E030E04AE754E4A5D338D47E
:102FE00020E030E046EC52E4B3D6811108C061E045
:102FF0008BE00E94F40E81E494E00E94EF0E20E04A
:1030000030E04AE754E460914B0570914C058091A3
:103010004D0590914E0588D31BD420E030E040E16F
:1030200051E496D6811108C061E08BE00E94F40E55
:1030300081E494E00E94EF0E61E08BE00E94F40EC8
:1030400087E494E00E94EF0E20E030E04AE754E489
:1030500060914B0570914C0580914D0590914E0506
:1030600063D340E00E945B0F0E94DF0575D660933A
:103070001B0670931C0680931D0690931E0620E08D
:1030800030E0A90160914B0570914C0580914D0590
:1030900090914E055DD618163CF08AE494E00E94AB
:1030A000340F0E94240A0AC08BE594E00E94090FA5
:1030B00080912B0590912C050E941C0F0E942307E4
:1030C000809025059090260581E08816910409F0EE
:1030D0004CC08091490590914A05892B09F045C063
:1030E00086E694E00E94090F8091250590912605BF
:1030F0000E941C0F86E794E00E94090F209157055B
:10310000309158054091590550915A05A8EEB3E009
:103110004ED724D6609345057093460580934705A6
:10312000909348050E94DF0517D6609317067093A9
:1031300018068093190690931A0690924A05809279
:103140004905109224051092230560E080E00E945A
:10315000F40E80E894E00E94EF0E46E950E060E053
:1031600070E08EE997E00E94A00B8091230590917A
:1031700024050197A9F58091490590914A05019789
:1031800079F510922605109225058BE894E00E94AF
:10319000090F10924A051092490560E080E00E94F4
:1031A000F40E89E994E00E94EF0E46E950E060E0F9
:1031B00070E080E699E00E94A00B80915B05909101
:1031C0005C05A0915D05B0915E050196A11DB11D44
:1031D00080935B0590935C05A0935D05B0935E05BD
:1031E0008091490590914A05019709F093C00E948A
:1031F000DF05B2D5209117063091180640911906C7
:1032000050911A062CD29B01AC016091450570913A
:103210004605809147059091480521D26093450568
:1032200070934605809347059093480520E030E071
:103230004AE754E479D20CD320E030E046EC52E483
:1032400087D5811108C060E08BE00E94F40E84EA0B
:1032500094E00E94EF0E20E030E04AE754E46091F1
:1032600045057091460580914705909148055CD2CF
:10327000EFD220E030E040E151E46AD5811108C08E
:1032800060E08BE00E94F40E84EA94E00E94EF0E6E
:1032900060E08BE00E94F40E8AEA94E00E94EF0E58
:1032A00020E030E04AE754E460914505709146051E
:1032B000809147059091480537D240E00E945B0F0E
:1032C0000E94DF0549D56093170670931806809316
:1032D000190690931A0620E030E0A9016091450597
:1032E00070914605809147059091480531D5181693
:1032F0003CF08DEA94E00E94340F0E94240A0AC038
:103300008EEB94E00E94090F80912505909126058F
:103310000E941C0F80913D0590913E05089721F475
:1033200010923E0510923D0580913B0590913C0521
:10333000089721F410923C0510923B0580913B05C3
:1033400090913C05897F0197B9F50E94DF0504D56E
:1033500020912706309128064091290650912A068F
:103360007ED11B012C016093370570933805809343
:10337000390590933A0580916505909166058A9D7F
:10338000B0018B9D700D9A9D700D1124072E000CBD
:10339000880B990BE3D49B01AC01C201B101ABD204
:1033A00087FD0AC089EC94E00E94340F109240051A
:1033B00010923F050E94240A80913D0590913E05A0
:1033C000897F019709F0B3CA0E94DF05C5D4209117
:1033D0002B0630912C0640912D0650912E063FD1A0
:1033E0001B012C01609333057093340580933505E0
:1033F0009093360580916505909166058A9DB00190
:103400008B9D700D9A9D700D1124072E000C880B5A
:10341000990BA4D49B01AC01C201B1016CD287FD10
:1034200086CA8AED94E00E94340F109240051092F3
:103430003F050E94240A7BCA0E943B020C94AF11F4
:103440008BEE94E00E94090FF40119954FCA83EFA7
:1034500094E00E94090F1092400510923F0560E031
:103460008EE00E948704109242051092410510924E
:103470003205109231051092640510926305109286
:103480002E0510922D05109256051092550510929A
:103490002C0510922B051092500510924F0566E9ED
:1034A00070E080E090E00E94A7052CCAE4E7F5E018
:1034B0001382128288EE93E0A0E0B0E084839583CB
:1034C000A683B78385E192E09183808385EC90E0C9
:1034D0009587848784EC90E09787868780EC90E0DE
:1034E000918B808B81EC90E0938B828B82EC90E0CF
:1034F000958B848B86EC90E0978B868B118E128E49
:10350000138E148EEFE2F6E01382128285E292E0CF
:10351000918380838AE284838FEF85838CE2868324
:1035200084E3878382E3808780E381878EE28287DA
:103530001386148615861686178661E0CF010E94D1
:10354000E50A0E94DF0508D460932B0670932C06D1
:1035500080932D0690932E060E94DF05FDD3609385
:103560002706709328068093290690932A060E94C6
:10357000DF05F2D36093230670932406809325061B
:10358000909326060E94DF05E7D360931F06709391
:10359000200680932106909322060E94DF05DCD34B
:1035A00060931B0670931C0680931D0690931E0665
:1035B0000E94DF05D1D3609317067093180680939D
:1035C000190690931A066DE472E081E196E00C947E
:1035D0003503A1E21A2EAA1BBB1BFD010DC0AA1FB9
:1035E000BB1FEE1FFF1FA217B307E407F50720F06C
:1035F000A21BB30BE40BF50B661F771F881F991FE7
:103600001A9469F760957095809590959B01AC012F
:10361000BD01CF010895052E97FB16F400940FD03D
:1036200057FD05D0D6DF07FC02D046F408C0509500
:103630004095309521953F4F4F4F5F4F089590959E
:103640008095709561957F4F8F4F9F4F0895EE0F36
:10365000FF1F881F8BBF0790F691E02D19945058DB
:10366000BB27AA270ED053C444D430F049D420F04D
:1036700031F49F3F11F41EF439C40EF4E095E7FBDA
:103680002FC4E92F55D480F3BA1762077307840754
:10369000950718F071F49EF56DC40EF4E0950B2EAD
:1036A000BA2FA02D0B01B90190010C01CA01A00194
:1036B0001124FF27591B99F0593F50F4503E68F1EF
:1036C0001A16F040A22F232F342F4427585FF3CF30
:1036D000469537952795A795F0405395C9F77EF401
:1036E0001F16BA0B620B730B840BBAF09150A1F04A
:1036F000FF0FBB1F661F771F881FC2F70EC0BA0FD0
:10370000621F731F841F48F4879577956795B79557
:10371000F7959E3F08F0B3CF9395880F08F099274F
:10372000EE0F9795879508950CD0F1C3E9D340F03B
:10373000E0D330F021F45F3F19F0D2C351111BC424
:10374000D5C3F6D398F39923C9F35523B1F3951B49
:10375000550BBB27AA2762177307840738F09F5FB2
:103760005F4F220F331F441FAA1FA9F333D00E2E21
:103770003AF0E0E830D091505040E695001CCAF78E
:1037800029D0FE2F27D0660F771F881FBB1F261753
:1037900037074807AB07B0E809F0BB0B802DBF0126
:1037A000FF2793585F4F2AF09E3F510568F098C35A
:1037B000E2C35F3FECF3983EDCF38695779567951F
:1037C000B795F7959F5FC9F7880F911D96958795D7
:1037D00097F90895E1E0660F771F881FBB1F6217F6
:1037E00073078407BA0720F0621B730B840BBA0BB4
:1037F000EE1F88F7E0950895A3D388F09F5790F0C7
:10380000B92F9927B751A0F0D1F0660F771F881F05
:10381000991F1AF0BA95C9F712C0B13081F0AAD336
:10382000B1E00895A7C3672F782F8827B85F39F0D4
:10383000B93FCCF3869577956795B395D9F73EF464
:1038400090958095709561957F4F8F4F9F4F08950C
:103850003BD080F09F3740F491110EF08CC360E0B4
:1038600070E080E89FEB089526F41B16611D711D22
:10387000811D01C01BC0882371F4772321F098506B
:10388000872B762F07C0662311F499270DC090511E
:10389000862B70E060E02AF09A95660F771F881FEC
:1038A000DAF7880F9695879597F908959F3F31F03D
:1038B000915020F4879577956795B795880F911D5E
:1038C0009695879597F908953BD3A0F0BEE7B91771
:1038D00088F4BB279F3860F41616B11D672F782F28
:1038E0008827985FF7CF869577956795B11D939553
:1038F0009639C8F308956DD208F48FEF089569D210
:10390000880B990B0895CF93DF938230910510F4C3
:1039100082E090E0E0916C06F0916D0620E030E0EE
:10392000C0E0D0E0309711F140815181481759072C
:10393000C0F04817590761F482819381209719F0EC
:103940009B838A832BC090936D0680936C0626C060
:103950002115310519F04217530718F49A01BE01D9
:10396000DF01EF010280F381E02DDCCF211531056D
:1039700009F1281B390B2430310590F412968D91F2
:103980009C9113976115710521F0FB01938382834C
:1039900004C090936D0680936C06FD01329644C07E
:1039A000FD01E20FF31F81939193225031092D9372
:1039B0003C933AC020916A0630916B06232B41F468
:1039C00020910D0230910E0230936B0620936A060F
:1039D00020910B0230910C022115310541F42DB7D5
:1039E0003EB740910F0250911002241B350BE0911D
:1039F0006A06F0916B06E217F307A0F42E1B3F0B4B
:103A00002817390778F0AC014E5F5F4F2417350750
:103A100048F04E0F5F1F50936B0640936A068193E8
:103A2000919302C0E0E0F0E0CF01DF91CF910895E3
:103A30000F931F93CF93DF93009709F48CC0FC0181
:103A400032971382128200916C0610916D06011557
:103A5000110581F420813181820F931F20916A0624
:103A600030916B062817390779F5F0936B06E093D0
:103A70006A0671C0D80140E050E0AE17BF0750F4AD
:103A800012962D913C911397AD012115310509F145
:103A9000D901F3CF9D01DA013383228360817181E3
:103AA000860F971F8217930769F4EC0128813981EB
:103AB000260F371F2E5F3F4F318320838A819B81E2
:103AC00093838283452B29F4F0936D06E0936C0673
:103AD00042C01396FC93EE931297ED0149915991D0
:103AE0009E01240F351FE217F30771F48081918145
:103AF000840F951F029611969C938E9382819381D9
:103B000013969C938E931297E0E0F0E0D801129602
:103B10008D919C911397009719F0F8018C01F6CFC5
:103B20008D919C9198012E5F3F4F820F931F2091A2
:103B30006A0630916B062817390769F4309729F423
:103B400010926D0610926C0602C0138212821093BE
:103B50006B0600936A06DF91CF911F910F91089534
:103B60006F927F928F929F92AF92BF92CF92DF928D
:103B7000EF92FF920F931F93CF93DF93EC01009787
:103B800081F4CB01DF91CF911F910F91FF90EF90C6
:103B9000DF90CF90BF90AF909F908F907F906F906D
:103BA000B2CEFC01E60FF71F9C0122503109E2174B
:103BB000F30708F4A8C0D9010D911C9111970617BD
:103BC0001707A8F00530110508F49BC0C801049739
:103BD0008617970708F495C002501109061B170BAA
:103BE000019311936D937C93CF0122DF8AC05B0117
:103BF000A01AB10A4C01800E911EA0916C06B091E2
:103C00006D0640E050E0E12CF12C109709F44AC019
:103C1000A815B905D1F56D907C901197630182E0EC
:103C2000C80ED11CCA14DB0480F1A3014A195B0938
:103C30006A0182E0C80ED11C1296BC9012971396AE
:103C4000AC91B5E0CB16D10440F0B282A38351838E
:103C50004083D9016D937C930AC00E5F1F4FC3014F
:103C6000800F911FF90191838083EB2DFA2FE114CE
:103C7000F10431F0D7011396FC93EE93129741C0F3
:103C8000F0936D06E0936C063CC08D919C9111976A
:103C90004817590708F4AC017D0112960D90BC91AC
:103CA000A02DB3CF80916A0690916B068815990577
:103CB000E1F446175707C8F480910B0290910C026B
:103CC000009741F48DB79EB740910F0250911002BA
:103CD000841B950BE817F907B0F4F0936B06E0939B
:103CE0006A06F901718360830CC0CB010CDE7C0194
:103CF000009749F0A801BE011BD0CE0199DEC70193
:103D000004C0CE0102C080E090E0DF91CF911F910E
:103D10000F91FF90EF90DF90CF90BF90AF909F906A
:103D20008F907F906F90089581E090E0F89458C153
:103D3000FB01DC0102C001900D9241505040D8F7C8
:103D40000895FB01DC0101900D920020E1F7089538
:103D500040D008F481E00895E89409C097FB3EF450
:103D600090958095709561957F4F8F4F9F4F9923C8
:103D7000A9F0F92F96E9BB279395F6958795779546
:103D80006795B795F111F8CFFAF4BB0F11F460FF06
:103D90001BC06F5F7F4F8F4F9F4F16C0882311F05E
:103DA00096E911C0772321F09EE8872F762F05C072
:103DB000662371F096E8862F70E060E02AF09A950D
:103DC000660F771F881FDAF7880F9695879597F902
:103DD0000895990F0008550FAA0BE0E8FEEF16169C
:103DE0001706E807F907C0F012161306E407F507EF
:103DF00098F0621B730B840B950B39F40A2661F063
:103E0000232B242B252B21F408950A2609F4A14005
:103E1000A6958FEF811D811D08950BD078C069D0C4
:103E200028F06ED018F0952309F05AC05FC0112415
:103E3000A2C07ED0A0F3959FD1F3950F50E0551FFF
:103E4000629FF001729FBB27F00DB11D639FAA27EF
:103E5000F00DB11DAA1F649F6627B00DA11D661F3E
:103E6000829F2227B00DA11D621F739FB00DA11D5F
:103E7000621F839FA00D611D221F749F3327A00D19
:103E8000611D231F849F600D211D822F762F6A2FB5
:103E900011249F5750408AF0E1F088234AF0EE0F3A
:103EA000FF1FBB1F661F771F881F91505040A9F747
:103EB0009E3F510570F014C05EC05F3FECF3983E2A
:103EC000DCF3869577956795B795F795E7959F5FAE
:103ED000C1F7FE2B880F911D9695879597F9089548
:103EE00097F99F6780E870E060E008959FEF80ECAD
:103EF000089500240A941616170618060906089550
:103F000000240A9412161306140605060895092EB5
:103F10000394000C11F4882352F0BB0F40F4BF2B24
:103F200011F460FF04C06F5F7F4F8F4F9F4F089564
:103F300057FD9058440F551F59F05F3F71F047955A
:103F4000880F97FB991F61F09F3F79F0879508953F
:103F5000121613061406551FF2CF4695F1DF08C05E
:103F6000161617061806991FF1CF8695710561057B
:103F700008940895E894BB2766277727CB0197F923
:103F80000895F999FECF92BD81BDF89A992780B521
:103F90000895262FF999FECF1FBA92BD81BD20BD8D
:103FA0000FB6F894FA9AF99A0FBE0196089509D0BF
:103FB000A59F900DB49F900DA49F800D911D11247D
:103FC0000895A29FB001B39FC001A39F700D811DF2
:103FD0001124911DB29F700D811D1124911D089512
:103FE00011E0CEE1D1E000E005C0802FFE012FDB23
:103FF0002196011DCF31D10780E00807B1F7F89471
:02400000FFCFF0
:1040020001000100010001000100FF00006E0680B6
:104012000000000000D40151019E017C0190011AB0
:104022000200000000AD065101462044657465633C
:1040320074494E2020202020200046446574656388
:10404200744F5554202020202020000D0A00203CCF
:104052003C3C204552524F52203E3E3E20200053CF
:1040620074617274696E67207570202E2E2E2E0078
:1040720054696D657253657474696E673D0046726A
:10408200616D6554696D654F75743D003C3C3C2023
:104092004F46464C494E45203E3E3E200020454E6E
:1040A20054455220546F20535441525420003C3CFA
:1040B2003C204F4E2D4C494E45203E3E3E20004571
:1040C2004E54455220544F204348414E474521000B
:1040D20054696D65204F7574205365633D004849EE
:1040E200542020454E5420746F20534156450053AE
:1040F200657474696E677320536176656421004646
:1041020072616D6554696D654F7574533D0020464B
:1041120072616D652020436F756E74657220004E6A
:104122006F206F66204672616D65203D0053544FCB
:10413200502020414354495641544544210053657F
:104142006E73496E3120466C6167203D2000463116
:1041520020697320736574004652414D45312053E6
:1041620045540046312072657365742E2E2E2E2E14
:10417200004652414D45312052535400313D2020DA
:104182002000313D00204572726F72204672616DCF
:1041920065203120004631207570646174656400C9
:1041A20053656E73496E3220466C6167203D200074
:1041B200463220697320736574004652414D453280
:1041C200205345540046322072657365742E2E2E9C
:1041D2002E2E004652414D45322052535400323D5C
:1041E20020202000323D0020204572726F7220464E
:1041F20072616D65203220004632207570646174F0
:1042020065640053656E73496E3320466C616720A6
:104212003D20004633206973207365740046524185
:104222004D453320534554004633207265736574FF
:104232002E2E2E2E2E004652414D453320525354DF
:1042420000333D20202000333D0020204572726F54
:1042520072204672616D65203320004633207570EE
:1042620064617465640053656E73496E3420466CF4
:104272006167203D20004634206973207365740015
:104282004652414D45342053455400463420726510
:104292007365742E2E2E2E2E004652414D4534202B
:1042A20052535400343D20202000343D002020454C
:1042B20072726F72204672616D652034200046343E
:1042C20020757064617465640042616420467261A5
:1042D2006D65204F5554204552004261642046725C
:1042E200616D6520494E20455252005265736574D6
:1042F20020300053746F70006E616E00696E66004C
:044302006F7666006C
:00000001FF
