:1000000016C1000045C1000043C1000041C100000D
:100010003FC100003DC100003BC1000039C10000EC
:1000200037C1000035C1000033C1000031C10000FC
:100030002FC1000042C400002BC1000029C10000F4
:1000400027C1000025C1000023C1000021C100001C
:100050001FC100001DC100001BC1000020C5000021
:1000600017C100005AC300002FC3000011C10000D7
:100070000FC100000DC100000BC1000009C100004C
:1000800007C1000005C1000003C1000001C100005C
:10009000FFC00000FDC00000FBC00000F9C0000070
:1000A000F7C00000F5C00000F3C00000F1C0000080
:1000B000EFC00000EDC00000EBC00000E9C0000090
:1000C000E7C00000E5C00000E3C00000E1C00000A0
:1000D000DFC00000DDC00000DBC00000D9C00000B0
:1000E000D7C00000C802CB02BA02BE02C40202039B
:1000F000CF02D302D902DD02E102E702EB02EF02F6
:100100000203F502F902FD0200002100240027008D
:100110002A002D0030003300010100000401070116
:100120000A01000020002300260029002C002F00D7
:1001300032000001000003010601090100000A0B62
:1001400002090C0D0E080703040100000000000066
:10015000000000000000000000000000000000009F
:10016000000000000000000012111000000000005C
:10017000000000000000000000000000000000007F
:1001800000000102102020080810204010204080AC
:10019000020102010804020101020408102040804B
:1001A00080402010080402018004020180402010D9
:1001B0000804020108040201010204081020408022
:1001C00001020408102040800000220025002800C1
:1001D0002B002E003100340002010000050108014F
:1001E0000B010505050507050808080802020202BB
:1001F0000A0A0808040404040101010101010101C3
:100200000303030303030303040707070C0C0C0C8D
:100210000C0C0C0C02020202060606060606060676
:100220000B0B0B0B0B0B0B0B0200A813A4131124CD
:100230001FBECFEFD1E2DEBFCDBF00E00CBF13E0A9
:10024000A0E0B2E0EEEEF1E300E00BBF02C00790E9
:100250000D92A835B107D9F724E0A8E5B3E001C0B5
:100260001D92A83CB207E1F711E0C6E1D1E000E041
:1002700006C021970109802FFE010E948014C5311C
:10028000D10780E00807A9F70E94D10D0C94E61869
:10029000B7CE0E94ED17EF92FF920F931F93CF936B
:1002A000DF93EC017B018A0188819981009729F015
:1002B0002A813B8124173507F8F4B8016F5F7F4F1F
:1002C0000E940917009759F0998388831B830A833A
:1002D0002C813D81232B81F4FC0110820DC088818B
:1002E0009981009711F00E947116198218821D825F
:1002F0001C821B821A8207C01D830C83B701888170
:1003000099810E94FA17CE01DF91CF911F910F9131
:10031000FF90EF900895CF92DF92EF92FF920F93AC
:100320001F93CF93DF936C017A018B01C0E0D0E083
:10033000CE15DF0589F0D8016D918D01D601ED91C3
:10034000FC910190F081E02DC6011995892B11F4E3
:100350007E0102C02196ECCFC701DF91CF911F91A2
:100360000F91FF90EF90DF90CF900895FC01918D59
:10037000828D981761F0828DDF01A80FB11D5D9607
:100380008C91928D9F5F9F73928F90E008958FEF75
:100390009FEF0895FC01918D828D981731F0828D29
:1003A000E80FF11D858D90E008958FEF9FEF089580
:1003B000FC01918D228D892F90E0805C9F4F821BE4
:1003C00091098F739927089582EC93E0F1DF21E082
:1003D000892B09F420E0822F0895FC01848DDF0130
:1003E000A80FB11DA35ABF4F2C91848D90E00196A8
:1003F0008F739927848FA689B7892C93A089B18997
:100400008C9180648C93938D848D981306C00288A0
:10041000F389E02D80818F7D80830895EF92FF9294
:100420000F931F93CF93DF93EC0181E0888F9B8D17
:100430008C8D981305C0E889F989808185FD23C0DA
:10044000F62E0B8D10E00F5F1F4F0F731127E02E5C
:100450008C8DE8120BC00FB607FCFACFE889F9893A
:10046000808185FFF5CFCE01B8DFF2CF8B8DFE0105
:10047000E80FF11DE35AFF4FF0820B8FEA89FB89E9
:100480008081806207C0EE89FF896083E889F989ED
:1004900080818064808381E090E0DF91CF911F9123
:1004A0000F91FF90EF900895CF93DF93EC01888D2B
:1004B0008823C1F0EA89FB89808185FD05C0A88970
:1004C000B9898C9186FD0EC00FB607FCF5CF8081EF
:1004D00085FFF2CFA889B9898C9185FFEDCFCE0138
:1004E0007CDFE8CFDF91CF91089580E090E0892B09
:1004F00019F06ADF811125C080E090E0892B41F07E
:1005000080E090E0892B21F00E94000081111CC046
:1005100080E090E0892B41F080E090E0892B21F091
:100520000E940000811113C080E090E0892BA1F0AF
:1005300080E090E0892B81F00E94000081110AC0C8
:1005400008950E940000D8CF0E940000E1CF0E94D1
:100550000000EACF0C940000089590E0FC01319770
:10056000E231F10508F04EC08827EE58FF4F8F4F5B
:100570000C948014809180008F7703C0809180005C
:100580008F7D80938000089580918000877FF9CFD0
:1005900084B58F7702C084B58F7D84BD0895809126
:1005A000B0008F7703C08091B0008F7D8093B00042
:1005B0000895809190008F7707C0809190008F7D83
:1005C00003C080919000877F809390000895809170
:1005D000A0008F7707C08091A0008F7D03C080911D
:1005E000A000877F8093A0000895809120018F77DD
:1005F00007C0809120018F7D03C080912001877FFB
:100600008093200108953FB7F8948091B3039091AF
:10061000B403A091B503B091B60326B5A89B05C05D
:100620002F3F19F00196A11DB11D3FBFBA2FA92F71
:10063000982F8827820F911DA11DB11DBC01CD01EE
:1006400042E0660F771F881F991F4A95D1F70895DA
:10065000FC01808191810C947116FC011182108241
:1006600013821282158214826115710549F0FB0113
:1006700001900020E9F73197AF01461B570B0BCED5
:100680000895DC01ED91FC91DB0114964D915C9194
:1006900015976D917C910280F381E02D199461157D
:1006A000710579F0FB0101900020E9F73197AF0166
:1006B000461B570BDC01ED91FC910280F381E02D8C
:1006C000199480E090E008951F920F920FB60F9258
:1006D00011240BB60F922F933F934F935F936F9319
:1006E0007F938F939F93AF93BF93EF93FF9382EC8E
:1006F00093E073DEFF91EF91BF91AF919F918F9146
:100700007F916F915F914F913F912F910F900BBE11
:100710000F900FBE0F901F9018951F920F920FB65B
:100720000F9211240BB60F922F938F939F93EF93F9
:10073000FF93E091D203F091D3038081E091D8033D
:10074000F091D90382FD12C090818091DB038F5F0D
:100750008F732091DC03821751F0E091DB03F0E00E
:10076000EE53FC4F958F8093DB0301C08081FF9196
:10077000EF919F918F912F910F900BBE0F900FBE15
:100780000F901F901895CF93DF93282F30E0F90139
:10079000E45CFE4F8491F901EE57FE4FD491F901CC
:1007A000EE51FE4FC491CC2389F08111D6DEEC2F9F
:1007B000F0E0EE0FFF1FEE5DFE4FA591B491EC91BE
:1007C000ED2381E090E021F480E002C080E090E041
:1007D000DF91CF9108951F93CF93DF93282F30E0BF
:1007E000F901E45CFE4F8491F901EE57FE4FD4917C
:1007F000F901EE51FE4FC491CC23C1F0162F8111A7
:10080000ACDEEC2FF0E0EE0FFF1FE853FE4FA5919A
:10081000B4918FB7F894111105C09C91ED2FE0951C
:10082000E92302C0EC91ED2BEC938FBFDF91CF91C8
:100830001F9108959091120298133DC0E8E2F2E0F2
:10084000E4919FEF90931202E230C9F050F4EE234E
:1008500099F0E13081F590916F009D7F90936F004A
:100860002AC0E43019F1E0F0E53029F590917300E9
:100870009D7F909373001FC010926E001CC09091DA
:1008800070009D7F9093700091E09093B0009091E4
:10089000B100987F94609093B1001092B3000BC0A8
:1008A000909171009D7F9093710005C090917200AE
:1008B0009D7F9093720060E08ECF1F920F920FB6D3
:1008C0000F9211240BB60F922F933F934F935F9388
:1008D0006F937F938F939F93AF93BF93EF93FF9308
:1008E0008091BA039091BB03A091BC03B091BD036A
:1008F000892B8A2B8B2B51F18091B703E091B803A0
:10090000F091B9039081892780838091BA039091F7
:10091000BB03A091BC03B091BD03181619061A06BB
:100920001B06BCF48091BA039091BB03A091BC0359
:10093000B091BD030197A109B1098093BA039093C7
:10094000BB03A093BC03B093BD0303C0809112020C
:1009500071DFFF91EF91BF91AF919F918F917F9147
:100960006F915F914F913F912F910F900BBE0F9020
:100970000FBE0F901F901895CF93DF93EC0160E0AE
:100980008E8129DF61E08E8126DF60E08E8123DFAA
:100990008BE891E00197F1F7DF91CF910895CF9324
:1009A000DF9390E0FC01EE57FE4F2491FC01EE51E5
:1009B000FE4F8491882361F190E0880F991FFC011C
:1009C000E85FFE4FC591D491FC01E853FE4FA5911D
:1009D000B491611109C09FB7F89488812095822352
:1009E0008883EC912E230BC0623061F49FB7F8949A
:1009F0003881822F809583238883EC912E2B2C9332
:100A00009FBF06C08FB7F894E8812E2B28838FBF35
:100A1000DF91CF9108958F929F92AF92BF92CF9224
:100A2000DF92EF92FF926B017C01EDDD4B015C01E7
:100A3000C114D104E104F104E9F0E5DDDC01CB01EE
:100A400088199909AA09BB09883E9340A105B105F7
:100A500078F321E0C21AD108E108F10888EE880E87
:100A600083E0981EA11CB11CC114D104E104F1045F
:100A700021F7DECFFF90EF90DF90CF90BF90AF9047
:100A80009F908F9008952FB7F8946091AF03709165
:100A9000B0038091B1039091B2032FBF08951F92CC
:100AA0000F920FB60F9211242F933F938F939F9322
:100AB000AF93BF938091AF039091B003A091B10326
:100AC000B091B2033091AE0323E0230F2D3720F411
:100AD0000196A11DB11D05C026E8230F0296A11D98
:100AE000B11D2093AE038093AF039093B003A09306
:100AF000B103B093B2038091B3039091B403A0917A
:100B0000B503B091B6030196A11DB11D8093B30347
:100B10009093B403A093B503B093B603BF91AF9184
:100B20009F918F913F912F910F900FBE0F901F902B
:100B30001895CF92DF92EF92FF920F931F93CF936E
:100B4000DF937C016C0187E0C80ED11CC0E0D0E0CF
:100B5000062F10E0B8010C2E02C0759567950A9417
:100B6000E2F76170F60181916F0135DE2196C430A4
:100B7000D10581F7C701DF91CF911F910F91FF90B0
:100B8000EF90DF90CF90F8CECF92DF92EF92FF926E
:100B90000F931F93CF93DF93EC01F62E642F8C817C
:100BA0001ADE8D818F3F11F060E015DE8F850F2DED
:100BB00010E084FF23C06E0187E0C80ED11CE12C39
:100BC000F12CB8010E2C02C0759567950A94E2F7D6
:100BD0006170F60181916F01FEDDFFEFEF1AFF0AF0
:100BE00088E0E816F10469F7CE01DF91CF911F91FB
:100BF0000F91FF90EF90DF90CF90BECEB80184E0D0
:100C0000759567958A95E1F7CE0193DF6F2DCE013B
:100C1000DF91CF911F910F91FF90EF90DF90CF90D8
:100C200088CF41E0B1DF81E090E0089540E0ACCFB3
:100C300061E0FCDF8BE39FE10197F1F70895AF924C
:100C4000BF92CF92DF92EF92FF920F931F93CF93B9
:100C5000DF931F92CDB7DEB75C017B018B016C0186
:100C600084E0C80ED11CF80161918F01C501698330
:100C70000E94B7186981681719F0C5010E94BF1852
:100C8000FFEFAF1ABF0AAC14BD0469F7C7010F909C
:100C9000DF91CF911F910F91FF90EF90DF90CF9058
:100CA000BF90AF9008954F925F926F927F928F9214
:100CB0009F92AF92BF92CF92DF92EF92FF920F93EB
:100CC0001F93CF93DF9382E05EDDEC0180911002F1
:100CD00090911102C817D90749F0D5DE6093AA0395
:100CE0007093AB038093AC039093AD03CCDE009183
:100CF000AA031091AB032091AC033091AD03DC014A
:100D0000CB01801B910BA20BB30B87399105A10579
:100D1000B10558F0B8DE6093AA037093AB038093DB
:100D2000AC039093AD038E0102C001E010E0D093BC
:100D30001102C093100284E026DDEC0180910E02C6
:100D400090910F02C817D90749F09DDE6093A60362
:100D50007093A7038093A8039093A90394DEC09097
:100D6000A603D090A703E090A803F090A903DC01AC
:100D7000CB018C199D09AE09BF0987399105A105E1
:100D8000B10558F080DE6093A6037093A7038093AB
:100D9000A8039093A9037E0103C0EE24E394F12CF1
:100DA000D0930F02C0930E0283E0EDDC6C018091C2
:100DB0000C0290910D02C816D90649F064DE6093CA
:100DC000A2037093A3038093A4039093A5035BDE17
:100DD0008090A2039090A303A090A403B090A503D9
:100DE000DC01CB0188199909AA09BB09873991054A
:100DF000A105B10558F047DE6093A2037093A303E9
:100E00008093A4039093A503E60102C0C1E0D0E063
:100E1000D0920D02C0920C0286E0B5DC5C0180919C
:100E20000A0290910B02A816B90649F02CDE6093D5
:100E30009E0370939F038093A0039093A10323DEEE
:100E400040909E0350909F036090A0037090A10378
:100E5000DC01CB0184199509A609B709853F9140AA
:100E6000A105B10558F00FDE60939E0370939F03B8
:100E70008093A0039093A103650103C0CC24C39485
:100E8000D12CB0920B02A0920A0287E07CDC5C01BC
:100E90008091080290910902A816B90649F0F3DD85
:100EA00060939A0370939B0380939C0390939D039C
:100EB000EADD40909A0350909B0360909C037090F1
:100EC0009D03DC01CB0184199509A609B709853F6B
:100ED0009140A105B10548F0D6DD60939A03709367
:100EE0009B0380939C0390939D03B0920902A09270
:100EF000080288E048DC5C018091060290910702BC
:100F0000A816B90649F0BFDD609396037093970366
:100F10008093980390939903B6DD40909603509088
:100F200097036090980370909903DC01CB018419BA
:100F30009509A609B709853F9140A105B10548F07B
:100F4000A2DD609396037093970380939803909328
:100F50009903B0920702A092060289E014DC4C01CA
:100F600080910402909105028816990649F08BDD64
:100F700060939203709393038093940390939503EB
:100F800082DD4090920350909303609094037090A0
:100F90009503DC01CB0184199509A609B709853FA2
:100FA0009140A105B10558F06EDD609392037093F6
:100FB00093038093940390939503540103C0AA2450
:100FC000A394B12C90920502809204028AE0DBDBAC
:100FD0004C0180910202909103028816990649F013
:100FE00052DD60938E0370938F03809390039093F0
:100FF000910349DD40908E0350908F0360909003E1
:1010000070909103DC01CB0184199509A609B709F9
:10101000853F9140A105B10548F035DD60938E0311
:1010200070938F03809390039093910390920302A7
:10103000809202028BE0A7DB4C018091000290912C
:1010400001028816990649F01EDD60938A037093A9
:101050008B0380938C0390938D0315DD40908A035E
:1010600050908B0360908C0370908D03DC01CB015A
:1010700084199509A609B709853F9140A105B105D5
:1010800048F001DD60938A0370938B0380938C0397
:1010900090938D0390920102809200020115110538
:1010A00081F48091580390915903009711F54AEF0C
:1010B00050E060E070E080ED97E0A6D181E090E044
:1010C00013C0E114F10409F08AC080915803909193
:1010D0005903892BD1F44AEF50E060E070E084E3DB
:1010E00098E092D182E090E090936D0380936C033E
:1010F0007AC0029751F44AEF50E060E070E084E378
:1011000098E082D183E090E0EFCFCD2B81F4809105
:101110006A0390916B03029750F44AEF50E060E04D
:1011200070E084E398E070D185E090E0DDCFEF28B7
:10113000F9F480915803909159038230910551F44C
:101140004AEF50E060E070E084E398E05DD184E035
:1011500090E0CACF049761F44AEF50E060E070E09D
:1011600084E398E051D110926D0310926C033BC060
:10117000012B59F480916C0390916D03833091059C
:1011800009F4A9CF059709F4A6CFCD2889F4809159
:101190005A0390915B039C012F5F3F4F30935B0399
:1011A00020935A03880F991FFC01EC59FC4F12C081
:1011B000AB28C9F480915C0390915D039C012F5F83
:1011C0003F4F30935D0320935C03880F991FFC0110
:1011D000E25AFC4F81E090E09183808304C0CD2BE4
:1011E00009F495CFD2CFDF91CF911F910F91FF904E
:1011F000EF90DF90CF90BF90AF909F908F907F90B7
:101200006F905F904F900895AF92BF92CF92DF9210
:10121000EF92FF920F931F93CF93DF935C017B01BB
:101220006A01C0E0D0E0CC15DD050CF03CC089E8D7
:1012300094E0FEDC62E089E894E040D0B50189E802
:1012400094E01FDA62E370E080E090E0E4DB00E02D
:1012500010E00E151F056CF468E189E894E0E6DC07
:1012600022DD62E370E080E090E0D5DB0F5F1F4F8E
:10127000F0CF00E010E00E151F056CF46CE189E87A
:1012800094E0D4DC10DD62E370E080E090E0C3DB4A
:101290000F5F1F4FF0CF62E370E080E090E0BBDBB8
:1012A00002DD2196C0CFDF91CF911F910F91FF906A
:1012B000EF90DF90CF90BF90AF900895EF92FF92A4
:1012C0000F931F93CF93DF93EC01623018F08F855B
:1012D00088608F876B8B1C8A80E48D8B80E18E8B7E
:1012E00080E58F8B61E08C815ADB8D818F3F11F01F
:1012F00061E055DB61E08E8152DB7E0187E0E80E24
:10130000F11C00E010E08F8584FD03C084E090E0D4
:1013100002C088E090E00817190744F461E0F70183
:1013200081917F013CDB0F5F1F4FEDCF8BE39DE091
:101330000197F1F760E08C814EDA60E08E814BDA44
:101340008D818F3F11F060E046DA6F8564FD19C032
:1013500063E0CE01EEDB0BE416E4C8010197F1F780
:1013600063E0CE01E6DBC8010197F1F763E0CE014F
:10137000E0DB83E592E00197F1F762E0CE01D9DB93
:1013800013C06062CE0152DC8BE496E40197F1F762
:101390006F856062CE014ADC83E592E00197F1F748
:1013A0006F856062CE0142DC6F856062CE013EDCFB
:1013B00084E0888B6CE0CE0139DCCE0139DC82E040
:1013C000898B66E0CE01DF91CF911F910F91FF9045
:1013D000EF902CCC0F931F93CF93DF93CEEBD3E002
:1013E0008C010E5B1340C8018C0F9D1F0E94B71823
:1013F000899383E0C23CD807B1F78EEB93E0DF918D
:10140000CF911F910F9108953F924F925F926F92EB
:101410007F928F929F92AF92BF92CF92DF92EF9284
:10142000FF920F931F93CF93DF9300D01F92CDB7FE
:10143000DEB7209112022C3021F02F3F09F01AC3A1
:1014400004C0E8E2F2E03490EDC02CE020931202F8
:10145000E8E2F2E0E491EF3F09F40CC3E23009F472
:1014600074C054F5EE2309F453C0E13009F0D9C03B
:1014700010928000109281002091810028602093BA
:10148000810020918100216020938100EEEEF1E047
:10149000E491F0E0EE0FFF1FE853FE4F25913491E9
:1014A0003093AC042093AB04EEE8F1E0E491E093D8
:1014B000AA0433243394B8C0E43009F48EC00CF489
:1014C00068C0E53009F0ADC01092200110922101F2
:1014D0002091210128602093210120912101216088
:1014E00020932101EEEEF1E0E491F0E0EE0FFF1F1A
:1014F000E853FE4F259134913093A3042093A20426
:10150000EEE8F1E0E491E093A104B5E03B2E8CC05D
:1015100014BC15BC24B5226024BD25B5216025BDB1
:10152000EEEEF1E0E491F0E0EE0FFF1FE853FE4F26
:10153000259134913093AF042093AE04EEE8F1E0AE
:10154000E491E093AD04312C6FC01092B000109282
:10155000B1002091B00022602093B0002091B10032
:1015600021602093B100EEEEF1E0E491F0E0EE0FA7
:10157000FF1FE853FE4F259134913093B903209318
:10158000B803EEE8F1E0E491E093B703B2E03B2E5C
:101590004BC0109290001092910020919100286011
:1015A0002093910020919100216020939100EEEE14
:1015B000F1E0E491F0E0EE0FFF1FE853FE4F2591BC
:1015C00034913093A9042093A804EEE8F1E0E4916B
:1015D000E093A70433E0332E27C01092A0001092AE
:1015E000A1002091A10028602093A1002091A100DA
:1015F00021602093A100EEEEF1E0E491F0E0EE0F27
:10160000FF1FE853FE4F259134913093A604209399
:10161000A504EEE8F1E0E491E093A40404E0302EA8
:1016200003C03E2E37FC26C22A013B018C0161E03B
:101630008CE0B5D94801A12CB12C832D8D7F09F008
:10164000BBC060E072E18AE790E0A50194010E94CE
:10165000641429833A834B835C8369017A0121E016
:10166000C21AD108E108F1088FEFC816D104E104CD
:10167000F10409F008F44CC060E472E48FE090E0FB
:10168000A50194010E94641469017A0191E0C91ACC
:10169000D108E108F108E2E03E1220C0FFEFCF16CA
:1016A000D104E104F10409F008F4E2C160E970ED4D
:1016B00083E090E0A50194010E94641469017A011D
:1016C00081E0C81AD108E108F1089FEFC916D104DA
:1016D000E104F10409F0D0F583E067C0EFEFCE1626
:1016E000D104E104F104B1F0A8F068E478EE81E0FF
:1016F00090E0A50194010E94641469017A01F1E06F
:10170000CF1AD108E108F108332009F459C1A7C163
:1017100081E001C082E03320A1F047C089819A8135
:10172000AB81BC812AE0B595A795979587952A95B9
:10173000D1F76C017D01F1E0CF1AD108E108F10881
:1017400085E095B5987F892B85BDA6C068E478EEC5
:1017500081E090E0A50194010E94641469017A017E
:1017600081E0C81AD108E108F1089FEFC916D10439
:10177000E104F10409F008F421C164E274EF80E0AF
:1017800090E0A50194010E94641469017A0181E04E
:10179000C81AD108E108F1089FEFC916D104E10485
:1017A000F10411F008F02DC185E09091B100987F0F
:1017B000892B8093B10070C060E072E18AE790E00D
:1017C000A50194010E94641469017A01F1E0CF1A25
:1017D000D108E108F108C114D10421E0E206F104C6
:1017E00088F068E478EE81E090E0A50194010E9421
:1017F000641469017A0181E0C81AD108E108F1088E
:1018000083E001C081E091E0391210C09091810025
:10181000987F892B809381004114510461047104E5
:1018200009F03FC02FEF3FEFA90170C0E3E03E1287
:101830000FC090919100987F892B80939100411463
:1018400051046104710469F52FEF3FEFA90180C0D5
:10185000F4E03F120FC09091A100987F892B8093F4
:10186000A1004114510461047104D9F42FEF3FEF3A
:10187000A90180C025E032120FC090912101987F0C
:10188000892B80932101411451046104710449F4AE
:101890002FEF3FEFA90180C041145104610471048E
:1018A00069F0D801AA0FBB1FA30192010E94CD18B5
:1018B00028EE33E040E050E0E5D703C02FEF3FEFE4
:1018C000A90182E03816A1F1831534F0332079F0B4
:1018D00091E03916D9F0CEC0E4E03E1609F44AC0D2
:1018E0003E16B4F1F5E03F1609F456C0C3C0C7BCBC
:1018F0002093C0043093C1044093C2045093C304A6
:1019000080916E00826080936E00B4C0D092890096
:10191000C09288002093BC043093BD044093BE0461
:101920005093BF0480916F00826080936F00A2C0CB
:10193000C092B3002093BA033093BB034093BC031F
:101940005093BD038091700082608093700092C0BC
:10195000D0929900C09298002093B8043093B904B3
:101960004093BA045093BB048091710082608093CD
:10197000710080C0D092A900C092A8002093B40446
:101980003093B5044093B6045093B704809172002D
:101990008260809372006EC0D0922901C0922801AB
:1019A0002093B0043093B1044093B2045093B30435
:1019B000809173008260809373005CC084E0F5CEF8
:1019C0002FEFC216D104E104F104C9F0C0F062E1C6
:1019D0007AE780E090E0A501940176D769017A0169
:1019E000E1E0CE1AD108E108F108FFEFCF16D104EB
:1019F000E104F10411F008F091CE84E0A2CE83E07E
:101A0000A0CE62E17AE780E090E0A50194015CD786
:101A100069017A0181E0C81AD108E108F1089FEF55
:101A2000C916D104E104F104C1F0B8F089819A81AA
:101A3000AB81BC814AE0B595A795979587954A9566
:101A4000D1F76C017D01E1E0CE1AD108E108F1087F
:101A5000332009F475CE87E0A8CE86E05CCEEFEFA8
:101A6000CE16D104E104F10409F058F684E053CE17
:101A700082E09BCE0F900F900F900F90DF91CF914F
:101A80001F910F91FF90EF90DF90CF90BF90AF909C
:101A90009F908F907F906F905F904F903F900895B0
:101AA000643008F063E090919C04691710F06FEFC8
:101AB000690FE62FF0E0E757FB4F9489682F690F15
:101AC000606889E894E0B2C8BC0189E894E00C94AD
:101AD0004F038F929F92AF92BF920F931F93CF931A
:101AE000DF93CDB7DEB7A1970FB6F894DEBF0FBE78
:101AF000CDBF19A2423008F44AE08E010F5D1F4F9E
:101B0000842E912CA12CB12CA5019401BBD6E62FDB
:101B1000B901CA0101501109EA3014F4E05D01C0B5
:101B2000E95CD801EC93232B242B252B69F7B80112
:101B300089E894E00E944F03A1960FB6F894DEBFA7
:101B40000FBECDBFDF91CF911F910F91BF90AF908E
:101B50009F908F900895CF92DF92EF92FF92CF9354
:101B6000DF936B017C01E0918904F0918A0401907C
:101B7000F081E02D6DE289E894E01995EC0166278B
:101B80007727CB016C197D098E099F094AE0A1DFF7
:101B90008C0F9D1FDF91CF91FF90EF90DF90CF9042
:101BA0000895CF93DF93CDB7DEB764970FB6F8945F
:101BB000DEBF0FBECDBF789484B5826084BD84B58E
:101BC000816084BD85B5826085BD85B5816085BD38
:101BD00080916E00816080936E00109281008091F0
:101BE0008100826080938100809181008160809378
:101BF0008100809180008160809380008091B1009D
:101C000084608093B1008091B00081608093B000C7
:101C10008091910082608093910080919100816019
:101C200080939100809190008160809390008091DA
:101C3000A10082608093A1008091A10081608093C7
:101C4000A1008091A00081608093A000809121017B
:101C50008260809321018091210181608093210124
:101C60008091200181608093200180917A008460BE
:101C700080937A0080917A00826080937A008091CC
:101C80007A00816080937A0080917A0080688093E6
:101C90007A001092C100E091D203F091D30382E068
:101CA0008083E091CE03F091CF031082E091D003C6
:101CB000F091D1038FEC80831092DA03E091D60388
:101CC000F091D70386E08083E091D403F091D503AF
:101CD000808180618083E091D403F091D50380817D
:101CE00088608083E091D403F091D503808180687F
:101CF0008083E091D403F091D50380818F7D808330
:101D000062E082E00E94CF0462E083E00E94CF04A0
:101D100062E084E00E94CF0462E086E00E94CF048B
:101D200062E087E00E94CF0462E088E00E94CF0476
:101D300062E089E00E94CF0462E08AE00E94CF0462
:101D400062E08BE00E94CF0461E08EE00E94CF044D
:101D500061E08DE00E94CF0460E08DE00E94EB0323
:101D600060E08EE00E94EB0382E00E94C303892BB7
:101D7000A9F46CED75E080E090E00E940B058CE327
:101D800090E0A0E0B0E089839A83AB83BC83BE017E
:101D90006F5F7F4F80E090E00E941F0680E090E040
:101DA00019DB8EE190E0A0E0B0E0809370039093A7
:101DB0007103A0937203B093730361E372E0CE01E9
:101DC00001960E942D0341E050E06DE070E0CE01ED
:101DD00001961ADACE0101960E94280362E089E892
:101DE00094E06CDA82E492E06FDE609170037091AF
:101DF0007103809172039091730397FF02C0ABDE71
:101E000002C04AE066DE68EE73E080E090E00E9487
:101E10000B050E94530600916C0310916D03023074
:101E2000110509F447C014F50115110551F10130F0
:101E3000110509F021C289E894E00E94180660E0CB
:101E400080E02EDE8EE692E03FDE10935903009391
:101E5000580310936F0300936E0361E08EE00E94BD
:101E6000EB0310936B0300936A0387C104301105E1
:101E700009F45BC10CF43DC00530110509F484C1BF
:101E8000FBC160E080E00CDE8CE492E01DDE61E0EE
:101E900080E006DE8DE592E017DE10925903109285
:101EA000580310926F0310926E0310926B031092FE
:101EB0006A0363C160E080E0F3DD8FE792E004DE57
:101EC00061E080E0EDDD80E992E0FEDD6091BE033F
:101ED0007091BF038091C0039091C10341E0F9DD8F
:101EE000109359030093580310936F0300936E03EC
:101EF00044C183E090E090935903809358039093FA
:101F00006F0380936E0366E970E080E090E00E94CA
:101F10000B05E3E0F0E0F0936B03E0936A0360E00D
:101F200080E0BEDD8EE992E0CFDD61E080E0B8DDEB
:101F300080E992E0C9DD6091BE037091BF0380919A
:101F4000C0039091C10360937003709371038093F9
:101F500072039093730397FF02C0FDDD02C04AE055
:101F6000B8DD60ED77E080E090E00E940B058091A5
:101F70006C0390916D038330910509F080C00E943D
:101F8000530684E00E94C303892BC9F46AEF70E012
:101F900080E090E00E940B058091700390917103A6
:101FA000A0917203B09173030196A11DB11D80939E
:101FB000700390937103A0937203B093730383E053
:101FC0000E94C303892BC9F46AEF70E080E090E0BF
:101FD0000E940B058091700390917103A091720390
:101FE000B09173030197A109B10980937003909395
:101FF0007103A0937203B093730380917003909167
:102000007103A0917203B091730383369105A1050A
:10201000B10551F489E894E00E94180660E080E080
:102020003FDD8EE992E050DD809170039091710365
:10203000A0917203B09173030997A105B10551F402
:1020400089E894E00E94180660E080E029DD8EE9CE
:1020500092E03ADD61E080E023DD80E992E034DD6A
:10206000609170037091710380917203909173037A
:1020700097FF02C070DD7BCF4AE02BDD78CF05975C
:1020800009F47DCF60E773E080E090E00E941F06D6
:1020900089E894E00E94180680E090E09BD9809146
:1020A000BE039091BF03A091C003B091C103809380
:1020B000700390937103A0937203B093730365E16F
:1020C00073E0CE0101960E942D036FEA72E0CE010B
:1020D00007960E942D0360E080E0E2DCBE01695FAC
:1020E0007F4F89E894E00E944103BE016F5F7F4FFC
:1020F00089E894E00E944103CE0107960E942803DC
:10210000CE0101960E94280360ED77E080E090E028
:102110000E940B0510926B0310926A0382E090E01C
:1021200090936D0380936C03A7C089E894E00E94AC
:10213000180660E080E0B4DC8FEB92E0C5DC61E083
:1021400080E0AEDC80ED92E0BFDC609174037091C2
:102150007503809176039091770397FF02C0FBDCB3
:1021600002C04AE0B6DCE4E0F0E0F0935903E0930B
:102170005803F0936F03E0936E0366E970E080E02C
:1021800090E00E940B0578C010926D0310926C03D2
:1021900083E00E94C303892B41F400916A031091EC
:1021A0006B030115110509F4A1C283E00E94C3036A
:1021B000892B39F480916A0390916B03019709F49C
:1021C000A4C289E894E00E94180660E080E068DC20
:1021D0008EED92E079DC10926B0310926A034CC092
:1021E00080916A0390916B03019709F043C00E94AC
:1021F000530684E693E09A8B898BEDE7F4E0F88B45
:10220000EF8708E713E084E893E09E878D87EEE58B
:10221000F3E0FC8BEB8B212C312CE989FA89E080EF
:10222000F180F1E0EF16F10479F1EB89FC898191FD
:102230009191FC8BEB8B019709F467C0ED85FE85CE
:1022400081919191FE87ED87019709F499C0FFEF85
:102250002F1A3F0A89899A8902969A8B898BEF8572
:10226000F8893496F88BEF870C5F1F4FF3E02F1639
:10227000310499F60E94530680916C0390916D038E
:10228000019709F4ADCF2FC2ED85FE858081918144
:10229000892B59F62091700330917103409172039C
:1022A00050917303A8EEB3E078D7B1D6F8016083FC
:1022B0007183828393830E944305A7D6EF85F889B3
:1022C0006083718382839383ED85FE85F182E08252
:1022D000EB89FC891182108260E080E0E1DB8FEE07
:1022E00092E0F2DB46E950E060E070E086ED96E0D7
:1022F0008BD880915A0390915B03039709F095CF97
:1023000010925B0310925A0390CFED85FE85808179
:102310009181019709F092CFE989FA89118210829F
:10232000ED85FE851182108260E080E0B9DB80E0FF
:1023300093E0CADB46E950E060E070E088E998E0AD
:1023400063D88091740390917503A0917603B09146
:1023500077030196A11DB11D8093740390937503BB
:10236000A0937603B093770380915C0390915D0313
:10237000039709F063CF10925D0310925C035ECF68
:10238000F1E02F16310431F082E02816310429F0F3
:10239000F12C05C096E0F92E02C08BE0F82E0E94C9
:1023A000430533D6EF85F8892081318142815381FD
:1023B000AFD29B01AC01F801608171818281938170
:1023C000A7D2F801608371838283938320E030E099
:1023D0004AE754E402D395D320E030E046EC52E4DF
:1023E00010D6811106C061E08F2D5ADB81E193E0A8
:1023F0006BDB20E030E04AE754E4F8016081718152
:1024000082819381EAD27DD320E030E040E151E443
:10241000F8D5811106C061E08F2D42DB81E193E0A8
:1024200053DB61E08F2D3CDB87E193E04DDB20E067
:1024300030E04AE754E4F801608171818281938140
:10244000CCD26B017C014B015C019B01AC01B0D390
:10245000882319F06AE173E018C026013701E89477
:1024600077F82FEF3FEF4FE75FE7C301B201A0D34B
:10247000811110C02FEF3FEF4FE75FE7C301B201BB
:10248000C0D518163CF46EE173E089E894E00E9430
:102490004F0338C02FEF3FEF4FE75FE4C701B601AE
:1024A00083D318161CF462E273E0EFCF2FEF3FEFF7
:1024B0004FE75FECC701B601A4D587FDF4CF20E05C
:1024C00030E0A901C701B6019CD587FF11C0E0919A
:1024D0008904F0918A040190F081E02D6DE289E891
:1024E00094E0199546015701B7FAB094B7F8B09443
:1024F00020E030E040E05FE3C501B4010AD2D5D26C
:102500004AE0E7DA0E94430580D5EF85F8896083C9
:1025100071838283938320E030E0A901F801608118
:102520007181828193816DD518160CF490CE4FE0A5
:1025300050E066E273E08FE594E00E944B0189E889
:1025400094E00E94180661E08DE00E94EB0360E0D9
:102550008EE00E94EB036FE574E082EC93E00E9452
:10256000410366E373E082EC93E00E944F0369E36A
:1025700073E0CE0101960E942D0342E050E06EE030
:1025800070E0CE0101960E940409CE0101960E94DE
:1025900028031A8219821C821B821E821D8260916E
:1025A0005F04709160046115710541F0409163040E
:1025B00050916404CE0101960E944B0160E080E0DE
:1025C0006FDABE016F5F7F4F89E894E00E9441039C
:1025D000CE0101960E94280369E373E0CE010196C3
:1025E0000E942D0361E080E05BDABE016F5F7F4FE8
:1025F00089E894E00E944103CE0101960E942803DD
:102600004AEF50E060E070E084E398E00E94040A42
:1026100068EC70E080E090E00E940B058CE00E9486
:102620001A0468EC70E080E090E00E940B054AEF2D
:1026300050E060E070E084E398E00E94040A68ECF7
:1026400070E080E090E00E940B058CE00E941A048C
:1026500068EC70E080E090E00E940B054AEF50E0EB
:1026600060E070E080ED97E00E94040A68EC70E0A2
:1026700080E090E00E940B054AEF50E060E070E0DF
:1026800084E398E00E94040A68EC70E080E090E047
:102690000E940B058CE00E941A0468EC70E080E058
:1026A00090E00E940B054AEF50E060E070E084E3A8
:1026B00098E00E94040A68EC70E080E090E00E94DC
:1026C0000B058CE00E941A0468EC70E080E090E05A
:1026D0000E940B054AEF50E060E070E080ED97E06B
:1026E0000E94040AB4CD0E94750293CB6AE473E0A1
:1026F00082EC93E00E944F0366E373E082EC93E088
:102700000E944F03F801199550CD62E573E082EC09
:1027100093E00E944F0366E373E082EC93E00E9433
:102720004F0310926B0310926A0360E08EE00E94E8
:10273000EB0310926D0310926C0366E970E080E089
:1027400090E00E940B053DCD8FE594E00C942803AA
:10275000CF93DF93E2ECF3E01382128288EE93E0F2
:10276000A0E0B0E084839583A683B7838DE192E0F7
:102770009183808385EC90E09587848784EC90E05A
:102780009787868780EC90E0918B808B81EC90E03E
:10279000938B828B82EC90E0958B848B86EC90E01F
:1027A000978B868B118E128E138E148EE9E8F4E0CF
:1027B000138212828DE292E0918380838AE2848385
:1027C0008FEF85838CE2868384E3878382E380872F
:1027D00080E381878EE282871386148615861686AB
:1027E000178661E0CF010E945E090E944305CDE794
:1027F000D4E00BD4688379838A839B830E9443054A
:1028000004D46C837D838E839F830E944305FDD314
:10281000688779878A879B870E944305C1E7D4E050
:10282000F4D3688379838A839B830E944305EDD325
:102830006C837D838E839F830E944305E6D36887E4
:1028400079878A879B870E944305C5E6D4E0DDD35C
:10285000688379838A839B830E944305D6D36C83E4
:102860007D838E839F830E944305CFD368877987BA
:102870008A879B8768E373E08FE594E0DF91CF91CF
:102880000C942D03A1E21A2EAA1BBB1BFD010DC047
:10289000AA1FBB1FEE1FFF1FA217B307E407F50710
:1028A00020F0A21BB30BE40BF50B661F771F881FEC
:1028B000991F1A9469F760957095809590959B0182
:1028C000AC01BD01CF010895052E97FB16F40094CD
:1028D0000FD057FD05D0D6DF07FC02D046F408C064
:1028E00050954095309521953F4F4F4F5F4F08953C
:1028F00090958095709561957F4F8F4F9F4F08956C
:10290000EE0FFF1F881F8BBF0790F691E02D1994E3
:102910005058BB27AA270ED0F0C3E1D330F0E6D33E
:1029200020F031F49F3F11F41EF4D6C30EF4E0956D
:10293000E7FBCCC3E92FF2D380F3BA176207730722
:102940008407950718F071F49EF50AC40EF4E0951B
:102950000B2EBA2FA02D0B01B90190010C01CA0159
:10296000A0011124FF27591B99F0593F50F4503E04
:1029700068F11A16F040A22F232F342F4427585FF6
:10298000F3CF469537952795A795F0405395C9F70E
:102990007EF41F16BA0B620B730B840BBAF09150C6
:1029A000A1F0FF0FBB1F661F771F881FC2F70EC065
:1029B000BA0F621F731F841F48F487957795679538
:1029C000B795F7959E3F08F0B3CF9395880F08F021
:1029D0009927EE0F9795879508950CD08EC386D3CF
:1029E00040F07DD330F021F45F3F19F06FC35111F7
:1029F000B8C372C393D398F39923C9F35523B1F3A2
:102A0000951B550BBB27AA2762177307840738F05D
:102A10009F5F5F4F220F331F441FAA1FA9F333D0BC
:102A20000E2E3AF0E0E830D091505040E695001C70
:102A3000CAF729D0FE2F27D0660F771F881FBB1F2C
:102A4000261737074807AB07B0E809F0BB0B802D06
:102A5000BF01FF2793585F4F2AF09E3F510568F052
:102A600035C37FC35F3FECF3983EDCF386957795E3
:102A70006795B795F7959F5FC9F7880F911D969554
:102A8000879597F90895E1E0660F771F881FBB1FB0
:102A9000621773078407BA0720F0621B730B840B5D
:102AA000BA0BEE1F88F7E095089540D388F09F5742
:102AB00090F0B92F9927B751A0F0D1F0660F771F8A
:102AC000881F991F1AF0BA95C9F712C0B13081F06A
:102AD00047D3B1E0089544C3672F782F8827B85FA4
:102AE00039F0B93FCCF3869577956795B395D9F7CB
:102AF0003EF490958095709561957F4F8F4F9F4FD5
:102B000008953BD080F09F3740F491110EF029C317
:102B100060E070E080E89FEB089526F41B16611DCD
:102B2000711D811D01C01BC0882371F4772321F022
:102B30009850872B762F07C0662311F499270DC074
:102B40009051862B70E060E02AF09A95660F771F0F
:102B5000881FDAF7880F9695879597F908959F3F14
:102B600031F0915020F4879577956795B795880F48
:102B7000911D9695879597F90895D8D2A0F0BEE754
:102B8000B91788F4BB279F3860F41616B11D672F5C
:102B9000782F8827985FF7CF869577956795B11D31
:102BA00093959639C8F308956DD208F48FEF089580
:102BB00069D2880B990B0895CF93DF9382309105EA
:102BC00010F482E090E0E091C604F091C70420E0A8
:102BD00030E0C0E0D0E0309711F1408151814817DA
:102BE0005907C0F04817590761F4828193812097F3
:102BF00019F09B838A832BC09093C7048093C604EB
:102C000026C02115310519F04217530718F49A010F
:102C1000BE01DF01EF010280F381E02DDCCF211541
:102C2000310509F1281B390B2430310590F4129637
:102C30008D919C9113976115710521F0FB01938390
:102C4000828304C09093C7048093C604FD0132962A
:102C500044C0FD01E20FF31F81939193225031098B
:102C60002D933C933AC02091C4043091C504232B8A
:102C700041F420911502309116023093C50420933F
:102C8000C40420911302309114022115310541F43E
:102C90002DB73EB74091170250911802241B350BF7
:102CA000E091C404F091C504E217F307A0F42E1BD1
:102CB0003F0B2817390778F0AC014E5F5F4F2417A0
:102CC000350748F04E0F5F1F5093C5044093C4046E
:102CD0008193919302C0E0E0F0E0CF01DF91CF91CA
:102CE00008950F931F93CF93DF93009709F48CC03F
:102CF000FC013297138212820091C6041091C7041E
:102D00000115110581F420813181820F931F2091DB
:102D1000C4043091C5042817390779F5F093C50428
:102D2000E093C40471C0D80140E050E0AE17BF0783
:102D300050F412962D913C911397AD012115310558
:102D400009F1D901F3CF9D01DA0133832283608138
:102D50007181860F971F8217930769F4EC01288110
:102D60003981260F371F2E5F3F4F318320838A81A1
:102D70009B8193838283452B29F4F093C704E093CE
:102D8000C60442C01396FC93EE931297ED0149914D
:102D900059919E01240F351FE217F30771F48081CA
:102DA0009181840F951F029611969C938E93828138
:102DB000938113969C938E931297E0E0F0E0D801F4
:102DC00012968D919C911397009719F0F8018C0140
:102DD000F6CF8D919C9198012E5F3F4F820F931FEC
:102DE0002091C4043091C5042817390769F430973D
:102DF00029F41092C7041092C60402C013821282F2
:102E00001093C5040093C404DF91CF911F910F91DB
:102E100008956F927F928F929F92AF92BF92CF92BE
:102E2000DF92EF92FF920F931F93CF93DF93EC010A
:102E3000009781F4CB01DF91CF911F910F91FF900B
:102E4000EF90DF90CF90BF90AF909F908F907F904A
:102E50006F90B2CEFC01E60FF71F9C0122503109A2
:102E6000E217F30708F4A8C0D9010D911C9111973E
:102E700006171707A8F00530110508F49BC0C80114
:102E800004978617970708F495C002501109061B8E
:102E9000170B019311936D937C93CF0122DF8AC0AE
:102EA0005B01A01AB10A4C01800E911EA091C604CC
:102EB000B091C70440E050E0E12CF12C109709F4E8
:102EC0004AC0A815B905D1F56D907C9011976301A2
:102ED00082E0C80ED11CCA14DB0480F1A3014A1998
:102EE0005B096A0182E0C80ED11C1296BC90129751
:102EF0001396AC91B5E0CB16D10440F0B282A38317
:102F000051834083D9016D937C930AC00E5F1F4F9C
:102F1000C301800F911FF90191838083EB2DFA2F5C
:102F2000E114F10431F0D7011396FC93EE9312975C
:102F300041C0F093C704E093C6043CC08D919C91BE
:102F400011974817590708F4AC017D0112960D90AE
:102F5000BC91A02DB3CF8091C4049091C504881575
:102F60009905E1F446175707C8F480911302909130
:102F70001402009741F48DB79EB74091170250910B
:102F80001802841B950BE817F907B0F4F093C504F9
:102F9000E093C404F901718360830CC0CB010CDEA3
:102FA0007C01009749F0A801BE011BD0CE0199DE3B
:102FB000C70104C0CE0102C080E090E0DF91CF9154
:102FC0001F910F91FF90EF90DF90CF90BF90AF9047
:102FD0009F908F907F906F90089581E090E0F8949B
:102FE000F5C0FB01DC0102C001900D924150504040
:102FF000D8F70895FB01DC0101900D920020E1F764
:10300000089540D008F481E00895E89409C097FB42
:103010003EF490958095709561957F4F8F4F9F4FAF
:103020009923A9F0F92F96E9BB279395F6958795F3
:1030300077956795B795F111F8CFFAF4BB0F11F4B6
:1030400060FF1BC06F5F7F4F8F4F9F4F16C088235D
:1030500011F096E911C0772321F09EE8872F762F93
:1030600005C0662371F096E8862F70E060E02AF0D4
:103070009A95660F771F881FDAF7880F96958795C0
:1030800097F90895990F0008550FAA0BE0E8FEEF95
:1030900016161706E807F907C0F012161306E4071C
:1030A000F50798F0621B730B840B950B39F40A2615
:1030B00061F0232B242B252B21F408950A2609F4F3
:1030C000A140A6958FEF811D811D089597F99F67F7
:1030D00080E870E060E008959FEF80EC08950024A0
:1030E0000A941616170618060906089500240A946D
:1030F00012161306140605060895092E0394000CF3
:1031000011F4882352F0BB0F40F4BF2B11F460FF81
:1031100004C06F5F7F4F8F4F9F4F089557FD9058AA
:10312000440F551F59F05F3F71F04795880F97FB8B
:10313000991F61F09F3F79F0879508951216130645
:103140001406551FF2CF4695F1DF08C01616170674
:103150001806991FF1CF86957105610508940895A9
:10316000E894BB2766277727CB0197F90895F9994B
:10317000FECF92BD81BDF89A992780B50895262F7C
:10318000F999FECF1FBA92BD81BD20BD0FB6F8944C
:10319000FA9AF99A0FBE0196089509D0A59F900D4D
:1031A000B49F900DA49F800D911D11240895A29F9E
:1031B000B001B39FC001A39F700D811D1124911D0B
:1031C000B29F700D811D1124911D089511E0C6E17B
:1031D000D1E000E005C0802FFE0192DB2196011DA9
:0E31E000C731D10780E00807B1F7F894FFCFA0
:1031EE0001000100010001000100010001000100C9
:1031FE000100FF0000C8048000000000000E028BDA
:10320E0001D801B601CA0154020000000011068B5C
:10321E00015374617274696E67207570202E2E2EA4
:10322E002E0054696D65204F75743D003C3C3C206A
:10323E004F46464C494E45203E3E3E200020454ED0
:10324E0054455220546F20535441525420003C3C5C
:10325E003C204F4E2D4C494E45203E3E3E200045D3
:10326E004E54455220544F204348414E474521006D
:10327E0054696D65204F7574205365633D00484950
:10328E00542020454E5420746F2053415645005310
:10329E00657474696E6773205361766564210020CE
:1032AE004672616D652020436F756E7465722000E5
:1032BE004E6F206F66204672616D65203D0053543F
:1032CE004F50202041435449564154454421003C1F
:1032DE003C53454E534F522031205345543E3E00F1
:1032EE003C3C53454E534F522031205253543E3E98
:1032FE0000313D20202000313D006E616E00696E70
:10330E0066006F766600204572726F72204672619B
:10331E006D65203120000D0A00203C3C3C204552BA
:10332E00524F52203E3E3E2020005265736574205F
:08333E00300053746F700000B1
:00000001FF
